{
  "contractName": "Charity",
  "abi": [
    {
      "anonymous": false,
      "inputs": [
        {
          "indexed": true,
          "internalType": "address",
          "name": "previousOwner",
          "type": "address"
        },
        {
          "indexed": true,
          "internalType": "address",
          "name": "newOwner",
          "type": "address"
        }
      ],
      "name": "OwnershipTransferred",
      "type": "event"
    },
    {
      "anonymous": false,
      "inputs": [
        {
          "indexed": false,
          "internalType": "uint256",
          "name": "id",
          "type": "uint256"
        },
        {
          "indexed": false,
          "internalType": "string",
          "name": "CampaignName",
          "type": "string"
        },
        {
          "indexed": false,
          "internalType": "address",
          "name": "Raiser",
          "type": "address"
        }
      ],
      "name": "logAddedCampaign",
      "type": "event"
    },
    {
      "anonymous": false,
      "inputs": [
        {
          "indexed": false,
          "internalType": "address",
          "name": "donater",
          "type": "address"
        },
        {
          "indexed": false,
          "internalType": "uint256",
          "name": "amt",
          "type": "uint256"
        },
        {
          "indexed": false,
          "internalType": "uint256",
          "name": "Raised",
          "type": "uint256"
        }
      ],
      "name": "logDonated",
      "type": "event"
    },
    {
      "inputs": [
        {
          "internalType": "uint256",
          "name": "",
          "type": "uint256"
        }
      ],
      "name": "Campaigns",
      "outputs": [
        {
          "internalType": "string",
          "name": "name",
          "type": "string"
        },
        {
          "internalType": "uint256",
          "name": "donUnit",
          "type": "uint256"
        },
        {
          "internalType": "uint256",
          "name": "id",
          "type": "uint256"
        },
        {
          "internalType": "address",
          "name": "Raiser",
          "type": "address"
        },
        {
          "internalType": "uint256",
          "name": "RaisedAmt",
          "type": "uint256"
        },
        {
          "internalType": "uint256",
          "name": "goal",
          "type": "uint256"
        },
        {
          "internalType": "enum Project.State",
          "name": "state",
          "type": "uint8"
        },
        {
          "internalType": "uint256",
          "name": "timestamp",
          "type": "uint256"
        },
        {
          "internalType": "uint256",
          "name": "deadline",
          "type": "uint256"
        },
        {
          "internalType": "string",
          "name": "description",
          "type": "string"
        }
      ],
      "stateMutability": "view",
      "type": "function",
      "constant": true
    },
    {
      "inputs": [
        {
          "internalType": "uint256",
          "name": "",
          "type": "uint256"
        }
      ],
      "name": "IDList",
      "outputs": [
        {
          "internalType": "uint256",
          "name": "",
          "type": "uint256"
        }
      ],
      "stateMutability": "view",
      "type": "function",
      "constant": true
    },
    {
      "inputs": [],
      "name": "campaignCount",
      "outputs": [
        {
          "internalType": "uint256",
          "name": "",
          "type": "uint256"
        }
      ],
      "stateMutability": "view",
      "type": "function",
      "constant": true
    },
    {
      "inputs": [],
      "name": "owner",
      "outputs": [
        {
          "internalType": "address",
          "name": "",
          "type": "address"
        }
      ],
      "stateMutability": "view",
      "type": "function",
      "constant": true
    },
    {
      "inputs": [],
      "name": "renounceOwnership",
      "outputs": [],
      "stateMutability": "nonpayable",
      "type": "function"
    },
    {
      "inputs": [
        {
          "internalType": "address",
          "name": "newOwner",
          "type": "address"
        }
      ],
      "name": "transferOwnership",
      "outputs": [],
      "stateMutability": "nonpayable",
      "type": "function"
    },
    {
      "inputs": [
        {
          "internalType": "string",
          "name": "_name",
          "type": "string"
        },
        {
          "internalType": "string",
          "name": "_description",
          "type": "string"
        },
        {
          "internalType": "uint256",
          "name": "_goal",
          "type": "uint256"
        },
        {
          "internalType": "uint256",
          "name": "_donUnit",
          "type": "uint256"
        }
      ],
      "name": "AddCampaign",
      "outputs": [],
      "stateMutability": "nonpayable",
      "type": "function"
    },
    {
      "inputs": [
        {
          "internalType": "uint256",
          "name": "_id",
          "type": "uint256"
        }
      ],
      "name": "Donate",
      "outputs": [],
      "stateMutability": "payable",
      "type": "function",
      "payable": true
    },
    {
      "inputs": [
        {
          "internalType": "uint256",
          "name": "_id",
          "type": "uint256"
        }
      ],
      "name": "claimFunds",
      "outputs": [],
      "stateMutability": "nonpayable",
      "type": "function"
    },
    {
      "inputs": [
        {
          "internalType": "uint256",
          "name": "_id",
          "type": "uint256"
        }
      ],
      "name": "getRaisedAmt",
      "outputs": [
        {
          "internalType": "uint256",
          "name": "",
          "type": "uint256"
        }
      ],
      "stateMutability": "view",
      "type": "function",
      "constant": true
    },
    {
      "inputs": [],
      "name": "retcount",
      "outputs": [
        {
          "internalType": "uint256",
          "name": "",
          "type": "uint256"
        }
      ],
      "stateMutability": "view",
      "type": "function",
      "constant": true
    }
  ],
  "bytecode": "0x6080604052600060035534801561001557600080fd5b5061003261002761003760201b60201c565b61003f60201b60201c565b610103565b600033905090565b60008060009054906101000a900473ffffffffffffffffffffffffffffffffffffffff169050816000806101000a81548173ffffffffffffffffffffffffffffffffffffffff021916908373ffffffffffffffffffffffffffffffffffffffff1602179055508173ffffffffffffffffffffffffffffffffffffffff168173ffffffffffffffffffffffffffffffffffffffff167f8be0079c531659141344cd1fd0a4f28419497f9722a3daafe3b4186f6b6457e060405160405180910390a35050565b6118db806101126000396000f3fe60806040526004361061009c5760003560e01c80637274e30d116100645780637274e30d146101805780638130272e146101ab5780638da5cb5b146101d6578063cd12752814610201578063f2fde38b1461023e578063f6624f1e146102675761009c565b80631b55e338146100a15780631ddad1a2146100ca57806333ac2627146101075780634013be1014610123578063715018a614610169575b600080fd5b3480156100ad57600080fd5b506100c860048036038101906100c39190611089565b610290565b005b3480156100d657600080fd5b506100f160048036038101906100ec9190611089565b610467565b6040516100fe9190611580565b60405180910390f35b610121600480360381019061011c9190611089565b610487565b005b34801561012f57600080fd5b5061014a60048036038101906101459190611089565b61069a565b6040516101609a999897969594939291906113f6565b60405180910390f35b34801561017557600080fd5b5061017e61082b565b005b34801561018c57600080fd5b506101956108b3565b6040516101a29190611580565b60405180910390f35b3480156101b757600080fd5b506101c06108b9565b6040516101cd9190611580565b60405180910390f35b3480156101e257600080fd5b506101eb6108c3565b6040516101f891906113a4565b60405180910390f35b34801561020d57600080fd5b5061022860048036038101906102239190611089565b6108ec565b6040516102359190611580565b60405180910390f35b34801561024a57600080fd5b5061026560048036038101906102609190610fcd565b610910565b005b34801561027357600080fd5b5061028e60048036038101906102899190610ff6565b610a08565b005b6002600082815260200190815260200160002060030160009054906101000a900473ffffffffffffffffffffffffffffffffffffffff1673ffffffffffffffffffffffffffffffffffffffff163373ffffffffffffffffffffffffffffffffffffffff1614610334576040517f08c379a000000000000000000000000000000000000000000000000000000000815260040161032b90611540565b60405180910390fd5b60026000828152602001908152602001600020600501546002600083815260200190815260200160002060040154146103a2576040517f08c379a0000000000000000000000000000000000000000000000000000000008152600401610399906114e0565b60405180910390fd5b60006002600083815260200190815260200160002060060160006101000a81548160ff02191690836001811115610402577f4e487b7100000000000000000000000000000000000000000000000000000000600052602160045260246000fd5b02179055503373ffffffffffffffffffffffffffffffffffffffff166108fc60026000848152602001908152602001600020600401549081150290604051600060405180830381858888f19350505050158015610463573d6000803e3d6000fd5b5050565b600060026000838152602001908152602001600020600401549050919050565b806001808111156104c1577f4e487b7100000000000000000000000000000000000000000000000000000000600052602160045260246000fd5b6002600083815260200190815260200160002060060160009054906101000a900460ff16600181111561051d577f4e487b7100000000000000000000000000000000000000000000000000000000600052602160045260246000fd5b1461055d576040517f08c379a000000000000000000000000000000000000000000000000000000000815260040161055490611520565b60405180910390fd5b6002600083815260200190815260200160002060010154341461057f57600080fd5b346002600084815260200190815260200160002060040160008282546105a5919061166b565b9250508190555060026000838152602001908152602001600020600501546002600084815260200190815260200160002060040154106106455760006002600084815260200190815260200160002060060160006101000a81548160ff0219169083600181111561063f577f4e487b7100000000000000000000000000000000000000000000000000000000600052602160045260246000fd5b02179055505b7f3a2757838e2d74056113014fef8487fb5a5a2ab2e9c777a72c77e892cb86131c3334600260008681526020019081526020016000206004015460405161068e939291906113bf565b60405180910390a15050565b60026020528060005260406000206000915090508060000180546106bd90611764565b80601f01602080910402602001604051908101604052809291908181526020018280546106e990611764565b80156107365780601f1061070b57610100808354040283529160200191610736565b820191906000526020600020905b81548152906001019060200180831161071957829003601f168201915b5050505050908060010154908060020154908060030160009054906101000a900473ffffffffffffffffffffffffffffffffffffffff16908060040154908060050154908060060160009054906101000a900460ff16908060070154908060080154908060090180546107a890611764565b80601f01602080910402602001604051908101604052809291908181526020018280546107d490611764565b80156108215780601f106107f657610100808354040283529160200191610821565b820191906000526020600020905b81548152906001019060200180831161080457829003601f168201915b505050505090508a565b610833610dcc565b73ffffffffffffffffffffffffffffffffffffffff166108516108c3565b73ffffffffffffffffffffffffffffffffffffffff16146108a7576040517f08c379a000000000000000000000000000000000000000000000000000000000815260040161089e90611500565b60405180910390fd5b6108b16000610dd4565b565b60035481565b6000600354905090565b60008060009054906101000a900473ffffffffffffffffffffffffffffffffffffffff16905090565b600181815481106108fc57600080fd5b906000526020600020016000915090505481565b610918610dcc565b73ffffffffffffffffffffffffffffffffffffffff166109366108c3565b73ffffffffffffffffffffffffffffffffffffffff161461098c576040517f08c379a000000000000000000000000000000000000000000000000000000000815260040161098390611500565b60405180910390fd5b600073ffffffffffffffffffffffffffffffffffffffff168173ffffffffffffffffffffffffffffffffffffffff1614156109fc576040517f08c379a00000000000000000000000000000000000000000000000000000000081526004016109f3906114c0565b60405180910390fd5b610a0581610dd4565b50565b610a10610dcc565b73ffffffffffffffffffffffffffffffffffffffff16610a2e6108c3565b73ffffffffffffffffffffffffffffffffffffffff1614610a84576040517f08c379a0000000000000000000000000000000000000000000000000000000008152600401610a7b90611500565b60405180910390fd5b6000845111610ac8576040517f08c379a0000000000000000000000000000000000000000000000000000000008152600401610abf90611560565b60405180910390fd5b60008211610b0b576040517f08c379a0000000000000000000000000000000000000000000000000000000008152600401610b02906114a0565b60405180910390fd5b60006001600354610b1c919061166b565b90506001819080600181540180825580915050600190039060005260206000200160009091909190915055604051806101400160405280868152602001838152602001828152602001610b6d6108c3565b73ffffffffffffffffffffffffffffffffffffffff16815260200160008152602001848152602001600180811115610bce577f4e487b7100000000000000000000000000000000000000000000000000000000600052602160045260246000fd5b81526020014281526020016000815260200185815250600260008381526020019081526020016000206000820151816000019080519060200190610c13929190610e98565b50602082015181600101556040820151816002015560608201518160030160006101000a81548173ffffffffffffffffffffffffffffffffffffffff021916908373ffffffffffffffffffffffffffffffffffffffff1602179055506080820151816004015560a0820151816005015560c08201518160060160006101000a81548160ff02191690836001811115610cd4577f4e487b7100000000000000000000000000000000000000000000000000000000600052602160045260246000fd5b021790555060e082015181600701556101008201518160080155610120820151816009019080519060200190610d0b929190610e98565b509050507fb14417f2fe5b1caeb934cc8c9782d96e9cea6b9cf86745b386aad755a785e1f66002600083815260200190815260200160002060020154600260008481526020019081526020016000206000016002600085815260200190815260200160002060030160009054906101000a900473ffffffffffffffffffffffffffffffffffffffff16604051610da39392919061159b565b60405180910390a1600160036000828254610dbe919061166b565b925050819055505050505050565b600033905090565b60008060009054906101000a900473ffffffffffffffffffffffffffffffffffffffff169050816000806101000a81548173ffffffffffffffffffffffffffffffffffffffff021916908373ffffffffffffffffffffffffffffffffffffffff1602179055508173ffffffffffffffffffffffffffffffffffffffff168173ffffffffffffffffffffffffffffffffffffffff167f8be0079c531659141344cd1fd0a4f28419497f9722a3daafe3b4186f6b6457e060405160405180910390a35050565b828054610ea490611764565b90600052602060002090601f016020900481019282610ec65760008555610f0d565b82601f10610edf57805160ff1916838001178555610f0d565b82800160010185558215610f0d579182015b82811115610f0c578251825591602001919060010190610ef1565b5b509050610f1a9190610f1e565b5090565b5b80821115610f37576000816000905550600101610f1f565b5090565b6000610f4e610f498461160a565b6115d9565b905082815260208101848484011115610f6657600080fd5b610f71848285611722565b509392505050565b600081359050610f8881611877565b92915050565b600082601f830112610f9f57600080fd5b8135610faf848260208601610f3b565b91505092915050565b600081359050610fc78161188e565b92915050565b600060208284031215610fdf57600080fd5b6000610fed84828501610f79565b91505092915050565b6000806000806080858703121561100c57600080fd5b600085013567ffffffffffffffff81111561102657600080fd5b61103287828801610f8e565b945050602085013567ffffffffffffffff81111561104f57600080fd5b61105b87828801610f8e565b935050604061106c87828801610fb8565b925050606061107d87828801610fb8565b91505092959194509250565b60006020828403121561109b57600080fd5b60006110a984828501610fb8565b91505092915050565b6110bb816116c1565b82525050565b6110ca81611710565b82525050565b60006110db8261164f565b6110e5818561165a565b93506110f5818560208601611731565b6110fe81611852565b840191505092915050565b6000815461111681611764565b611120818661165a565b9450600182166000811461113b576001811461114d57611180565b60ff1983168652602086019350611180565b6111568561163a565b60005b8381101561117857815481890152600182019150602081019050611159565b808801955050505b50505092915050565b600061119660158361165a565b91507f20676f616c2063616e6e6f7420626520302065746800000000000000000000006000830152602082019050919050565b60006111d660268361165a565b91507f4f776e61626c653a206e6577206f776e657220697320746865207a65726f206160008301527f64647265737300000000000000000000000000000000000000000000000000006020830152604082019050919050565b600061123c601c8361165a565b91507f736f7272792063616d706169676e2069736e74206f76657220796574000000006000830152602082019050919050565b600061127c60208361165a565b91507f4f776e61626c653a2063616c6c6572206973206e6f7420746865206f776e65726000830152602082019050919050565b60006112bc601d8361165a565b91507f546869732043616d706169676e20686173206265656e20636c6f7365640000006000830152602082019050919050565b60006112fc602b8361165a565b91507f596f7520646f6e277420686176652074686520726967687420746f20636c616960008301527f6d207468652066756e64730000000000000000000000000000000000000000006020830152604082019050919050565b600061136260148361165a565b91507f6e616d652063616e6e6f7420626520656d7074790000000000000000000000006000830152602082019050919050565b61139e81611706565b82525050565b60006020820190506113b960008301846110b2565b92915050565b60006060820190506113d460008301866110b2565b6113e16020830185611395565b6113ee6040830184611395565b949350505050565b6000610140820190508181036000830152611411818d6110d0565b9050611420602083018c611395565b61142d604083018b611395565b61143a606083018a6110b2565b6114476080830189611395565b61145460a0830188611395565b61146160c08301876110c1565b61146e60e0830186611395565b61147c610100830185611395565b81810361012083015261148f81846110d0565b90509b9a5050505050505050505050565b600060208201905081810360008301526114b981611189565b9050919050565b600060208201905081810360008301526114d9816111c9565b9050919050565b600060208201905081810360008301526114f98161122f565b9050919050565b600060208201905081810360008301526115198161126f565b9050919050565b60006020820190508181036000830152611539816112af565b9050919050565b60006020820190508181036000830152611559816112ef565b9050919050565b6000602082019050818103600083015261157981611355565b9050919050565b60006020820190506115956000830184611395565b92915050565b60006060820190506115b06000830186611395565b81810360208301526115c28185611109565b90506115d160408301846110b2565b949350505050565b6000604051905081810181811067ffffffffffffffff82111715611600576115ff611823565b5b8060405250919050565b600067ffffffffffffffff82111561162557611624611823565b5b601f19601f8301169050602081019050919050565b60008190508160005260206000209050919050565b600081519050919050565b600082825260208201905092915050565b600061167682611706565b915061168183611706565b9250827fffffffffffffffffffffffffffffffffffffffffffffffffffffffffffffffff038211156116b6576116b5611796565b5b828201905092915050565b60006116cc826116e6565b9050919050565b60008190506116e182611863565b919050565b600073ffffffffffffffffffffffffffffffffffffffff82169050919050565b6000819050919050565b600061171b826116d3565b9050919050565b82818337600083830152505050565b60005b8381101561174f578082015181840152602081019050611734565b8381111561175e576000848401525b50505050565b6000600282049050600182168061177c57607f821691505b602082108114156117905761178f6117f4565b5b50919050565b7f4e487b7100000000000000000000000000000000000000000000000000000000600052601160045260246000fd5b7f4e487b7100000000000000000000000000000000000000000000000000000000600052602160045260246000fd5b7f4e487b7100000000000000000000000000000000000000000000000000000000600052602260045260246000fd5b7f4e487b7100000000000000000000000000000000000000000000000000000000600052604160045260246000fd5b6000601f19601f8301169050919050565b60028110611874576118736117c5565b5b50565b611880816116c1565b811461188b57600080fd5b50565b61189781611706565b81146118a257600080fd5b5056fea2646970667358221220462634f65625887e9f933569af77f37be85808b00bda268820c34c9961bd08b964736f6c63430008000033",
  "immutableReferences": {},
  "source": "pragma solidity 0.8.0;\nimport \"@openzeppelin/contracts/access/Ownable.sol\";\n\n/// @title  Crowdfunding  & Charity collection Platform\n/// @author Kareem Kassab\n/// @notice this is a project to allow for launching crowdfunding campaigns for projects, and can be extended to collect charity donations\n/// @dev All function calls are currently implemented without side effects\n\n\n\n/// @dev abstract class for charity and crowdfunding contracts to inherit from\ninterface Project{\n    enum State {Closed, Ongoing}\n    function Donate(uint _id) external payable;\n}\n\n\n/// @title The charity contract\n/// @notice Allows us to add campaigns, donate, and collect the raised funds\n/// @dev has 3 main functions named AddCampaign, Donate, and claimFunds\ncontract Charity is Project, Ownable{\n    \n    /// @dev stores all campaign parameters that will be filled using AddCampagin and be accessed later\n    struct Campaign {\n        string name;\n        uint donUnit;\n        uint id;\n        address Raiser;\n        uint RaisedAmt;\n        uint256 goal;\n        State state;\n        uint timestamp;\n        uint256 deadline;\n        string description;\n        /*uint duration; \n        string InfoUrl;\n        string ImgUrl;*/\n    }\n    \n    /// @dev array of IDs of campaings that correspond to their campaign IDs as well\n    uint[] public IDList;\n\n    /// @dev mapping of campaign structs to their Ids\n    mapping (uint => Campaign) public Campaigns;\n\n    /// @dev integer counter that will be incremented once we add new campaings and used to assign them IDs\n    uint public campaignCount= 0;\n\n\n/// @notice Displays some campaign data after it is being added to make sure it was stored correctly\n/// @dev emitted when we call AddCampaign to emit the id, name, and the address of the one who added the campaign\nevent logAddedCampaign(uint  id, string  CampaignName, address  Raiser);\n\n\n/// @notice Displays some info about a donation once it happended\n/// @dev emitted when we call Donate() to emit the address of donater, amount donated, and the Raised amount until now\nevent logDonated(address donater, uint amt, uint Raised);\n\n\n/*\nmodifiers\n*/    \n\n/// @dev vlidate that the campaign is in an Ongoing state to accept donations\nmodifier isOngoing (uint id){\nrequire (Campaigns[id].state== State.Ongoing , \"This Campaign has been closed\");\n    _;\n}\n\n/*\nfunctions\n*/\n\n/// @dev function that adds a new campaign to the mapping after taking the required parameters from the Raiser, uses owner() to eb the Raiser\n/// Note The commented lines can be used to extend code functionality\n\nfunction AddCampaign(string memory _name, string memory _description, uint _goal, uint _donUnit) public onlyOwner{\n    //, uint _duration, string memory _InfoUrl, string memory _ImgUrl\n    require(bytes(_name).length>0, \"name cannot be empty\");\n    require(_goal>0, \" goal cannot be 0 eth\");\n//require(_duration>0, \" duration cannot be 0 days\");\n\n    uint newID= campaignCount + 1;\n    \n    //newCampaign.deadline= block.timestamp + (_duration * 1 days);\n    IDList.push(newID);\n    Campaigns[newID] = Campaign(_name, _donUnit, newID, owner(), 0, _goal, State.Ongoing, block.timestamp, 0, _description);\n\n    emit logAddedCampaign(Campaigns[newID].id, Campaigns[newID].name, Campaigns[newID].Raiser);\n    campaignCount+= 1;\n}\n\n/// @dev checks that the raised amount isnt equal to the goal (closes campaign if it is), checks that the sent amount is equal to the donated amount, increases the raised amount for the campaign.\n    \n    function  Donate (uint _id) external  payable override isOngoing(_id){\n        require(msg.value== Campaigns[_id].donUnit);\n        Campaigns[_id].RaisedAmt += msg.value;\n\n        if(Campaigns[_id].RaisedAmt>=Campaigns[_id].goal){\n            Campaigns[_id].state= State.Closed;\n        }\n\n        emit logDonated(msg.sender, msg.value, Campaigns[_id].RaisedAmt);\n    }\n\n/// @notice allows us to get the raised funds to our account\n/// @dev checks that the claimer is the raiser, checks that the campaign is closed, then sends the raised funds.\n\n    function  claimFunds (uint _id) external {\n        require(msg.sender== Campaigns[_id].Raiser, \"You don't have the right to claim the funds\");\n        require (Campaigns[_id].RaisedAmt == Campaigns[_id].goal, \"sorry campaign isnt over yet\" );\n        Campaigns[_id].state= State.Closed;\n        payable(msg.sender).transfer(Campaigns[_id].RaisedAmt); ///transfer raised amt only\n    }\n\n    /// @dev getter function for raised amount variable\n    function getRaisedAmt(uint _id)  public view returns (uint) {\n        return Campaigns[_id].RaisedAmt;\n    }\n\n     /// @notice Explain to an end user what this does\n     /// @dev some getter functions i used in some testing\n     /*function returnTest(uint num) view public returns (uint) {\n        return Test[num];\n    }*/\n      \n    function retcount() public view returns (uint){\n        return campaignCount;\n    }\n    ///function getCampaign(uint id) public\n  \n}\n\n//////////////////////////////////////////////////////////////////////////////////////////////////////////////////////////////////////\n//////////////////////////////////////////////////////////////////////////////////////////////////////////////////////////////////////\n\n\n\n/// @notice adds new campaigns, allows users to send donations, allows fund raisers to claim their funds when the campaign is over\n/// @dev Explain to a developer any extra detail549+-\n\n\n\n\n\n/**contract CrowdFunding is Project, Ownable {\n\n\n    struct Campaign {\n        string name;\n        uint id;\n        address Raiser;\n        uint RaisedAmt;\n        uint256 goal;\n        State state;This Ca\n        uint timestamp;\n        uint duration; \n        uint256 deadline;\n        string description;\n        string InfoUrl;\n        string ImgUrl;This Ca\n    mapping (uint => Campaign) public CF_Campaigns;\n    uint campaignCount= 0;\n// @notice Explain to an end user what this does\n/// @dev Explain to a developer any extra details\n\nevent logAddedCampaign(uint indexed id, string indexed CampaignName, address indexed Raiser);\n\nThis Ca\n/*\nmodifiers\n\n\n///@notice checks if the campaign is still running \n///@dev used to validate that the campaign is in an Ongoing state to accept donations\nmodifier isOngoing (uint id){\nrequire (CF_Campaigns[id].state== State.Ongoing , \"This Campaign has been closed\");\n    _;\n}\n\n/*\nfunctions\n\n\n\nfunction AddCampaign(string memory _name, string memory _description, uint _goal, uint _duration, string memory _InfoUrl, string memory _ImgUrl) public{\n    uint newID= campaignCount + 1;\n    Campaign memory newCampaign = Campaign({\n            name: _name,\n            id: newID,\n            Raiser: msg.sender,\n            RaisedAmt: 0, \n            goal: _goal,\n            state: State.Ongoing,\n            timestamp: block.timestamp,\n            duration: _duration,\n            deadline: 0 ,\n            description: _description,\n            InfoUrl: _InfoUrl,\n            ImgUrl: _ImgUrl });\n    \n    newCampaign.deadline= block.timestamp + (_duration * 1 days);\n    IDList.push(newID);\n    CF_Campaigns[newCampaign.id] = newCampaign;\n    emit logAddedCampaign(newCampaign.id, newCampaign.name, msg.sender);\n    campaignCount+= 1;\n}\n\n/// @dev checks if the campaign's deadline hastn passed, checks that the sent amount is equal to the donated amount, increases the raised amount for the campaign.\n\nfunction  Donate (uint _id, uint amount) external  payable isOngoing(_id){\n    require(msg.value == amount);\n    require(CF_Campaigns[_id].timestamp + block.timestamp < CF_Campaigns[_id].deadline);\n    CF_Campaigns[_id].RaisedAmt+= amount;\n}\n\n\n/// end of contract\n}\n\n/*\n\n\n\nfunction CheckDeadlines\nfunction TerminateCampaign + refund\nfunction collectFunds\n\n\n */\n",
  "sourcePath": "/home/kareemikassab/Consensys course/blockchain-developer-bootcamp-final-project/Charity_CrowdFunding_Collection/src/contracts/Charity.sol",
  "compiler": {
    "name": "solc",
    "version": "0.8.0+commit.c7dfd78e.Emscripten.clang"
  },
  "schemaVersion": "3.4.3",
  "updatedAt": "2022-01-21T21:55:21.433Z",
  "networkType": "ethereum",
  "devdoc": {
    "details": "has 3 main functions named AddCampaign, Donate, and claimFunds",
    "events": {
      "logAddedCampaign(uint256,string,address)": {
        "details": "emitted when we call AddCampaign to emit the id, name, and the address of the one who added the campaign"
      },
      "logDonated(address,uint256,uint256)": {
        "details": "emitted when we call Donate() to emit the address of donater, amount donated, and the Raised amount until now"
      }
    },
    "kind": "dev",
    "methods": {
      "AddCampaign(string,string,uint256,uint256)": {
        "details": "function that adds a new campaign to the mapping after taking the required parameters from the Raiser, uses owner() to eb the Raiser Note The commented lines can be used to extend code functionality"
      },
      "Donate(uint256)": {
        "details": "checks that the raised amount isnt equal to the goal (closes campaign if it is), checks that the sent amount is equal to the donated amount, increases the raised amount for the campaign."
      },
      "claimFunds(uint256)": {
        "details": "checks that the claimer is the raiser, checks that the campaign is closed, then sends the raised funds."
      },
      "getRaisedAmt(uint256)": {
        "details": "getter function for raised amount variable"
      },
      "owner()": {
        "details": "Returns the address of the current owner."
      },
      "renounceOwnership()": {
        "details": "Leaves the contract without owner. It will not be possible to call `onlyOwner` functions anymore. Can only be called by the current owner. NOTE: Renouncing ownership will leave the contract without an owner, thereby removing any functionality that is only available to the owner."
      },
      "retcount()": {
        "details": "some getter functions i used in some testing"
      },
      "transferOwnership(address)": {
        "details": "Transfers ownership of the contract to a new account (`newOwner`). Can only be called by the current owner."
      }
    },
    "stateVariables": {
      "Campaigns": {
        "details": "mapping of campaign structs to their Ids"
      },
      "IDList": {
        "details": "array of IDs of campaings that correspond to their campaign IDs as well"
      },
      "campaignCount": {
        "details": "integer counter that will be incremented once we add new campaings and used to assign them IDs"
      }
    },
    "title": "The charity contract",
    "version": 1
  },
  "userdoc": {
    "events": {
      "logAddedCampaign(uint256,string,address)": {
        "notice": "Displays some campaign data after it is being added to make sure it was stored correctly"
      },
      "logDonated(address,uint256,uint256)": {
        "notice": "Displays some info about a donation once it happended"
      }
    },
    "kind": "user",
    "methods": {
      "claimFunds(uint256)": {
        "notice": "allows us to get the raised funds to our account"
      },
      "retcount()": {
        "notice": "Explain to an end user what this does"
      }
    },
    "notice": "Allows us to add campaigns, donate, and collect the raised funds",
    "version": 1
  }
}