{
  "contractName": "YieldOfferings",
  "abi": [
    {
      "anonymous": false,
      "inputs": [
        {
          "indexed": false,
          "internalType": "address",
          "name": "",
          "type": "address"
        },
        {
          "indexed": false,
          "internalType": "address",
          "name": "",
          "type": "address"
        },
        {
          "indexed": false,
          "internalType": "uint256",
          "name": "",
          "type": "uint256"
        },
        {
          "indexed": false,
          "internalType": "uint256",
          "name": "",
          "type": "uint256"
        },
        {
          "indexed": false,
          "internalType": "uint256",
          "name": "",
          "type": "uint256"
        }
      ],
      "name": "getContract",
      "type": "event"
    },
    {
      "anonymous": false,
      "inputs": [
        {
          "indexed": false,
          "internalType": "uint256",
          "name": "",
          "type": "uint256"
        },
        {
          "indexed": false,
          "internalType": "string",
          "name": "",
          "type": "string"
        },
        {
          "indexed": false,
          "internalType": "address",
          "name": "",
          "type": "address"
        }
      ],
      "name": "logAddedOffering",
      "type": "event"
    },
    {
      "inputs": [
        {
          "internalType": "uint256",
          "name": "",
          "type": "uint256"
        }
      ],
      "name": "Offerings",
      "outputs": [
        {
          "internalType": "address",
          "name": "issuer",
          "type": "address"
        },
        {
          "internalType": "uint256",
          "name": "ID",
          "type": "uint256"
        },
        {
          "internalType": "string",
          "name": "name",
          "type": "string"
        },
        {
          "internalType": "uint256",
          "name": "Nb_fixings",
          "type": "uint256"
        },
        {
          "internalType": "uint256",
          "name": "fixing_counter",
          "type": "uint256"
        },
        {
          "internalType": "uint256",
          "name": "high_coupon",
          "type": "uint256"
        },
        {
          "internalType": "uint256",
          "name": "high_coupon_barrier",
          "type": "uint256"
        },
        {
          "internalType": "uint256",
          "name": "smaller_coupon",
          "type": "uint256"
        },
        {
          "internalType": "uint256",
          "name": "Upoutbarrier",
          "type": "uint256"
        },
        {
          "internalType": "uint256",
          "name": "di_barrier",
          "type": "uint256"
        },
        {
          "internalType": "bool",
          "name": "Di_barrier_activated",
          "type": "bool"
        }
      ],
      "stateMutability": "view",
      "type": "function",
      "constant": true
    },
    {
      "inputs": [],
      "name": "contractCount",
      "outputs": [
        {
          "internalType": "uint256",
          "name": "",
          "type": "uint256"
        }
      ],
      "stateMutability": "view",
      "type": "function",
      "constant": true
    },
    {
      "inputs": [],
      "name": "offeringCount",
      "outputs": [
        {
          "internalType": "uint256",
          "name": "",
          "type": "uint256"
        }
      ],
      "stateMutability": "view",
      "type": "function",
      "constant": true
    },
    {
      "inputs": [
        {
          "internalType": "uint256",
          "name": "",
          "type": "uint256"
        }
      ],
      "name": "offeringIDList",
      "outputs": [
        {
          "internalType": "uint256",
          "name": "",
          "type": "uint256"
        }
      ],
      "stateMutability": "view",
      "type": "function",
      "constant": true
    },
    {
      "inputs": [],
      "name": "owner",
      "outputs": [
        {
          "internalType": "address",
          "name": "",
          "type": "address"
        }
      ],
      "stateMutability": "view",
      "type": "function",
      "constant": true
    },
    {
      "inputs": [
        {
          "internalType": "address",
          "name": "",
          "type": "address"
        }
      ],
      "name": "wallets",
      "outputs": [
        {
          "internalType": "uint256",
          "name": "usdt",
          "type": "uint256"
        },
        {
          "internalType": "uint256",
          "name": "eth",
          "type": "uint256"
        }
      ],
      "stateMutability": "view",
      "type": "function",
      "constant": true
    },
    {
      "inputs": [
        {
          "internalType": "string",
          "name": "_name",
          "type": "string"
        },
        {
          "internalType": "uint256",
          "name": "_Nb_fixings",
          "type": "uint256"
        },
        {
          "internalType": "uint256",
          "name": "_high_coupon",
          "type": "uint256"
        },
        {
          "internalType": "uint256",
          "name": "_high_coupon_barrier",
          "type": "uint256"
        },
        {
          "internalType": "uint256",
          "name": "_smaller_coupon",
          "type": "uint256"
        },
        {
          "internalType": "uint256",
          "name": "_Upoutbarrier",
          "type": "uint256"
        },
        {
          "internalType": "uint256",
          "name": "_di_barrier",
          "type": "uint256"
        }
      ],
      "name": "addOffering",
      "outputs": [],
      "stateMutability": "nonpayable",
      "type": "function"
    },
    {
      "inputs": [
        {
          "internalType": "uint256",
          "name": "_id",
          "type": "uint256"
        },
        {
          "internalType": "uint256",
          "name": "amount",
          "type": "uint256"
        }
      ],
      "name": "buyOffering",
      "outputs": [
        {
          "internalType": "string",
          "name": "",
          "type": "string"
        }
      ],
      "stateMutability": "payable",
      "type": "function",
      "payable": true
    },
    {
      "inputs": [
        {
          "internalType": "address",
          "name": "_issuer",
          "type": "address"
        },
        {
          "internalType": "uint256",
          "name": "tbs",
          "type": "uint256"
        }
      ],
      "name": "checkCustody",
      "outputs": [
        {
          "internalType": "bool",
          "name": "",
          "type": "bool"
        }
      ],
      "stateMutability": "nonpayable",
      "type": "function"
    },
    {
      "inputs": [],
      "name": "getCount",
      "outputs": [
        {
          "internalType": "uint256",
          "name": "count",
          "type": "uint256"
        }
      ],
      "stateMutability": "view",
      "type": "function",
      "constant": true
    },
    {
      "inputs": [],
      "name": "AddCampaign",
      "outputs": [
        {
          "internalType": "uint256",
          "name": "count",
          "type": "uint256"
        }
      ],
      "stateMutability": "view",
      "type": "function",
      "constant": true
    },
    {
      "inputs": [],
      "name": "getContractCount",
      "outputs": [
        {
          "internalType": "uint256",
          "name": "count",
          "type": "uint256"
        }
      ],
      "stateMutability": "view",
      "type": "function",
      "constant": true
    }
  ],
  "bytecode": "0x6080604052336000806101000a81548173ffffffffffffffffffffffffffffffffffffffff021916908373ffffffffffffffffffffffffffffffffffffffff1602179055506000600155600060025560006003556040518060400160405280600781526020017f426f75676874210000000000000000000000000000000000000000000000000081525060069080519060200190620000a0929190620000c1565b506109606007556108fc600855348015620000ba57600080fd5b50620001d6565b828054620000cf90620001a0565b90600052602060002090601f016020900481019282620000f357600085556200013f565b82601f106200010e57805160ff19168380011785556200013f565b828001600101855582156200013f579182015b828111156200013e57825182559160200191906001019062000121565b5b5090506200014e919062000152565b5090565b5b808211156200016d57600081600090555060010162000153565b5090565b7f4e487b7100000000000000000000000000000000000000000000000000000000600052602260045260246000fd5b60006002820490506001821680620001b957607f821691505b60208210811415620001d057620001cf62000171565b5b50919050565b61154680620001e66000396000f3fe6080604052600436106100a75760003560e01c80639399869d116100645780639399869d146101ef578063a87d942c1461021a578063c26e9d2214610245578063c5a9ed4214610275578063d6a91719146102a0578063f49dd287146102dd576100a7565b80630bd5d863146100ac57806370411c13146100f357806371054962146101305780638736381a1461015b57806389b08f11146101865780638da5cb5b146101c4575b600080fd5b3480156100b857600080fd5b506100d360048036038101906100ce9190610d1e565b610306565b6040516100ea9b9a99989796959493929190610e4f565b60405180910390f35b3480156100ff57600080fd5b5061011a60048036038101906101159190610d1e565b610415565b6040516101279190610f01565b60405180910390f35b34801561013c57600080fd5b50610145610439565b6040516101529190610f01565b60405180910390f35b34801561016757600080fd5b5061017061043f565b60405161017d9190610f01565b60405180910390f35b34801561019257600080fd5b506101ad60048036038101906101a89190610f48565b610445565b6040516101bb929190610f75565b60405180910390f35b3480156101d057600080fd5b506101d9610469565b6040516101e69190610f9e565b60405180910390f35b3480156101fb57600080fd5b5061020461048d565b6040516102119190610f01565b60405180910390f35b34801561022657600080fd5b5061022f610497565b60405161023c9190610f01565b60405180910390f35b61025f600480360381019061025a9190610fb9565b6104a4565b60405161026c9190610ff9565b60405180910390f35b34801561028157600080fd5b5061028a6107d8565b6040516102979190610f01565b60405180910390f35b3480156102ac57600080fd5b506102c760048036038101906102c2919061101b565b6107e2565b6040516102d4919061105b565b60405180910390f35b3480156102e957600080fd5b5061030460048036038101906102ff91906111ab565b61080d565b005b60096020528060005260406000206000915090508060000160009054906101000a900473ffffffffffffffffffffffffffffffffffffffff169080600101549080600201805461035590611298565b80601f016020809104026020016040519081016040528092919081815260200182805461038190611298565b80156103ce5780601f106103a3576101008083540402835291602001916103ce565b820191906000526020600020905b8154815290600101906020018083116103b157829003601f168201915b50505050509080600301549080600401549080600501549080600601549080600701549080600801549080600901549080600a0160009054906101000a900460ff1690508b565b6004818154811061042557600080fd5b906000526020600020016000915090505481565b60015481565b60025481565b600a6020528060005260406000206000915090508060000154908060010154905082565b60008054906101000a900473ffffffffffffffffffffffffffffffffffffffff1681565b6000600254905090565b6000600480549050905090565b60606040518060a001604052803373ffffffffffffffffffffffffffffffffffffffff1681526020016009600086815260200190815260200160002060000160009054906101000a900473ffffffffffffffffffffffffffffffffffffffff1673ffffffffffffffffffffffffffffffffffffffff168152602001348152602001848152602001600254815250600b6000600254815260200190815260200160002060008201518160000160006101000a81548173ffffffffffffffffffffffffffffffffffffffff021916908373ffffffffffffffffffffffffffffffffffffffff16021790555060208201518160010160006101000a81548173ffffffffffffffffffffffffffffffffffffffff021916908373ffffffffffffffffffffffffffffffffffffffff16021790555060408201518160020155606082015181600301556080820151816004015590505060096000848152602001908152602001600020600b0160025490806001815401808255809150506001900390600052602060002001600090919091909150557feb79d7bcabd980591a6e2bbb827806fbd2bce4debeb35d2fce32b3ff749deead600b6000600254815260200190815260200160002060000160009054906101000a900473ffffffffffffffffffffffffffffffffffffffff16600b6000600254815260200190815260200160002060010160009054906101000a900473ffffffffffffffffffffffffffffffffffffffff16600b6000600254815260200190815260200160002060020154600b6000600254815260200190815260200160002060030154600b60006002548152602001908152602001600020600401546040516107239594939291906112ca565b60405180910390a160016002600082825461073e919061134c565b925050819055506006805461075290611298565b80601f016020809104026020016040519081016040528092919081815260200182805461077e90611298565b80156107cb5780601f106107a0576101008083540402835291602001916107cb565b820191906000526020600020905b8154815290600101906020018083116107ae57829003601f168201915b5050505050905092915050565b6000600154905090565b6000806000905060008473ffffffffffffffffffffffffffffffffffffffff16319050505092915050565b6000875111610851576040517f08c379a0000000000000000000000000000000000000000000000000000000008152600401610848906113ee565b60405180910390fd5b600060018054610861919061134c565b9050600481908060018154018082558091505060019003906000526020600020016000909190919091505560606040518061018001604052803373ffffffffffffffffffffffffffffffffffffffff1681526020018381526020018a815260200189815260200160008152602001888152602001878152602001868152602001858152602001848152602001600015158152602001828152506009600084815260200190815260200160002060008201518160000160006101000a81548173ffffffffffffffffffffffffffffffffffffffff021916908373ffffffffffffffffffffffffffffffffffffffff16021790555060208201518160010155604082015181600201908051906020019061097a929190610be4565b50606082015181600301556080820151816004015560a0820151816005015560c0820151816006015560e082015181600701556101008201518160080155610120820151816009015561014082015181600a0160006101000a81548160ff02191690831515021790555061016082015181600b019080519060200190610a01929190610c6a565b509050506001806000828254610a17919061134c565b92505081905550600080600580549050811015610aa6573373ffffffffffffffffffffffffffffffffffffffff1660058281548110610a5957610a5861140e565b5b9060005260206000200160009054906101000a900473ffffffffffffffffffffffffffffffffffffffff1673ffffffffffffffffffffffffffffffffffffffff161415610aa557600191505b5b50600015158115151415610b3c576040518060400160405280600081526020016000815250600a60003373ffffffffffffffffffffffffffffffffffffffff1673ffffffffffffffffffffffffffffffffffffffff1681526020019081526020016000206000820151816000015560208201518160010155905050600160036000828254610b34919061134c565b925050819055505b7faef28209239eb46794345ac474ae534542292e9b4c88fde49a32a50c8fe9297b6009600085815260200190815260200160002060010154600960008681526020019081526020016000206002016009600087815260200190815260200160002060000160009054906101000a900473ffffffffffffffffffffffffffffffffffffffff16604051610bd0939291906114d2565b60405180910390a150505050505050505050565b828054610bf090611298565b90600052602060002090601f016020900481019282610c125760008555610c59565b82601f10610c2b57805160ff1916838001178555610c59565b82800160010185558215610c59579182015b82811115610c58578251825591602001919060010190610c3d565b5b509050610c669190610cb7565b5090565b828054828255906000526020600020908101928215610ca6579160200282015b82811115610ca5578251825591602001919060010190610c8a565b5b509050610cb39190610cb7565b5090565b5b80821115610cd0576000816000905550600101610cb8565b5090565b6000604051905090565b600080fd5b600080fd5b6000819050919050565b610cfb81610ce8565b8114610d0657600080fd5b50565b600081359050610d1881610cf2565b92915050565b600060208284031215610d3457610d33610cde565b5b6000610d4284828501610d09565b91505092915050565b600073ffffffffffffffffffffffffffffffffffffffff82169050919050565b6000610d7682610d4b565b9050919050565b610d8681610d6b565b82525050565b610d9581610ce8565b82525050565b600081519050919050565b600082825260208201905092915050565b60005b83811015610dd5578082015181840152602081019050610dba565b83811115610de4576000848401525b50505050565b6000601f19601f8301169050919050565b6000610e0682610d9b565b610e108185610da6565b9350610e20818560208601610db7565b610e2981610dea565b840191505092915050565b60008115159050919050565b610e4981610e34565b82525050565b600061016082019050610e65600083018e610d7d565b610e72602083018d610d8c565b8181036040830152610e84818c610dfb565b9050610e93606083018b610d8c565b610ea0608083018a610d8c565b610ead60a0830189610d8c565b610eba60c0830188610d8c565b610ec760e0830187610d8c565b610ed5610100830186610d8c565b610ee3610120830185610d8c565b610ef1610140830184610e40565b9c9b505050505050505050505050565b6000602082019050610f166000830184610d8c565b92915050565b610f2581610d6b565b8114610f3057600080fd5b50565b600081359050610f4281610f1c565b92915050565b600060208284031215610f5e57610f5d610cde565b5b6000610f6c84828501610f33565b91505092915050565b6000604082019050610f8a6000830185610d8c565b610f976020830184610d8c565b9392505050565b6000602082019050610fb36000830184610d7d565b92915050565b60008060408385031215610fd057610fcf610cde565b5b6000610fde85828601610d09565b9250506020610fef85828601610d09565b9150509250929050565b600060208201905081810360008301526110138184610dfb565b905092915050565b6000806040838503121561103257611031610cde565b5b600061104085828601610f33565b925050602061105185828601610d09565b9150509250929050565b60006020820190506110706000830184610e40565b92915050565b600080fd5b600080fd5b7f4e487b7100000000000000000000000000000000000000000000000000000000600052604160045260246000fd5b6110b882610dea565b810181811067ffffffffffffffff821117156110d7576110d6611080565b5b80604052505050565b60006110ea610cd4565b90506110f682826110af565b919050565b600067ffffffffffffffff82111561111657611115611080565b5b61111f82610dea565b9050602081019050919050565b82818337600083830152505050565b600061114e611149846110fb565b6110e0565b90508281526020810184848401111561116a5761116961107b565b5b61117584828561112c565b509392505050565b600082601f83011261119257611191611076565b5b81356111a284826020860161113b565b91505092915050565b600080600080600080600060e0888a0312156111ca576111c9610cde565b5b600088013567ffffffffffffffff8111156111e8576111e7610ce3565b5b6111f48a828b0161117d565b97505060206112058a828b01610d09565b96505060406112168a828b01610d09565b95505060606112278a828b01610d09565b94505060806112388a828b01610d09565b93505060a06112498a828b01610d09565b92505060c061125a8a828b01610d09565b91505092959891949750929550565b7f4e487b7100000000000000000000000000000000000000000000000000000000600052602260045260246000fd5b600060028204905060018216806112b057607f821691505b602082108114156112c4576112c3611269565b5b50919050565b600060a0820190506112df6000830188610d7d565b6112ec6020830187610d7d565b6112f96040830186610d8c565b6113066060830185610d8c565b6113136080830184610d8c565b9695505050505050565b7f4e487b7100000000000000000000000000000000000000000000000000000000600052601160045260246000fd5b600061135782610ce8565b915061136283610ce8565b9250827fffffffffffffffffffffffffffffffffffffffffffffffffffffffffffffffff038211156113975761139661131d565b5b828201905092915050565b7f6e616d652063616e6e6f7420626576616c20656d707479000000000000000000600082015250565b60006113d8601783610da6565b91506113e3826113a2565b602082019050919050565b60006020820190508181036000830152611407816113cb565b9050919050565b7f4e487b7100000000000000000000000000000000000000000000000000000000600052603260045260246000fd5b60008190508160005260206000209050919050565b6000815461145f81611298565b6114698186610da6565b945060018216600081146114845760018114611496576114c9565b60ff19831686526020860193506114c9565b61149f8561143d565b60005b838110156114c1578154818901526001820191506020810190506114a2565b808801955050505b50505092915050565b60006060820190506114e76000830186610d8c565b81810360208301526114f98185611452565b90506115086040830184610d7d565b94935050505056fea2646970667358221220d6c977b6670c01b3c69d7a03f8b9a4410a0314b189c2152748083a808460ed4964736f6c63430008090033",
  "immutableReferences": {},
  "source": "pragma solidity 0.8.9;\n\ncontract YieldOfferings {\n   \naddress public owner = msg.sender; // contract owner\n // will be used in logic\nuint public offeringCount = 0; // keep track of all number\nuint public contractCount=0;\nuint walletCount=0;\nuint[] public offeringIDList; // all ids list\naddress[] walletOwners;\nstring aloo = \"Bought!\";\n\n//mapping (address=> bool) public hasWallet;\n\n//hasWallet[key] \n\n\n\nuint price= 2400;\nuint ethusdt0= 2300;\n\nmapping (uint => offering) public Offerings; //mapping offerings to ids\nmapping (address => wallet) public wallets;\nmapping(uint => offeringContract) ContractMap;\n\nstruct wallet {\nuint usdt;\nuint eth;\n}\n\nstruct buyer {\n    address buyerAddress;\n\n    offering[] offerings;\n    uint[] ContractsIds;\n    uint[] offeringIDList;\n}\n\nstruct issuer {\n    address issuerAddress;\n    //uint256 balance;\n    uint256 accountPayable;\n    offering[] offerings;\n    uint[] ContractsIds;\n    bool hasWallet;\n}\n\nstruct offeringContract{\n    address buyer;\n    address issuer;\n    uint amount;\n    uint offeringID;\n    uint contractID;\n}\n\nstruct offering{\n    address issuer;\n    uint ID;\n    string name;\n    uint Nb_fixings;\n    uint fixing_counter;\n    uint high_coupon;\n    uint high_coupon_barrier;\n    uint smaller_coupon;\n    uint Upoutbarrier;\n    uint di_barrier;\n    bool Di_barrier_activated;\n    uint[] contractList;\n}\n\n\nevent logAddedOffering(uint, string, address);\nevent getContract (address,address,uint,uint,uint);\n// function to add a new offering \nfunction addOffering(\n    string memory _name,\n    uint _Nb_fixings,\n    uint _high_coupon,\n    uint _high_coupon_barrier,\n    uint _smaller_coupon,\n    uint _Upoutbarrier,\n    uint _di_barrier\n    \n   ) public{\n    \n    require(bytes(_name).length>0, \"name cannot beval empty\");\n\n    uint newID= offeringCount + 1;\n    //offeringContract[] storage emptyList;\n    //newCampaign.deadline= block.timestamp + (_duration * 1 days);\n    offeringIDList.push(newID);\n    uint[] memory contractList;\n    Offerings[newID] = offering(msg.sender, \n     newID, \n     _name,\n     _Nb_fixings,\n     0,\n     _high_coupon,\n     _high_coupon_barrier,\n     _smaller_coupon,\n     _Upoutbarrier,\n     _di_barrier,\n      false,\n    contractList);\n    \n    offeringCount+= 1;\n\n    bool ownsWallet= false;\n    for (uint i=0; i< walletOwners.length; i++){\n        if (walletOwners[i] == msg.sender)\n        ownsWallet= true;\n        break;\n    }\n\n    if (ownsWallet== false){\n        wallets[msg.sender]= wallet(0,0);\n        walletCount +=1;\n    }\n\n    emit logAddedOffering(Offerings[newID].ID, Offerings[newID].name, Offerings[newID].issuer);\n}\n\n\n    \n/////// BUY BACK PART /////////\n// how will we know the agreed on price?\n// how will the issuer fail to pay a coupon?\n\n/*function checkPayables(uint256 id) public returns(uint){\n    uint buyerGets;\n    Offerings[ContractMap[id].offeringID].fixing_counter+=1;\n    if (price< (Offerings[ContractMap[id].offeringID].di_barrier* ethusdt0)){\n    Offerings[ContractMap[id].offeringID].Di_barrier_activated=true;\n    }\n\n\n    // if not last fixing\n    if (Offerings[ContractMap[id].offeringID].fixing_counter< Offerings[ContractMap[id].offeringID].Nb_fixings){\n        if(price > Offerings[ContractMap[id].offeringID].Upoutbarrier*ethusdt0){\n            // send amount X to buyer+ high_coupon X\n            buyerGets= ContractMap[id].amount + (Offerings[ContractMap[id].offeringID].high_coupon*ContractMap[id].amount);\n        }\n        else if (price> Offerings[ContractMap[id].offeringID].high_coupon_barrier*ethusdt0){\n            // send buyer hight_couponX\n            buyerGets= Offerings[ContractMap[id].offeringID].high_coupon*ContractMap[id].amount;\n\n        }\n        else if (Offerings[ContractMap[id].offeringID].Di_barrier_activated== false){\n            //buyer get smaller_couponX\n            buyerGets= ContractMap[id].amount + Offerings[ContractMap[id].offeringID].smaller_coupon * ContractMap[id].amount;\n\n        }\n        else {\n            // buyer gets nothing\n            buyerGets=0;\n        }\n    }\n\n    else{\n        \n        if (price> Offerings[ContractMap[id].offeringID].high_coupon_barrier*ethusdt0){\n            // send buyer hight_couponX + X (what is this amount?)\n            buyerGets= ContractMap[id].amount + (Offerings[ContractMap[id].offeringID].high_coupon*ContractMap[id].amount);\n  \n        }\n        else if(Offerings[ContractMap[id].offeringID].Di_barrier_activated= false){\n            \n            //buyer gets lower_coupon*X+X\n            \n            buyerGets= ContractMap[id].amount + (Offerings[ContractMap[id].offeringID].smaller_coupon *ContractMap[id].amount);\n\n            \n        \n        }\n        else {\n            //X= getamount(id,)\n            buyerGets= (ContractMap[id].amount/Offerings[ContractMap[id].offeringID].high_coupon_barrier)/ ethusdt0;    \n        }\n        \n    }\n\n\n}*/\n\n/*function Payements (offering Offering, uint usdtPrice) internal {\n\n\ncontractIDList = offering.contractList;\n\n  if (usdtPrice < (Offering.di_barrier* ethusdt0)){\n    Offering.Di_barrier_activated=true;\n    }\n\n\nif(usdtPrice > Offering.Upoutbarrier*ethusdt0){\n\n            for (int i =0; i< contractIDList.length ; i++){\n\n\n                uint buyerGets = ContractMap[i].amount + offering.high_coupon*ContractMap[i].amount;\n            }\n        }\n\n\n\n\n}\n*/\n\n\nfunction buyOffering(uint _id, uint amount) public payable returns(string memory) {\n\n/*struct offeringContract{\n    address buy\n    address issuer;\n    uint amount;\n    uint offeringID;\n    uint contractID;\n}*/\n\n\n\nContractMap[contractCount] = offeringContract(\n    msg.sender,\n    Offerings[_id].issuer,\n    msg.value,\n    _id,\n    contractCount\n);\nOfferings[_id]. contractList . push(contractCount);\nemit getContract(ContractMap[contractCount].buyer,ContractMap[contractCount].issuer,ContractMap[contractCount].amount,ContractMap[contractCount].offeringID,ContractMap[contractCount].contractID);\ncontractCount+=1;\n\n\n\n//Offerings[_id]. contractList . append()\n\nreturn aloo;\n\n}\n\nfunction checkCustody(address _issuer, uint tbs) public returns(bool){\n    bool isAllowed= false;\n    uint256 issuerBalance= _issuer.balance;\n    //check all linked offerings to issuer\n\n}\n\nfunction getCount() public view returns(uint count) {\n    return offeringIDList.length;\n}\n\nfunction AddCampaign() public view returns(uint count){\n    return offeringCount;\n}\nfunction getContractCount() public view returns (uint count){\n\nreturn contractCount;\n\n}\n\n\n// contract's brace\n}\n\n\n",
  "sourcePath": "/home/kareemikassab/TradeCenter/src/contracts/YieldOfferings.sol",
  "compiler": {
    "name": "solc",
    "version": "0.8.9+commit.e5eed63a.Emscripten.clang"
  },
  "schemaVersion": "3.4.3",
  "updatedAt": "2022-02-19T21:11:32.546Z",
  "networkType": "ethereum",
  "devdoc": {
    "kind": "dev",
    "methods": {},
    "version": 1
  },
  "userdoc": {
    "kind": "user",
    "methods": {},
    "version": 1
  }
}