{
  "contractName": "DateTime",
  "abi": [
    {
      "inputs": [
        {
          "internalType": "uint16",
          "name": "year",
          "type": "uint16"
        }
      ],
      "name": "isLeapYear",
      "outputs": [
        {
          "internalType": "bool",
          "name": "",
          "type": "bool"
        }
      ],
      "stateMutability": "pure",
      "type": "function"
    },
    {
      "inputs": [
        {
          "internalType": "uint256",
          "name": "year",
          "type": "uint256"
        }
      ],
      "name": "leapYearsBefore",
      "outputs": [
        {
          "internalType": "uint256",
          "name": "",
          "type": "uint256"
        }
      ],
      "stateMutability": "pure",
      "type": "function"
    },
    {
      "inputs": [
        {
          "internalType": "uint8",
          "name": "month",
          "type": "uint8"
        },
        {
          "internalType": "uint16",
          "name": "year",
          "type": "uint16"
        }
      ],
      "name": "getDaysInMonth",
      "outputs": [
        {
          "internalType": "uint8",
          "name": "",
          "type": "uint8"
        }
      ],
      "stateMutability": "pure",
      "type": "function"
    },
    {
      "inputs": [
        {
          "internalType": "uint256",
          "name": "timestamp",
          "type": "uint256"
        }
      ],
      "name": "getYear",
      "outputs": [
        {
          "internalType": "uint16",
          "name": "",
          "type": "uint16"
        }
      ],
      "stateMutability": "pure",
      "type": "function"
    },
    {
      "inputs": [
        {
          "internalType": "uint256",
          "name": "timestamp",
          "type": "uint256"
        }
      ],
      "name": "getMonth",
      "outputs": [
        {
          "internalType": "uint8",
          "name": "",
          "type": "uint8"
        }
      ],
      "stateMutability": "pure",
      "type": "function"
    },
    {
      "inputs": [
        {
          "internalType": "uint256",
          "name": "timestamp",
          "type": "uint256"
        }
      ],
      "name": "getDay",
      "outputs": [
        {
          "internalType": "uint8",
          "name": "",
          "type": "uint8"
        }
      ],
      "stateMutability": "pure",
      "type": "function"
    },
    {
      "inputs": [
        {
          "internalType": "uint256",
          "name": "timestamp",
          "type": "uint256"
        }
      ],
      "name": "getHour",
      "outputs": [
        {
          "internalType": "uint8",
          "name": "",
          "type": "uint8"
        }
      ],
      "stateMutability": "pure",
      "type": "function"
    },
    {
      "inputs": [
        {
          "internalType": "uint256",
          "name": "timestamp",
          "type": "uint256"
        }
      ],
      "name": "getMinute",
      "outputs": [
        {
          "internalType": "uint8",
          "name": "",
          "type": "uint8"
        }
      ],
      "stateMutability": "pure",
      "type": "function"
    },
    {
      "inputs": [
        {
          "internalType": "uint256",
          "name": "timestamp",
          "type": "uint256"
        }
      ],
      "name": "getSecond",
      "outputs": [
        {
          "internalType": "uint8",
          "name": "",
          "type": "uint8"
        }
      ],
      "stateMutability": "pure",
      "type": "function"
    },
    {
      "inputs": [
        {
          "internalType": "uint256",
          "name": "timestamp",
          "type": "uint256"
        }
      ],
      "name": "getWeekday",
      "outputs": [
        {
          "internalType": "uint8",
          "name": "",
          "type": "uint8"
        }
      ],
      "stateMutability": "pure",
      "type": "function"
    },
    {
      "inputs": [
        {
          "internalType": "uint16",
          "name": "year",
          "type": "uint16"
        },
        {
          "internalType": "uint8",
          "name": "month",
          "type": "uint8"
        },
        {
          "internalType": "uint8",
          "name": "day",
          "type": "uint8"
        },
        {
          "internalType": "uint8",
          "name": "hour",
          "type": "uint8"
        },
        {
          "internalType": "uint8",
          "name": "minute",
          "type": "uint8"
        }
      ],
      "name": "toTimestamp",
      "outputs": [
        {
          "internalType": "uint256",
          "name": "timestamp",
          "type": "uint256"
        }
      ],
      "stateMutability": "pure",
      "type": "function"
    },
    {
      "inputs": [
        {
          "internalType": "uint16",
          "name": "year",
          "type": "uint16"
        },
        {
          "internalType": "uint8",
          "name": "month",
          "type": "uint8"
        },
        {
          "internalType": "uint8",
          "name": "day",
          "type": "uint8"
        },
        {
          "internalType": "uint8",
          "name": "hour",
          "type": "uint8"
        }
      ],
      "name": "toTimestamp",
      "outputs": [
        {
          "internalType": "uint256",
          "name": "timestamp",
          "type": "uint256"
        }
      ],
      "stateMutability": "pure",
      "type": "function"
    },
    {
      "inputs": [
        {
          "internalType": "uint16",
          "name": "year",
          "type": "uint16"
        },
        {
          "internalType": "uint8",
          "name": "month",
          "type": "uint8"
        },
        {
          "internalType": "uint8",
          "name": "day",
          "type": "uint8"
        }
      ],
      "name": "toTimestamp",
      "outputs": [
        {
          "internalType": "uint256",
          "name": "timestamp",
          "type": "uint256"
        }
      ],
      "stateMutability": "pure",
      "type": "function"
    },
    {
      "inputs": [
        {
          "internalType": "uint16",
          "name": "year",
          "type": "uint16"
        },
        {
          "internalType": "uint8",
          "name": "month",
          "type": "uint8"
        },
        {
          "internalType": "uint8",
          "name": "day",
          "type": "uint8"
        },
        {
          "internalType": "uint8",
          "name": "hour",
          "type": "uint8"
        },
        {
          "internalType": "uint8",
          "name": "minute",
          "type": "uint8"
        },
        {
          "internalType": "uint8",
          "name": "second",
          "type": "uint8"
        }
      ],
      "name": "toTimestamp",
      "outputs": [
        {
          "internalType": "uint256",
          "name": "timestamp",
          "type": "uint256"
        }
      ],
      "stateMutability": "pure",
      "type": "function"
    }
  ],
  "bytecode": "0x608060405234801561001057600080fd5b506113ee806100206000396000f3fe608060405234801561001057600080fd5b50600436106100ea5760003560e01c80639054bdec1161008c578063a6f0e57711610066578063a6f0e577146102cf578063b1999937146102ff578063b238ad0e1461032f578063fa93f8831461035f576100ea565b80639054bdec1461023f57806392d663131461026f578063a324ad241461029f576100ea565b806365c72840116100c857806365c728401461017f5780637f791833146101af5780638aa001fc146101df5780638c8d98a01461020f576100ea565b80633e239e1a146100ef5780634ac1ad781461011f57806362ba96871461014f575b600080fd5b61010960048036038101906101049190610d74565b61038f565b6040516101169190610dbd565b60405180910390f35b61013960048036038101906101349190610d74565b6103bc565b6040516101469190610dbd565b60405180910390f35b61016960048036038101906101649190610e3e565b6103ec565b6040516101769190610ec8565b60405180910390f35b61019960048036038101906101949190610d74565b610408565b6040516101a69190610dbd565b60405180910390f35b6101c960048036038101906101c49190610ee3565b61041e565b6040516101d69190610ec8565b60405180910390f35b6101f960048036038101906101f49190610d74565b610439565b6040516102069190610dbd565b60405180910390f35b61022960048036038101906102249190610f4a565b61044f565b6040516102369190610ec8565b60405180910390f35b61025960048036038101906102549190610f9d565b61046a565b6040516102669190610ec8565b60405180910390f35b61028960048036038101906102849190610d74565b6107d5565b6040516102969190611039565b60405180910390f35b6102b960048036038101906102b49190610d74565b6108ec565b6040516102c69190610dbd565b60405180910390f35b6102e960048036038101906102e49190611054565b610902565b6040516102f6919061109c565b60405180910390f35b61031960048036038101906103149190610d74565b610971565b6040516103269190610ec8565b60405180910390f35b610349600480360381019061034491906110b7565b6109c5565b6040516103569190610dbd565b60405180910390f35b61037960048036038101906103749190610d74565b610a91565b6040516103869190610dbd565b60405180910390f35b60006018603c80846103a19190611155565b6103ab9190611155565b6103b59190611186565b9050919050565b60006007600462015180846103d19190611155565b6103db91906111b7565b6103e59190611186565b9050919050565b60006103fd8686868686600061046a565b905095945050505050565b600061041382610ab2565b604001519050919050565b600061042f8585858560008061046a565b9050949350505050565b6000603c826104489190611186565b9050919050565b6000610461848484600080600061046a565b90509392505050565b6000806107b290505b8761ffff168161ffff1610156104ce5761048c81610902565b156104a8576301e28500826104a191906111b7565b91506104bb565b6301e13380826104b891906111b7565b91505b80806104c69061120d565b915050610473565b6104d6610cc3565b601f816000600c81106104ec576104eb611238565b5b602002019060ff16908160ff168152505061050689610902565b1561053757601d816001600c811061052157610520611238565b5b602002019060ff16908160ff168152505061055f565b601c816001600c811061054d5761054c611238565b5b602002019060ff16908160ff16815250505b601f816002600c811061057557610574611238565b5b602002019060ff16908160ff1681525050601e816003600c811061059c5761059b611238565b5b602002019060ff16908160ff1681525050601f816004600c81106105c3576105c2611238565b5b602002019060ff16908160ff1681525050601e816005600c81106105ea576105e9611238565b5b602002019060ff16908160ff1681525050601f816006600c811061061157610610611238565b5b602002019060ff16908160ff1681525050601f816007600c811061063857610637611238565b5b602002019060ff16908160ff1681525050601e816008600c811061065f5761065e611238565b5b602002019060ff16908160ff1681525050601f816009600c811061068657610685611238565b5b602002019060ff16908160ff1681525050601e81600a600c81106106ad576106ac611238565b5b602002019060ff16908160ff1681525050601f81600b600c81106106d4576106d3611238565b5b602002019060ff16908160ff1681525050600191505b8760ff168261ffff16101561075257806001836107079190611267565b61ffff16600c811061071c5761071b611238565b5b602002015160ff1662015180610732919061129b565b8361073d91906111b7565b9250818061074a9061120d565b9250506106ea565b60018761075f91906112f5565b60ff1662015180610770919061129b565b8361077b91906111b7565b92508560ff16610e1061078e919061129b565b8361079991906111b7565b92508460ff16603c6107ab919061129b565b836107b691906111b7565b92508360ff16836107c791906111b7565b925050509695505050505050565b600080600090506000806301e13380856107ef9190611155565b6107b261ffff1661080091906111b7565b91506108116107b261ffff16610971565b61081e8361ffff16610971565b6108289190611329565b9050806301e2850061083a919061129b565b8361084591906111b7565b9250806107b2836108569190611267565b61ffff166108649190611329565b6301e13380610873919061129b565b8361087e91906111b7565b92505b848311156108e15761089e6001836108999190611267565b610902565b156108ba576301e28500836108b39190611329565b92506108cd565b6301e13380836108ca9190611329565b92505b6001826108da9190611267565b9150610881565b819350505050919050565b60006108f782610ab2565b602001519050919050565b600080600483610912919061135d565b61ffff1614610924576000905061096c565b6000606483610933919061135d565b61ffff1614610945576001905061096c565b600061019083610955919061135d565b61ffff1614610967576000905061096c565b600190505b919050565b60006001826109809190611329565b9150610190826109909190611155565b60648361099d9190611155565b6004846109aa9190611155565b6109b49190611329565b6109be91906111b7565b9050919050565b600060018360ff1614806109dc575060038360ff16145b806109ea575060058360ff16145b806109f8575060078360ff16145b80610a06575060088360ff16145b80610a145750600a8360ff16145b80610a225750600c8360ff16145b15610a3057601f9050610a8b565b60048360ff161480610a45575060068360ff16145b80610a53575060098360ff16145b80610a615750600b8360ff16145b15610a6f57601e9050610a8b565b610a7882610902565b15610a8657601d9050610a8b565b601c90505b92915050565b6000603c8083610aa19190611155565b610aab9190611186565b9050919050565b610aba610ce6565b60008080610ac7856107d5565b846000019061ffff16908161ffff1681525050610ae96107b261ffff16610971565b610afa856000015161ffff16610971565b610b049190611329565b9150816301e28500610b16919061129b565b83610b2191906111b7565b9250816107b28560000151610b369190611267565b61ffff16610b449190611329565b6301e13380610b53919061129b565b83610b5e91906111b7565b92506000600191505b600c8260ff1611610bde57610b808286600001516109c5565b60ff1662015180610b91919061129b565b9050858482610ba091906111b7565b1115610bbd5781856020019060ff16908160ff1681525050610bde565b8084610bc991906111b7565b93508180610bd69061138e565b925050610b67565b600191505b610bf5856020015186600001516109c5565b60ff168260ff1611610c5257858462015180610c1191906111b7565b1115610c2e5781856040019060ff16908160ff1681525050610c52565b6201518084610c3d91906111b7565b93508180610c4a9061138e565b925050610be3565b610c5b8661038f565b856060019060ff16908160ff1681525050610c7586610a91565b856080019060ff16908160ff1681525050610c8f86610439565b8560a0019060ff16908160ff1681525050610ca9866103bc565b8560c0019060ff16908160ff168152505050505050919050565b604051806101800160405280600c90602082028036833780820191505090505090565b6040518060e00160405280600061ffff168152602001600060ff168152602001600060ff168152602001600060ff168152602001600060ff168152602001600060ff168152602001600060ff1681525090565b600080fd5b6000819050919050565b610d5181610d3e565b8114610d5c57600080fd5b50565b600081359050610d6e81610d48565b92915050565b600060208284031215610d8a57610d89610d39565b5b6000610d9884828501610d5f565b91505092915050565b600060ff82169050919050565b610db781610da1565b82525050565b6000602082019050610dd26000830184610dae565b92915050565b600061ffff82169050919050565b610def81610dd8565b8114610dfa57600080fd5b50565b600081359050610e0c81610de6565b92915050565b610e1b81610da1565b8114610e2657600080fd5b50565b600081359050610e3881610e12565b92915050565b600080600080600060a08688031215610e5a57610e59610d39565b5b6000610e6888828901610dfd565b9550506020610e7988828901610e29565b9450506040610e8a88828901610e29565b9350506060610e9b88828901610e29565b9250506080610eac88828901610e29565b9150509295509295909350565b610ec281610d3e565b82525050565b6000602082019050610edd6000830184610eb9565b92915050565b60008060008060808587031215610efd57610efc610d39565b5b6000610f0b87828801610dfd565b9450506020610f1c87828801610e29565b9350506040610f2d87828801610e29565b9250506060610f3e87828801610e29565b91505092959194509250565b600080600060608486031215610f6357610f62610d39565b5b6000610f7186828701610dfd565b9350506020610f8286828701610e29565b9250506040610f9386828701610e29565b9150509250925092565b60008060008060008060c08789031215610fba57610fb9610d39565b5b6000610fc889828a01610dfd565b9650506020610fd989828a01610e29565b9550506040610fea89828a01610e29565b9450506060610ffb89828a01610e29565b935050608061100c89828a01610e29565b92505060a061101d89828a01610e29565b9150509295509295509295565b61103381610dd8565b82525050565b600060208201905061104e600083018461102a565b92915050565b60006020828403121561106a57611069610d39565b5b600061107884828501610dfd565b91505092915050565b60008115159050919050565b61109681611081565b82525050565b60006020820190506110b1600083018461108d565b92915050565b600080604083850312156110ce576110cd610d39565b5b60006110dc85828601610e29565b92505060206110ed85828601610dfd565b9150509250929050565b7f4e487b7100000000000000000000000000000000000000000000000000000000600052601260045260246000fd5b7f4e487b7100000000000000000000000000000000000000000000000000000000600052601160045260246000fd5b600061116082610d3e565b915061116b83610d3e565b92508261117b5761117a6110f7565b5b828204905092915050565b600061119182610d3e565b915061119c83610d3e565b9250826111ac576111ab6110f7565b5b828206905092915050565b60006111c282610d3e565b91506111cd83610d3e565b9250827fffffffffffffffffffffffffffffffffffffffffffffffffffffffffffffffff0382111561120257611201611126565b5b828201905092915050565b600061121882610dd8565b915061ffff82141561122d5761122c611126565b5b600182019050919050565b7f4e487b7100000000000000000000000000000000000000000000000000000000600052603260045260246000fd5b600061127282610dd8565b915061127d83610dd8565b9250828210156112905761128f611126565b5b828203905092915050565b60006112a682610d3e565b91506112b183610d3e565b9250817fffffffffffffffffffffffffffffffffffffffffffffffffffffffffffffffff04831182151516156112ea576112e9611126565b5b828202905092915050565b600061130082610da1565b915061130b83610da1565b92508282101561131e5761131d611126565b5b828203905092915050565b600061133482610d3e565b915061133f83610d3e565b92508282101561135257611351611126565b5b828203905092915050565b600061136882610dd8565b915061137383610dd8565b925082611383576113826110f7565b5b828206905092915050565b600061139982610da1565b915060ff8214156113ad576113ac611126565b5b60018201905091905056fea2646970667358221220c6fa5e1f2b96874f443bf5b7b076c109de8c1c71c40d6cc9bad23ce4f4942f5d64736f6c63430008090033",
  "immutableReferences": {},
  "source": "pragma solidity 0.8.9;\r\ncontract DateTime {\r\n        /*\r\n         *  Date and Time utilities for ethereum contracts\r\n         *\r\n         */\r\n        struct _DateTime {\r\n                uint16 year;\r\n                uint8 month;\r\n                uint8 day;\r\n                uint8 hour;\r\n                uint8 minute;\r\n                uint8 second;\r\n                uint8 weekday;\r\n        }\r\n\r\n        uint constant DAY_IN_SECONDS = 86400;\r\n        uint constant YEAR_IN_SECONDS = 31536000;\r\n        uint constant LEAP_YEAR_IN_SECONDS = 31622400;\r\n\r\n        uint constant HOUR_IN_SECONDS = 3600;\r\n        uint constant MINUTE_IN_SECONDS = 60;\r\n\r\n        uint16 constant ORIGIN_YEAR = 1970;\r\n\r\n        function isLeapYear(uint16 year) public pure returns (bool) {\r\n                if (year % 4 != 0) {\r\n                        return false;\r\n                }\r\n                if (year % 100 != 0) {\r\n                        return true;\r\n                }\r\n                if (year % 400 != 0) {\r\n                        return false;\r\n                }\r\n                return true;\r\n        }\r\n\r\n        function leapYearsBefore(uint year) public pure returns (uint) {\r\n                year -= 1;\r\n                return year / 4 - year / 100 + year / 400;\r\n        }\r\n\r\n        function getDaysInMonth(uint8 month, uint16 year) public pure returns (uint8) {\r\n                if (month == 1 || month == 3 || month == 5 || month == 7 || month == 8 || month == 10 || month == 12) {\r\n                        return 31;\r\n                }\r\n                else if (month == 4 || month == 6 || month == 9 || month == 11) {\r\n                        return 30;\r\n                }\r\n                else if (isLeapYear(year)) {\r\n                        return 29;\r\n                }\r\n                else {\r\n                        return 28;\r\n                }\r\n        }\r\n\r\n        function parseTimestamp(uint timestamp) internal pure returns (_DateTime memory dt) {\r\n                uint secondsAccountedFor = 0;\r\n                uint buf;\r\n                uint8 i;\r\n\r\n                // Year\r\n                dt.year = getYear(timestamp);\r\n                buf = leapYearsBefore(dt.year) - leapYearsBefore(ORIGIN_YEAR);\r\n\r\n                secondsAccountedFor += LEAP_YEAR_IN_SECONDS * buf;\r\n                secondsAccountedFor += YEAR_IN_SECONDS * (dt.year - ORIGIN_YEAR - buf);\r\n\r\n                // Month\r\n                uint secondsInMonth;\r\n                for (i = 1; i <= 12; i++) {\r\n                        secondsInMonth = DAY_IN_SECONDS * getDaysInMonth(i, dt.year);\r\n                        if (secondsInMonth + secondsAccountedFor > timestamp) {\r\n                                dt.month = i;\r\n                                break;\r\n                        }\r\n                        secondsAccountedFor += secondsInMonth;\r\n                }\r\n\r\n                // Day\r\n                for (i = 1; i <= getDaysInMonth(dt.month, dt.year); i++) {\r\n                        if (DAY_IN_SECONDS + secondsAccountedFor > timestamp) {\r\n                                dt.day = i;\r\n                                break;\r\n                        }\r\n                        secondsAccountedFor += DAY_IN_SECONDS;\r\n                }\r\n\r\n                // Hour\r\n                dt.hour = getHour(timestamp);\r\n\r\n                // Minute\r\n                dt.minute = getMinute(timestamp);\r\n\r\n                // Second\r\n                dt.second = getSecond(timestamp);\r\n\r\n                // Day of week.\r\n                dt.weekday = getWeekday(timestamp);\r\n        }\r\n\r\n        function getYear(uint timestamp) public pure returns (uint16) {\r\n                uint secondsAccountedFor = 0;\r\n                uint16 year;\r\n                uint numLeapYears;\r\n\r\n                // Year\r\n                year = uint16(ORIGIN_YEAR + timestamp / YEAR_IN_SECONDS);\r\n                numLeapYears = leapYearsBefore(year) - leapYearsBefore(ORIGIN_YEAR);\r\n\r\n                secondsAccountedFor += LEAP_YEAR_IN_SECONDS * numLeapYears;\r\n                secondsAccountedFor += YEAR_IN_SECONDS * (year - ORIGIN_YEAR - numLeapYears);\r\n\r\n                while (secondsAccountedFor > timestamp) {\r\n                        if (isLeapYear(uint16(year - 1))) {\r\n                                secondsAccountedFor -= LEAP_YEAR_IN_SECONDS;\r\n                        }\r\n                        else {\r\n                                secondsAccountedFor -= YEAR_IN_SECONDS;\r\n                        }\r\n                        year -= 1;\r\n                }\r\n                return year;\r\n        }\r\n\r\n        function getMonth(uint timestamp) public pure returns (uint8) {\r\n                return parseTimestamp(timestamp).month;\r\n        }\r\n\r\n        function getDay(uint timestamp) public pure returns (uint8) {\r\n                return parseTimestamp(timestamp).day;\r\n        }\r\n\r\n        function getHour(uint timestamp) public pure returns (uint8) {\r\n                return uint8((timestamp / 60 / 60) % 24);\r\n        }\r\n\r\n        function getMinute(uint timestamp) public pure returns (uint8) {\r\n                return uint8((timestamp / 60) % 60);\r\n        }\r\n\r\n        function getSecond(uint timestamp) public pure returns (uint8) {\r\n                return uint8(timestamp % 60);\r\n        }\r\n\r\n        function getWeekday(uint timestamp) public pure returns (uint8) {\r\n                return uint8((timestamp / DAY_IN_SECONDS + 4) % 7);\r\n        }\r\n\r\n        function toTimestamp(uint16 year, uint8 month, uint8 day) public pure returns (uint timestamp) {\r\n                return toTimestamp(year, month, day, 0, 0, 0);\r\n        }\r\n\r\n        function toTimestamp(uint16 year, uint8 month, uint8 day, uint8 hour) public pure returns (uint timestamp) {\r\n                return toTimestamp(year, month, day, hour, 0, 0);\r\n        }\r\n\r\n        function toTimestamp(uint16 year, uint8 month, uint8 day, uint8 hour, uint8 minute) public pure returns (uint timestamp) {\r\n                return toTimestamp(year, month, day, hour, minute, 0);\r\n        }\r\n\r\n        function toTimestamp(uint16 year, uint8 month, uint8 day, uint8 hour, uint8 minute, uint8 second) public pure returns (uint timestamp) {\r\n                uint16 i;\r\n\r\n                // Year\r\n                for (i = ORIGIN_YEAR; i < year; i++) {\r\n                        if (isLeapYear(i)) {\r\n                                timestamp += LEAP_YEAR_IN_SECONDS;\r\n                        }\r\n                        else {\r\n                                timestamp += YEAR_IN_SECONDS;\r\n                        }\r\n                }\r\n\r\n                // Month\r\n                uint8[12] memory monthDayCounts;\r\n                monthDayCounts[0] = 31;\r\n                if (isLeapYear(year)) {\r\n                        monthDayCounts[1] = 29;\r\n                }\r\n                else {\r\n                        monthDayCounts[1] = 28;\r\n                }\r\n                monthDayCounts[2] = 31;\r\n                monthDayCounts[3] = 30;\r\n                monthDayCounts[4] = 31;\r\n                monthDayCounts[5] = 30;\r\n                monthDayCounts[6] = 31;\r\n                monthDayCounts[7] = 31;\r\n                monthDayCounts[8] = 30;\r\n                monthDayCounts[9] = 31;\r\n                monthDayCounts[10] = 30;\r\n                monthDayCounts[11] = 31;\r\n\r\n                for (i = 1; i < month; i++) {\r\n                        timestamp += DAY_IN_SECONDS * monthDayCounts[i - 1];\r\n                }\r\n\r\n                // Day\r\n                timestamp += DAY_IN_SECONDS * (day - 1);\r\n\r\n                // Hour\r\n                timestamp += HOUR_IN_SECONDS * (hour);\r\n\r\n                // Minute\r\n                timestamp += MINUTE_IN_SECONDS * (minute);\r\n\r\n                // Second\r\n                timestamp += second;\r\n\r\n                return timestamp;\r\n        }\r\n\r\n\r\n        \r\n}",
  "sourcePath": "D:\\projects\\Bounty_1_truffle\\contracts\\DateTime.sol",
  "compiler": {
    "name": "solc",
    "version": "0.8.9+commit.e5eed63a.Emscripten.clang"
  },
  "schemaVersion": "3.4.5",
  "updatedAt": "2022-02-27T14:35:27.917Z",
  "devdoc": {
    "kind": "dev",
    "methods": {},
    "version": 1
  },
  "userdoc": {
    "kind": "user",
    "methods": {},
    "version": 1
  }
}