{
  "contractName": "GasTesting",
  "abi": [
    {
      "inputs": [],
      "name": "Check",
      "outputs": [],
      "stateMutability": "nonpayable",
      "type": "function"
    }
  ],
  "bytecode": "0x608060405234801561001057600080fd5b50610132806100206000396000f3fe6080604052348015600f57600080fd5b506004361060285760003560e01c80632de4ca5914602d575b600080fd5b60336035565b005b60005b6064811215607c5760005b6064811215606b576001801415605b57600060019050505b818060649060b8565b9250506043565b50808060759060b8565b9150506038565b50565b7f4e487b7100000000000000000000000000000000000000000000000000000000600052601160045260246000fd5b6000819050919050565b600060c18260ae565b91507f7fffffffffffffffffffffffffffffffffffffffffffffffffffffffffffffff82141560f15760f0607f565b5b60018201905091905056fea264697066735822122052628efe9e387c2f293ead2239b785900589e04059911cfdd6e406e026ab6f9564736f6c63430008090033",
  "immutableReferences": {},
  "source": "pragma solidity 0.8.9;\r\n\r\ncontract GasTesting {\r\n\r\n\r\nfunction Check() public {\r\n\r\nfor (int i = 0 ; i < 100 ; i++ )\r\n\r\n\r\nfor (int j = 0 ; j < 100 ; i++){\r\n\r\nif (1==1){\r\nuint assignn = 1;}\r\n\r\n\r\n\r\n}\r\n\r\n\r\n\r\n\r\n\r\n}\r\n\r\n\r\n\r\n\r\n\r\n\r\n\r\n\r\n\r\n\r\n\r\n\r\n\r\n}",
  "sourcePath": "D:\\projects\\Bounty_1_truffle\\contracts\\GasTesting.sol",
  "compiler": {
    "name": "solc",
    "version": "0.8.9+commit.e5eed63a.Emscripten.clang"
  },
  "schemaVersion": "3.4.5",
  "updatedAt": "2022-02-27T14:35:27.933Z",
  "devdoc": {
    "kind": "dev",
    "methods": {},
    "version": 1
  },
  "userdoc": {
    "kind": "user",
    "methods": {},
    "version": 1
  }
}