{
  "contractName": "TradeCenter",
  "abi": [
    {
      "inputs": [],
      "stateMutability": "nonpayable",
      "type": "constructor"
    },
    {
      "stateMutability": "payable",
      "type": "receive"
    },
    {
      "inputs": [],
      "name": "getLatestPrice",
      "outputs": [
        {
          "internalType": "int256",
          "name": "",
          "type": "int256"
        }
      ],
      "stateMutability": "view",
      "type": "function"
    },
    {
      "inputs": [],
      "name": "getDaiBalance",
      "outputs": [
        {
          "internalType": "uint256",
          "name": "",
          "type": "uint256"
        }
      ],
      "stateMutability": "view",
      "type": "function"
    },
    {
      "inputs": [],
      "name": "getWETHBalance",
      "outputs": [
        {
          "internalType": "uint256",
          "name": "",
          "type": "uint256"
        }
      ],
      "stateMutability": "view",
      "type": "function"
    },
    {
      "inputs": [],
      "name": "getUSDTBalance",
      "outputs": [
        {
          "internalType": "uint256",
          "name": "",
          "type": "uint256"
        }
      ],
      "stateMutability": "view",
      "type": "function"
    },
    {
      "inputs": [
        {
          "internalType": "address",
          "name": "_tokenIn",
          "type": "address"
        },
        {
          "internalType": "address",
          "name": "_tokenOut",
          "type": "address"
        },
        {
          "internalType": "uint256",
          "name": "_amountIn",
          "type": "uint256"
        },
        {
          "internalType": "uint256",
          "name": "_amountOutMin",
          "type": "uint256"
        },
        {
          "internalType": "address",
          "name": "_to",
          "type": "address"
        }
      ],
      "name": "swap",
      "outputs": [],
      "stateMutability": "nonpayable",
      "type": "function"
    },
    {
      "inputs": [
        {
          "internalType": "address",
          "name": "_tokenIn",
          "type": "address"
        },
        {
          "internalType": "address",
          "name": "_tokenOut",
          "type": "address"
        },
        {
          "internalType": "uint256",
          "name": "_amountIn",
          "type": "uint256"
        },
        {
          "internalType": "uint256",
          "name": "_amountOutMin",
          "type": "uint256"
        }
      ],
      "name": "simpleswap",
      "outputs": [],
      "stateMutability": "nonpayable",
      "type": "function"
    },
    {
      "inputs": [
        {
          "internalType": "address",
          "name": "_tokenIn",
          "type": "address"
        },
        {
          "internalType": "address",
          "name": "_tokenOut",
          "type": "address"
        },
        {
          "internalType": "uint256",
          "name": "_amountIn",
          "type": "uint256"
        }
      ],
      "name": "getAmountOutMin",
      "outputs": [
        {
          "internalType": "uint256",
          "name": "",
          "type": "uint256"
        }
      ],
      "stateMutability": "view",
      "type": "function"
    },
    {
      "inputs": [
        {
          "internalType": "address",
          "name": "_tokenIn",
          "type": "address"
        },
        {
          "internalType": "uint256",
          "name": "_amountIn",
          "type": "uint256"
        }
      ],
      "name": "depositerc20",
      "outputs": [],
      "stateMutability": "nonpayable",
      "type": "function"
    }
  ],
  "bytecode": "0x608060405234801561001057600080fd5b50600080546001600160a01b031916735f4ec3df9cbd43714fe2740f5e3616155c5b841917905561102d806100466000396000f3fe60806040526004361061007e5760003560e01c80638e15f4731161004e5780638e15f4731461010857806393b6a95a1461011d5780639785fac81461013d578063d5bcb9b51461015257600080fd5b8062cbb73b1461008a5780633c50eec1146100b15780634f0238b8146100d15780635ddc916a146100f357600080fd5b3661008557005b600080fd5b34801561009657600080fd5b5061009f610172565b60405190815260200160405180910390f35b3480156100bd57600080fd5b5061009f6100cc366004610c88565b610200565b3480156100dd57600080fd5b506100f16100ec366004610cc4565b610473565b005b3480156100ff57600080fd5b5061009f610754565b34801561011457600080fd5b5061009f610790565b34801561012957600080fd5b506100f1610138366004610d06565b61082c565b34801561014957600080fd5b5061009f6108b7565b34801561015e57600080fd5b506100f161016d366004610d30565b6108f3565b6040516370a0823160e01b8152306004820152600090819073c02aaa39b223fe8d0a0e5c4f27ead9083c756cc2906370a08231906024015b60206040518083038186803b1580156101c257600080fd5b505afa1580156101d6573d6000803e3d6000fd5b505050506040513d601f19601f820116820180604052508101906101fa9190610d87565b92915050565b600060606001600160a01b03851673c02aaa39b223fe8d0a0e5c4f27ead9083c756cc2148061024b57506001600160a01b03841673c02aaa39b223fe8d0a0e5c4f27ead9083c756cc2145b156102dd576040805160028082526060820183529091602083019080368337019050509050848160008151811061028457610284610db6565b60200260200101906001600160a01b031690816001600160a01b03168152505083816001815181106102b8576102b8610db6565b60200260200101906001600160a01b031690816001600160a01b0316815250506103af565b604080516003808252608082019092529060208201606080368337019050509050848160008151811061031257610312610db6565b60200260200101906001600160a01b031690816001600160a01b03168152505073c02aaa39b223fe8d0a0e5c4f27ead9083c756cc28160018151811061035a5761035a610db6565b60200260200101906001600160a01b031690816001600160a01b031681525050838160028151811061038e5761038e610db6565b60200260200101906001600160a01b031690816001600160a01b0316815250505b60405163d06ca61f60e01b8152600090737a250d5630b4cf539739df2c5dacb4c659f2488d9063d06ca61f906103eb9087908690600401610e10565b60006040518083038186803b15801561040357600080fd5b505afa158015610417573d6000803e3d6000fd5b505050506040513d6000823e601f3d908101601f1916820160405261043f9190810190610e31565b905080600183516104509190610f05565b8151811061046057610460610db6565b6020026020010151925050509392505050565b60405163095ea7b360e01b8152737a250d5630b4cf539739df2c5dacb4c659f2488d6004820152602481018390526001600160a01b0385169063095ea7b390604401602060405180830381600087803b1580156104cf57600080fd5b505af11580156104e3573d6000803e3d6000fd5b505050506040513d601f19601f820116820180604052508101906105079190610f1c565b504260606001600160a01b03861673c02aaa39b223fe8d0a0e5c4f27ead9083c756cc2148061055257506001600160a01b03851673c02aaa39b223fe8d0a0e5c4f27ead9083c756cc2145b156105e4576040805160028082526060820183529091602083019080368337019050509050858160008151811061058b5761058b610db6565b60200260200101906001600160a01b031690816001600160a01b03168152505084816001815181106105bf576105bf610db6565b60200260200101906001600160a01b031690816001600160a01b0316815250506106b6565b604080516003808252608082019092529060208201606080368337019050509050858160008151811061061957610619610db6565b60200260200101906001600160a01b031690816001600160a01b03168152505073c02aaa39b223fe8d0a0e5c4f27ead9083c756cc28160018151811061066157610661610db6565b60200260200101906001600160a01b031690816001600160a01b031681525050848160028151811061069557610695610db6565b60200260200101906001600160a01b031690816001600160a01b0316815250505b6040516338ed173960e01b8152737a250d5630b4cf539739df2c5dacb4c659f2488d906338ed1739906106f59087908790869030904290600401610f45565b600060405180830381600087803b15801561070f57600080fd5b505af1158015610723573d6000803e3d6000fd5b505050506040513d6000823e601f3d908101601f1916820160405261074b9190810190610e31565b50505050505050565b6040516370a0823160e01b8152306004820152600090819073111111111117dc0aa78b770fa6a738034120c302906370a08231906024016101aa565b60008060008060008060008054906101000a90046001600160a01b03166001600160a01b031663feaf968c6040518163ffffffff1660e01b815260040160a06040518083038186803b1580156107e557600080fd5b505afa1580156107f9573d6000803e3d6000fd5b505050506040513d601f19601f8201168201806040525081019061081d9190610f9b565b50919998505050505050505050565b6040516323b872dd60e01b8152336004820152306024820152604481018290526001600160a01b038316906323b872dd90606401602060405180830381600087803b15801561087a57600080fd5b505af115801561088e573d6000803e3d6000fd5b505050506040513d601f19601f820116820180604052508101906108b29190610f1c565b505050565b6040516370a0823160e01b8152306004820152600090819073dac17f958d2ee523a2206206994597c13d831ec7906370a08231906024016101aa565b6040516323b872dd60e01b8152336004820152306024820152604481018490526001600160a01b038616906323b872dd90606401602060405180830381600087803b15801561094157600080fd5b505af1158015610955573d6000803e3d6000fd5b505050506040513d601f19601f820116820180604052508101906109799190610f1c565b5060405163095ea7b360e01b8152737a250d5630b4cf539739df2c5dacb4c659f2488d6004820152602481018490526001600160a01b0386169063095ea7b390604401602060405180830381600087803b1580156109d657600080fd5b505af11580156109ea573d6000803e3d6000fd5b505050506040513d601f19601f82011682018060405250810190610a0e9190610f1c565b506000610a1e42620186a0610fdf565b905060606001600160a01b03871673c02aaa39b223fe8d0a0e5c4f27ead9083c756cc21480610a6957506001600160a01b03861673c02aaa39b223fe8d0a0e5c4f27ead9083c756cc2145b15610afb5760408051600280825260608201835290916020830190803683370190505090508681600081518110610aa257610aa2610db6565b60200260200101906001600160a01b031690816001600160a01b0316815250508581600181518110610ad657610ad6610db6565b60200260200101906001600160a01b031690816001600160a01b031681525050610bcd565b6040805160038082526080820190925290602082016060803683370190505090508681600081518110610b3057610b30610db6565b60200260200101906001600160a01b031690816001600160a01b03168152505073c02aaa39b223fe8d0a0e5c4f27ead9083c756cc281600181518110610b7857610b78610db6565b60200260200101906001600160a01b031690816001600160a01b0316815250508581600281518110610bac57610bac610db6565b60200260200101906001600160a01b031690816001600160a01b0316815250505b6040516338ed173960e01b8152737a250d5630b4cf539739df2c5dacb4c659f2488d906338ed173990610c0c9088908890869089908990600401610f45565b600060405180830381600087803b158015610c2657600080fd5b505af1158015610c3a573d6000803e3d6000fd5b505050506040513d6000823e601f3d908101601f19168201604052610c629190810190610e31565b5050505050505050565b80356001600160a01b0381168114610c8357600080fd5b919050565b600080600060608486031215610c9d57600080fd5b610ca684610c6c565b9250610cb460208501610c6c565b9150604084013590509250925092565b60008060008060808587031215610cda57600080fd5b610ce385610c6c565b9350610cf160208601610c6c565b93969395505050506040820135916060013590565b60008060408385031215610d1957600080fd5b610d2283610c6c565b946020939093013593505050565b600080600080600060a08688031215610d4857600080fd5b610d5186610c6c565b9450610d5f60208701610c6c565b93506040860135925060608601359150610d7b60808701610c6c565b90509295509295909350565b600060208284031215610d9957600080fd5b5051919050565b634e487b7160e01b600052604160045260246000fd5b634e487b7160e01b600052603260045260246000fd5b600081518084526020808501945080840160005b83811015610e055781516001600160a01b031687529582019590820190600101610de0565b509495945050505050565b828152604060208201526000610e296040830184610dcc565b949350505050565b60006020808385031215610e4457600080fd5b825167ffffffffffffffff80821115610e5c57600080fd5b818501915085601f830112610e7057600080fd5b815181811115610e8257610e82610da0565b8060051b604051601f19603f83011681018181108582111715610ea757610ea7610da0565b604052918252848201925083810185019188831115610ec557600080fd5b938501935b82851015610ee357845184529385019392850192610eca565b98975050505050505050565b634e487b7160e01b600052601160045260246000fd5b600082821015610f1757610f17610eef565b500390565b600060208284031215610f2e57600080fd5b81518015158114610f3e57600080fd5b9392505050565b85815284602082015260a060408201526000610f6460a0830186610dcc565b6001600160a01b0394909416606083015250608001529392505050565b805169ffffffffffffffffffff81168114610c8357600080fd5b600080600080600060a08688031215610fb357600080fd5b610fbc86610f81565b9450602086015193506040860151925060608601519150610d7b60808701610f81565b60008219821115610ff257610ff2610eef565b50019056fea2646970667358221220a9cb5330b2d2c008454c75874c3e3c3caf3d8a8af3f9678587a4b3a90e2d7b1264736f6c63430008090033",
  "immutableReferences": {},
  "source": "pragma solidity 0.8.9;\r\nimport \"./AggregatorV3Interface.sol\";\r\nimport \"@openzeppelin/contracts/token/ERC20/IERC20.sol\";\r\n//import \"@chainlink/contracts/src/v0.8/interfaces/AggregatorV3Interface.sol\";\r\n\r\ninterface IUniswapV2Router {\r\n  function getAmountsOut(uint256 amountIn, address[] memory path)\r\n    external\r\n    view\r\n    returns (uint256[] memory amounts);\r\n  \r\n  function swapExactTokensForTokens(\r\n  \r\n    //amount of tokens we are sending in\r\n    uint256 amountIn,\r\n    //the minimum amount of tokens we want out of the trade\r\n    uint256 amountOutMin,\r\n    //list of token addresses we are going to trade in.  this is necessary to calculate amounts\r\n    address[] calldata path,\r\n    //this is the address we are going to send the output tokens to\r\n    address to,\r\n    //the last time that the trade is valid for\r\n    uint256 deadline\r\n  ) external returns (uint256[] memory amounts);\r\n}\r\n\r\ninterface IUniswapV2Pair {\r\n  function token0() external view returns (address);\r\n  function token1() external view returns (address);\r\n  function swap(\r\n    uint256 amount0Out,\r\n    uint256 amount1Out,\r\n    address to,\r\n    bytes calldata data\r\n  ) external;\r\n}\r\n\r\ninterface IUniswapV2Factory {\r\n  function getPair(address token0, address token1) external returns (address);\r\n}\r\n\r\n\r\n\r\n\r\n\r\n/*interface IERC20 {\r\n    function totalSupply() external view returns (uint);\r\n    function balanceOf(address account) external view returns (uint);\r\n    function transfer(address recipient, uint amount) external returns (bool);\r\n    function allowance(address owner, address spender) external view returns (uint);\r\n    function approve(address spender, uint amount) external returns (bool);\r\n    function transferFrom(\r\n        address sender,\r\n        address recipient,\r\n        uint amount\r\n    ) external returns (bool);\r\n    event Transfer(address indexed from, address indexed to, uint value);\r\n    event Approval(address indexed owner, address indexed spender, uint value);\r\n}*/\r\n\r\n\r\n\r\ncontract TradeCenter {\r\n\r\n    AggregatorV3Interface internal priceFeed;\r\n     address internal constant UNISWAP_V2_ROUTER = 0x7a250d5630B4cF539739dF2C5dAcb4c659F2488D;\r\n    \r\n    //address of WETH token.  This is needed because some times it is better to trade through WETH.  \r\n    //you might get a better price using WETH.  \r\n    //example trading from token A to WETH then WETH to token B might result in a better price\r\n    address internal constant WETH = 0xC02aaA39b223FE8D0A0e5C4F27eAD9083C756Cc2;\r\n\r\n    \r\n\r\n    /**\r\n     * Network: Kovan\r\n     * Aggregator: ETH/USD\r\n     * Address: 0x9326BFA02ADD2366b30bacB125260Af641031331\r\n     */\r\n    constructor() {\r\n        priceFeed = AggregatorV3Interface(0x5f4eC3Df9cbd43714FE2740f5E3616155c5b8419);\r\n    }\r\n\r\n    /**\r\n     * Returns the latest price\r\n     */\r\n\r\n    function getLatestPrice() public view returns (int) {\r\n        (\r\n            uint80 roundID, \r\n            int price,\r\n            uint startedAt,\r\n            uint timeStamp,\r\n            uint80 answeredInRound\r\n        ) = priceFeed.latestRoundData();\r\n        return price;\r\n    }\r\n\r\n  \r\n\r\nfunction getDaiBalance () public view returns (uint){\r\nuint balance;\r\nbalance = IERC20(0x111111111117dC0aa78b770fA6A738034120C302).balanceOf(address(this));\r\nreturn balance;\r\n    }\r\n\r\n\r\nfunction getWETHBalance () public view returns (uint){\r\nuint balance;\r\nbalance = IERC20(0xC02aaA39b223FE8D0A0e5C4F27eAD9083C756Cc2).balanceOf(address(this));\r\n//0xd0a1e359811322d97991e03f863a0c30c2cf029c\r\nreturn balance;\r\n    }\r\n\r\n\r\n\r\nfunction getUSDTBalance() public view returns (uint){\r\nuint balance;\r\nbalance = IERC20(0xdAC17F958D2ee523a2206206994597C13D831ec7).balanceOf(address(this));\r\nreturn balance;\r\n    }\r\n\r\n\r\n\r\n\r\nfunction swap(address _tokenIn, address _tokenOut, uint256 _amountIn, uint256 _amountOutMin, address _to) external {\r\n      \r\n    //first we need to transfer the amount in tokens from the msg.sender to this contract\r\n    //this contract will have the amount of in tokens\r\n    IERC20(_tokenIn).transferFrom(msg.sender, address(this), _amountIn);\r\n    \r\n    //next we need to allow the uniswapv2 router to spend the token we just sent to this contract\r\n    //by calling IERC20 approve you allow the uniswap contract to spend the tokens in this contract \r\n    IERC20(_tokenIn).approve(UNISWAP_V2_ROUTER, _amountIn);\r\n    uint time = block.timestamp + 100000;\r\n\r\n    //path is an array of addresses.\r\n    //this path array will have 3 addresses [tokenIn, WETH, tokenOut]\r\n    //the if statement below takes into account if token in or token out is WETH.  then the path is only 2 addresses\r\n    address[] memory path;\r\n    if (_tokenIn == WETH || _tokenOut == WETH) {\r\n      path = new address[](2);\r\n      path[0] = _tokenIn;\r\n      path[1] = _tokenOut;\r\n    } else {\r\n      path = new address[](3);\r\n      path[0] = _tokenIn;\r\n      path[1] = WETH;\r\n      path[2] = _tokenOut;\r\n    }\r\n        //then we will call swapExactTokensForTokens\r\n        //for the deadline we will pass in block.timestamp\r\n        //the deadline is the latest time the trade is valid for\r\n        IUniswapV2Router(UNISWAP_V2_ROUTER).swapExactTokensForTokens(_amountIn, _amountOutMin, path, _to, time);\r\n    }\r\n\r\n\r\n\r\nfunction simpleswap(address _tokenIn, address _tokenOut, uint256 _amountIn, uint256 _amountOutMin) external {\r\n      \r\n    //first we need to transfer the amount in tokens from the msg.sender to this contract\r\n    //this contract will have the amount of in tokens\r\n    //IERC20(_tokenIn).transferFrom(msg.sender, address(this), _amountIn);\r\n    \r\n    //next we need to allow the uniswapv2 router to spend the token we just sent to this contract\r\n    //by calling IERC20 approve you allow the uniswap contract to spend the tokens in this contract \r\n\r\n    IERC20(_tokenIn).approve(UNISWAP_V2_ROUTER, _amountIn);\r\n    uint time = block.timestamp;\r\n\r\n    //path is an array of addresses.\r\n    //this path array will have 3 addresses [tokenIn, WETH, tokenOut]\r\n    //the if statement below takes into account if token in or token out is WETH.  then the path is only 2 addresses\r\n    address[] memory path;\r\n    if (_tokenIn == WETH || _tokenOut == WETH) {\r\n      path = new address[](2);\r\n      path[0] = _tokenIn;\r\n      path[1] = _tokenOut;\r\n    } else {\r\n      path = new address[](3);\r\n      path[0] = _tokenIn;\r\n      path[1] = WETH;\r\n      path[2] = _tokenOut;\r\n    }\r\n        //then we will call swapExactTokensForTokens\r\n        //for the deadline we will pass in block.timestamp\r\n        //the deadline is the latest time the trade is valid for\r\n        IUniswapV2Router(UNISWAP_V2_ROUTER).swapExactTokensForTokens(_amountIn, _amountOutMin, path,address(this) , block.timestamp);\r\n    }\r\n\r\n\r\n\r\nfunction getAmountOutMin(address _tokenIn, address _tokenOut, uint256 _amountIn) external view returns (uint256) {\r\n\r\n       //path is an array of addresses.\r\n       //this path array will have 3 addresses [tokenIn, WETH, tokenOut]\r\n       //the if statement below takes into account if token in or token out is WETH.  then the path is only 2 addresses\r\n        address[] memory path;\r\n        if (_tokenIn == WETH || _tokenOut == WETH) {\r\n            path = new address[](2);\r\n            path[0] = _tokenIn;\r\n            path[1] = _tokenOut;\r\n        } else {\r\n            path = new address[](3);\r\n            path[0] = _tokenIn;\r\n            path[1] = WETH;\r\n            path[2] = _tokenOut;\r\n        }\r\n        \r\n        uint256[] memory amountOutMins = IUniswapV2Router(UNISWAP_V2_ROUTER).getAmountsOut(_amountIn, path);\r\n        return amountOutMins[path.length -1];  \r\n    }  \r\n\r\nfunction depositerc20(address _tokenIn,uint _amountIn) external {\r\n\r\nIERC20(_tokenIn).transferFrom(msg.sender, address(this), _amountIn);\r\n\r\n}\r\n\r\n\r\n//function checkPayables (offering)\r\n\r\n\r\n\r\n\r\n\r\nreceive() external payable {\r\n        //emit Deposit(msg.sender, msg.value, address(this).balance);\r\n    }\r\n\r\n\r\n} \r\n\r\n\r\n\r\n    \r\n/////// BUY BACK PART /////////\r\n// how will we know the agreed on price?\r\n// how will the issuer fail to pay a coupon?\r\n\r\n/*function checkPayables(uint256 id) public returns(uint){\r\n    uint buyerGets;\r\n    Offerings[ContractMap[id].offeringID].fixing_counter+=1;\r\n    if (price< (Offerings[ContractMap[id].offeringID].di_barrier* ethusdt0)){\r\n    Offerings[ContractMap[id].offeringID].Di_barrier_activated=true;\r\n    }\r\n\r\n\r\n    // if not last fixing\r\n    if (Offerings[ContractMap[id].offeringID].fixing_counter< Offerings[ContractMap[id].offeringID].Nb_fixings){\r\n        if(price > Offerings[ContractMap[id].offeringID].Upoutbarrier*ethusdt0){\r\n            // send amount X to buyer+ high_coupon X\r\n            buyerGets= ContractMap[id].amount + (Offerings[ContractMap[id].offeringID].high_coupon*ContractMap[id].amount);\r\n        }\r\n        else if (price> Offerings[ContractMap[id].offeringID].high_coupon_barrier*ethusdt0){\r\n            // send buyer hight_couponX\r\n            buyerGets= Offerings[ContractMap[id].offeringID].high_coupon*ContractMap[id].amount;\r\n\r\n        }\r\n        else if (Offerings[ContractMap[id].offeringID].Di_barrier_activated== false){\r\n            //buyer get smaller_couponX\r\n            buyerGets= ContractMap[id].amount + Offerings[ContractMap[id].offeringID].smaller_coupon * ContractMap[id].amount;\r\n\r\n        }\r\n        else {\r\n            // buyer gets nothing\r\n            buyerGets=0;\r\n        }\r\n    }\r\n\r\n    else{\r\n        \r\n        if (price> Offerings[ContractMap[id].offeringID].high_coupon_barrier*ethusdt0){\r\n            // send buyer hight_couponX + X (what is this amount?)\r\n            buyerGets= ContractMap[id].amount + (Offerings[ContractMap[id].offeringID].high_coupon*ContractMap[id].amount);\r\n  \r\n        }\r\n        else if(Offerings[ContractMap[id].offeringID].Di_barrier_activated= false){\r\n            \r\n            //buyer gets lower_coupon*X+X\r\n            \r\n            buyerGets= ContractMap[id].amount + (Offerings[ContractMap[id].offeringID].smaller_coupon *ContractMap[id].amount);\r\n\r\n            \r\n        \r\n        }\r\n        else {\r\n            //X= getamount(id,)\r\n            buyerGets= (ContractMap[id].amount/Offerings[ContractMap[id].offeringID].high_coupon_barrier)/ ethusdt0;    \r\n        }\r\n        \r\n    }\r\n\r\n\r\n}*/\r\n",
  "sourcePath": "D:\\projects\\Bounty_1_truffle\\contracts\\TradeCenter.sol",
  "compiler": {
    "name": "solc",
    "version": "0.8.9+commit.e5eed63a.Emscripten.clang"
  },
  "schemaVersion": "3.4.5",
  "updatedAt": "2022-03-01T17:19:43.841Z",
  "devdoc": {
    "kind": "dev",
    "methods": {},
    "version": 1
  },
  "userdoc": {
    "kind": "user",
    "methods": {
      "constructor": {
        "notice": "Network: Kovan Aggregator: ETH/USD Address: 0x9326BFA02ADD2366b30bacB125260Af641031331"
      },
      "getLatestPrice()": {
        "notice": "Returns the latest price"
      }
    },
    "version": 1
  }
}