{
  "contractName": "TradeCenter",
  "abi": [
    {
      "inputs": [],
      "stateMutability": "nonpayable",
      "type": "constructor"
    },
    {
      "stateMutability": "payable",
      "type": "receive",
      "payable": true
    },
    {
      "inputs": [],
      "name": "getLatestPrice",
      "outputs": [
        {
          "internalType": "int256",
          "name": "",
          "type": "int256"
        }
      ],
      "stateMutability": "view",
      "type": "function",
      "constant": true
    },
    {
      "inputs": [],
      "name": "fillPriceLog",
      "outputs": [],
      "stateMutability": "nonpayable",
      "type": "function"
    },
    {
      "inputs": [],
      "name": "getDaiBalance",
      "outputs": [
        {
          "internalType": "uint256",
          "name": "",
          "type": "uint256"
        }
      ],
      "stateMutability": "view",
      "type": "function",
      "constant": true
    },
    {
      "inputs": [],
      "name": "getWETHBalance",
      "outputs": [
        {
          "internalType": "uint256",
          "name": "",
          "type": "uint256"
        }
      ],
      "stateMutability": "view",
      "type": "function",
      "constant": true
    },
    {
      "inputs": [],
      "name": "getUSDTBalance",
      "outputs": [
        {
          "internalType": "uint256",
          "name": "",
          "type": "uint256"
        }
      ],
      "stateMutability": "view",
      "type": "function",
      "constant": true
    },
    {
      "inputs": [
        {
          "internalType": "address",
          "name": "_tokenIn",
          "type": "address"
        },
        {
          "internalType": "address",
          "name": "_tokenOut",
          "type": "address"
        },
        {
          "internalType": "uint256",
          "name": "_amountIn",
          "type": "uint256"
        },
        {
          "internalType": "uint256",
          "name": "_amountOutMin",
          "type": "uint256"
        },
        {
          "internalType": "address",
          "name": "_to",
          "type": "address"
        }
      ],
      "name": "swap",
      "outputs": [],
      "stateMutability": "nonpayable",
      "type": "function"
    },
    {
      "inputs": [
        {
          "internalType": "address",
          "name": "_tokenIn",
          "type": "address"
        },
        {
          "internalType": "address",
          "name": "_tokenOut",
          "type": "address"
        },
        {
          "internalType": "uint256",
          "name": "_amountIn",
          "type": "uint256"
        },
        {
          "internalType": "uint256",
          "name": "_amountOutMin",
          "type": "uint256"
        }
      ],
      "name": "simpleswap",
      "outputs": [],
      "stateMutability": "nonpayable",
      "type": "function"
    },
    {
      "inputs": [
        {
          "internalType": "address",
          "name": "_tokenIn",
          "type": "address"
        },
        {
          "internalType": "address",
          "name": "_tokenOut",
          "type": "address"
        },
        {
          "internalType": "uint256",
          "name": "_amountIn",
          "type": "uint256"
        }
      ],
      "name": "getAmountOutMin",
      "outputs": [
        {
          "internalType": "uint256",
          "name": "",
          "type": "uint256"
        }
      ],
      "stateMutability": "view",
      "type": "function",
      "constant": true
    },
    {
      "inputs": [
        {
          "internalType": "address",
          "name": "_tokenIn",
          "type": "address"
        },
        {
          "internalType": "uint256",
          "name": "_amountIn",
          "type": "uint256"
        }
      ],
      "name": "depositerc20",
      "outputs": [],
      "stateMutability": "nonpayable",
      "type": "function"
    }
  ],
  "bytecode": "0x608060405234801561001057600080fd5b50735f4ec3df9cbd43714fe2740f5e3616155c5b84196000806101000a81548173ffffffffffffffffffffffffffffffffffffffff021916908373ffffffffffffffffffffffffffffffffffffffff160217905550611ac6806100746000396000f3fe6080604052600436106100895760003560e01c80638e15f473116100595780638e15f4731461015157806393b6a95a1461017c5780639785fac8146101a5578063b07627c8146101d0578063d5bcb9b5146101e757610090565b8062cbb73b146100955780633c50eec1146100c05780634f0238b8146100fd5780635ddc916a1461012657610090565b3661009057005b600080fd5b3480156100a157600080fd5b506100aa610210565b6040516100b79190611242565b60405180910390f35b3480156100cc57600080fd5b506100e760048036038101906100e291906112fb565b6102b9565b6040516100f49190611242565b60405180910390f35b34801561010957600080fd5b50610124600480360381019061011f919061134e565b610667565b005b34801561013257600080fd5b5061013b610a94565b6040516101489190611242565b60405180910390f35b34801561015d57600080fd5b50610166610b3d565b60405161017391906113ce565b60405180910390f35b34801561018857600080fd5b506101a3600480360381019061019e91906113e9565b610bf9565b005b3480156101b157600080fd5b506101ba610c8d565b6040516101c79190611242565b60405180910390f35b3480156101dc57600080fd5b506101e5610d36565b005b3480156101f357600080fd5b5061020e60048036038101906102099190611429565b610d5d565b005b60008073c02aaa39b223fe8d0a0e5c4f27ead9083c756cc273ffffffffffffffffffffffffffffffffffffffff166370a08231306040518263ffffffff1660e01b815260040161026091906114b3565b60206040518083038186803b15801561027857600080fd5b505afa15801561028c573d6000803e3d6000fd5b505050506040513d601f19601f820116820180604052508101906102b091906114e3565b90508091505090565b6000606073c02aaa39b223fe8d0a0e5c4f27ead9083c756cc273ffffffffffffffffffffffffffffffffffffffff168573ffffffffffffffffffffffffffffffffffffffff16148061034a575073c02aaa39b223fe8d0a0e5c4f27ead9083c756cc273ffffffffffffffffffffffffffffffffffffffff168473ffffffffffffffffffffffffffffffffffffffff16145b1561043e57600267ffffffffffffffff81111561036a57610369611510565b5b6040519080825280602002602001820160405280156103985781602001602082028036833780820191505090505b50905084816000815181106103b0576103af61153f565b5b602002602001019073ffffffffffffffffffffffffffffffffffffffff16908173ffffffffffffffffffffffffffffffffffffffff168152505083816001815181106103ff576103fe61153f565b5b602002602001019073ffffffffffffffffffffffffffffffffffffffff16908173ffffffffffffffffffffffffffffffffffffffff168152505061058c565b600367ffffffffffffffff81111561045957610458611510565b5b6040519080825280602002602001820160405280156104875781602001602082028036833780820191505090505b509050848160008151811061049f5761049e61153f565b5b602002602001019073ffffffffffffffffffffffffffffffffffffffff16908173ffffffffffffffffffffffffffffffffffffffff168152505073c02aaa39b223fe8d0a0e5c4f27ead9083c756cc2816001815181106105025761050161153f565b5b602002602001019073ffffffffffffffffffffffffffffffffffffffff16908173ffffffffffffffffffffffffffffffffffffffff168152505083816002815181106105515761055061153f565b5b602002602001019073ffffffffffffffffffffffffffffffffffffffff16908173ffffffffffffffffffffffffffffffffffffffff16815250505b6000737a250d5630b4cf539739df2c5dacb4c659f2488d73ffffffffffffffffffffffffffffffffffffffff1663d06ca61f85846040518363ffffffff1660e01b81526004016105dd92919061162c565b60006040518083038186803b1580156105f557600080fd5b505afa158015610609573d6000803e3d6000fd5b505050506040513d6000823e3d601f19601f820116820180604052508101906106329190611786565b9050806001835161064391906117fe565b815181106106545761065361153f565b5b6020026020010151925050509392505050565b8373ffffffffffffffffffffffffffffffffffffffff1663095ea7b3737a250d5630b4cf539739df2c5dacb4c659f2488d846040518363ffffffff1660e01b81526004016106b6929190611832565b602060405180830381600087803b1580156106d057600080fd5b505af11580156106e4573d6000803e3d6000fd5b505050506040513d601f19601f820116820180604052508101906107089190611893565b506000429050606073c02aaa39b223fe8d0a0e5c4f27ead9083c756cc273ffffffffffffffffffffffffffffffffffffffff168673ffffffffffffffffffffffffffffffffffffffff16148061079d575073c02aaa39b223fe8d0a0e5c4f27ead9083c756cc273ffffffffffffffffffffffffffffffffffffffff168573ffffffffffffffffffffffffffffffffffffffff16145b1561089157600267ffffffffffffffff8111156107bd576107bc611510565b5b6040519080825280602002602001820160405280156107eb5781602001602082028036833780820191505090505b50905085816000815181106108035761080261153f565b5b602002602001019073ffffffffffffffffffffffffffffffffffffffff16908173ffffffffffffffffffffffffffffffffffffffff168152505084816001815181106108525761085161153f565b5b602002602001019073ffffffffffffffffffffffffffffffffffffffff16908173ffffffffffffffffffffffffffffffffffffffff16815250506109df565b600367ffffffffffffffff8111156108ac576108ab611510565b5b6040519080825280602002602001820160405280156108da5781602001602082028036833780820191505090505b50905085816000815181106108f2576108f161153f565b5b602002602001019073ffffffffffffffffffffffffffffffffffffffff16908173ffffffffffffffffffffffffffffffffffffffff168152505073c02aaa39b223fe8d0a0e5c4f27ead9083c756cc2816001815181106109555761095461153f565b5b602002602001019073ffffffffffffffffffffffffffffffffffffffff16908173ffffffffffffffffffffffffffffffffffffffff168152505084816002815181106109a4576109a361153f565b5b602002602001019073ffffffffffffffffffffffffffffffffffffffff16908173ffffffffffffffffffffffffffffffffffffffff16815250505b737a250d5630b4cf539739df2c5dacb4c659f2488d73ffffffffffffffffffffffffffffffffffffffff166338ed173985858430426040518663ffffffff1660e01b8152600401610a349594939291906118c0565b600060405180830381600087803b158015610a4e57600080fd5b505af1158015610a62573d6000803e3d6000fd5b505050506040513d6000823e3d601f19601f82011682018060405250810190610a8b9190611786565b50505050505050565b60008073111111111117dc0aa78b770fa6a738034120c30273ffffffffffffffffffffffffffffffffffffffff166370a08231306040518263ffffffff1660e01b8152600401610ae491906114b3565b60206040518083038186803b158015610afc57600080fd5b505afa158015610b10573d6000803e3d6000fd5b505050506040513d601f19601f82011682018060405250810190610b3491906114e3565b90508091505090565b60008060008060008060008054906101000a900473ffffffffffffffffffffffffffffffffffffffff1673ffffffffffffffffffffffffffffffffffffffff1663feaf968c6040518163ffffffff1660e01b815260040160a06040518083038186803b158015610bac57600080fd5b505afa158015610bc0573d6000803e3d6000fd5b505050506040513d601f19601f82011682018060405250810190610be49190611988565b94509450945094509450839550505050505090565b8173ffffffffffffffffffffffffffffffffffffffff166323b872dd3330846040518463ffffffff1660e01b8152600401610c3693929190611a03565b602060405180830381600087803b158015610c5057600080fd5b505af1158015610c64573d6000803e3d6000fd5b505050506040513d601f19601f82011682018060405250810190610c889190611893565b505050565b60008073dac17f958d2ee523a2206206994597c13d831ec773ffffffffffffffffffffffffffffffffffffffff166370a08231306040518263ffffffff1660e01b8152600401610cdd91906114b3565b60206040518083038186803b158015610cf557600080fd5b505afa158015610d09573d6000803e3d6000fd5b505050506040513d601f19601f82011682018060405250810190610d2d91906114e3565b90508091505090565b6000610d40610b3d565b905080600160004281526020019081526020016000208190555050565b8473ffffffffffffffffffffffffffffffffffffffff166323b872dd3330866040518463ffffffff1660e01b8152600401610d9a93929190611a03565b602060405180830381600087803b158015610db457600080fd5b505af1158015610dc8573d6000803e3d6000fd5b505050506040513d601f19601f82011682018060405250810190610dec9190611893565b508473ffffffffffffffffffffffffffffffffffffffff1663095ea7b3737a250d5630b4cf539739df2c5dacb4c659f2488d856040518363ffffffff1660e01b8152600401610e3c929190611832565b602060405180830381600087803b158015610e5657600080fd5b505af1158015610e6a573d6000803e3d6000fd5b505050506040513d601f19601f82011682018060405250810190610e8e9190611893565b506000620186a042610ea09190611a3a565b9050606073c02aaa39b223fe8d0a0e5c4f27ead9083c756cc273ffffffffffffffffffffffffffffffffffffffff168773ffffffffffffffffffffffffffffffffffffffff161480610f31575073c02aaa39b223fe8d0a0e5c4f27ead9083c756cc273ffffffffffffffffffffffffffffffffffffffff168673ffffffffffffffffffffffffffffffffffffffff16145b1561102557600267ffffffffffffffff811115610f5157610f50611510565b5b604051908082528060200260200182016040528015610f7f5781602001602082028036833780820191505090505b5090508681600081518110610f9757610f9661153f565b5b602002602001019073ffffffffffffffffffffffffffffffffffffffff16908173ffffffffffffffffffffffffffffffffffffffff16815250508581600181518110610fe657610fe561153f565b5b602002602001019073ffffffffffffffffffffffffffffffffffffffff16908173ffffffffffffffffffffffffffffffffffffffff1681525050611173565b600367ffffffffffffffff8111156110405761103f611510565b5b60405190808252806020026020018201604052801561106e5781602001602082028036833780820191505090505b50905086816000815181106110865761108561153f565b5b602002602001019073ffffffffffffffffffffffffffffffffffffffff16908173ffffffffffffffffffffffffffffffffffffffff168152505073c02aaa39b223fe8d0a0e5c4f27ead9083c756cc2816001815181106110e9576110e861153f565b5b602002602001019073ffffffffffffffffffffffffffffffffffffffff16908173ffffffffffffffffffffffffffffffffffffffff168152505085816002815181106111385761113761153f565b5b602002602001019073ffffffffffffffffffffffffffffffffffffffff16908173ffffffffffffffffffffffffffffffffffffffff16815250505b737a250d5630b4cf539739df2c5dacb4c659f2488d73ffffffffffffffffffffffffffffffffffffffff166338ed173986868487876040518663ffffffff1660e01b81526004016111c89594939291906118c0565b600060405180830381600087803b1580156111e257600080fd5b505af11580156111f6573d6000803e3d6000fd5b505050506040513d6000823e3d601f19601f8201168201806040525081019061121f9190611786565b5050505050505050565b6000819050919050565b61123c81611229565b82525050565b60006020820190506112576000830184611233565b92915050565b6000604051905090565b600080fd5b600080fd5b600073ffffffffffffffffffffffffffffffffffffffff82169050919050565b600061129c82611271565b9050919050565b6112ac81611291565b81146112b757600080fd5b50565b6000813590506112c9816112a3565b92915050565b6112d881611229565b81146112e357600080fd5b50565b6000813590506112f5816112cf565b92915050565b60008060006060848603121561131457611313611267565b5b6000611322868287016112ba565b9350506020611333868287016112ba565b9250506040611344868287016112e6565b9150509250925092565b6000806000806080858703121561136857611367611267565b5b6000611376878288016112ba565b9450506020611387878288016112ba565b9350506040611398878288016112e6565b92505060606113a9878288016112e6565b91505092959194509250565b6000819050919050565b6113c8816113b5565b82525050565b60006020820190506113e360008301846113bf565b92915050565b60008060408385031215611400576113ff611267565b5b600061140e858286016112ba565b925050602061141f858286016112e6565b9150509250929050565b600080600080600060a0868803121561144557611444611267565b5b6000611453888289016112ba565b9550506020611464888289016112ba565b9450506040611475888289016112e6565b9350506060611486888289016112e6565b9250506080611497888289016112ba565b9150509295509295909350565b6114ad81611291565b82525050565b60006020820190506114c860008301846114a4565b92915050565b6000815190506114dd816112cf565b92915050565b6000602082840312156114f9576114f8611267565b5b6000611507848285016114ce565b91505092915050565b7f4e487b7100000000000000000000000000000000000000000000000000000000600052604160045260246000fd5b7f4e487b7100000000000000000000000000000000000000000000000000000000600052603260045260246000fd5b600081519050919050565b600082825260208201905092915050565b6000819050602082019050919050565b6115a381611291565b82525050565b60006115b5838361159a565b60208301905092915050565b6000602082019050919050565b60006115d98261156e565b6115e38185611579565b93506115ee8361158a565b8060005b8381101561161f57815161160688826115a9565b9750611611836115c1565b9250506001810190506115f2565b5085935050505092915050565b60006040820190506116416000830185611233565b818103602083015261165381846115ce565b90509392505050565b600080fd5b6000601f19601f8301169050919050565b61167b82611661565b810181811067ffffffffffffffff8211171561169a57611699611510565b5b80604052505050565b60006116ad61125d565b90506116b98282611672565b919050565b600067ffffffffffffffff8211156116d9576116d8611510565b5b602082029050602081019050919050565b600080fd5b60006117026116fd846116be565b6116a3565b90508083825260208201905060208402830185811115611725576117246116ea565b5b835b8181101561174e578061173a88826114ce565b845260208401935050602081019050611727565b5050509392505050565b600082601f83011261176d5761176c61165c565b5b815161177d8482602086016116ef565b91505092915050565b60006020828403121561179c5761179b611267565b5b600082015167ffffffffffffffff8111156117ba576117b961126c565b5b6117c684828501611758565b91505092915050565b7f4e487b7100000000000000000000000000000000000000000000000000000000600052601160045260246000fd5b600061180982611229565b915061181483611229565b925082821015611827576118266117cf565b5b828203905092915050565b600060408201905061184760008301856114a4565b6118546020830184611233565b9392505050565b60008115159050919050565b6118708161185b565b811461187b57600080fd5b50565b60008151905061188d81611867565b92915050565b6000602082840312156118a9576118a8611267565b5b60006118b78482850161187e565b91505092915050565b600060a0820190506118d56000830188611233565b6118e26020830187611233565b81810360408301526118f481866115ce565b905061190360608301856114a4565b6119106080830184611233565b9695505050505050565b600069ffffffffffffffffffff82169050919050565b6119398161191a565b811461194457600080fd5b50565b60008151905061195681611930565b92915050565b611965816113b5565b811461197057600080fd5b50565b6000815190506119828161195c565b92915050565b600080600080600060a086880312156119a4576119a3611267565b5b60006119b288828901611947565b95505060206119c388828901611973565b94505060406119d4888289016114ce565b93505060606119e5888289016114ce565b92505060806119f688828901611947565b9150509295509295909350565b6000606082019050611a1860008301866114a4565b611a2560208301856114a4565b611a326040830184611233565b949350505050565b6000611a4582611229565b9150611a5083611229565b9250827fffffffffffffffffffffffffffffffffffffffffffffffffffffffffffffffff03821115611a8557611a846117cf565b5b82820190509291505056fea2646970667358221220bafe44ce3106953c5266a6e023904209a27409af903101d3dd92c63b95886c2164736f6c63430008090033",
  "immutableReferences": {},
  "source": "pragma solidity 0.8.9;\r\nimport \"./AggregatorV3Interface.sol\";\r\nimport \"@openzeppelin/contracts/token/ERC20/IERC20.sol\";\r\n//import \"@chainlink/contracts/src/v0.8/interfaces/AggregatorV3Interface.sol\";\r\n\r\ninterface IUniswapV2Router {\r\n  function getAmountsOut(uint256 amountIn, address[] memory path)\r\n    external\r\n    view\r\n    returns (uint256[] memory amounts);\r\n  \r\n  function swapExactTokensForTokens(\r\n  \r\n    //amount of tokens we are sending in\r\n    uint256 amountIn,\r\n    //the minimum amount of tokens we want out of the trade\r\n    uint256 amountOutMin,\r\n    //list of token addresses we are going to trade in.  this is necessary to calculate amounts\r\n    address[] calldata path,\r\n    //this is the address we are going to send the output tokens to\r\n    address to,\r\n    //the last time that the trade is valid for\r\n    uint256 deadline\r\n  ) external returns (uint256[] memory amounts);\r\n}\r\n\r\ninterface IUniswapV2Pair {\r\n  function token0() external view returns (address);\r\n  function token1() external view returns (address);\r\n  function swap(\r\n    uint256 amount0Out,\r\n    uint256 amount1Out,\r\n    address to,\r\n    bytes calldata data\r\n  ) external;\r\n}\r\n\r\ninterface IUniswapV2Factory {\r\n  function getPair(address token0, address token1) external returns (address);\r\n}\r\n\r\n\r\n\r\n\r\n\r\n/*interface IERC20 {\r\n    function totalSupply() external view returns (uint);\r\n    function balanceOf(address account) external view returns (uint);\r\n    function transfer(address recipient, uint amount) external returns (bool);\r\n    function allowance(address owner, address spender) external view returns (uint);\r\n    function approve(address spender, uint amount) external returns (bool);\r\n    function transferFrom(\r\n        address sender,\r\n        address recipient,\r\n        uint amount\r\n    ) external returns (bool);\r\n    event Transfer(address indexed from, address indexed to, uint value);\r\n    event Approval(address indexed owner, address indexed spender, uint value);\r\n}*/\r\n\r\n\r\n\r\ncontract TradeCenter {\r\n\r\n    AggregatorV3Interface internal priceFeed;\r\n     address internal constant UNISWAP_V2_ROUTER = 0x7a250d5630B4cF539739dF2C5dAcb4c659F2488D;\r\n    \r\n    //address of WETH token.  This is needed because some times it is better to trade through WETH.  \r\n    //you might get a better price using WETH.  \r\n    //example trading from token A to WETH then WETH to token B might result in a better price\r\n    address internal constant WETH = 0xC02aaA39b223FE8D0A0e5C4F27eAD9083C756Cc2;\r\n\r\n    mapping (uint => int ) EthPriceLog;\r\n\r\n    /**\r\n     * Network: Kovan\r\n     * Aggregator: ETH/USD\r\n     * Address: 0x9326BFA02ADD2366b30bacB125260Af641031331\r\n     */\r\n    constructor() {\r\n        priceFeed = AggregatorV3Interface(0x5f4eC3Df9cbd43714FE2740f5E3616155c5b8419);\r\n    }\r\n\r\n    /**\r\n     * Returns the latest price\r\n     */\r\n    function getLatestPrice() public view returns (int) {\r\n        (\r\n            uint80 roundID, \r\n            int price,\r\n            uint startedAt,\r\n            uint timeStamp,\r\n            uint80 answeredInRound\r\n        ) = priceFeed.latestRoundData();\r\n        return price;\r\n    }\r\n\r\n  function fillPriceLog () public {\r\n\r\nint price = getLatestPrice();\r\nEthPriceLog [block.timestamp] = price;\r\n  }\r\n\r\n\r\nfunction getDaiBalance () public view returns (uint){\r\nuint balance;\r\nbalance = IERC20(0x111111111117dC0aa78b770fA6A738034120C302).balanceOf(address(this));\r\nreturn balance;\r\n    }\r\n\r\n\r\nfunction getWETHBalance () public view returns (uint){\r\nuint balance;\r\nbalance = IERC20(0xC02aaA39b223FE8D0A0e5C4F27eAD9083C756Cc2).balanceOf(address(this));\r\n//0xd0a1e359811322d97991e03f863a0c30c2cf029c\r\nreturn balance;\r\n    }\r\n\r\n\r\n\r\nfunction getUSDTBalance() public view returns (uint){\r\nuint balance;\r\nbalance = IERC20(0xdAC17F958D2ee523a2206206994597C13D831ec7).balanceOf(address(this));\r\nreturn balance;\r\n    }\r\n\r\n\r\n\r\n\r\nfunction swap(address _tokenIn, address _tokenOut, uint256 _amountIn, uint256 _amountOutMin, address _to) external {\r\n      \r\n    //first we need to transfer the amount in tokens from the msg.sender to this contract\r\n    //this contract will have the amount of in tokens\r\n    IERC20(_tokenIn).transferFrom(msg.sender, address(this), _amountIn);\r\n    \r\n    //next we need to allow the uniswapv2 router to spend the token we just sent to this contract\r\n    //by calling IERC20 approve you allow the uniswap contract to spend the tokens in this contract \r\n    IERC20(_tokenIn).approve(UNISWAP_V2_ROUTER, _amountIn);\r\n    uint time = block.timestamp + 100000;\r\n\r\n    //path is an array of addresses.\r\n    //this path array will have 3 addresses [tokenIn, WETH, tokenOut]\r\n    //the if statement below takes into account if token in or token out is WETH.  then the path is only 2 addresses\r\n    address[] memory path;\r\n    if (_tokenIn == WETH || _tokenOut == WETH) {\r\n      path = new address[](2);\r\n      path[0] = _tokenIn;\r\n      path[1] = _tokenOut;\r\n    } else {\r\n      path = new address[](3);\r\n      path[0] = _tokenIn;\r\n      path[1] = WETH;\r\n      path[2] = _tokenOut;\r\n    }\r\n        //then we will call swapExactTokensForTokens\r\n        //for the deadline we will pass in block.timestamp\r\n        //the deadline is the latest time the trade is valid for\r\n        IUniswapV2Router(UNISWAP_V2_ROUTER).swapExactTokensForTokens(_amountIn, _amountOutMin, path, _to, time);\r\n    }\r\n\r\n\r\n\r\nfunction simpleswap(address _tokenIn, address _tokenOut, uint256 _amountIn, uint256 _amountOutMin) external {\r\n      \r\n    //first we need to transfer the amount in tokens from the msg.sender to this contract\r\n    //this contract will have the amount of in tokens\r\n    //IERC20(_tokenIn).transferFrom(msg.sender, address(this), _amountIn);\r\n    \r\n    //next we need to allow the uniswapv2 router to spend the token we just sent to this contract\r\n    //by calling IERC20 approve you allow the uniswap contract to spend the tokens in this contract \r\n\r\n    IERC20(_tokenIn).approve(UNISWAP_V2_ROUTER, _amountIn);\r\n    uint time = block.timestamp;\r\n\r\n    //path is an array of addresses.\r\n    //this path array will have 3 addresses [tokenIn, WETH, tokenOut]\r\n    //the if statement below takes into account if token in or token out is WETH.  then the path is only 2 addresses\r\n    address[] memory path;\r\n    if (_tokenIn == WETH || _tokenOut == WETH) {\r\n      path = new address[](2);\r\n      path[0] = _tokenIn;\r\n      path[1] = _tokenOut;\r\n    } else {\r\n      path = new address[](3);\r\n      path[0] = _tokenIn;\r\n      path[1] = WETH;\r\n      path[2] = _tokenOut;\r\n    }\r\n        //then we will call swapExactTokensForTokens\r\n        //for the deadline we will pass in block.timestamp\r\n        //the deadline is the latest time the trade is valid for\r\n        IUniswapV2Router(UNISWAP_V2_ROUTER).swapExactTokensForTokens(_amountIn, _amountOutMin, path,address(this) , block.timestamp);\r\n    }\r\n\r\n\r\n\r\nfunction getAmountOutMin(address _tokenIn, address _tokenOut, uint256 _amountIn) external view returns (uint256) {\r\n\r\n       //path is an array of addresses.\r\n       //this path array will have 3 addresses [tokenIn, WETH, tokenOut]\r\n       //the if statement below takes into account if token in or token out is WETH.  then the path is only 2 addresses\r\n        address[] memory path;\r\n        if (_tokenIn == WETH || _tokenOut == WETH) {\r\n            path = new address[](2);\r\n            path[0] = _tokenIn;\r\n            path[1] = _tokenOut;\r\n        } else {\r\n            path = new address[](3);\r\n            path[0] = _tokenIn;\r\n            path[1] = WETH;\r\n            path[2] = _tokenOut;\r\n        }\r\n        \r\n        uint256[] memory amountOutMins = IUniswapV2Router(UNISWAP_V2_ROUTER).getAmountsOut(_amountIn, path);\r\n        return amountOutMins[path.length -1];  \r\n    }  \r\n\r\nfunction depositerc20(address _tokenIn,uint _amountIn) external {\r\n\r\nIERC20(_tokenIn).transferFrom(msg.sender, address(this), _amountIn);\r\n\r\n}\r\n\r\n\r\n//function checkPayables (offering)\r\n\r\n\r\n\r\n\r\n\r\nreceive() external payable {\r\n        //emit Deposit(msg.sender, msg.value, address(this).balance);\r\n    }\r\n\r\n\r\n} ",
  "sourcePath": "D:\\projects\\Bounty_1_truffle\\contracts\\TradeCenter.sol",
  "compiler": {
    "name": "solc",
    "version": "0.8.9+commit.e5eed63a.Emscripten.clang"
  },
  "schemaVersion": "3.4.5",
  "updatedAt": "2022-02-26T23:57:35.112Z",
  "networkType": "ethereum",
  "devdoc": {
    "kind": "dev",
    "methods": {},
    "version": 1
  },
  "userdoc": {
    "kind": "user",
    "methods": {
      "constructor": {
        "notice": "Network: Kovan Aggregator: ETH/USD Address: 0x9326BFA02ADD2366b30bacB125260Af641031331"
      },
      "getLatestPrice()": {
        "notice": "Returns the latest price"
      }
    },
    "version": 1
  }
}