{
  "contractName": "TradeCenter",
  "abi": [
    {
      "inputs": [],
      "stateMutability": "nonpayable",
      "type": "constructor"
    },
    {
      "stateMutability": "payable",
      "type": "receive"
    },
    {
      "inputs": [],
      "name": "getLatestPrice",
      "outputs": [
        {
          "internalType": "int256",
          "name": "",
          "type": "int256"
        }
      ],
      "stateMutability": "view",
      "type": "function"
    },
    {
      "inputs": [],
      "name": "getDaiBalance",
      "outputs": [
        {
          "internalType": "uint256",
          "name": "",
          "type": "uint256"
        }
      ],
      "stateMutability": "view",
      "type": "function"
    },
    {
      "inputs": [],
      "name": "getWETHBalance",
      "outputs": [
        {
          "internalType": "uint256",
          "name": "",
          "type": "uint256"
        }
      ],
      "stateMutability": "view",
      "type": "function"
    },
    {
      "inputs": [],
      "name": "getUSDTBalance",
      "outputs": [
        {
          "internalType": "uint256",
          "name": "",
          "type": "uint256"
        }
      ],
      "stateMutability": "view",
      "type": "function"
    },
    {
      "inputs": [
        {
          "internalType": "address",
          "name": "_tokenIn",
          "type": "address"
        },
        {
          "internalType": "address",
          "name": "_tokenOut",
          "type": "address"
        },
        {
          "internalType": "uint256",
          "name": "_amountIn",
          "type": "uint256"
        },
        {
          "internalType": "uint256",
          "name": "_amountOutMin",
          "type": "uint256"
        },
        {
          "internalType": "address",
          "name": "_to",
          "type": "address"
        }
      ],
      "name": "swap",
      "outputs": [],
      "stateMutability": "nonpayable",
      "type": "function"
    },
    {
      "inputs": [
        {
          "internalType": "address",
          "name": "_tokenIn",
          "type": "address"
        },
        {
          "internalType": "address",
          "name": "_tokenOut",
          "type": "address"
        },
        {
          "internalType": "uint256",
          "name": "_amountIn",
          "type": "uint256"
        },
        {
          "internalType": "uint256",
          "name": "_amountOutMin",
          "type": "uint256"
        }
      ],
      "name": "simpleswap",
      "outputs": [],
      "stateMutability": "nonpayable",
      "type": "function"
    },
    {
      "inputs": [
        {
          "internalType": "address",
          "name": "_tokenIn",
          "type": "address"
        },
        {
          "internalType": "address",
          "name": "_tokenOut",
          "type": "address"
        },
        {
          "internalType": "uint256",
          "name": "_amountIn",
          "type": "uint256"
        }
      ],
      "name": "getAmountOutMin",
      "outputs": [
        {
          "internalType": "uint256",
          "name": "",
          "type": "uint256"
        }
      ],
      "stateMutability": "view",
      "type": "function"
    },
    {
      "inputs": [
        {
          "internalType": "address",
          "name": "_tokenIn",
          "type": "address"
        },
        {
          "internalType": "uint256",
          "name": "_amountIn",
          "type": "uint256"
        }
      ],
      "name": "depositerc20",
      "outputs": [],
      "stateMutability": "nonpayable",
      "type": "function"
    }
  ],
  "bytecode": "0x608060405234801561001057600080fd5b50735f4ec3df9cbd43714fe2740f5e3616155c5b84196000806101000a81548173ffffffffffffffffffffffffffffffffffffffff021916908373ffffffffffffffffffffffffffffffffffffffff160217905550611a7d806100746000396000f3fe60806040526004361061007e5760003560e01c80638e15f4731161004e5780638e15f4731461014657806393b6a95a146101715780639785fac81461019a578063d5bcb9b5146101c557610085565b8062cbb73b1461008a5780633c50eec1146100b55780634f0238b8146100f25780635ddc916a1461011b57610085565b3661008557005b600080fd5b34801561009657600080fd5b5061009f6101ee565b6040516100ac91906111f9565b60405180910390f35b3480156100c157600080fd5b506100dc60048036038101906100d791906112b2565b610297565b6040516100e991906111f9565b60405180910390f35b3480156100fe57600080fd5b5061011960048036038101906101149190611305565b610645565b005b34801561012757600080fd5b50610130610a72565b60405161013d91906111f9565b60405180910390f35b34801561015257600080fd5b5061015b610b1b565b6040516101689190611385565b60405180910390f35b34801561017d57600080fd5b50610198600480360381019061019391906113a0565b610bd7565b005b3480156101a657600080fd5b506101af610c6b565b6040516101bc91906111f9565b60405180910390f35b3480156101d157600080fd5b506101ec60048036038101906101e791906113e0565b610d14565b005b60008073c02aaa39b223fe8d0a0e5c4f27ead9083c756cc273ffffffffffffffffffffffffffffffffffffffff166370a08231306040518263ffffffff1660e01b815260040161023e919061146a565b60206040518083038186803b15801561025657600080fd5b505afa15801561026a573d6000803e3d6000fd5b505050506040513d601f19601f8201168201806040525081019061028e919061149a565b90508091505090565b6000606073c02aaa39b223fe8d0a0e5c4f27ead9083c756cc273ffffffffffffffffffffffffffffffffffffffff168573ffffffffffffffffffffffffffffffffffffffff161480610328575073c02aaa39b223fe8d0a0e5c4f27ead9083c756cc273ffffffffffffffffffffffffffffffffffffffff168473ffffffffffffffffffffffffffffffffffffffff16145b1561041c57600267ffffffffffffffff811115610348576103476114c7565b5b6040519080825280602002602001820160405280156103765781602001602082028036833780820191505090505b509050848160008151811061038e5761038d6114f6565b5b602002602001019073ffffffffffffffffffffffffffffffffffffffff16908173ffffffffffffffffffffffffffffffffffffffff168152505083816001815181106103dd576103dc6114f6565b5b602002602001019073ffffffffffffffffffffffffffffffffffffffff16908173ffffffffffffffffffffffffffffffffffffffff168152505061056a565b600367ffffffffffffffff811115610437576104366114c7565b5b6040519080825280602002602001820160405280156104655781602001602082028036833780820191505090505b509050848160008151811061047d5761047c6114f6565b5b602002602001019073ffffffffffffffffffffffffffffffffffffffff16908173ffffffffffffffffffffffffffffffffffffffff168152505073c02aaa39b223fe8d0a0e5c4f27ead9083c756cc2816001815181106104e0576104df6114f6565b5b602002602001019073ffffffffffffffffffffffffffffffffffffffff16908173ffffffffffffffffffffffffffffffffffffffff1681525050838160028151811061052f5761052e6114f6565b5b602002602001019073ffffffffffffffffffffffffffffffffffffffff16908173ffffffffffffffffffffffffffffffffffffffff16815250505b6000737a250d5630b4cf539739df2c5dacb4c659f2488d73ffffffffffffffffffffffffffffffffffffffff1663d06ca61f85846040518363ffffffff1660e01b81526004016105bb9291906115e3565b60006040518083038186803b1580156105d357600080fd5b505afa1580156105e7573d6000803e3d6000fd5b505050506040513d6000823e3d601f19601f82011682018060405250810190610610919061173d565b9050806001835161062191906117b5565b81518110610632576106316114f6565b5b6020026020010151925050509392505050565b8373ffffffffffffffffffffffffffffffffffffffff1663095ea7b3737a250d5630b4cf539739df2c5dacb4c659f2488d846040518363ffffffff1660e01b81526004016106949291906117e9565b602060405180830381600087803b1580156106ae57600080fd5b505af11580156106c2573d6000803e3d6000fd5b505050506040513d601f19601f820116820180604052508101906106e6919061184a565b506000429050606073c02aaa39b223fe8d0a0e5c4f27ead9083c756cc273ffffffffffffffffffffffffffffffffffffffff168673ffffffffffffffffffffffffffffffffffffffff16148061077b575073c02aaa39b223fe8d0a0e5c4f27ead9083c756cc273ffffffffffffffffffffffffffffffffffffffff168573ffffffffffffffffffffffffffffffffffffffff16145b1561086f57600267ffffffffffffffff81111561079b5761079a6114c7565b5b6040519080825280602002602001820160405280156107c95781602001602082028036833780820191505090505b50905085816000815181106107e1576107e06114f6565b5b602002602001019073ffffffffffffffffffffffffffffffffffffffff16908173ffffffffffffffffffffffffffffffffffffffff168152505084816001815181106108305761082f6114f6565b5b602002602001019073ffffffffffffffffffffffffffffffffffffffff16908173ffffffffffffffffffffffffffffffffffffffff16815250506109bd565b600367ffffffffffffffff81111561088a576108896114c7565b5b6040519080825280602002602001820160405280156108b85781602001602082028036833780820191505090505b50905085816000815181106108d0576108cf6114f6565b5b602002602001019073ffffffffffffffffffffffffffffffffffffffff16908173ffffffffffffffffffffffffffffffffffffffff168152505073c02aaa39b223fe8d0a0e5c4f27ead9083c756cc281600181518110610933576109326114f6565b5b602002602001019073ffffffffffffffffffffffffffffffffffffffff16908173ffffffffffffffffffffffffffffffffffffffff16815250508481600281518110610982576109816114f6565b5b602002602001019073ffffffffffffffffffffffffffffffffffffffff16908173ffffffffffffffffffffffffffffffffffffffff16815250505b737a250d5630b4cf539739df2c5dacb4c659f2488d73ffffffffffffffffffffffffffffffffffffffff166338ed173985858430426040518663ffffffff1660e01b8152600401610a12959493929190611877565b600060405180830381600087803b158015610a2c57600080fd5b505af1158015610a40573d6000803e3d6000fd5b505050506040513d6000823e3d601f19601f82011682018060405250810190610a69919061173d565b50505050505050565b60008073111111111117dc0aa78b770fa6a738034120c30273ffffffffffffffffffffffffffffffffffffffff166370a08231306040518263ffffffff1660e01b8152600401610ac2919061146a565b60206040518083038186803b158015610ada57600080fd5b505afa158015610aee573d6000803e3d6000fd5b505050506040513d601f19601f82011682018060405250810190610b12919061149a565b90508091505090565b60008060008060008060008054906101000a900473ffffffffffffffffffffffffffffffffffffffff1673ffffffffffffffffffffffffffffffffffffffff1663feaf968c6040518163ffffffff1660e01b815260040160a06040518083038186803b158015610b8a57600080fd5b505afa158015610b9e573d6000803e3d6000fd5b505050506040513d601f19601f82011682018060405250810190610bc2919061193f565b94509450945094509450839550505050505090565b8173ffffffffffffffffffffffffffffffffffffffff166323b872dd3330846040518463ffffffff1660e01b8152600401610c14939291906119ba565b602060405180830381600087803b158015610c2e57600080fd5b505af1158015610c42573d6000803e3d6000fd5b505050506040513d601f19601f82011682018060405250810190610c66919061184a565b505050565b60008073dac17f958d2ee523a2206206994597c13d831ec773ffffffffffffffffffffffffffffffffffffffff166370a08231306040518263ffffffff1660e01b8152600401610cbb919061146a565b60206040518083038186803b158015610cd357600080fd5b505afa158015610ce7573d6000803e3d6000fd5b505050506040513d601f19601f82011682018060405250810190610d0b919061149a565b90508091505090565b8473ffffffffffffffffffffffffffffffffffffffff166323b872dd3330866040518463ffffffff1660e01b8152600401610d51939291906119ba565b602060405180830381600087803b158015610d6b57600080fd5b505af1158015610d7f573d6000803e3d6000fd5b505050506040513d601f19601f82011682018060405250810190610da3919061184a565b508473ffffffffffffffffffffffffffffffffffffffff1663095ea7b3737a250d5630b4cf539739df2c5dacb4c659f2488d856040518363ffffffff1660e01b8152600401610df39291906117e9565b602060405180830381600087803b158015610e0d57600080fd5b505af1158015610e21573d6000803e3d6000fd5b505050506040513d601f19601f82011682018060405250810190610e45919061184a565b506000620186a042610e5791906119f1565b9050606073c02aaa39b223fe8d0a0e5c4f27ead9083c756cc273ffffffffffffffffffffffffffffffffffffffff168773ffffffffffffffffffffffffffffffffffffffff161480610ee8575073c02aaa39b223fe8d0a0e5c4f27ead9083c756cc273ffffffffffffffffffffffffffffffffffffffff168673ffffffffffffffffffffffffffffffffffffffff16145b15610fdc57600267ffffffffffffffff811115610f0857610f076114c7565b5b604051908082528060200260200182016040528015610f365781602001602082028036833780820191505090505b5090508681600081518110610f4e57610f4d6114f6565b5b602002602001019073ffffffffffffffffffffffffffffffffffffffff16908173ffffffffffffffffffffffffffffffffffffffff16815250508581600181518110610f9d57610f9c6114f6565b5b602002602001019073ffffffffffffffffffffffffffffffffffffffff16908173ffffffffffffffffffffffffffffffffffffffff168152505061112a565b600367ffffffffffffffff811115610ff757610ff66114c7565b5b6040519080825280602002602001820160405280156110255781602001602082028036833780820191505090505b509050868160008151811061103d5761103c6114f6565b5b602002602001019073ffffffffffffffffffffffffffffffffffffffff16908173ffffffffffffffffffffffffffffffffffffffff168152505073c02aaa39b223fe8d0a0e5c4f27ead9083c756cc2816001815181106110a05761109f6114f6565b5b602002602001019073ffffffffffffffffffffffffffffffffffffffff16908173ffffffffffffffffffffffffffffffffffffffff168152505085816002815181106110ef576110ee6114f6565b5b602002602001019073ffffffffffffffffffffffffffffffffffffffff16908173ffffffffffffffffffffffffffffffffffffffff16815250505b737a250d5630b4cf539739df2c5dacb4c659f2488d73ffffffffffffffffffffffffffffffffffffffff166338ed173986868487876040518663ffffffff1660e01b815260040161117f959493929190611877565b600060405180830381600087803b15801561119957600080fd5b505af11580156111ad573d6000803e3d6000fd5b505050506040513d6000823e3d601f19601f820116820180604052508101906111d6919061173d565b5050505050505050565b6000819050919050565b6111f3816111e0565b82525050565b600060208201905061120e60008301846111ea565b92915050565b6000604051905090565b600080fd5b600080fd5b600073ffffffffffffffffffffffffffffffffffffffff82169050919050565b600061125382611228565b9050919050565b61126381611248565b811461126e57600080fd5b50565b6000813590506112808161125a565b92915050565b61128f816111e0565b811461129a57600080fd5b50565b6000813590506112ac81611286565b92915050565b6000806000606084860312156112cb576112ca61121e565b5b60006112d986828701611271565b93505060206112ea86828701611271565b92505060406112fb8682870161129d565b9150509250925092565b6000806000806080858703121561131f5761131e61121e565b5b600061132d87828801611271565b945050602061133e87828801611271565b935050604061134f8782880161129d565b92505060606113608782880161129d565b91505092959194509250565b6000819050919050565b61137f8161136c565b82525050565b600060208201905061139a6000830184611376565b92915050565b600080604083850312156113b7576113b661121e565b5b60006113c585828601611271565b92505060206113d68582860161129d565b9150509250929050565b600080600080600060a086880312156113fc576113fb61121e565b5b600061140a88828901611271565b955050602061141b88828901611271565b945050604061142c8882890161129d565b935050606061143d8882890161129d565b925050608061144e88828901611271565b9150509295509295909350565b61146481611248565b82525050565b600060208201905061147f600083018461145b565b92915050565b60008151905061149481611286565b92915050565b6000602082840312156114b0576114af61121e565b5b60006114be84828501611485565b91505092915050565b7f4e487b7100000000000000000000000000000000000000000000000000000000600052604160045260246000fd5b7f4e487b7100000000000000000000000000000000000000000000000000000000600052603260045260246000fd5b600081519050919050565b600082825260208201905092915050565b6000819050602082019050919050565b61155a81611248565b82525050565b600061156c8383611551565b60208301905092915050565b6000602082019050919050565b600061159082611525565b61159a8185611530565b93506115a583611541565b8060005b838110156115d65781516115bd8882611560565b97506115c883611578565b9250506001810190506115a9565b5085935050505092915050565b60006040820190506115f860008301856111ea565b818103602083015261160a8184611585565b90509392505050565b600080fd5b6000601f19601f8301169050919050565b61163282611618565b810181811067ffffffffffffffff82111715611651576116506114c7565b5b80604052505050565b6000611664611214565b90506116708282611629565b919050565b600067ffffffffffffffff8211156116905761168f6114c7565b5b602082029050602081019050919050565b600080fd5b60006116b96116b484611675565b61165a565b905080838252602082019050602084028301858111156116dc576116db6116a1565b5b835b8181101561170557806116f18882611485565b8452602084019350506020810190506116de565b5050509392505050565b600082601f83011261172457611723611613565b5b81516117348482602086016116a6565b91505092915050565b6000602082840312156117535761175261121e565b5b600082015167ffffffffffffffff81111561177157611770611223565b5b61177d8482850161170f565b91505092915050565b7f4e487b7100000000000000000000000000000000000000000000000000000000600052601160045260246000fd5b60006117c0826111e0565b91506117cb836111e0565b9250828210156117de576117dd611786565b5b828203905092915050565b60006040820190506117fe600083018561145b565b61180b60208301846111ea565b9392505050565b60008115159050919050565b61182781611812565b811461183257600080fd5b50565b6000815190506118448161181e565b92915050565b6000602082840312156118605761185f61121e565b5b600061186e84828501611835565b91505092915050565b600060a08201905061188c60008301886111ea565b61189960208301876111ea565b81810360408301526118ab8186611585565b90506118ba606083018561145b565b6118c760808301846111ea565b9695505050505050565b600069ffffffffffffffffffff82169050919050565b6118f0816118d1565b81146118fb57600080fd5b50565b60008151905061190d816118e7565b92915050565b61191c8161136c565b811461192757600080fd5b50565b60008151905061193981611913565b92915050565b600080600080600060a0868803121561195b5761195a61121e565b5b6000611969888289016118fe565b955050602061197a8882890161192a565b945050604061198b88828901611485565b935050606061199c88828901611485565b92505060806119ad888289016118fe565b9150509295509295909350565b60006060820190506119cf600083018661145b565b6119dc602083018561145b565b6119e960408301846111ea565b949350505050565b60006119fc826111e0565b9150611a07836111e0565b9250827fffffffffffffffffffffffffffffffffffffffffffffffffffffffffffffffff03821115611a3c57611a3b611786565b5b82820190509291505056fea2646970667358221220e07478a8b49d93e39a62702ae8404e1a5b38aa2d0cd776f3a5e0be4bd3af52a764736f6c63430008090033",
  "immutableReferences": {},
  "source": "pragma solidity 0.8.9;\r\nimport \"./AggregatorV3Interface.sol\";\r\nimport \"@openzeppelin/contracts/token/ERC20/IERC20.sol\";\r\n//import \"@chainlink/contracts/src/v0.8/interfaces/AggregatorV3Interface.sol\";\r\n\r\ninterface IUniswapV2Router {\r\n  function getAmountsOut(uint256 amountIn, address[] memory path)\r\n    external\r\n    view\r\n    returns (uint256[] memory amounts);\r\n  \r\n  function swapExactTokensForTokens(\r\n  \r\n    //amount of tokens we are sending in\r\n    uint256 amountIn,\r\n    //the minimum amount of tokens we want out of the trade\r\n    uint256 amountOutMin,\r\n    //list of token addresses we are going to trade in.  this is necessary to calculate amounts\r\n    address[] calldata path,\r\n    //this is the address we are going to send the output tokens to\r\n    address to,\r\n    //the last time that the trade is valid for\r\n    uint256 deadline\r\n  ) external returns (uint256[] memory amounts);\r\n}\r\n\r\ninterface IUniswapV2Pair {\r\n  function token0() external view returns (address);\r\n  function token1() external view returns (address);\r\n  function swap(\r\n    uint256 amount0Out,\r\n    uint256 amount1Out,\r\n    address to,\r\n    bytes calldata data\r\n  ) external;\r\n}\r\n\r\ninterface IUniswapV2Factory {\r\n  function getPair(address token0, address token1) external returns (address);\r\n}\r\n\r\n\r\n\r\n\r\n\r\n/*interface IERC20 {\r\n    function totalSupply() external view returns (uint);\r\n    function balanceOf(address account) external view returns (uint);\r\n    function transfer(address recipient, uint amount) external returns (bool);\r\n    function allowance(address owner, address spender) external view returns (uint);\r\n    function approve(address spender, uint amount) external returns (bool);\r\n    function transferFrom(\r\n        address sender,\r\n        address recipient,\r\n        uint amount\r\n    ) external returns (bool);\r\n    event Transfer(address indexed from, address indexed to, uint value);\r\n    event Approval(address indexed owner, address indexed spender, uint value);\r\n}*/\r\n\r\n\r\n\r\ncontract TradeCenter {\r\n\r\n    AggregatorV3Interface internal priceFeed;\r\n     address internal constant UNISWAP_V2_ROUTER = 0x7a250d5630B4cF539739dF2C5dAcb4c659F2488D;\r\n    \r\n    //address of WETH token.  This is needed because some times it is better to trade through WETH.  \r\n    //you might get a better price using WETH.  \r\n    //example trading from token A to WETH then WETH to token B might result in a better price\r\n    address internal constant WETH = 0xC02aaA39b223FE8D0A0e5C4F27eAD9083C756Cc2;\r\n\r\n    \r\n\r\n    /**\r\n     * Network: Kovan\r\n     * Aggregator: ETH/USD\r\n     * Address: 0x9326BFA02ADD2366b30bacB125260Af641031331\r\n     */\r\n    constructor() {\r\n        priceFeed = AggregatorV3Interface(0x5f4eC3Df9cbd43714FE2740f5E3616155c5b8419);\r\n    }\r\n\r\n    /**\r\n     * Returns the latest price\r\n     */\r\n\r\n    function getLatestPrice() public view returns (int) {\r\n        (\r\n            uint80 roundID, \r\n            int price,\r\n            uint startedAt,\r\n            uint timeStamp,\r\n            uint80 answeredInRound\r\n        ) = priceFeed.latestRoundData();\r\n        return price;\r\n    }\r\n\r\n  \r\n\r\nfunction getDaiBalance () public view returns (uint){\r\nuint balance;\r\nbalance = IERC20(0x111111111117dC0aa78b770fA6A738034120C302).balanceOf(address(this));\r\nreturn balance;\r\n    }\r\n\r\n\r\nfunction getWETHBalance () public view returns (uint){\r\nuint balance;\r\nbalance = IERC20(0xC02aaA39b223FE8D0A0e5C4F27eAD9083C756Cc2).balanceOf(address(this));\r\n//0xd0a1e359811322d97991e03f863a0c30c2cf029c\r\nreturn balance;\r\n    }\r\n\r\n\r\n\r\nfunction getUSDTBalance() public view returns (uint){\r\nuint balance;\r\nbalance = IERC20(0xdAC17F958D2ee523a2206206994597C13D831ec7).balanceOf(address(this));\r\nreturn balance;\r\n    }\r\n\r\n\r\n\r\n\r\nfunction swap(address _tokenIn, address _tokenOut, uint256 _amountIn, uint256 _amountOutMin, address _to) external {\r\n      \r\n    //first we need to transfer the amount in tokens from the msg.sender to this contract\r\n    //this contract will have the amount of in tokens\r\n    IERC20(_tokenIn).transferFrom(msg.sender, address(this), _amountIn);\r\n    \r\n    //next we need to allow the uniswapv2 router to spend the token we just sent to this contract\r\n    //by calling IERC20 approve you allow the uniswap contract to spend the tokens in this contract \r\n    IERC20(_tokenIn).approve(UNISWAP_V2_ROUTER, _amountIn);\r\n    uint time = block.timestamp + 100000;\r\n\r\n    //path is an array of addresses.\r\n    //this path array will have 3 addresses [tokenIn, WETH, tokenOut]\r\n    //the if statement below takes into account if token in or token out is WETH.  then the path is only 2 addresses\r\n    address[] memory path;\r\n    if (_tokenIn == WETH || _tokenOut == WETH) {\r\n      path = new address[](2);\r\n      path[0] = _tokenIn;\r\n      path[1] = _tokenOut;\r\n    } else {\r\n      path = new address[](3);\r\n      path[0] = _tokenIn;\r\n      path[1] = WETH;\r\n      path[2] = _tokenOut;\r\n    }\r\n        //then we will call swapExactTokensForTokens\r\n        //for the deadline we will pass in block.timestamp\r\n        //the deadline is the latest time the trade is valid for\r\n        IUniswapV2Router(UNISWAP_V2_ROUTER).swapExactTokensForTokens(_amountIn, _amountOutMin, path, _to, time);\r\n    }\r\n\r\n\r\n\r\nfunction simpleswap(address _tokenIn, address _tokenOut, uint256 _amountIn, uint256 _amountOutMin) external {\r\n      \r\n    //first we need to transfer the amount in tokens from the msg.sender to this contract\r\n    //this contract will have the amount of in tokens\r\n    //IERC20(_tokenIn).transferFrom(msg.sender, address(this), _amountIn);\r\n    \r\n    //next we need to allow the uniswapv2 router to spend the token we just sent to this contract\r\n    //by calling IERC20 approve you allow the uniswap contract to spend the tokens in this contract \r\n\r\n    IERC20(_tokenIn).approve(UNISWAP_V2_ROUTER, _amountIn);\r\n    uint time = block.timestamp;\r\n\r\n    //path is an array of addresses.\r\n    //this path array will have 3 addresses [tokenIn, WETH, tokenOut]\r\n    //the if statement below takes into account if token in or token out is WETH.  then the path is only 2 addresses\r\n    address[] memory path;\r\n    if (_tokenIn == WETH || _tokenOut == WETH) {\r\n      path = new address[](2);\r\n      path[0] = _tokenIn;\r\n      path[1] = _tokenOut;\r\n    } else {\r\n      path = new address[](3);\r\n      path[0] = _tokenIn;\r\n      path[1] = WETH;\r\n      path[2] = _tokenOut;\r\n    }\r\n        //then we will call swapExactTokensForTokens\r\n        //for the deadline we will pass in block.timestamp\r\n        //the deadline is the latest time the trade is valid for\r\n        IUniswapV2Router(UNISWAP_V2_ROUTER).swapExactTokensForTokens(_amountIn, _amountOutMin, path,address(this) , block.timestamp);\r\n    }\r\n\r\n\r\n\r\nfunction getAmountOutMin(address _tokenIn, address _tokenOut, uint256 _amountIn) external view returns (uint256) {\r\n\r\n       //path is an array of addresses.\r\n       //this path array will have 3 addresses [tokenIn, WETH, tokenOut]\r\n       //the if statement below takes into account if token in or token out is WETH.  then the path is only 2 addresses\r\n        address[] memory path;\r\n        if (_tokenIn == WETH || _tokenOut == WETH) {\r\n            path = new address[](2);\r\n            path[0] = _tokenIn;\r\n            path[1] = _tokenOut;\r\n        } else {\r\n            path = new address[](3);\r\n            path[0] = _tokenIn;\r\n            path[1] = WETH;\r\n            path[2] = _tokenOut;\r\n        }\r\n        \r\n        uint256[] memory amountOutMins = IUniswapV2Router(UNISWAP_V2_ROUTER).getAmountsOut(_amountIn, path);\r\n        return amountOutMins[path.length -1];  \r\n    }  \r\n\r\nfunction depositerc20(address _tokenIn,uint _amountIn) external {\r\n\r\nIERC20(_tokenIn).transferFrom(msg.sender, address(this), _amountIn);\r\n\r\n}\r\n\r\n\r\n//function checkPayables (offering)\r\n\r\n\r\n\r\n\r\n\r\nreceive() external payable {\r\n        //emit Deposit(msg.sender, msg.value, address(this).balance);\r\n    }\r\n\r\n\r\n} ",
  "sourcePath": "D:\\projects\\Bounty_1_truffle\\contracts\\TradeCenter.sol",
  "compiler": {
    "name": "solc",
    "version": "0.8.9+commit.e5eed63a.Emscripten.clang"
  },
  "schemaVersion": "3.4.5",
  "updatedAt": "2022-02-27T14:35:28.012Z",
  "devdoc": {
    "kind": "dev",
    "methods": {},
    "version": 1
  },
  "userdoc": {
    "kind": "user",
    "methods": {
      "constructor": {
        "notice": "Network: Kovan Aggregator: ETH/USD Address: 0x9326BFA02ADD2366b30bacB125260Af641031331"
      },
      "getLatestPrice()": {
        "notice": "Returns the latest price"
      }
    },
    "version": 1
  }
}