{
  "contractName": "YieldOfferings",
  "abi": [
    {
      "inputs": [],
      "stateMutability": "nonpayable",
      "type": "constructor"
    },
    {
      "anonymous": false,
      "inputs": [
        {
          "components": [
            {
              "internalType": "address",
              "name": "buyer",
              "type": "address"
            },
            {
              "internalType": "address",
              "name": "issuer",
              "type": "address"
            },
            {
              "internalType": "uint256",
              "name": "amount",
              "type": "uint256"
            },
            {
              "internalType": "uint256",
              "name": "offeringID",
              "type": "uint256"
            },
            {
              "internalType": "uint256",
              "name": "contractID",
              "type": "uint256"
            }
          ],
          "indexed": false,
          "internalType": "struct YieldOfferings.offeringContract",
          "name": "",
          "type": "tuple"
        }
      ],
      "name": "getContract",
      "type": "event"
    },
    {
      "anonymous": false,
      "inputs": [
        {
          "components": [
            {
              "internalType": "address",
              "name": "issuerAddress",
              "type": "address"
            },
            {
              "internalType": "uint256[]",
              "name": "offeringsList",
              "type": "uint256[]"
            }
          ],
          "indexed": false,
          "internalType": "struct YieldOfferings.issuer",
          "name": "",
          "type": "tuple"
        }
      ],
      "name": "getIssuer",
      "type": "event"
    },
    {
      "anonymous": false,
      "inputs": [
        {
          "components": [
            {
              "internalType": "uint256",
              "name": "usdt",
              "type": "uint256"
            },
            {
              "internalType": "uint256",
              "name": "eth",
              "type": "uint256"
            },
            {
              "internalType": "uint256",
              "name": "weth",
              "type": "uint256"
            }
          ],
          "indexed": false,
          "internalType": "struct YieldOfferings.wallet",
          "name": "",
          "type": "tuple"
        }
      ],
      "name": "getWalletInfo",
      "type": "event"
    },
    {
      "anonymous": false,
      "inputs": [
        {
          "components": [
            {
              "internalType": "address",
              "name": "issuer",
              "type": "address"
            },
            {
              "internalType": "uint256",
              "name": "ID",
              "type": "uint256"
            },
            {
              "internalType": "string",
              "name": "name",
              "type": "string"
            },
            {
              "internalType": "uint256",
              "name": "Nb_fixings",
              "type": "uint256"
            },
            {
              "internalType": "uint256",
              "name": "fixing_counter",
              "type": "uint256"
            },
            {
              "internalType": "uint256",
              "name": "high_coupon",
              "type": "uint256"
            },
            {
              "internalType": "uint256",
              "name": "high_coupon_barrier",
              "type": "uint256"
            },
            {
              "internalType": "uint256",
              "name": "smaller_coupon",
              "type": "uint256"
            },
            {
              "internalType": "uint256",
              "name": "Upoutbarrier",
              "type": "uint256"
            },
            {
              "internalType": "uint256",
              "name": "di_barrier",
              "type": "uint256"
            },
            {
              "internalType": "bool",
              "name": "Di_barrier_activated",
              "type": "bool"
            },
            {
              "internalType": "uint256[]",
              "name": "contractList",
              "type": "uint256[]"
            }
          ],
          "indexed": false,
          "internalType": "struct YieldOfferings.offering",
          "name": "",
          "type": "tuple"
        }
      ],
      "name": "logAddedOffering",
      "type": "event"
    },
    {
      "inputs": [
        {
          "internalType": "address",
          "name": "",
          "type": "address"
        }
      ],
      "name": "BuyersMap",
      "outputs": [
        {
          "internalType": "address",
          "name": "issuerAddress",
          "type": "address"
        }
      ],
      "stateMutability": "view",
      "type": "function"
    },
    {
      "inputs": [
        {
          "internalType": "uint256",
          "name": "",
          "type": "uint256"
        }
      ],
      "name": "Offerings",
      "outputs": [
        {
          "internalType": "address",
          "name": "issuer",
          "type": "address"
        },
        {
          "internalType": "uint256",
          "name": "ID",
          "type": "uint256"
        },
        {
          "internalType": "string",
          "name": "name",
          "type": "string"
        },
        {
          "internalType": "uint256",
          "name": "Nb_fixings",
          "type": "uint256"
        },
        {
          "internalType": "uint256",
          "name": "fixing_counter",
          "type": "uint256"
        },
        {
          "internalType": "uint256",
          "name": "high_coupon",
          "type": "uint256"
        },
        {
          "internalType": "uint256",
          "name": "high_coupon_barrier",
          "type": "uint256"
        },
        {
          "internalType": "uint256",
          "name": "smaller_coupon",
          "type": "uint256"
        },
        {
          "internalType": "uint256",
          "name": "Upoutbarrier",
          "type": "uint256"
        },
        {
          "internalType": "uint256",
          "name": "di_barrier",
          "type": "uint256"
        },
        {
          "internalType": "bool",
          "name": "Di_barrier_activated",
          "type": "bool"
        }
      ],
      "stateMutability": "view",
      "type": "function"
    },
    {
      "inputs": [
        {
          "internalType": "address",
          "name": "_tokenIn",
          "type": "address"
        },
        {
          "internalType": "uint256",
          "name": "_amountIn",
          "type": "uint256"
        }
      ],
      "name": "depositerc20",
      "outputs": [],
      "stateMutability": "nonpayable",
      "type": "function"
    },
    {
      "inputs": [
        {
          "internalType": "address",
          "name": "_tokenIn",
          "type": "address"
        },
        {
          "internalType": "address",
          "name": "_tokenOut",
          "type": "address"
        },
        {
          "internalType": "uint256",
          "name": "_amountIn",
          "type": "uint256"
        }
      ],
      "name": "getAmountOutMin",
      "outputs": [
        {
          "internalType": "uint256",
          "name": "",
          "type": "uint256"
        }
      ],
      "stateMutability": "view",
      "type": "function"
    },
    {
      "inputs": [],
      "name": "getDaiBalance",
      "outputs": [
        {
          "internalType": "uint256",
          "name": "",
          "type": "uint256"
        }
      ],
      "stateMutability": "view",
      "type": "function"
    },
    {
      "inputs": [],
      "name": "getLatestPrice",
      "outputs": [
        {
          "internalType": "int256",
          "name": "",
          "type": "int256"
        }
      ],
      "stateMutability": "view",
      "type": "function"
    },
    {
      "inputs": [],
      "name": "getUSDTBalance",
      "outputs": [
        {
          "internalType": "uint256",
          "name": "",
          "type": "uint256"
        }
      ],
      "stateMutability": "view",
      "type": "function"
    },
    {
      "inputs": [],
      "name": "getWETHBalance",
      "outputs": [
        {
          "internalType": "uint256",
          "name": "",
          "type": "uint256"
        }
      ],
      "stateMutability": "view",
      "type": "function"
    },
    {
      "inputs": [
        {
          "internalType": "uint256",
          "name": "",
          "type": "uint256"
        }
      ],
      "name": "offeringIDList",
      "outputs": [
        {
          "internalType": "uint256",
          "name": "",
          "type": "uint256"
        }
      ],
      "stateMutability": "view",
      "type": "function"
    },
    {
      "inputs": [],
      "name": "owner",
      "outputs": [
        {
          "internalType": "address",
          "name": "",
          "type": "address"
        }
      ],
      "stateMutability": "view",
      "type": "function"
    },
    {
      "inputs": [
        {
          "internalType": "address",
          "name": "_tokenIn",
          "type": "address"
        },
        {
          "internalType": "address",
          "name": "_tokenOut",
          "type": "address"
        },
        {
          "internalType": "uint256",
          "name": "_amountIn",
          "type": "uint256"
        },
        {
          "internalType": "uint256",
          "name": "_amountOutMin",
          "type": "uint256"
        }
      ],
      "name": "simpleswap",
      "outputs": [],
      "stateMutability": "nonpayable",
      "type": "function"
    },
    {
      "inputs": [
        {
          "internalType": "address",
          "name": "_tokenIn",
          "type": "address"
        },
        {
          "internalType": "address",
          "name": "_tokenOut",
          "type": "address"
        },
        {
          "internalType": "uint256",
          "name": "_amountIn",
          "type": "uint256"
        },
        {
          "internalType": "uint256",
          "name": "_amountOutMin",
          "type": "uint256"
        },
        {
          "internalType": "address",
          "name": "_to",
          "type": "address"
        }
      ],
      "name": "swap",
      "outputs": [],
      "stateMutability": "nonpayable",
      "type": "function"
    },
    {
      "inputs": [
        {
          "internalType": "address",
          "name": "",
          "type": "address"
        }
      ],
      "name": "walletMap",
      "outputs": [
        {
          "internalType": "uint256",
          "name": "usdt",
          "type": "uint256"
        },
        {
          "internalType": "uint256",
          "name": "eth",
          "type": "uint256"
        },
        {
          "internalType": "uint256",
          "name": "weth",
          "type": "uint256"
        }
      ],
      "stateMutability": "view",
      "type": "function"
    },
    {
      "stateMutability": "payable",
      "type": "receive"
    },
    {
      "inputs": [],
      "name": "SignInIssuer",
      "outputs": [],
      "stateMutability": "nonpayable",
      "type": "function"
    },
    {
      "inputs": [
        {
          "internalType": "address",
          "name": "CoinAddress",
          "type": "address"
        },
        {
          "internalType": "string",
          "name": "CoinName",
          "type": "string"
        }
      ],
      "name": "supportCoin",
      "outputs": [],
      "stateMutability": "nonpayable",
      "type": "function"
    },
    {
      "inputs": [
        {
          "internalType": "string",
          "name": "_name",
          "type": "string"
        },
        {
          "internalType": "uint256",
          "name": "_Nb_fixings",
          "type": "uint256"
        },
        {
          "internalType": "uint256",
          "name": "_high_coupon",
          "type": "uint256"
        },
        {
          "internalType": "uint256",
          "name": "_high_coupon_barrier",
          "type": "uint256"
        },
        {
          "internalType": "uint256",
          "name": "_smaller_coupon",
          "type": "uint256"
        },
        {
          "internalType": "uint256",
          "name": "_Upoutbarrier",
          "type": "uint256"
        },
        {
          "internalType": "uint256",
          "name": "_di_barrier",
          "type": "uint256"
        }
      ],
      "name": "addOffering",
      "outputs": [],
      "stateMutability": "nonpayable",
      "type": "function"
    },
    {
      "inputs": [],
      "name": "depositToWallet",
      "outputs": [],
      "stateMutability": "payable",
      "type": "function"
    },
    {
      "inputs": [
        {
          "internalType": "address",
          "name": "from",
          "type": "address"
        },
        {
          "internalType": "address",
          "name": "to",
          "type": "address"
        },
        {
          "internalType": "uint256",
          "name": "amount",
          "type": "uint256"
        }
      ],
      "name": "swapETHFromBuiltInWallet",
      "outputs": [],
      "stateMutability": "nonpayable",
      "type": "function"
    },
    {
      "inputs": [
        {
          "internalType": "uint256",
          "name": "_id",
          "type": "uint256"
        }
      ],
      "name": "buyOffering",
      "outputs": [
        {
          "internalType": "string",
          "name": "",
          "type": "string"
        }
      ],
      "stateMutability": "payable",
      "type": "function"
    },
    {
      "inputs": [
        {
          "internalType": "address",
          "name": "_issuer",
          "type": "address"
        },
        {
          "internalType": "uint256",
          "name": "tbs",
          "type": "uint256"
        }
      ],
      "name": "checkCustody",
      "outputs": [
        {
          "internalType": "bool",
          "name": "",
          "type": "bool"
        }
      ],
      "stateMutability": "nonpayable",
      "type": "function"
    },
    {
      "inputs": [],
      "name": "getCount",
      "outputs": [
        {
          "internalType": "uint256",
          "name": "count",
          "type": "uint256"
        }
      ],
      "stateMutability": "view",
      "type": "function"
    },
    {
      "inputs": [],
      "name": "getContractCount",
      "outputs": [
        {
          "internalType": "uint256",
          "name": "count",
          "type": "uint256"
        }
      ],
      "stateMutability": "view",
      "type": "function"
    },
    {
      "inputs": [],
      "name": "getContractETH",
      "outputs": [
        {
          "internalType": "uint256",
          "name": "",
          "type": "uint256"
        }
      ],
      "stateMutability": "view",
      "type": "function"
    }
  ],
  "bytecode": "0x608060405233600260006101000a81548173ffffffffffffffffffffffffffffffffffffffff021916908373ffffffffffffffffffffffffffffffffffffffff1602179055506000600355600060045560006005556040518060400160405280600781526020017f426f75676874210000000000000000000000000000000000000000000000000081525060089080519060200190620000a19291906200016b565b506109606009556108fc600a55348015620000bb57600080fd5b50735f4ec3df9cbd43714fe2740f5e3616155c5b84196000806101000a81548173ffffffffffffffffffffffffffffffffffffffff021916908373ffffffffffffffffffffffffffffffffffffffff16021790555073c02aaa39b223fe8d0a0e5c4f27ead9083c756cc2600160006101000a81548173ffffffffffffffffffffffffffffffffffffffff021916908373ffffffffffffffffffffffffffffffffffffffff16021790555062000280565b82805462000179906200024a565b90600052602060002090601f0160209004810192826200019d5760008555620001e9565b82601f10620001b857805160ff1916838001178555620001e9565b82800160010185558215620001e9579182015b82811115620001e8578251825591602001919060010190620001cb565b5b509050620001f89190620001fc565b5090565b5b8082111562000217576000816000905550600101620001fd565b5090565b7f4e487b7100000000000000000000000000000000000000000000000000000000600052602260045260246000fd5b600060028204905060018216806200026357607f821691505b602082108114156200027a57620002796200021b565b5b50919050565b613c1080620002906000396000f3fe6080604052600436106101435760003560e01c80638da5cb5b116100b6578063a87d942c1161006f578063a87d942c14610467578063d5bcb9b514610492578063d6a91719146104bb578063ef3055d9146104f8578063f1f5bef014610535578063f49dd2871461053f5761014a565b80638da5cb5b146103535780638e15f4731461037e5780639399869d146103a957806393b6a95a146103d45780639785fac8146103fd578063a2bd4943146104285761014a565b80635ddc916a116101085780635ddc916a1461025757806370411c13146102825780637aafa19e146102bf5780637dffea76146102e85780638258cbbd14610311578063890d26c71461033c5761014a565b8062cbb73b1461014f5780630bd5d8631461017a5780633c50eec1146101c15780634f0238b8146101fe5780635d8efce1146102275761014a565b3661014a57005b600080fd5b34801561015b57600080fd5b50610164610568565b604051610171919061278a565b60405180910390f35b34801561018657600080fd5b506101a1600480360381019061019c91906127e5565b610611565b6040516101b89b9a99989796959493929190612907565b60405180910390f35b3480156101cd57600080fd5b506101e860048036038101906101e391906129e5565b610720565b6040516101f5919061278a565b60405180910390f35b34801561020a57600080fd5b5061022560048036038101906102209190612a38565b610ace565b005b610241600480360381019061023c91906127e5565b610efb565b60405161024e9190612a9f565b60405180910390f35b34801561026357600080fd5b5061026c6111ff565b604051610279919061278a565b60405180910390f35b34801561028e57600080fd5b506102a960048036038101906102a491906127e5565b6112a8565b6040516102b6919061278a565b60405180910390f35b3480156102cb57600080fd5b506102e660048036038101906102e19190612bf6565b6112cc565b005b3480156102f457600080fd5b5061030f600480360381019061030a91906129e5565b611387565b005b34801561031d57600080fd5b506103266116fc565b604051610333919061278a565b60405180910390f35b34801561034857600080fd5b50610351611704565b005b34801561035f57600080fd5b506103686119b3565b6040516103759190612c52565b60405180910390f35b34801561038a57600080fd5b506103936119d9565b6040516103a09190612c86565b60405180910390f35b3480156103b557600080fd5b506103be611a95565b6040516103cb919061278a565b60405180910390f35b3480156103e057600080fd5b506103fb60048036038101906103f69190612ca1565b611a9f565b005b34801561040957600080fd5b50610412611b33565b60405161041f919061278a565b60405180910390f35b34801561043457600080fd5b5061044f600480360381019061044a9190612ce1565b611bdc565b60405161045e93929190612d0e565b60405180910390f35b34801561047357600080fd5b5061047c611c06565b604051610489919061278a565b60405180910390f35b34801561049e57600080fd5b506104b960048036038101906104b49190612d45565b611c13565b005b3480156104c757600080fd5b506104e260048036038101906104dd9190612ca1565b6120df565b6040516104ef9190612dc0565b60405180910390f35b34801561050457600080fd5b5061051f600480360381019061051a9190612ce1565b61210a565b60405161052c9190612c52565b60405180910390f35b61053d612148565b005b34801561054b57600080fd5b5061056660048036038101906105619190612ddb565b61234a565b005b60008073c02aaa39b223fe8d0a0e5c4f27ead9083c756cc273ffffffffffffffffffffffffffffffffffffffff166370a08231306040518263ffffffff1660e01b81526004016105b89190612c52565b60206040518083038186803b1580156105d057600080fd5b505afa1580156105e4573d6000803e3d6000fd5b505050506040513d601f19601f820116820180604052508101906106089190612eae565b90508091505090565b600b6020528060005260406000206000915090508060000160009054906101000a900473ffffffffffffffffffffffffffffffffffffffff169080600101549080600201805461066090612f0a565b80601f016020809104026020016040519081016040528092919081815260200182805461068c90612f0a565b80156106d95780601f106106ae576101008083540402835291602001916106d9565b820191906000526020600020905b8154815290600101906020018083116106bc57829003601f168201915b50505050509080600301549080600401549080600501549080600601549080600701549080600801549080600901549080600a0160009054906101000a900460ff1690508b565b6000606073c02aaa39b223fe8d0a0e5c4f27ead9083c756cc273ffffffffffffffffffffffffffffffffffffffff168573ffffffffffffffffffffffffffffffffffffffff1614806107b1575073c02aaa39b223fe8d0a0e5c4f27ead9083c756cc273ffffffffffffffffffffffffffffffffffffffff168473ffffffffffffffffffffffffffffffffffffffff16145b156108a557600267ffffffffffffffff8111156107d1576107d0612acb565b5b6040519080825280602002602001820160405280156107ff5781602001602082028036833780820191505090505b509050848160008151811061081757610816612f3c565b5b602002602001019073ffffffffffffffffffffffffffffffffffffffff16908173ffffffffffffffffffffffffffffffffffffffff1681525050838160018151811061086657610865612f3c565b5b602002602001019073ffffffffffffffffffffffffffffffffffffffff16908173ffffffffffffffffffffffffffffffffffffffff16815250506109f3565b600367ffffffffffffffff8111156108c0576108bf612acb565b5b6040519080825280602002602001820160405280156108ee5781602001602082028036833780820191505090505b509050848160008151811061090657610905612f3c565b5b602002602001019073ffffffffffffffffffffffffffffffffffffffff16908173ffffffffffffffffffffffffffffffffffffffff168152505073c02aaa39b223fe8d0a0e5c4f27ead9083c756cc28160018151811061096957610968612f3c565b5b602002602001019073ffffffffffffffffffffffffffffffffffffffff16908173ffffffffffffffffffffffffffffffffffffffff168152505083816002815181106109b8576109b7612f3c565b5b602002602001019073ffffffffffffffffffffffffffffffffffffffff16908173ffffffffffffffffffffffffffffffffffffffff16815250505b6000737a250d5630b4cf539739df2c5dacb4c659f2488d73ffffffffffffffffffffffffffffffffffffffff1663d06ca61f85846040518363ffffffff1660e01b8152600401610a44929190613029565b60006040518083038186803b158015610a5c57600080fd5b505afa158015610a70573d6000803e3d6000fd5b505050506040513d6000823e3d601f19601f82011682018060405250810190610a999190613121565b90508060018351610aaa9190613199565b81518110610abb57610aba612f3c565b5b6020026020010151925050509392505050565b8373ffffffffffffffffffffffffffffffffffffffff1663095ea7b3737a250d5630b4cf539739df2c5dacb4c659f2488d846040518363ffffffff1660e01b8152600401610b1d9291906131cd565b602060405180830381600087803b158015610b3757600080fd5b505af1158015610b4b573d6000803e3d6000fd5b505050506040513d601f19601f82011682018060405250810190610b6f9190613222565b506000429050606073c02aaa39b223fe8d0a0e5c4f27ead9083c756cc273ffffffffffffffffffffffffffffffffffffffff168673ffffffffffffffffffffffffffffffffffffffff161480610c04575073c02aaa39b223fe8d0a0e5c4f27ead9083c756cc273ffffffffffffffffffffffffffffffffffffffff168573ffffffffffffffffffffffffffffffffffffffff16145b15610cf857600267ffffffffffffffff811115610c2457610c23612acb565b5b604051908082528060200260200182016040528015610c525781602001602082028036833780820191505090505b5090508581600081518110610c6a57610c69612f3c565b5b602002602001019073ffffffffffffffffffffffffffffffffffffffff16908173ffffffffffffffffffffffffffffffffffffffff16815250508481600181518110610cb957610cb8612f3c565b5b602002602001019073ffffffffffffffffffffffffffffffffffffffff16908173ffffffffffffffffffffffffffffffffffffffff1681525050610e46565b600367ffffffffffffffff811115610d1357610d12612acb565b5b604051908082528060200260200182016040528015610d415781602001602082028036833780820191505090505b5090508581600081518110610d5957610d58612f3c565b5b602002602001019073ffffffffffffffffffffffffffffffffffffffff16908173ffffffffffffffffffffffffffffffffffffffff168152505073c02aaa39b223fe8d0a0e5c4f27ead9083c756cc281600181518110610dbc57610dbb612f3c565b5b602002602001019073ffffffffffffffffffffffffffffffffffffffff16908173ffffffffffffffffffffffffffffffffffffffff16815250508481600281518110610e0b57610e0a612f3c565b5b602002602001019073ffffffffffffffffffffffffffffffffffffffff16908173ffffffffffffffffffffffffffffffffffffffff16815250505b737a250d5630b4cf539739df2c5dacb4c659f2488d73ffffffffffffffffffffffffffffffffffffffff166338ed173985858430426040518663ffffffff1660e01b8152600401610e9b95949392919061324f565b600060405180830381600087803b158015610eb557600080fd5b505af1158015610ec9573d6000803e3d6000fd5b505050506040513d6000823e3d601f19601f82011682018060405250810190610ef29190613121565b50505050505050565b60606040518060a001604052803373ffffffffffffffffffffffffffffffffffffffff168152602001600b600085815260200190815260200160002060000160009054906101000a900473ffffffffffffffffffffffffffffffffffffffff1673ffffffffffffffffffffffffffffffffffffffff168152602001348152602001838152602001600454815250600d6000600454815260200190815260200160002060008201518160000160006101000a81548173ffffffffffffffffffffffffffffffffffffffff021916908373ffffffffffffffffffffffffffffffffffffffff16021790555060208201518160010160006101000a81548173ffffffffffffffffffffffffffffffffffffffff021916908373ffffffffffffffffffffffffffffffffffffffff160217905550604082015181600201556060820151816003015560808201518160040155905050600b6000838152602001908152602001600020600b0160045490806001815401808255809150506001900390600052602060002001600090919091909150557f21297d35e2f7609fd21ba966364c9c5e16c397a8ff7381fb0fcf712fff9424e4600d600060045481526020019081526020016000206040516110ce91906133c4565b60405180910390a16001600460008282546110e991906133df565b9250508190555034600c6000600b600086815260200190815260200160002060000160009054906101000a900473ffffffffffffffffffffffffffffffffffffffff1673ffffffffffffffffffffffffffffffffffffffff1673ffffffffffffffffffffffffffffffffffffffff168152602001908152602001600020600101819055506008805461117a90612f0a565b80601f01602080910402602001604051908101604052809291908181526020018280546111a690612f0a565b80156111f35780601f106111c8576101008083540402835291602001916111f3565b820191906000526020600020905b8154815290600101906020018083116111d657829003601f168201915b50505050509050919050565b60008073111111111117dc0aa78b770fa6a738034120c30273ffffffffffffffffffffffffffffffffffffffff166370a08231306040518263ffffffff1660e01b815260040161124f9190612c52565b60206040518083038186803b15801561126757600080fd5b505afa15801561127b573d6000803e3d6000fd5b505050506040513d601f19601f8201168201806040525081019061129f9190612eae565b90508091505090565b600681815481106112b857600080fd5b906000526020600020016000915090505481565b600260009054906101000a900473ffffffffffffffffffffffffffffffffffffffff1673ffffffffffffffffffffffffffffffffffffffff163373ffffffffffffffffffffffffffffffffffffffff161461132657600080fd5b81600e826040516113379190613471565b908152602001604051809103902060006101000a81548173ffffffffffffffffffffffffffffffffffffffff021916908373ffffffffffffffffffffffffffffffffffffffff1602179055505050565b80600c60003373ffffffffffffffffffffffffffffffffffffffff1673ffffffffffffffffffffffffffffffffffffffff1681526020019081526020016000206001015410156113d657600080fd5b60006064426113e591906133df565b90506000600267ffffffffffffffff81111561140457611403612acb565b5b6040519080825280602002602001820160405280156114325781602001602082028036833780820191505090505b509050600e604051611443906134d4565b908152602001604051809103902060009054906101000a900473ffffffffffffffffffffffffffffffffffffffff168160008151811061148657611485612f3c565b5b602002602001019073ffffffffffffffffffffffffffffffffffffffff16908173ffffffffffffffffffffffffffffffffffffffff1681525050600e6040516114ce90613535565b908152602001604051809103902060009054906101000a900473ffffffffffffffffffffffffffffffffffffffff168160018151811061151157611510612f3c565b5b602002602001019073ffffffffffffffffffffffffffffffffffffffff16908173ffffffffffffffffffffffffffffffffffffffff1681525050600160009054906101000a900473ffffffffffffffffffffffffffffffffffffffff1673ffffffffffffffffffffffffffffffffffffffff1663d0e30db0846040518263ffffffff1660e01b81526004016000604051808303818588803b1580156115b557600080fd5b505af11580156115c9573d6000803e3d6000fd5b505050505082600c60003373ffffffffffffffffffffffffffffffffffffffff1673ffffffffffffffffffffffffffffffffffffffff168152602001908152602001600020600201600082825461162091906133df565b9250508190555082600c60003373ffffffffffffffffffffffffffffffffffffffff1673ffffffffffffffffffffffffffffffffffffffff16815260200190815260200160002060010160008282546116799190613199565b925050819055507f72e8a9e162166777febe65180487a15d66a798aa00ccf3d4743743cf235fdb7b600c60003373ffffffffffffffffffffffffffffffffffffffff1673ffffffffffffffffffffffffffffffffffffffff1681526020019081526020016000206040516116ed91906135af565b60405180910390a15050505050565b600047905090565b600073ffffffffffffffffffffffffffffffffffffffff16601060003373ffffffffffffffffffffffffffffffffffffffff1673ffffffffffffffffffffffffffffffffffffffff16815260200190815260200160002060000160009054906101000a900473ffffffffffffffffffffffffffffffffffffffff1673ffffffffffffffffffffffffffffffffffffffff16146117d5576040517f08c379a00000000000000000000000000000000000000000000000000000000081526004016117cc90613616565b60405180910390fd5b604051806060016040528060008152602001600081526020016000815250600c60003373ffffffffffffffffffffffffffffffffffffffff1673ffffffffffffffffffffffffffffffffffffffff168152602001908152602001600020600082015181600001556020820151816001015560408201518160020155905050600160055461186291906133df565b600581905550606060405180604001604052803373ffffffffffffffffffffffffffffffffffffffff16815260200182815250601060003373ffffffffffffffffffffffffffffffffffffffff1673ffffffffffffffffffffffffffffffffffffffff16815260200190815260200160002060008201518160000160006101000a81548173ffffffffffffffffffffffffffffffffffffffff021916908373ffffffffffffffffffffffffffffffffffffffff1602179055506020820151816001019080519060200190611937929190612681565b509050507fe98c073dd958639e8957a0d059199a9480a89cd8af94ba92e4aadd4a0c214689601060003373ffffffffffffffffffffffffffffffffffffffff1673ffffffffffffffffffffffffffffffffffffffff1681526020019081526020016000206040516119a8919061374d565b60405180910390a150565b600260009054906101000a900473ffffffffffffffffffffffffffffffffffffffff1681565b60008060008060008060008054906101000a900473ffffffffffffffffffffffffffffffffffffffff1673ffffffffffffffffffffffffffffffffffffffff1663feaf968c6040518163ffffffff1660e01b815260040160a06040518083038186803b158015611a4857600080fd5b505afa158015611a5c573d6000803e3d6000fd5b505050506040513d601f19601f82011682018060405250810190611a8091906137dd565b94509450945094509450839550505050505090565b6000600454905090565b8173ffffffffffffffffffffffffffffffffffffffff166323b872dd3330846040518463ffffffff1660e01b8152600401611adc93929190613858565b602060405180830381600087803b158015611af657600080fd5b505af1158015611b0a573d6000803e3d6000fd5b505050506040513d601f19601f82011682018060405250810190611b2e9190613222565b505050565b60008073dac17f958d2ee523a2206206994597c13d831ec773ffffffffffffffffffffffffffffffffffffffff166370a08231306040518263ffffffff1660e01b8152600401611b839190612c52565b60206040518083038186803b158015611b9b57600080fd5b505afa158015611baf573d6000803e3d6000fd5b505050506040513d601f19601f82011682018060405250810190611bd39190612eae565b90508091505090565b600c6020528060005260406000206000915090508060000154908060010154908060020154905083565b6000600680549050905090565b8473ffffffffffffffffffffffffffffffffffffffff166323b872dd3330866040518463ffffffff1660e01b8152600401611c5093929190613858565b602060405180830381600087803b158015611c6a57600080fd5b505af1158015611c7e573d6000803e3d6000fd5b505050506040513d601f19601f82011682018060405250810190611ca29190613222565b508473ffffffffffffffffffffffffffffffffffffffff1663095ea7b3737a250d5630b4cf539739df2c5dacb4c659f2488d856040518363ffffffff1660e01b8152600401611cf29291906131cd565b602060405180830381600087803b158015611d0c57600080fd5b505af1158015611d20573d6000803e3d6000fd5b505050506040513d601f19601f82011682018060405250810190611d449190613222565b506000620186a042611d5691906133df565b9050606073c02aaa39b223fe8d0a0e5c4f27ead9083c756cc273ffffffffffffffffffffffffffffffffffffffff168773ffffffffffffffffffffffffffffffffffffffff161480611de7575073c02aaa39b223fe8d0a0e5c4f27ead9083c756cc273ffffffffffffffffffffffffffffffffffffffff168673ffffffffffffffffffffffffffffffffffffffff16145b15611edb57600267ffffffffffffffff811115611e0757611e06612acb565b5b604051908082528060200260200182016040528015611e355781602001602082028036833780820191505090505b5090508681600081518110611e4d57611e4c612f3c565b5b602002602001019073ffffffffffffffffffffffffffffffffffffffff16908173ffffffffffffffffffffffffffffffffffffffff16815250508581600181518110611e9c57611e9b612f3c565b5b602002602001019073ffffffffffffffffffffffffffffffffffffffff16908173ffffffffffffffffffffffffffffffffffffffff1681525050612029565b600367ffffffffffffffff811115611ef657611ef5612acb565b5b604051908082528060200260200182016040528015611f245781602001602082028036833780820191505090505b5090508681600081518110611f3c57611f3b612f3c565b5b602002602001019073ffffffffffffffffffffffffffffffffffffffff16908173ffffffffffffffffffffffffffffffffffffffff168152505073c02aaa39b223fe8d0a0e5c4f27ead9083c756cc281600181518110611f9f57611f9e612f3c565b5b602002602001019073ffffffffffffffffffffffffffffffffffffffff16908173ffffffffffffffffffffffffffffffffffffffff16815250508581600281518110611fee57611fed612f3c565b5b602002602001019073ffffffffffffffffffffffffffffffffffffffff16908173ffffffffffffffffffffffffffffffffffffffff16815250505b737a250d5630b4cf539739df2c5dacb4c659f2488d73ffffffffffffffffffffffffffffffffffffffff166338ed173986868487876040518663ffffffff1660e01b815260040161207e95949392919061324f565b600060405180830381600087803b15801561209857600080fd5b505af11580156120ac573d6000803e3d6000fd5b505050506040513d6000823e3d601f19601f820116820180604052508101906120d59190613121565b5050505050505050565b6000806000905060008473ffffffffffffffffffffffffffffffffffffffff16319050505092915050565b600f6020528060005260406000206000915090508060000160009054906101000a900473ffffffffffffffffffffffffffffffffffffffff16905081565b3373ffffffffffffffffffffffffffffffffffffffff16601060003373ffffffffffffffffffffffffffffffffffffffff1673ffffffffffffffffffffffffffffffffffffffff16815260200190815260200160002060000160009054906101000a900473ffffffffffffffffffffffffffffffffffffffff1673ffffffffffffffffffffffffffffffffffffffff16148061227157503373ffffffffffffffffffffffffffffffffffffffff16600f60003373ffffffffffffffffffffffffffffffffffffffff1673ffffffffffffffffffffffffffffffffffffffff16815260200190815260200160002060000160009054906101000a900473ffffffffffffffffffffffffffffffffffffffff1673ffffffffffffffffffffffffffffffffffffffff16145b61227a57600080fd5b34600c60003373ffffffffffffffffffffffffffffffffffffffff1673ffffffffffffffffffffffffffffffffffffffff16815260200190815260200160002060010160008282546122cc91906133df565b925050819055507f72e8a9e162166777febe65180487a15d66a798aa00ccf3d4743743cf235fdb7b600c60003373ffffffffffffffffffffffffffffffffffffffff1673ffffffffffffffffffffffffffffffffffffffff16815260200190815260200160002060405161234091906135af565b60405180910390a1565b3373ffffffffffffffffffffffffffffffffffffffff16601060003373ffffffffffffffffffffffffffffffffffffffff1673ffffffffffffffffffffffffffffffffffffffff16815260200190815260200160002060000160009054906101000a900473ffffffffffffffffffffffffffffffffffffffff1673ffffffffffffffffffffffffffffffffffffffff161461241a576040517f08c379a0000000000000000000000000000000000000000000000000000000008152600401612411906138db565b60405180910390fd5b600087511161245e576040517f08c379a000000000000000000000000000000000000000000000000000000000815260040161245590613947565b60405180910390fd5b6000600160035461246f91906133df565b9050600681908060018154018082558091505060019003906000526020600020016000909190919091505560606040518061018001604052803373ffffffffffffffffffffffffffffffffffffffff1681526020018381526020018a81526020018981526020016000815260200188815260200187815260200186815260200185815260200184815260200160001515815260200182815250600b600084815260200190815260200160002060008201518160000160006101000a81548173ffffffffffffffffffffffffffffffffffffffff021916908373ffffffffffffffffffffffffffffffffffffffff1602179055506020820151816001015560408201518160020190805190602001906125889291906126ce565b50606082015181600301556080820151816004015560a0820151816005015560c0820151816006015560e082015181600701556101008201518160080155610120820151816009015561014082015181600a0160006101000a81548160ff02191690831515021790555061016082015181600b01908051906020019061260f929190612681565b5090505060016003600082825461262691906133df565b925050819055507f22cf06f4600e639d12e51ae22fa3327b1af4aeb865cb9592a37eb1c6cae64786600b600084815260200190815260200160002060405161266e9190613bb8565b60405180910390a1505050505050505050565b8280548282559060005260206000209081019282156126bd579160200282015b828111156126bc5782518255916020019190600101906126a1565b5b5090506126ca9190612754565b5090565b8280546126da90612f0a565b90600052602060002090601f0160209004810192826126fc5760008555612743565b82601f1061271557805160ff1916838001178555612743565b82800160010185558215612743579182015b82811115612742578251825591602001919060010190612727565b5b5090506127509190612754565b5090565b5b8082111561276d576000816000905550600101612755565b5090565b6000819050919050565b61278481612771565b82525050565b600060208201905061279f600083018461277b565b92915050565b6000604051905090565b600080fd5b600080fd5b6127c281612771565b81146127cd57600080fd5b50565b6000813590506127df816127b9565b92915050565b6000602082840312156127fb576127fa6127af565b5b6000612809848285016127d0565b91505092915050565b600073ffffffffffffffffffffffffffffffffffffffff82169050919050565b600061283d82612812565b9050919050565b61284d81612832565b82525050565b600081519050919050565b600082825260208201905092915050565b60005b8381101561288d578082015181840152602081019050612872565b8381111561289c576000848401525b50505050565b6000601f19601f8301169050919050565b60006128be82612853565b6128c8818561285e565b93506128d881856020860161286f565b6128e1816128a2565b840191505092915050565b60008115159050919050565b612901816128ec565b82525050565b60006101608201905061291d600083018e612844565b61292a602083018d61277b565b818103604083015261293c818c6128b3565b905061294b606083018b61277b565b612958608083018a61277b565b61296560a083018961277b565b61297260c083018861277b565b61297f60e083018761277b565b61298d61010083018661277b565b61299b61012083018561277b565b6129a96101408301846128f8565b9c9b505050505050505050505050565b6129c281612832565b81146129cd57600080fd5b50565b6000813590506129df816129b9565b92915050565b6000806000606084860312156129fe576129fd6127af565b5b6000612a0c868287016129d0565b9350506020612a1d868287016129d0565b9250506040612a2e868287016127d0565b9150509250925092565b60008060008060808587031215612a5257612a516127af565b5b6000612a60878288016129d0565b9450506020612a71878288016129d0565b9350506040612a82878288016127d0565b9250506060612a93878288016127d0565b91505092959194509250565b60006020820190508181036000830152612ab981846128b3565b905092915050565b600080fd5b600080fd5b7f4e487b7100000000000000000000000000000000000000000000000000000000600052604160045260246000fd5b612b03826128a2565b810181811067ffffffffffffffff82111715612b2257612b21612acb565b5b80604052505050565b6000612b356127a5565b9050612b418282612afa565b919050565b600067ffffffffffffffff821115612b6157612b60612acb565b5b612b6a826128a2565b9050602081019050919050565b82818337600083830152505050565b6000612b99612b9484612b46565b612b2b565b905082815260208101848484011115612bb557612bb4612ac6565b5b612bc0848285612b77565b509392505050565b600082601f830112612bdd57612bdc612ac1565b5b8135612bed848260208601612b86565b91505092915050565b60008060408385031215612c0d57612c0c6127af565b5b6000612c1b858286016129d0565b925050602083013567ffffffffffffffff811115612c3c57612c3b6127b4565b5b612c4885828601612bc8565b9150509250929050565b6000602082019050612c676000830184612844565b92915050565b6000819050919050565b612c8081612c6d565b82525050565b6000602082019050612c9b6000830184612c77565b92915050565b60008060408385031215612cb857612cb76127af565b5b6000612cc6858286016129d0565b9250506020612cd7858286016127d0565b9150509250929050565b600060208284031215612cf757612cf66127af565b5b6000612d05848285016129d0565b91505092915050565b6000606082019050612d23600083018661277b565b612d30602083018561277b565b612d3d604083018461277b565b949350505050565b600080600080600060a08688031215612d6157612d606127af565b5b6000612d6f888289016129d0565b9550506020612d80888289016129d0565b9450506040612d91888289016127d0565b9350506060612da2888289016127d0565b9250506080612db3888289016129d0565b9150509295509295909350565b6000602082019050612dd560008301846128f8565b92915050565b600080600080600080600060e0888a031215612dfa57612df96127af565b5b600088013567ffffffffffffffff811115612e1857612e176127b4565b5b612e248a828b01612bc8565b9750506020612e358a828b016127d0565b9650506040612e468a828b016127d0565b9550506060612e578a828b016127d0565b9450506080612e688a828b016127d0565b93505060a0612e798a828b016127d0565b92505060c0612e8a8a828b016127d0565b91505092959891949750929550565b600081519050612ea8816127b9565b92915050565b600060208284031215612ec457612ec36127af565b5b6000612ed284828501612e99565b91505092915050565b7f4e487b7100000000000000000000000000000000000000000000000000000000600052602260045260246000fd5b60006002820490506001821680612f2257607f821691505b60208210811415612f3657612f35612edb565b5b50919050565b7f4e487b7100000000000000000000000000000000000000000000000000000000600052603260045260246000fd5b600081519050919050565b600082825260208201905092915050565b6000819050602082019050919050565b612fa081612832565b82525050565b6000612fb28383612f97565b60208301905092915050565b6000602082019050919050565b6000612fd682612f6b565b612fe08185612f76565b9350612feb83612f87565b8060005b8381101561301c5781516130038882612fa6565b975061300e83612fbe565b925050600181019050612fef565b5085935050505092915050565b600060408201905061303e600083018561277b565b81810360208301526130508184612fcb565b90509392505050565b600067ffffffffffffffff82111561307457613073612acb565b5b602082029050602081019050919050565b600080fd5b600061309d61309884613059565b612b2b565b905080838252602082019050602084028301858111156130c0576130bf613085565b5b835b818110156130e957806130d58882612e99565b8452602084019350506020810190506130c2565b5050509392505050565b600082601f83011261310857613107612ac1565b5b815161311884826020860161308a565b91505092915050565b600060208284031215613137576131366127af565b5b600082015167ffffffffffffffff811115613155576131546127b4565b5b613161848285016130f3565b91505092915050565b7f4e487b7100000000000000000000000000000000000000000000000000000000600052601160045260246000fd5b60006131a482612771565b91506131af83612771565b9250828210156131c2576131c161316a565b5b828203905092915050565b60006040820190506131e26000830185612844565b6131ef602083018461277b565b9392505050565b6131ff816128ec565b811461320a57600080fd5b50565b60008151905061321c816131f6565b92915050565b600060208284031215613238576132376127af565b5b60006132468482850161320d565b91505092915050565b600060a082019050613264600083018861277b565b613271602083018761277b565b81810360408301526132838186612fcb565b90506132926060830185612844565b61329f608083018461277b565b9695505050505050565b60008160001c9050919050565b600073ffffffffffffffffffffffffffffffffffffffff82169050919050565b60006132e96132e4836132a9565b6132b6565b9050919050565b6000819050919050565b600061330d613308836132a9565b6132f0565b9050919050565b61331d81612771565b82525050565b60a082016000808301549050613338816132d6565b6133456000860182612f97565b5060018301549050613356816132d6565b6133636020860182612f97565b5060028301549050613374816132fa565b6133816040860182613314565b5060038301549050613392816132fa565b61339f6060860182613314565b50600483015490506133b0816132fa565b6133bd6080860182613314565b5050505050565b600060a0820190506133d96000830184613323565b92915050565b60006133ea82612771565b91506133f583612771565b9250827fffffffffffffffffffffffffffffffffffffffffffffffffffffffffffffffff0382111561342a5761342961316a565b5b828201905092915050565b600081905092915050565b600061344b82612853565b6134558185613435565b935061346581856020860161286f565b80840191505092915050565b600061347d8284613440565b915081905092915050565b7f5745544800000000000000000000000000000000000000000000000000000000600082015250565b60006134be600483613435565b91506134c982613488565b600482019050919050565b60006134df826134b1565b9150819050919050565b7f5553445400000000000000000000000000000000000000000000000000000000600082015250565b600061351f600483613435565b915061352a826134e9565b600482019050919050565b600061354082613512565b9150819050919050565b60608201600080830154905061355f816132fa565b61356c6000860182613314565b506001830154905061357d816132fa565b61358a6020860182613314565b506002830154905061359b816132fa565b6135a86040860182613314565b5050505050565b60006060820190506135c4600083018461354a565b92915050565b7f416c7265616479205369676e656420696e206173204973737565722100000000600082015250565b6000613600601c8361285e565b915061360b826135ca565b602082019050919050565b6000602082019050818103600083015261362f816135f3565b9050919050565b600081549050919050565b600082825260208201905092915050565b60008190508160005260206000209050919050565b60006136738383613314565b60208301905092915050565b600061368b82546132fa565b9050919050565b6000600182019050919050565b60006136aa82613636565b6136b48185613641565b93506136bf83613652565b8060005b838110156136f7576136d48261367f565b6136de8882613667565b97506136e983613692565b9250506001810190506136c3565b5085935050505092915050565b600060408301600080840154905061371b816132d6565b6137286000870182612f97565b5060018401858303602087015261373f838261369f565b925050819250505092915050565b600060208201905081810360008301526137678184613704565b905092915050565b600069ffffffffffffffffffff82169050919050565b61378e8161376f565b811461379957600080fd5b50565b6000815190506137ab81613785565b92915050565b6137ba81612c6d565b81146137c557600080fd5b50565b6000815190506137d7816137b1565b92915050565b600080600080600060a086880312156137f9576137f86127af565b5b60006138078882890161379c565b9550506020613818888289016137c8565b945050604061382988828901612e99565b935050606061383a88828901612e99565b925050608061384b8882890161379c565b9150509295509295909350565b600060608201905061386d6000830186612844565b61387a6020830185612844565b613887604083018461277b565b949350505050565b7f506c65617365205369676e20496e206173204973737565720000000000000000600082015250565b60006138c560188361285e565b91506138d08261388f565b602082019050919050565b600060208201905081810360008301526138f4816138b8565b9050919050565b7f6e616d652063616e6e6f7420626576616c20656d707479000000000000000000600082015250565b600061393160178361285e565b915061393c826138fb565b602082019050919050565b6000602082019050818103600083015261396081613924565b9050919050565b600082825260208201905092915050565b60008190508160005260206000209050919050565b6000815461399a81612f0a565b6139a48186613967565b945060018216600081146139bf57600181146139d157613a04565b60ff1983168652602086019350613a04565b6139da85613978565b60005b838110156139fc578154818901526001820191506020810190506139dd565b808801955050505b50505092915050565b600060ff82169050919050565b6000613a2d613a28836132a9565b613a0d565b9050919050565b613a3d816128ec565b82525050565b600061018083016000808401549050613a5b816132d6565b613a686000870182612f97565b5060018401549050613a79816132fa565b613a866020870182613314565b50600284018583036040870152613a9d838261398d565b92505060038401549050613ab0816132fa565b613abd6060870182613314565b5060048401549050613ace816132fa565b613adb6080870182613314565b5060058401549050613aec816132fa565b613af960a0870182613314565b5060068401549050613b0a816132fa565b613b1760c0870182613314565b5060078401549050613b28816132fa565b613b3560e0870182613314565b5060088401549050613b46816132fa565b613b54610100870182613314565b5060098401549050613b65816132fa565b613b73610120870182613314565b50600a8401549050613b8481613a1a565b613b92610140870182613a34565b50600b8401858303610160870152613baa838261369f565b925050819250505092915050565b60006020820190508181036000830152613bd28184613a43565b90509291505056fea26469706673582212209418da6c7e1d55e16811e5204a294fa3cfa480a312de72126e42d2fe5a58931564736f6c63430008090033",
  "immutableReferences": {},
  "source": "pragma solidity 0.8.9;\n\nimport \"./TradeCenter.sol\";\n//import \"./ERC20.sol\";\n\ninterface ERC20{\n  function deposit() external payable;\n  function withdraw(uint256 amount) external;\n}\n\ncontract YieldOfferings is TradeCenter {\n   \nERC20 weth;  \naddress public owner = msg.sender; // contract owner\n // will be used in logic\nuint offeringCount = 0; // keep track of all number\nuint contractCount=0;\nuint walletCount=0;\nuint[] public offeringIDList; // all ids list\naddress[] walletOwners;\nstring aloo = \"Bought!\";\n//address WETH = 0xC02aaA39b223FE8D0A0e5C4F27eAD9083C756Cc2;\n\n//mapping (address=> bool) public hasWallet;\n\n//hasWallet[key] \n\n\n\nuint price= 2400;\nuint ethusdt0= 2300;\n\nmapping (uint => offering) public Offerings; //mapping offerings to ids\nmapping (address => wallet) public walletMap;\nmapping(uint => offeringContract) ContractMap;\nmapping (string => address) CoinMap;\n\nstruct wallet {\nuint usdt;\nuint eth;\nuint weth;\n//uint ONEINCH;\n//uint WETH;\n}\n\nstruct buyer {\n    address buyerAddress;\n\n    offering[] offerings;\n    uint[] ContractsIds;\n    uint[] offeringIDList;\n}\n\nstruct issuer {\n    address issuerAddress;\n    //uint256 balance;\n    //uint256 accountPayable;\n    uint[] offeringsList;\n    //uint WalletID;\n    //uint[] ContractsIds;\n    //bool hasWallet;\n}\n\nmapping (address => issuer) public BuyersMap;\nmapping (address => issuer) internal IssuersMap;\n\n\n\nstruct offeringContract{\n    address buyer;\n    address issuer;\n    uint amount;\n    uint offeringID;\n    uint contractID;\n}\n\nstruct offering{\n    address issuer;\n    uint ID;\n    string name;\n    uint Nb_fixings;\n    uint fixing_counter;\n    uint high_coupon;\n    uint high_coupon_barrier;\n    uint smaller_coupon;\n    uint Upoutbarrier;\n    uint di_barrier;\n    bool Di_barrier_activated;\n    uint[] contractList;\n}\n\n\nevent logAddedOffering(offering);\nevent getContract (offeringContract);\nevent getIssuer (issuer);\nevent getWalletInfo(wallet);\n// function to add a new offering \n\nconstructor () public {\n\n    weth = ERC20 (WETH);\n}\n\nfunction SignInIssuer () public  {\nrequire(IssuersMap[msg.sender].issuerAddress==0x0000000000000000000000000000000000000000, \"Already Signed in as Issuer!\" );\n/*struct issuer {\n    address issuerAddress;\n    offering[] offerings;\n    uint[] ContractsIds;\n}*/\nwalletMap[msg.sender] = wallet (\n0,\n0,\n0\n);\nwalletCount = walletCount+1;\n\nuint[] memory offeringEmptyList;\nIssuersMap[msg.sender] = issuer(\nmsg.sender,\nofferingEmptyList\n);\n\n\n\nemit getIssuer(IssuersMap[msg.sender]);\n\n}\n\nfunction supportCoin(address CoinAddress, string memory CoinName) public {\nrequire(msg.sender == owner);\nCoinMap[CoinName] = CoinAddress;\n\n\n}\n\n\n\nfunction addOffering(\n    string memory _name,\n    uint _Nb_fixings,\n    uint _high_coupon,\n    uint _high_coupon_barrier,\n    uint _smaller_coupon,\n    uint _Upoutbarrier,\n    uint _di_barrier\n    \n   ) public{\n    require(IssuersMap[msg.sender].issuerAddress==msg.sender, \"Please Sign In as Issuer\" );\n    require(bytes(_name).length>0, \"name cannot beval empty\");\n    //require(IssuersMap[msg.sender].issuerAddress, msg.sender);\n\n    uint newID= offeringCount + 1;\n    //offeringContract[] storage emptyList;\n    //newCampaign.deadline= block.timestamp + (_duration * 1 days);\n    offeringIDList.push(newID);\n    uint[] memory contractList;\n    Offerings[newID] = offering(msg.sender, \n     newID, \n     _name,\n     _Nb_fixings,\n     0,\n     _high_coupon,\n     _high_coupon_barrier,\n     _smaller_coupon,\n     _Upoutbarrier,\n     _di_barrier,\n      false,\n    contractList);\n    \n    offeringCount+= 1;\n\n    /*bool ownsWallet= false;\n    for (uint i=0; i< walletOwners.length; i++){\n        if (walletOwners[i] == msg.sender)\n        ownsWallet= true;\n        break;\n    }\n\n    if (ownsWallet== false){\n        walletMap[msg.sender]= wallet(0,0);\n        walletCount +=1;\n    }*/\n\n    //emit logAddedOffering(Offerings[newID].ID, Offerings[newID].name, Offerings[newID].issuer);\n    emit logAddedOffering(Offerings[newID]);\n}\n\n\n    \n/////// BUY BACK PART /////////\n// how will we know the agreed on price?\n// how will the issuer fail to pay a coupon?\n\n/*function checkPayables(uint256 id) public returns(uint){\n    uint buyerGets;\n    Offerings[ContractMap[id].offeringID].fixing_counter+=1;\n    if (price< (Offerings[ContractMap[id].offeringID].di_barrier* ethusdt0)){\n    Offerings[ContractMap[id].offeringID].Di_barrier_activated=true;\n    }\n\n\n    // if not last fixing\n    if (Offerings[ContractMap[id].offeringID].fixing_counter< Offerings[ContractMap[id].offeringID].Nb_fixings){\n        if(price > Offerings[ContractMap[id].offeringID].Upoutbarrier*ethusdt0){\n            // send amount X to buyer+ high_coupon X\n            buyerGets= ContractMap[id].amount + (Offerings[ContractMap[id].offeringID].high_coupon*ContractMap[id].amount);\n        }\n        else if (price> Offerings[ContractMap[id].offeringID].high_coupon_barrier*ethusdt0){\n            // send buyer hight_couponX\n            buyerGets= Offerings[ContractMap[id].offeringID].high_coupon*ContractMap[id].amount;\n\n        }\n        else if (Offerings[ContractMap[id].offeringID].Di_barrier_activated== false){\n            //buyer get smaller_couponX\n            buyerGets= ContractMap[id].amount + Offerings[ContractMap[id].offeringID].smaller_coupon * ContractMap[id].amount;\n\n        }\n        else {\n            // buyer gets nothing\n            buyerGets=0;\n        }\n    }\n\n    else{\n        \n        if (price> Offerings[ContractMap[id].offeringID].high_coupon_barrier*ethusdt0){\n            // send buyer hight_couponX + X (what is this amount?)\n            buyerGets= ContractMap[id].amount + (Offerings[ContractMap[id].offeringID].high_coupon*ContractMap[id].amount);\n  \n        }\n        else if(Offerings[ContractMap[id].offeringID].Di_barrier_activated= false){\n            \n            //buyer gets lower_coupon*X+X\n            \n            buyerGets= ContractMap[id].amount + (Offerings[ContractMap[id].offeringID].smaller_coupon *ContractMap[id].amount);\n\n            \n        \n        }\n        else {\n            //X= getamount(id,)\n            buyerGets= (ContractMap[id].amount/Offerings[ContractMap[id].offeringID].high_coupon_barrier)/ ethusdt0;    \n        }\n        \n    }\n\n\n}*/\n\n\nfunction offeringsLoader(offering[] memory offeringList, uint usdtPrice) internal {\n\n\nfor (uint i = 0 ; i< offeringList.length ; i++)\n{\nhandleFixing(offeringList[i], usdtPrice);\n}\n\n\n\n}\n\n\nfunction handleFixing (offering memory Offering, uint usdtPrice) internal {\n\n\nuint [] memory  contractIDList = Offering.contractList;\n\n  if (usdtPrice < (Offering.di_barrier* ethusdt0)){\n    Offering.Di_barrier_activated=true;\n    }\n\n\nif(usdtPrice > Offering.Upoutbarrier*ethusdt0){\n\n            for (uint i =0; i< contractIDList.length ; i++){\n                uint buyerGets = ContractMap[i].amount + Offering.high_coupon*ContractMap[i].amount;\n            }\n        }\n\n\n\n\n}\n\nfunction depositToWallet () public payable {\nrequire(IssuersMap[msg.sender].issuerAddress==msg.sender || BuyersMap[msg.sender].issuerAddress==msg.sender);\n\nwalletMap[msg.sender].eth += msg.value;\n\nemit getWalletInfo(walletMap[msg.sender]);\n\n}\n\nfunction swapETHFromBuiltInWallet (address from, address to, uint amount)public {\n\nrequire(walletMap[msg.sender].eth >= amount);\nuint deadline = block.timestamp + 100;\n    address[] memory path = new address[](2);\n    path[0] = CoinMap[\"WETH\"];\n    path[1] = CoinMap[\"USDT\"];\n\n//WETH.call{value : amount}(\"\");\nweth.deposit{value : amount}();\nwalletMap[msg.sender]. weth += amount;\nwalletMap[msg.sender] .eth -= amount;\n//IUniswapV2Router(UNISWAP_V2_ROUTER).swapExactETHForTokens {value : amount} (0,path,address(this),deadline);\nemit getWalletInfo(walletMap[msg.sender]);\n\n}\n\n\n\nfunction buyOffering(uint _id) public payable returns(string memory) {\n\n/*struct offeringContract{\n    address buy\n    address issuer;\n    uint amount;\n    uint offeringID;\n    uint contractID;\n}*/\n\n\n\nContractMap[contractCount] = offeringContract(\n    msg.sender,\n    Offerings[_id].issuer,\n    msg.value,\n    _id,\n    contractCount\n);\nOfferings[_id]. contractList . push(contractCount);\n//emit getContract(ContractMap[contractCount].buyer,ContractMap[contractCount].issuer,ContractMap[contractCount].amount,ContractMap[contractCount].offeringID,ContractMap[contractCount].contractID);\nemit getContract(ContractMap[contractCount]);\ncontractCount+=1;\n\nwalletMap [Offerings[_id].issuer] . eth = msg.value ;\n\n\n//emit getWalletInfo (walletMap [Offerings[_id].issuer]);\n//Offerings[_id]. contractList . append()\n\nreturn aloo;\n\n}\n\nfunction checkCustody(address _issuer, uint tbs) public returns(bool){\n    bool isAllowed= false;\n    uint256 issuerBalance= _issuer.balance;\n    //check all linked offerings to issuer\n\n}\n\nfunction getCount() public view returns(uint count) {\n    return offeringIDList.length;\n}\n\nfunction getContractCount() public view returns (uint count){\n\nreturn contractCount;\n\n}\n\nfunction getContractETH () public view returns (uint){\n\nreturn address(this).balance;\n    \n}\n\n\n// contract's brace\n}\n\n\n",
  "sourcePath": "D:\\projects\\Bounty_1_truffle\\contracts\\YieldOfferings.sol",
  "compiler": {
    "name": "solc",
    "version": "0.8.9+commit.e5eed63a.Emscripten.clang"
  },
  "schemaVersion": "3.4.4",
  "updatedAt": "2022-02-22T16:20:08.629Z",
  "devdoc": {
    "kind": "dev",
    "methods": {},
    "version": 1
  },
  "userdoc": {
    "kind": "user",
    "methods": {
      "getLatestPrice()": {
        "notice": "Returns the latest price"
      }
    },
    "version": 1
  }
}