{
  "contractName": "YieldOfferings",
  "abi": [
    {
      "inputs": [],
      "stateMutability": "nonpayable",
      "type": "constructor"
    },
    {
      "anonymous": false,
      "inputs": [
        {
          "components": [
            {
              "internalType": "address",
              "name": "buyer",
              "type": "address"
            },
            {
              "internalType": "address",
              "name": "issuer",
              "type": "address"
            },
            {
              "internalType": "uint256",
              "name": "amount",
              "type": "uint256"
            },
            {
              "internalType": "uint256",
              "name": "offeringID",
              "type": "uint256"
            },
            {
              "internalType": "uint256",
              "name": "contractID",
              "type": "uint256"
            }
          ],
          "indexed": false,
          "internalType": "struct YieldOfferings.offeringContract",
          "name": "",
          "type": "tuple"
        }
      ],
      "name": "getContract",
      "type": "event"
    },
    {
      "anonymous": false,
      "inputs": [
        {
          "components": [
            {
              "internalType": "address",
              "name": "issuerAddress",
              "type": "address"
            },
            {
              "internalType": "uint256[]",
              "name": "offeringsList",
              "type": "uint256[]"
            }
          ],
          "indexed": false,
          "internalType": "struct YieldOfferings.issuer",
          "name": "",
          "type": "tuple"
        }
      ],
      "name": "getIssuer",
      "type": "event"
    },
    {
      "anonymous": false,
      "inputs": [
        {
          "components": [
            {
              "internalType": "uint256",
              "name": "usdt",
              "type": "uint256"
            },
            {
              "internalType": "uint256",
              "name": "eth",
              "type": "uint256"
            },
            {
              "internalType": "uint256",
              "name": "weth",
              "type": "uint256"
            }
          ],
          "indexed": false,
          "internalType": "struct YieldOfferings.wallet",
          "name": "",
          "type": "tuple"
        }
      ],
      "name": "getWalletInfo",
      "type": "event"
    },
    {
      "anonymous": false,
      "inputs": [
        {
          "components": [
            {
              "internalType": "address",
              "name": "issuer",
              "type": "address"
            },
            {
              "internalType": "uint256",
              "name": "ID",
              "type": "uint256"
            },
            {
              "internalType": "string",
              "name": "name",
              "type": "string"
            },
            {
              "internalType": "uint256",
              "name": "Nb_fixings",
              "type": "uint256"
            },
            {
              "internalType": "uint256",
              "name": "fixing_counter",
              "type": "uint256"
            },
            {
              "internalType": "uint256",
              "name": "high_coupon",
              "type": "uint256"
            },
            {
              "internalType": "uint256",
              "name": "high_coupon_barrier",
              "type": "uint256"
            },
            {
              "internalType": "uint256",
              "name": "smaller_coupon",
              "type": "uint256"
            },
            {
              "internalType": "uint256",
              "name": "Upoutbarrier",
              "type": "uint256"
            },
            {
              "internalType": "uint256",
              "name": "di_barrier",
              "type": "uint256"
            },
            {
              "internalType": "bool",
              "name": "Di_barrier_activated",
              "type": "bool"
            },
            {
              "internalType": "uint256",
              "name": "contractID",
              "type": "uint256"
            }
          ],
          "indexed": false,
          "internalType": "struct YieldOfferings.offering",
          "name": "",
          "type": "tuple"
        }
      ],
      "name": "logAddedOffering",
      "type": "event"
    },
    {
      "inputs": [
        {
          "internalType": "address",
          "name": "",
          "type": "address"
        }
      ],
      "name": "BuyersMap",
      "outputs": [
        {
          "internalType": "address",
          "name": "issuerAddress",
          "type": "address"
        }
      ],
      "stateMutability": "view",
      "type": "function"
    },
    {
      "inputs": [
        {
          "internalType": "uint256",
          "name": "",
          "type": "uint256"
        }
      ],
      "name": "Offerings",
      "outputs": [
        {
          "internalType": "address",
          "name": "issuer",
          "type": "address"
        },
        {
          "internalType": "uint256",
          "name": "ID",
          "type": "uint256"
        },
        {
          "internalType": "string",
          "name": "name",
          "type": "string"
        },
        {
          "internalType": "uint256",
          "name": "Nb_fixings",
          "type": "uint256"
        },
        {
          "internalType": "uint256",
          "name": "fixing_counter",
          "type": "uint256"
        },
        {
          "internalType": "uint256",
          "name": "high_coupon",
          "type": "uint256"
        },
        {
          "internalType": "uint256",
          "name": "high_coupon_barrier",
          "type": "uint256"
        },
        {
          "internalType": "uint256",
          "name": "smaller_coupon",
          "type": "uint256"
        },
        {
          "internalType": "uint256",
          "name": "Upoutbarrier",
          "type": "uint256"
        },
        {
          "internalType": "uint256",
          "name": "di_barrier",
          "type": "uint256"
        },
        {
          "internalType": "bool",
          "name": "Di_barrier_activated",
          "type": "bool"
        },
        {
          "internalType": "uint256",
          "name": "contractID",
          "type": "uint256"
        }
      ],
      "stateMutability": "view",
      "type": "function"
    },
    {
      "inputs": [
        {
          "internalType": "address",
          "name": "_tokenIn",
          "type": "address"
        },
        {
          "internalType": "uint256",
          "name": "_amountIn",
          "type": "uint256"
        }
      ],
      "name": "depositerc20",
      "outputs": [],
      "stateMutability": "nonpayable",
      "type": "function"
    },
    {
      "inputs": [
        {
          "internalType": "address",
          "name": "_tokenIn",
          "type": "address"
        },
        {
          "internalType": "address",
          "name": "_tokenOut",
          "type": "address"
        },
        {
          "internalType": "uint256",
          "name": "_amountIn",
          "type": "uint256"
        }
      ],
      "name": "getAmountOutMin",
      "outputs": [
        {
          "internalType": "uint256",
          "name": "",
          "type": "uint256"
        }
      ],
      "stateMutability": "view",
      "type": "function"
    },
    {
      "inputs": [],
      "name": "getDaiBalance",
      "outputs": [
        {
          "internalType": "uint256",
          "name": "",
          "type": "uint256"
        }
      ],
      "stateMutability": "view",
      "type": "function"
    },
    {
      "inputs": [],
      "name": "getLatestPrice",
      "outputs": [
        {
          "internalType": "int256",
          "name": "",
          "type": "int256"
        }
      ],
      "stateMutability": "view",
      "type": "function"
    },
    {
      "inputs": [],
      "name": "getUSDTBalance",
      "outputs": [
        {
          "internalType": "uint256",
          "name": "",
          "type": "uint256"
        }
      ],
      "stateMutability": "view",
      "type": "function"
    },
    {
      "inputs": [],
      "name": "getWETHBalance",
      "outputs": [
        {
          "internalType": "uint256",
          "name": "",
          "type": "uint256"
        }
      ],
      "stateMutability": "view",
      "type": "function"
    },
    {
      "inputs": [
        {
          "internalType": "uint256",
          "name": "",
          "type": "uint256"
        }
      ],
      "name": "offeringIDList",
      "outputs": [
        {
          "internalType": "uint256",
          "name": "",
          "type": "uint256"
        }
      ],
      "stateMutability": "view",
      "type": "function"
    },
    {
      "inputs": [],
      "name": "owner",
      "outputs": [
        {
          "internalType": "address",
          "name": "",
          "type": "address"
        }
      ],
      "stateMutability": "view",
      "type": "function"
    },
    {
      "inputs": [
        {
          "internalType": "address",
          "name": "_tokenIn",
          "type": "address"
        },
        {
          "internalType": "address",
          "name": "_tokenOut",
          "type": "address"
        },
        {
          "internalType": "uint256",
          "name": "_amountIn",
          "type": "uint256"
        },
        {
          "internalType": "uint256",
          "name": "_amountOutMin",
          "type": "uint256"
        }
      ],
      "name": "simpleswap",
      "outputs": [],
      "stateMutability": "nonpayable",
      "type": "function"
    },
    {
      "inputs": [
        {
          "internalType": "address",
          "name": "_tokenIn",
          "type": "address"
        },
        {
          "internalType": "address",
          "name": "_tokenOut",
          "type": "address"
        },
        {
          "internalType": "uint256",
          "name": "_amountIn",
          "type": "uint256"
        },
        {
          "internalType": "uint256",
          "name": "_amountOutMin",
          "type": "uint256"
        },
        {
          "internalType": "address",
          "name": "_to",
          "type": "address"
        }
      ],
      "name": "swap",
      "outputs": [],
      "stateMutability": "nonpayable",
      "type": "function"
    },
    {
      "inputs": [
        {
          "internalType": "address",
          "name": "",
          "type": "address"
        }
      ],
      "name": "walletMap",
      "outputs": [
        {
          "internalType": "uint256",
          "name": "usdt",
          "type": "uint256"
        },
        {
          "internalType": "uint256",
          "name": "eth",
          "type": "uint256"
        },
        {
          "internalType": "uint256",
          "name": "weth",
          "type": "uint256"
        }
      ],
      "stateMutability": "view",
      "type": "function"
    },
    {
      "stateMutability": "payable",
      "type": "receive"
    },
    {
      "inputs": [],
      "name": "SignInIssuer",
      "outputs": [],
      "stateMutability": "nonpayable",
      "type": "function"
    },
    {
      "inputs": [
        {
          "internalType": "address",
          "name": "CoinAddress",
          "type": "address"
        },
        {
          "internalType": "string",
          "name": "CoinName",
          "type": "string"
        }
      ],
      "name": "supportCoin",
      "outputs": [],
      "stateMutability": "nonpayable",
      "type": "function"
    },
    {
      "inputs": [
        {
          "internalType": "string",
          "name": "_name",
          "type": "string"
        },
        {
          "internalType": "uint256",
          "name": "_Nb_fixings",
          "type": "uint256"
        },
        {
          "internalType": "uint256",
          "name": "_high_coupon",
          "type": "uint256"
        },
        {
          "internalType": "uint256",
          "name": "_high_coupon_barrier",
          "type": "uint256"
        },
        {
          "internalType": "uint256",
          "name": "_smaller_coupon",
          "type": "uint256"
        },
        {
          "internalType": "uint256",
          "name": "_Upoutbarrier",
          "type": "uint256"
        },
        {
          "internalType": "uint256",
          "name": "_di_barrier",
          "type": "uint256"
        }
      ],
      "name": "addOffering",
      "outputs": [],
      "stateMutability": "nonpayable",
      "type": "function"
    },
    {
      "inputs": [],
      "name": "depositToWallet",
      "outputs": [],
      "stateMutability": "payable",
      "type": "function"
    },
    {
      "inputs": [
        {
          "internalType": "address",
          "name": "from",
          "type": "address"
        },
        {
          "internalType": "address",
          "name": "to",
          "type": "address"
        },
        {
          "internalType": "uint256",
          "name": "amount",
          "type": "uint256"
        }
      ],
      "name": "swapETHFromBuiltInWallet",
      "outputs": [],
      "stateMutability": "nonpayable",
      "type": "function"
    },
    {
      "inputs": [
        {
          "internalType": "uint256",
          "name": "_id",
          "type": "uint256"
        }
      ],
      "name": "buyOffering",
      "outputs": [
        {
          "internalType": "string",
          "name": "",
          "type": "string"
        }
      ],
      "stateMutability": "payable",
      "type": "function"
    },
    {
      "inputs": [
        {
          "internalType": "address",
          "name": "_issuer",
          "type": "address"
        },
        {
          "internalType": "uint256",
          "name": "tbs",
          "type": "uint256"
        }
      ],
      "name": "checkCustody",
      "outputs": [
        {
          "internalType": "bool",
          "name": "",
          "type": "bool"
        }
      ],
      "stateMutability": "nonpayable",
      "type": "function"
    },
    {
      "inputs": [],
      "name": "getCount",
      "outputs": [
        {
          "internalType": "uint256",
          "name": "count",
          "type": "uint256"
        }
      ],
      "stateMutability": "view",
      "type": "function"
    },
    {
      "inputs": [],
      "name": "getContractCount",
      "outputs": [
        {
          "internalType": "uint256",
          "name": "count",
          "type": "uint256"
        }
      ],
      "stateMutability": "view",
      "type": "function"
    },
    {
      "inputs": [],
      "name": "getContractETH",
      "outputs": [
        {
          "internalType": "uint256",
          "name": "",
          "type": "uint256"
        }
      ],
      "stateMutability": "view",
      "type": "function"
    },
    {
      "inputs": [],
      "name": "getOfferings",
      "outputs": [
        {
          "components": [
            {
              "internalType": "address",
              "name": "issuer",
              "type": "address"
            },
            {
              "internalType": "uint256",
              "name": "ID",
              "type": "uint256"
            },
            {
              "internalType": "string",
              "name": "name",
              "type": "string"
            },
            {
              "internalType": "uint256",
              "name": "Nb_fixings",
              "type": "uint256"
            },
            {
              "internalType": "uint256",
              "name": "fixing_counter",
              "type": "uint256"
            },
            {
              "internalType": "uint256",
              "name": "high_coupon",
              "type": "uint256"
            },
            {
              "internalType": "uint256",
              "name": "high_coupon_barrier",
              "type": "uint256"
            },
            {
              "internalType": "uint256",
              "name": "smaller_coupon",
              "type": "uint256"
            },
            {
              "internalType": "uint256",
              "name": "Upoutbarrier",
              "type": "uint256"
            },
            {
              "internalType": "uint256",
              "name": "di_barrier",
              "type": "uint256"
            },
            {
              "internalType": "bool",
              "name": "Di_barrier_activated",
              "type": "bool"
            },
            {
              "internalType": "uint256",
              "name": "contractID",
              "type": "uint256"
            }
          ],
          "internalType": "struct YieldOfferings.offering[]",
          "name": "",
          "type": "tuple[]"
        }
      ],
      "stateMutability": "view",
      "type": "function"
    }
  ],
  "bytecode": "0x608060405233600260006101000a81548173ffffffffffffffffffffffffffffffffffffffff021916908373ffffffffffffffffffffffffffffffffffffffff1602179055506000600355600060045560006005556040518060400160405280600781526020017f426f75676874210000000000000000000000000000000000000000000000000081525060089080519060200190620000a19291906200016b565b506109606009556108fc600a55348015620000bb57600080fd5b50735f4ec3df9cbd43714fe2740f5e3616155c5b84196000806101000a81548173ffffffffffffffffffffffffffffffffffffffff021916908373ffffffffffffffffffffffffffffffffffffffff16021790555073c02aaa39b223fe8d0a0e5c4f27ead9083c756cc2600160006101000a81548173ffffffffffffffffffffffffffffffffffffffff021916908373ffffffffffffffffffffffffffffffffffffffff16021790555062000280565b82805462000179906200024a565b90600052602060002090601f0160209004810192826200019d5760008555620001e9565b82601f10620001b857805160ff1916838001178555620001e9565b82800160010185558215620001e9579182015b82811115620001e8578251825591602001919060010190620001cb565b5b509050620001f89190620001fc565b5090565b5b8082111562000217576000816000905550600101620001fd565b5090565b7f4e487b7100000000000000000000000000000000000000000000000000000000600052602260045260246000fd5b600060028204905060018216806200026357607f821691505b602082108114156200027a57620002796200021b565b5b50919050565b61405d80620002906000396000f3fe60806040526004361061014e5760003560e01c80638da5cb5b116100b6578063a87d942c1161006f578063a87d942c1461049e578063d5bcb9b5146104c9578063d6a91719146104f2578063ef3055d91461052f578063f1f5bef01461056c578063f49dd2871461057657610155565b80638da5cb5b1461038a5780638e15f473146103b55780639399869d146103e057806393b6a95a1461040b5780639785fac814610434578063a2bd49431461045f57610155565b806365881ee91161010857806365881ee91461028e57806370411c13146102b95780637aafa19e146102f65780637dffea761461031f5780638258cbbd14610348578063890d26c71461037357610155565b8062cbb73b1461015a5780630bd5d863146101855780633c50eec1146101cd5780634f0238b81461020a5780635d8efce1146102335780635ddc916a1461026357610155565b3661015557005b600080fd5b34801561016657600080fd5b5061016f61059f565b60405161017c9190612959565b60405180910390f35b34801561019157600080fd5b506101ac60048036038101906101a791906129b4565b610648565b6040516101c49c9b9a99989796959493929190612ad6565b60405180910390f35b3480156101d957600080fd5b506101f460048036038101906101ef9190612bc3565b61075d565b6040516102019190612959565b60405180910390f35b34801561021657600080fd5b50610231600480360381019061022c9190612c16565b610b0b565b005b61024d600480360381019061024891906129b4565b610f38565b60405161025a9190612c7d565b60405180910390f35b34801561026f57600080fd5b5061027861121a565b6040516102859190612959565b60405180910390f35b34801561029a57600080fd5b506102a36112c3565b6040516102b09190612edc565b60405180910390f35b3480156102c557600080fd5b506102e060048036038101906102db91906129b4565b61148a565b6040516102ed9190612959565b60405180910390f35b34801561030257600080fd5b5061031d60048036038101906103189190613033565b6114ae565b005b34801561032b57600080fd5b5061034660048036038101906103419190612bc3565b611569565b005b34801561035457600080fd5b5061035d6118de565b60405161036a9190612959565b60405180910390f35b34801561037f57600080fd5b506103886118e6565b005b34801561039657600080fd5b5061039f611b95565b6040516103ac919061308f565b60405180910390f35b3480156103c157600080fd5b506103ca611bbb565b6040516103d791906130c3565b60405180910390f35b3480156103ec57600080fd5b506103f5611c77565b6040516104029190612959565b60405180910390f35b34801561041757600080fd5b50610432600480360381019061042d91906130de565b611c81565b005b34801561044057600080fd5b50610449611d15565b6040516104569190612959565b60405180910390f35b34801561046b57600080fd5b506104866004803603810190610481919061311e565b611dbe565b6040516104959392919061314b565b60405180910390f35b3480156104aa57600080fd5b506104b3611de8565b6040516104c09190612959565b60405180910390f35b3480156104d557600080fd5b506104f060048036038101906104eb9190613182565b611df5565b005b3480156104fe57600080fd5b50610519600480360381019061051491906130de565b6122c1565b60405161052691906131fd565b60405180910390f35b34801561053b57600080fd5b506105566004803603810190610551919061311e565b6122ec565b604051610563919061308f565b60405180910390f35b61057461232a565b005b34801561058257600080fd5b5061059d60048036038101906105989190613218565b61252c565b005b60008073c02aaa39b223fe8d0a0e5c4f27ead9083c756cc273ffffffffffffffffffffffffffffffffffffffff166370a08231306040518263ffffffff1660e01b81526004016105ef919061308f565b60206040518083038186803b15801561060757600080fd5b505afa15801561061b573d6000803e3d6000fd5b505050506040513d601f19601f8201168201806040525081019061063f91906132eb565b90508091505090565b600b6020528060005260406000206000915090508060000160009054906101000a900473ffffffffffffffffffffffffffffffffffffffff169080600101549080600201805461069790613347565b80601f01602080910402602001604051908101604052809291908181526020018280546106c390613347565b80156107105780601f106106e557610100808354040283529160200191610710565b820191906000526020600020905b8154815290600101906020018083116106f357829003601f168201915b50505050509080600301549080600401549080600501549080600601549080600701549080600801549080600901549080600a0160009054906101000a900460ff169080600b015490508c565b6000606073c02aaa39b223fe8d0a0e5c4f27ead9083c756cc273ffffffffffffffffffffffffffffffffffffffff168573ffffffffffffffffffffffffffffffffffffffff1614806107ee575073c02aaa39b223fe8d0a0e5c4f27ead9083c756cc273ffffffffffffffffffffffffffffffffffffffff168473ffffffffffffffffffffffffffffffffffffffff16145b156108e257600267ffffffffffffffff81111561080e5761080d612f08565b5b60405190808252806020026020018201604052801561083c5781602001602082028036833780820191505090505b509050848160008151811061085457610853613379565b5b602002602001019073ffffffffffffffffffffffffffffffffffffffff16908173ffffffffffffffffffffffffffffffffffffffff168152505083816001815181106108a3576108a2613379565b5b602002602001019073ffffffffffffffffffffffffffffffffffffffff16908173ffffffffffffffffffffffffffffffffffffffff1681525050610a30565b600367ffffffffffffffff8111156108fd576108fc612f08565b5b60405190808252806020026020018201604052801561092b5781602001602082028036833780820191505090505b509050848160008151811061094357610942613379565b5b602002602001019073ffffffffffffffffffffffffffffffffffffffff16908173ffffffffffffffffffffffffffffffffffffffff168152505073c02aaa39b223fe8d0a0e5c4f27ead9083c756cc2816001815181106109a6576109a5613379565b5b602002602001019073ffffffffffffffffffffffffffffffffffffffff16908173ffffffffffffffffffffffffffffffffffffffff168152505083816002815181106109f5576109f4613379565b5b602002602001019073ffffffffffffffffffffffffffffffffffffffff16908173ffffffffffffffffffffffffffffffffffffffff16815250505b6000737a250d5630b4cf539739df2c5dacb4c659f2488d73ffffffffffffffffffffffffffffffffffffffff1663d06ca61f85846040518363ffffffff1660e01b8152600401610a81929190613457565b60006040518083038186803b158015610a9957600080fd5b505afa158015610aad573d6000803e3d6000fd5b505050506040513d6000823e3d601f19601f82011682018060405250810190610ad6919061354f565b90508060018351610ae791906135c7565b81518110610af857610af7613379565b5b6020026020010151925050509392505050565b8373ffffffffffffffffffffffffffffffffffffffff1663095ea7b3737a250d5630b4cf539739df2c5dacb4c659f2488d846040518363ffffffff1660e01b8152600401610b5a9291906135fb565b602060405180830381600087803b158015610b7457600080fd5b505af1158015610b88573d6000803e3d6000fd5b505050506040513d601f19601f82011682018060405250810190610bac9190613650565b506000429050606073c02aaa39b223fe8d0a0e5c4f27ead9083c756cc273ffffffffffffffffffffffffffffffffffffffff168673ffffffffffffffffffffffffffffffffffffffff161480610c41575073c02aaa39b223fe8d0a0e5c4f27ead9083c756cc273ffffffffffffffffffffffffffffffffffffffff168573ffffffffffffffffffffffffffffffffffffffff16145b15610d3557600267ffffffffffffffff811115610c6157610c60612f08565b5b604051908082528060200260200182016040528015610c8f5781602001602082028036833780820191505090505b5090508581600081518110610ca757610ca6613379565b5b602002602001019073ffffffffffffffffffffffffffffffffffffffff16908173ffffffffffffffffffffffffffffffffffffffff16815250508481600181518110610cf657610cf5613379565b5b602002602001019073ffffffffffffffffffffffffffffffffffffffff16908173ffffffffffffffffffffffffffffffffffffffff1681525050610e83565b600367ffffffffffffffff811115610d5057610d4f612f08565b5b604051908082528060200260200182016040528015610d7e5781602001602082028036833780820191505090505b5090508581600081518110610d9657610d95613379565b5b602002602001019073ffffffffffffffffffffffffffffffffffffffff16908173ffffffffffffffffffffffffffffffffffffffff168152505073c02aaa39b223fe8d0a0e5c4f27ead9083c756cc281600181518110610df957610df8613379565b5b602002602001019073ffffffffffffffffffffffffffffffffffffffff16908173ffffffffffffffffffffffffffffffffffffffff16815250508481600281518110610e4857610e47613379565b5b602002602001019073ffffffffffffffffffffffffffffffffffffffff16908173ffffffffffffffffffffffffffffffffffffffff16815250505b737a250d5630b4cf539739df2c5dacb4c659f2488d73ffffffffffffffffffffffffffffffffffffffff166338ed173985858430426040518663ffffffff1660e01b8152600401610ed895949392919061367d565b600060405180830381600087803b158015610ef257600080fd5b505af1158015610f06573d6000803e3d6000fd5b505050506040513d6000823e3d601f19601f82011682018060405250810190610f2f919061354f565b50505050505050565b60606040518060a001604052803373ffffffffffffffffffffffffffffffffffffffff168152602001600b600085815260200190815260200160002060000160009054906101000a900473ffffffffffffffffffffffffffffffffffffffff1673ffffffffffffffffffffffffffffffffffffffff168152602001348152602001838152602001600454815250600d6000600454815260200190815260200160002060008201518160000160006101000a81548173ffffffffffffffffffffffffffffffffffffffff021916908373ffffffffffffffffffffffffffffffffffffffff16021790555060208201518160010160006101000a81548173ffffffffffffffffffffffffffffffffffffffff021916908373ffffffffffffffffffffffffffffffffffffffff160217905550604082015181600201556060820151816003015560808201518160040155905050600454600b6000848152602001908152602001600020600b01819055507f21297d35e2f7609fd21ba966364c9c5e16c397a8ff7381fb0fcf712fff9424e4600d600060045481526020019081526020016000206040516110e991906137e3565b60405180910390a160016004600082825461110491906137fe565b9250508190555034600c6000600b600086815260200190815260200160002060000160009054906101000a900473ffffffffffffffffffffffffffffffffffffffff1673ffffffffffffffffffffffffffffffffffffffff1673ffffffffffffffffffffffffffffffffffffffff168152602001908152602001600020600101819055506008805461119590613347565b80601f01602080910402602001604051908101604052809291908181526020018280546111c190613347565b801561120e5780601f106111e35761010080835404028352916020019161120e565b820191906000526020600020905b8154815290600101906020018083116111f157829003601f168201915b50505050509050919050565b60008073111111111117dc0aa78b770fa6a738034120c30273ffffffffffffffffffffffffffffffffffffffff166370a08231306040518263ffffffff1660e01b815260040161126a919061308f565b60206040518083038186803b15801561128257600080fd5b505afa158015611296573d6000803e3d6000fd5b505050506040513d601f19601f820116820180604052508101906112ba91906132eb565b90508091505090565b60608060005b600680549050811161148257600b6000828152602001908152602001600020604051806101800160405290816000820160009054906101000a900473ffffffffffffffffffffffffffffffffffffffff1673ffffffffffffffffffffffffffffffffffffffff1673ffffffffffffffffffffffffffffffffffffffff1681526020016001820154815260200160028201805461136490613347565b80601f016020809104026020016040519081016040528092919081815260200182805461139090613347565b80156113dd5780601f106113b2576101008083540402835291602001916113dd565b820191906000526020600020905b8154815290600101906020018083116113c057829003601f168201915b5050505050815260200160038201548152602001600482015481526020016005820154815260200160068201548152602001600782015481526020016008820154815260200160098201548152602001600a820160009054906101000a900460ff16151515158152602001600b8201548152505082828151811061146457611463613379565b5b6020026020010181905250808061147a90613854565b9150506112c9565b508091505090565b6006818154811061149a57600080fd5b906000526020600020016000915090505481565b600260009054906101000a900473ffffffffffffffffffffffffffffffffffffffff1673ffffffffffffffffffffffffffffffffffffffff163373ffffffffffffffffffffffffffffffffffffffff161461150857600080fd5b81600e8260405161151991906138d9565b908152602001604051809103902060006101000a81548173ffffffffffffffffffffffffffffffffffffffff021916908373ffffffffffffffffffffffffffffffffffffffff1602179055505050565b80600c60003373ffffffffffffffffffffffffffffffffffffffff1673ffffffffffffffffffffffffffffffffffffffff1681526020019081526020016000206001015410156115b857600080fd5b60006064426115c791906137fe565b90506000600267ffffffffffffffff8111156115e6576115e5612f08565b5b6040519080825280602002602001820160405280156116145781602001602082028036833780820191505090505b509050600e6040516116259061393c565b908152602001604051809103902060009054906101000a900473ffffffffffffffffffffffffffffffffffffffff168160008151811061166857611667613379565b5b602002602001019073ffffffffffffffffffffffffffffffffffffffff16908173ffffffffffffffffffffffffffffffffffffffff1681525050600e6040516116b09061399d565b908152602001604051809103902060009054906101000a900473ffffffffffffffffffffffffffffffffffffffff16816001815181106116f3576116f2613379565b5b602002602001019073ffffffffffffffffffffffffffffffffffffffff16908173ffffffffffffffffffffffffffffffffffffffff1681525050600160009054906101000a900473ffffffffffffffffffffffffffffffffffffffff1673ffffffffffffffffffffffffffffffffffffffff1663d0e30db0846040518263ffffffff1660e01b81526004016000604051808303818588803b15801561179757600080fd5b505af11580156117ab573d6000803e3d6000fd5b505050505082600c60003373ffffffffffffffffffffffffffffffffffffffff1673ffffffffffffffffffffffffffffffffffffffff168152602001908152602001600020600201600082825461180291906137fe565b9250508190555082600c60003373ffffffffffffffffffffffffffffffffffffffff1673ffffffffffffffffffffffffffffffffffffffff168152602001908152602001600020600101600082825461185b91906135c7565b925050819055507f72e8a9e162166777febe65180487a15d66a798aa00ccf3d4743743cf235fdb7b600c60003373ffffffffffffffffffffffffffffffffffffffff1673ffffffffffffffffffffffffffffffffffffffff1681526020019081526020016000206040516118cf9190613a17565b60405180910390a15050505050565b600047905090565b600073ffffffffffffffffffffffffffffffffffffffff16601060003373ffffffffffffffffffffffffffffffffffffffff1673ffffffffffffffffffffffffffffffffffffffff16815260200190815260200160002060000160009054906101000a900473ffffffffffffffffffffffffffffffffffffffff1673ffffffffffffffffffffffffffffffffffffffff16146119b7576040517f08c379a00000000000000000000000000000000000000000000000000000000081526004016119ae90613a7e565b60405180910390fd5b604051806060016040528060008152602001600081526020016000815250600c60003373ffffffffffffffffffffffffffffffffffffffff1673ffffffffffffffffffffffffffffffffffffffff1681526020019081526020016000206000820151816000015560208201518160010155604082015181600201559050506001600554611a4491906137fe565b600581905550606060405180604001604052803373ffffffffffffffffffffffffffffffffffffffff16815260200182815250601060003373ffffffffffffffffffffffffffffffffffffffff1673ffffffffffffffffffffffffffffffffffffffff16815260200190815260200160002060008201518160000160006101000a81548173ffffffffffffffffffffffffffffffffffffffff021916908373ffffffffffffffffffffffffffffffffffffffff1602179055506020820151816001019080519060200190611b19929190612850565b509050507fe98c073dd958639e8957a0d059199a9480a89cd8af94ba92e4aadd4a0c214689601060003373ffffffffffffffffffffffffffffffffffffffff1673ffffffffffffffffffffffffffffffffffffffff168152602001908152602001600020604051611b8a9190613bb5565b60405180910390a150565b600260009054906101000a900473ffffffffffffffffffffffffffffffffffffffff1681565b60008060008060008060008054906101000a900473ffffffffffffffffffffffffffffffffffffffff1673ffffffffffffffffffffffffffffffffffffffff1663feaf968c6040518163ffffffff1660e01b815260040160a06040518083038186803b158015611c2a57600080fd5b505afa158015611c3e573d6000803e3d6000fd5b505050506040513d601f19601f82011682018060405250810190611c629190613c45565b94509450945094509450839550505050505090565b6000600454905090565b8173ffffffffffffffffffffffffffffffffffffffff166323b872dd3330846040518463ffffffff1660e01b8152600401611cbe93929190613cc0565b602060405180830381600087803b158015611cd857600080fd5b505af1158015611cec573d6000803e3d6000fd5b505050506040513d601f19601f82011682018060405250810190611d109190613650565b505050565b60008073dac17f958d2ee523a2206206994597c13d831ec773ffffffffffffffffffffffffffffffffffffffff166370a08231306040518263ffffffff1660e01b8152600401611d65919061308f565b60206040518083038186803b158015611d7d57600080fd5b505afa158015611d91573d6000803e3d6000fd5b505050506040513d601f19601f82011682018060405250810190611db591906132eb565b90508091505090565b600c6020528060005260406000206000915090508060000154908060010154908060020154905083565b6000600680549050905090565b8473ffffffffffffffffffffffffffffffffffffffff166323b872dd3330866040518463ffffffff1660e01b8152600401611e3293929190613cc0565b602060405180830381600087803b158015611e4c57600080fd5b505af1158015611e60573d6000803e3d6000fd5b505050506040513d601f19601f82011682018060405250810190611e849190613650565b508473ffffffffffffffffffffffffffffffffffffffff1663095ea7b3737a250d5630b4cf539739df2c5dacb4c659f2488d856040518363ffffffff1660e01b8152600401611ed49291906135fb565b602060405180830381600087803b158015611eee57600080fd5b505af1158015611f02573d6000803e3d6000fd5b505050506040513d601f19601f82011682018060405250810190611f269190613650565b506000620186a042611f3891906137fe565b9050606073c02aaa39b223fe8d0a0e5c4f27ead9083c756cc273ffffffffffffffffffffffffffffffffffffffff168773ffffffffffffffffffffffffffffffffffffffff161480611fc9575073c02aaa39b223fe8d0a0e5c4f27ead9083c756cc273ffffffffffffffffffffffffffffffffffffffff168673ffffffffffffffffffffffffffffffffffffffff16145b156120bd57600267ffffffffffffffff811115611fe957611fe8612f08565b5b6040519080825280602002602001820160405280156120175781602001602082028036833780820191505090505b509050868160008151811061202f5761202e613379565b5b602002602001019073ffffffffffffffffffffffffffffffffffffffff16908173ffffffffffffffffffffffffffffffffffffffff1681525050858160018151811061207e5761207d613379565b5b602002602001019073ffffffffffffffffffffffffffffffffffffffff16908173ffffffffffffffffffffffffffffffffffffffff168152505061220b565b600367ffffffffffffffff8111156120d8576120d7612f08565b5b6040519080825280602002602001820160405280156121065781602001602082028036833780820191505090505b509050868160008151811061211e5761211d613379565b5b602002602001019073ffffffffffffffffffffffffffffffffffffffff16908173ffffffffffffffffffffffffffffffffffffffff168152505073c02aaa39b223fe8d0a0e5c4f27ead9083c756cc28160018151811061218157612180613379565b5b602002602001019073ffffffffffffffffffffffffffffffffffffffff16908173ffffffffffffffffffffffffffffffffffffffff168152505085816002815181106121d0576121cf613379565b5b602002602001019073ffffffffffffffffffffffffffffffffffffffff16908173ffffffffffffffffffffffffffffffffffffffff16815250505b737a250d5630b4cf539739df2c5dacb4c659f2488d73ffffffffffffffffffffffffffffffffffffffff166338ed173986868487876040518663ffffffff1660e01b815260040161226095949392919061367d565b600060405180830381600087803b15801561227a57600080fd5b505af115801561228e573d6000803e3d6000fd5b505050506040513d6000823e3d601f19601f820116820180604052508101906122b7919061354f565b5050505050505050565b6000806000905060008473ffffffffffffffffffffffffffffffffffffffff16319050505092915050565b600f6020528060005260406000206000915090508060000160009054906101000a900473ffffffffffffffffffffffffffffffffffffffff16905081565b3373ffffffffffffffffffffffffffffffffffffffff16601060003373ffffffffffffffffffffffffffffffffffffffff1673ffffffffffffffffffffffffffffffffffffffff16815260200190815260200160002060000160009054906101000a900473ffffffffffffffffffffffffffffffffffffffff1673ffffffffffffffffffffffffffffffffffffffff16148061245357503373ffffffffffffffffffffffffffffffffffffffff16600f60003373ffffffffffffffffffffffffffffffffffffffff1673ffffffffffffffffffffffffffffffffffffffff16815260200190815260200160002060000160009054906101000a900473ffffffffffffffffffffffffffffffffffffffff1673ffffffffffffffffffffffffffffffffffffffff16145b61245c57600080fd5b34600c60003373ffffffffffffffffffffffffffffffffffffffff1673ffffffffffffffffffffffffffffffffffffffff16815260200190815260200160002060010160008282546124ae91906137fe565b925050819055507f72e8a9e162166777febe65180487a15d66a798aa00ccf3d4743743cf235fdb7b600c60003373ffffffffffffffffffffffffffffffffffffffff1673ffffffffffffffffffffffffffffffffffffffff1681526020019081526020016000206040516125229190613a17565b60405180910390a1565b3373ffffffffffffffffffffffffffffffffffffffff16601060003373ffffffffffffffffffffffffffffffffffffffff1673ffffffffffffffffffffffffffffffffffffffff16815260200190815260200160002060000160009054906101000a900473ffffffffffffffffffffffffffffffffffffffff1673ffffffffffffffffffffffffffffffffffffffff16146125fc576040517f08c379a00000000000000000000000000000000000000000000000000000000081526004016125f390613d43565b60405180910390fd5b6000875111612640576040517f08c379a000000000000000000000000000000000000000000000000000000000815260040161263790613daf565b60405180910390fd5b6000600160035461265191906137fe565b9050600681908060018154018082558091505060019003906000526020600020016000909190919091505560006040518061018001604052803373ffffffffffffffffffffffffffffffffffffffff1681526020018381526020018a81526020018981526020016000815260200188815260200187815260200186815260200185815260200184815260200160001515815260200182815250600b600084815260200190815260200160002060008201518160000160006101000a81548173ffffffffffffffffffffffffffffffffffffffff021916908373ffffffffffffffffffffffffffffffffffffffff16021790555060208201518160010155604082015181600201908051906020019061276a92919061289d565b50606082015181600301556080820151816004015560a0820151816005015560c0820151816006015560e082015181600701556101008201518160080155610120820151816009015561014082015181600a0160006101000a81548160ff02191690831515021790555061016082015181600b01559050506001600360008282546127f591906137fe565b925050819055507fe6b4dfd5503f547fb25adabc923a21bd00987c738a60bf52e8103a790ec6d75d600b600084815260200190815260200160002060405161283d9190614005565b60405180910390a1505050505050505050565b82805482825590600052602060002090810192821561288c579160200282015b8281111561288b578251825591602001919060010190612870565b5b5090506128999190612923565b5090565b8280546128a990613347565b90600052602060002090601f0160209004810192826128cb5760008555612912565b82601f106128e457805160ff1916838001178555612912565b82800160010185558215612912579182015b828111156129115782518255916020019190600101906128f6565b5b50905061291f9190612923565b5090565b5b8082111561293c576000816000905550600101612924565b5090565b6000819050919050565b61295381612940565b82525050565b600060208201905061296e600083018461294a565b92915050565b6000604051905090565b600080fd5b600080fd5b61299181612940565b811461299c57600080fd5b50565b6000813590506129ae81612988565b92915050565b6000602082840312156129ca576129c961297e565b5b60006129d88482850161299f565b91505092915050565b600073ffffffffffffffffffffffffffffffffffffffff82169050919050565b6000612a0c826129e1565b9050919050565b612a1c81612a01565b82525050565b600081519050919050565b600082825260208201905092915050565b60005b83811015612a5c578082015181840152602081019050612a41565b83811115612a6b576000848401525b50505050565b6000601f19601f8301169050919050565b6000612a8d82612a22565b612a978185612a2d565b9350612aa7818560208601612a3e565b612ab081612a71565b840191505092915050565b60008115159050919050565b612ad081612abb565b82525050565b600061018082019050612aec600083018f612a13565b612af9602083018e61294a565b8181036040830152612b0b818d612a82565b9050612b1a606083018c61294a565b612b27608083018b61294a565b612b3460a083018a61294a565b612b4160c083018961294a565b612b4e60e083018861294a565b612b5c61010083018761294a565b612b6a61012083018661294a565b612b78610140830185612ac7565b612b8661016083018461294a565b9d9c50505050505050505050505050565b612ba081612a01565b8114612bab57600080fd5b50565b600081359050612bbd81612b97565b92915050565b600080600060608486031215612bdc57612bdb61297e565b5b6000612bea86828701612bae565b9350506020612bfb86828701612bae565b9250506040612c0c8682870161299f565b9150509250925092565b60008060008060808587031215612c3057612c2f61297e565b5b6000612c3e87828801612bae565b9450506020612c4f87828801612bae565b9350506040612c608782880161299f565b9250506060612c718782880161299f565b91505092959194509250565b60006020820190508181036000830152612c978184612a82565b905092915050565b600081519050919050565b600082825260208201905092915050565b6000819050602082019050919050565b612cd481612a01565b82525050565b612ce381612940565b82525050565b600082825260208201905092915050565b6000612d0582612a22565b612d0f8185612ce9565b9350612d1f818560208601612a3e565b612d2881612a71565b840191505092915050565b612d3c81612abb565b82525050565b600061018083016000830151612d5b6000860182612ccb565b506020830151612d6e6020860182612cda565b5060408301518482036040860152612d868282612cfa565b9150506060830151612d9b6060860182612cda565b506080830151612dae6080860182612cda565b5060a0830151612dc160a0860182612cda565b5060c0830151612dd460c0860182612cda565b5060e0830151612de760e0860182612cda565b50610100830151612dfc610100860182612cda565b50610120830151612e11610120860182612cda565b50610140830151612e26610140860182612d33565b50610160830151612e3b610160860182612cda565b508091505092915050565b6000612e528383612d42565b905092915050565b6000602082019050919050565b6000612e7282612c9f565b612e7c8185612caa565b935083602082028501612e8e85612cbb565b8060005b85811015612eca5784840389528151612eab8582612e46565b9450612eb683612e5a565b925060208a01995050600181019050612e92565b50829750879550505050505092915050565b60006020820190508181036000830152612ef68184612e67565b905092915050565b600080fd5b600080fd5b7f4e487b7100000000000000000000000000000000000000000000000000000000600052604160045260246000fd5b612f4082612a71565b810181811067ffffffffffffffff82111715612f5f57612f5e612f08565b5b80604052505050565b6000612f72612974565b9050612f7e8282612f37565b919050565b600067ffffffffffffffff821115612f9e57612f9d612f08565b5b612fa782612a71565b9050602081019050919050565b82818337600083830152505050565b6000612fd6612fd184612f83565b612f68565b905082815260208101848484011115612ff257612ff1612f03565b5b612ffd848285612fb4565b509392505050565b600082601f83011261301a57613019612efe565b5b813561302a848260208601612fc3565b91505092915050565b6000806040838503121561304a5761304961297e565b5b600061305885828601612bae565b925050602083013567ffffffffffffffff81111561307957613078612983565b5b61308585828601613005565b9150509250929050565b60006020820190506130a46000830184612a13565b92915050565b6000819050919050565b6130bd816130aa565b82525050565b60006020820190506130d860008301846130b4565b92915050565b600080604083850312156130f5576130f461297e565b5b600061310385828601612bae565b92505060206131148582860161299f565b9150509250929050565b6000602082840312156131345761313361297e565b5b600061314284828501612bae565b91505092915050565b6000606082019050613160600083018661294a565b61316d602083018561294a565b61317a604083018461294a565b949350505050565b600080600080600060a0868803121561319e5761319d61297e565b5b60006131ac88828901612bae565b95505060206131bd88828901612bae565b94505060406131ce8882890161299f565b93505060606131df8882890161299f565b92505060806131f088828901612bae565b9150509295509295909350565b60006020820190506132126000830184612ac7565b92915050565b600080600080600080600060e0888a0312156132375761323661297e565b5b600088013567ffffffffffffffff81111561325557613254612983565b5b6132618a828b01613005565b97505060206132728a828b0161299f565b96505060406132838a828b0161299f565b95505060606132948a828b0161299f565b94505060806132a58a828b0161299f565b93505060a06132b68a828b0161299f565b92505060c06132c78a828b0161299f565b91505092959891949750929550565b6000815190506132e581612988565b92915050565b6000602082840312156133015761330061297e565b5b600061330f848285016132d6565b91505092915050565b7f4e487b7100000000000000000000000000000000000000000000000000000000600052602260045260246000fd5b6000600282049050600182168061335f57607f821691505b6020821081141561337357613372613318565b5b50919050565b7f4e487b7100000000000000000000000000000000000000000000000000000000600052603260045260246000fd5b600081519050919050565b600082825260208201905092915050565b6000819050602082019050919050565b60006133e08383612ccb565b60208301905092915050565b6000602082019050919050565b6000613404826133a8565b61340e81856133b3565b9350613419836133c4565b8060005b8381101561344a57815161343188826133d4565b975061343c836133ec565b92505060018101905061341d565b5085935050505092915050565b600060408201905061346c600083018561294a565b818103602083015261347e81846133f9565b90509392505050565b600067ffffffffffffffff8211156134a2576134a1612f08565b5b602082029050602081019050919050565b600080fd5b60006134cb6134c684613487565b612f68565b905080838252602082019050602084028301858111156134ee576134ed6134b3565b5b835b81811015613517578061350388826132d6565b8452602084019350506020810190506134f0565b5050509392505050565b600082601f83011261353657613535612efe565b5b81516135468482602086016134b8565b91505092915050565b6000602082840312156135655761356461297e565b5b600082015167ffffffffffffffff81111561358357613582612983565b5b61358f84828501613521565b91505092915050565b7f4e487b7100000000000000000000000000000000000000000000000000000000600052601160045260246000fd5b60006135d282612940565b91506135dd83612940565b9250828210156135f0576135ef613598565b5b828203905092915050565b60006040820190506136106000830185612a13565b61361d602083018461294a565b9392505050565b61362d81612abb565b811461363857600080fd5b50565b60008151905061364a81613624565b92915050565b6000602082840312156136665761366561297e565b5b60006136748482850161363b565b91505092915050565b600060a082019050613692600083018861294a565b61369f602083018761294a565b81810360408301526136b181866133f9565b90506136c06060830185612a13565b6136cd608083018461294a565b9695505050505050565b60008160001c9050919050565b600073ffffffffffffffffffffffffffffffffffffffff82169050919050565b6000613717613712836136d7565b6136e4565b9050919050565b6000819050919050565b600061373b613736836136d7565b61371e565b9050919050565b60a08201600080830154905061375781613704565b6137646000860182612ccb565b506001830154905061377581613704565b6137826020860182612ccb565b506002830154905061379381613728565b6137a06040860182612cda565b50600383015490506137b181613728565b6137be6060860182612cda565b50600483015490506137cf81613728565b6137dc6080860182612cda565b5050505050565b600060a0820190506137f86000830184613742565b92915050565b600061380982612940565b915061381483612940565b9250827fffffffffffffffffffffffffffffffffffffffffffffffffffffffffffffffff0382111561384957613848613598565b5b828201905092915050565b600061385f82612940565b91507fffffffffffffffffffffffffffffffffffffffffffffffffffffffffffffffff82141561389257613891613598565b5b600182019050919050565b600081905092915050565b60006138b382612a22565b6138bd818561389d565b93506138cd818560208601612a3e565b80840191505092915050565b60006138e582846138a8565b915081905092915050565b7f5745544800000000000000000000000000000000000000000000000000000000600082015250565b600061392660048361389d565b9150613931826138f0565b600482019050919050565b600061394782613919565b9150819050919050565b7f5553445400000000000000000000000000000000000000000000000000000000600082015250565b600061398760048361389d565b915061399282613951565b600482019050919050565b60006139a88261397a565b9150819050919050565b6060820160008083015490506139c781613728565b6139d46000860182612cda565b50600183015490506139e581613728565b6139f26020860182612cda565b5060028301549050613a0381613728565b613a106040860182612cda565b5050505050565b6000606082019050613a2c60008301846139b2565b92915050565b7f416c7265616479205369676e656420696e206173204973737565722100000000600082015250565b6000613a68601c83612a2d565b9150613a7382613a32565b602082019050919050565b60006020820190508181036000830152613a9781613a5b565b9050919050565b600081549050919050565b600082825260208201905092915050565b60008190508160005260206000209050919050565b6000613adb8383612cda565b60208301905092915050565b6000613af38254613728565b9050919050565b6000600182019050919050565b6000613b1282613a9e565b613b1c8185613aa9565b9350613b2783613aba565b8060005b83811015613b5f57613b3c82613ae7565b613b468882613acf565b9750613b5183613afa565b925050600181019050613b2b565b5085935050505092915050565b6000604083016000808401549050613b8381613704565b613b906000870182612ccb565b50600184018583036020870152613ba78382613b07565b925050819250505092915050565b60006020820190508181036000830152613bcf8184613b6c565b905092915050565b600069ffffffffffffffffffff82169050919050565b613bf681613bd7565b8114613c0157600080fd5b50565b600081519050613c1381613bed565b92915050565b613c22816130aa565b8114613c2d57600080fd5b50565b600081519050613c3f81613c19565b92915050565b600080600080600060a08688031215613c6157613c6061297e565b5b6000613c6f88828901613c04565b9550506020613c8088828901613c30565b9450506040613c91888289016132d6565b9350506060613ca2888289016132d6565b9250506080613cb388828901613c04565b9150509295509295909350565b6000606082019050613cd56000830186612a13565b613ce26020830185612a13565b613cef604083018461294a565b949350505050565b7f506c65617365205369676e20496e206173204973737565720000000000000000600082015250565b6000613d2d601883612a2d565b9150613d3882613cf7565b602082019050919050565b60006020820190508181036000830152613d5c81613d20565b9050919050565b7f6e616d652063616e6e6f7420626576616c20656d707479000000000000000000600082015250565b6000613d99601783612a2d565b9150613da482613d63565b602082019050919050565b60006020820190508181036000830152613dc881613d8c565b9050919050565b60008190508160005260206000209050919050565b60008154613df181613347565b613dfb8186612ce9565b94506001821660008114613e165760018114613e2857613e5b565b60ff1983168652602086019350613e5b565b613e3185613dcf565b60005b83811015613e5357815481890152600182019150602081019050613e34565b808801955050505b50505092915050565b600060ff82169050919050565b6000613e84613e7f836136d7565b613e64565b9050919050565b600061018083016000808401549050613ea381613704565b613eb06000870182612ccb565b5060018401549050613ec181613728565b613ece6020870182612cda565b50600284018583036040870152613ee58382613de4565b92505060038401549050613ef881613728565b613f056060870182612cda565b5060048401549050613f1681613728565b613f236080870182612cda565b5060058401549050613f3481613728565b613f4160a0870182612cda565b5060068401549050613f5281613728565b613f5f60c0870182612cda565b5060078401549050613f7081613728565b613f7d60e0870182612cda565b5060088401549050613f8e81613728565b613f9c610100870182612cda565b5060098401549050613fad81613728565b613fbb610120870182612cda565b50600a8401549050613fcc81613e71565b613fda610140870182612d33565b50600b8401549050613feb81613728565b613ff9610160870182612cda565b50819250505092915050565b6000602082019050818103600083015261401f8184613e8b565b90509291505056fea26469706673582212208242404a2cecdc2d3b93305d369cd4e1ae4af50a03bac039e0231dda335d82b664736f6c63430008090033",
  "immutableReferences": {},
  "source": "pragma solidity 0.8.9;\n\nimport \"./TradeCenter.sol\";\n//import \"./ERC20.sol\";\n\ninterface ERC20{\n  function deposit() external payable;\n  function withdraw(uint256 amount) external;\n}\n\ncontract YieldOfferings is TradeCenter {\n   \nERC20 weth;  \naddress public owner = msg.sender; // contract owner\n // will be used in logic\nuint offeringCount = 0; // keep track of all number\nuint contractCount=0;\nuint walletCount=0;\nuint[] public offeringIDList; // all ids list\naddress[] walletOwners;\nstring aloo = \"Bought!\";\n//address WETH = 0xC02aaA39b223FE8D0A0e5C4F27eAD9083C756Cc2;\n\n//mapping (address=> bool) public hasWallet;\n\n//hasWallet[key] \n\n\n\nuint price= 2400;\nuint ethusdt0= 2300;\n\nmapping (uint => offering) public Offerings; //mapping offerings to ids\nmapping (address => wallet) public walletMap;\nmapping(uint => offeringContract) ContractMap;\nmapping (string => address) CoinMap;\n\nstruct wallet {\nuint usdt;\nuint eth;\nuint weth;\n//uint ONEINCH;\n//uint WETH;\n}\n\nstruct buyer {\n    address buyerAddress;\n\n    offering[] offerings;\n    uint[] ContractsIds;\n    uint[] offeringIDList;\n}\n\nstruct issuer {\n    address issuerAddress;\n    //uint256 balance;\n    //uint256 accountPayable;\n    uint[] offeringsList;\n    //uint WalletID;\n    //uint[] ContractsIds;\n    //bool hasWallet;\n}\n\nmapping (address => issuer) public BuyersMap;\nmapping (address => issuer) internal IssuersMap;\n\n\n\nstruct offeringContract{\n    address buyer;\n    address issuer;\n    uint amount;\n    uint offeringID;\n    uint contractID;\n}\n\nstruct offering{\n    address issuer;\n    uint ID;\n    string name;\n    uint Nb_fixings;\n    uint fixing_counter;\n    uint high_coupon;\n    uint high_coupon_barrier;\n    uint smaller_coupon;\n    uint Upoutbarrier;\n    uint di_barrier;\n    bool Di_barrier_activated;\n    uint contractID;\n}\n\n\nevent logAddedOffering(offering);\nevent getContract (offeringContract);\nevent getIssuer (issuer);\nevent getWalletInfo(wallet);\n// function to add a new offering \n\nconstructor () public {\n\n    weth = ERC20 (WETH);\n}\n\nfunction SignInIssuer () public  {\nrequire(IssuersMap[msg.sender].issuerAddress==0x0000000000000000000000000000000000000000, \"Already Signed in as Issuer!\" );\n/*struct issuer {\n    address issuerAddress;\n    offering[] offerings;\n    uint[] ContractsIds;\n}*/\nwalletMap[msg.sender] = wallet (\n0,\n0,\n0\n);\nwalletCount = walletCount+1;\n\nuint[] memory offeringEmptyList;\nIssuersMap[msg.sender] = issuer(\nmsg.sender,\nofferingEmptyList\n);\n\n\n\nemit getIssuer(IssuersMap[msg.sender]);\n\n}\n\nfunction supportCoin(address CoinAddress, string memory CoinName) public {\nrequire(msg.sender == owner);\nCoinMap[CoinName] = CoinAddress;\n\n\n}\n\n\n\nfunction addOffering(\n    string memory _name,\n    uint _Nb_fixings,\n    uint _high_coupon,\n    uint _high_coupon_barrier,\n    uint _smaller_coupon,\n    uint _Upoutbarrier,\n    uint _di_barrier\n    \n   ) public{\n    require(IssuersMap[msg.sender].issuerAddress==msg.sender, \"Please Sign In as Issuer\" );\n    require(bytes(_name).length>0, \"name cannot beval empty\");\n    //require(IssuersMap[msg.sender].issuerAddress, msg.sender);\n\n    uint newID= offeringCount + 1;\n    //offeringContract[] storage emptyList;\n    //newCampaign.deadline= block.timestamp + (_duration * 1 days);\n    offeringIDList.push(newID);\n    uint  contractID;\n    Offerings[newID] = offering(msg.sender, \n     newID, \n     _name,\n     _Nb_fixings,\n     0,\n     _high_coupon,\n     _high_coupon_barrier,\n     _smaller_coupon,\n     _Upoutbarrier,\n     _di_barrier,\n      false,\n    contractID);\n    \n    offeringCount+= 1;\n\n    /*bool ownsWallet= false;\n    for (uint i=0; i< walletOwners.length; i++){\n        if (walletOwners[i] == msg.sender)\n        ownsWallet= true;\n        break;\n    }\n\n    if (ownsWallet== false){\n        walletMap[msg.sender]= wallet(0,0);\n        walletCount +=1;\n    }*/\n\n    //emit logAddedOffering(Offerings[newID].ID, Offerings[newID].name, Offerings[newID].issuer);\n    emit logAddedOffering(Offerings[newID]);\n}\n\n\n    \n/////// BUY BACK PART /////////\n// how will we know the agreed on price?\n// how will the issuer fail to pay a coupon?\n\n/*function checkPayables(uint256 id) public returns(uint){\n    uint buyerGets;\n    Offerings[ContractMap[id].offeringID].fixing_counter+=1;\n    if (price< (Offerings[ContractMap[id].offeringID].di_barrier* ethusdt0)){\n    Offerings[ContractMap[id].offeringID].Di_barrier_activated=true;\n    }\n\n\n    // if not last fixing\n    if (Offerings[ContractMap[id].offeringID].fixing_counter< Offerings[ContractMap[id].offeringID].Nb_fixings){\n        if(price > Offerings[ContractMap[id].offeringID].Upoutbarrier*ethusdt0){\n            // send amount X to buyer+ high_coupon X\n            buyerGets= ContractMap[id].amount + (Offerings[ContractMap[id].offeringID].high_coupon*ContractMap[id].amount);\n        }\n        else if (price> Offerings[ContractMap[id].offeringID].high_coupon_barrier*ethusdt0){\n            // send buyer hight_couponX\n            buyerGets= Offerings[ContractMap[id].offeringID].high_coupon*ContractMap[id].amount;\n\n        }\n        else if (Offerings[ContractMap[id].offeringID].Di_barrier_activated== false){\n            //buyer get smaller_couponX\n            buyerGets= ContractMap[id].amount + Offerings[ContractMap[id].offeringID].smaller_coupon * ContractMap[id].amount;\n\n        }\n        else {\n            // buyer gets nothing\n            buyerGets=0;\n        }\n    }\n\n    else{\n        \n        if (price> Offerings[ContractMap[id].offeringID].high_coupon_barrier*ethusdt0){\n            // send buyer hight_couponX + X (what is this amount?)\n            buyerGets= ContractMap[id].amount + (Offerings[ContractMap[id].offeringID].high_coupon*ContractMap[id].amount);\n  \n        }\n        else if(Offerings[ContractMap[id].offeringID].Di_barrier_activated= false){\n            \n            //buyer gets lower_coupon*X+X\n            \n            buyerGets= ContractMap[id].amount + (Offerings[ContractMap[id].offeringID].smaller_coupon *ContractMap[id].amount);\n\n            \n        \n        }\n        else {\n            //X= getamount(id,)\n            buyerGets= (ContractMap[id].amount/Offerings[ContractMap[id].offeringID].high_coupon_barrier)/ ethusdt0;    \n        }\n        \n    }\n\n\n}*/\n\n\nfunction offeringsLoader(offering[] memory offeringList, uint usdtPrice) internal {\n\n\nfor (uint i = 0 ; i< offeringList.length ; i++)\n{\nhandleFixing(offeringList[i], usdtPrice);\n}\n\n\n\n}\n\n\nfunction handleFixing (offering memory Offering, uint usdtPrice) internal {\n\n\nuint  contractID = Offering.contractID;\n\n  if (usdtPrice < (Offering.di_barrier* ethusdt0)){\n    Offering.Di_barrier_activated=true;\n    }\n\n\nif(usdtPrice > Offering.Upoutbarrier*ethusdt0){\n\n           /* for (uint i =0; i< contractIDList.length ; i++){\n                uint buyerGets = ContractMap[i].amount + Offering.high_coupon*ContractMap[i].amount;\n                //EndContract(Offering, )\n            }*/\n        }\n\n\n\n\n}\n\n//function EndContract ()\n\nfunction depositToWallet () public payable {\nrequire(IssuersMap[msg.sender].issuerAddress==msg.sender || BuyersMap[msg.sender].issuerAddress==msg.sender);\n\nwalletMap[msg.sender].eth += msg.value;\n\nemit getWalletInfo(walletMap[msg.sender]);\n\n}\n\nfunction swapETHFromBuiltInWallet (address from, address to, uint amount)public {\n\nrequire(walletMap[msg.sender].eth >= amount);\nuint deadline = block.timestamp + 100;\n    address[] memory path = new address[](2);\n    path[0] = CoinMap[\"WETH\"];\n    path[1] = CoinMap[\"USDT\"];\n\n//WETH.call{value : amount}(\"\");\nweth.deposit{value : amount}();\nwalletMap[msg.sender]. weth += amount;\nwalletMap[msg.sender] .eth -= amount;\n//IUniswapV2Router(UNISWAP_V2_ROUTER).swapExactETHForTokens {value : amount} (0,path,address(this),deadline);\nemit getWalletInfo(walletMap[msg.sender]);\n\n}\n\n\n\nfunction buyOffering(uint _id) public payable returns(string memory) {\n\n/*struct offeringContract{\n    address buy\n    address issuer;\n    uint amount;\n    uint offeringID;\n    uint contractID;\n}*/\n\n\n\nContractMap[contractCount] = offeringContract(\n    msg.sender,\n    Offerings[_id].issuer,\n    msg.value,\n    _id,\n    contractCount\n);\nOfferings[_id]. contractID = contractCount;\n//emit getContract(ContractMap[contractCount].buyer,ContractMap[contractCount].issuer,ContractMap[contractCount].amount,ContractMap[contractCount].offeringID,ContractMap[contractCount].contractID);\nemit getContract(ContractMap[contractCount]);\ncontractCount+=1;\n\nwalletMap [Offerings[_id].issuer] . eth = msg.value ;\n\n\n//emit getWalletInfo (walletMap [Offerings[_id].issuer]);\n//Offerings[_id]. contractList . append()\n\nreturn aloo;\n\n}\n\nfunction checkCustody(address _issuer, uint tbs) public returns(bool){\n    bool isAllowed= false;\n    uint256 issuerBalance= _issuer.balance;\n    //check all linked offerings to issuer\n\n}\n\nfunction getCount() public view returns(uint count) {\n    return offeringIDList.length;\n}\n\nfunction getContractCount() public view returns (uint count){\n\nreturn contractCount;\n\n}\n\nfunction getContractETH () public view returns (uint){\n\nreturn address(this).balance;\n    \n}\n\nfunction getOfferings () public view returns (offering[] memory){\n\noffering[] memory toReturn;\n\nfor (uint i =0 ; i <= offeringIDList.length ;i++ ){\n\ntoReturn[i] = Offerings[i];\n\n}\n\n\nreturn  toReturn; //mapping offerings to ids\n\n}\n\n\n// contract's brace\n}\n\n\n",
  "sourcePath": "D:\\projects\\Bounty_1_truffle\\contracts\\YieldOfferings.sol",
  "compiler": {
    "name": "solc",
    "version": "0.8.9+commit.e5eed63a.Emscripten.clang"
  },
  "schemaVersion": "3.4.4",
  "updatedAt": "2022-02-23T00:16:08.700Z",
  "devdoc": {
    "kind": "dev",
    "methods": {},
    "version": 1
  },
  "userdoc": {
    "kind": "user",
    "methods": {
      "getLatestPrice()": {
        "notice": "Returns the latest price"
      }
    },
    "version": 1
  }
}