{
  "contractName": "YieldOfferings",
  "abi": [
    {
      "inputs": [],
      "stateMutability": "nonpayable",
      "type": "constructor"
    },
    {
      "anonymous": false,
      "inputs": [
        {
          "components": [
            {
              "internalType": "address",
              "name": "buyer",
              "type": "address"
            },
            {
              "internalType": "address",
              "name": "issuer",
              "type": "address"
            },
            {
              "internalType": "uint256",
              "name": "amount",
              "type": "uint256"
            },
            {
              "internalType": "uint256",
              "name": "offeringID",
              "type": "uint256"
            },
            {
              "internalType": "uint256",
              "name": "contractID",
              "type": "uint256"
            }
          ],
          "indexed": false,
          "internalType": "struct YieldOfferings.offeringContract",
          "name": "",
          "type": "tuple"
        }
      ],
      "name": "getContract",
      "type": "event"
    },
    {
      "anonymous": false,
      "inputs": [
        {
          "components": [
            {
              "internalType": "address",
              "name": "issuerAddress",
              "type": "address"
            },
            {
              "internalType": "uint256[]",
              "name": "offeringsList",
              "type": "uint256[]"
            }
          ],
          "indexed": false,
          "internalType": "struct YieldOfferings.issuer",
          "name": "",
          "type": "tuple"
        }
      ],
      "name": "getIssuer",
      "type": "event"
    },
    {
      "anonymous": false,
      "inputs": [
        {
          "components": [
            {
              "internalType": "uint256",
              "name": "usdt",
              "type": "uint256"
            },
            {
              "internalType": "uint256",
              "name": "eth",
              "type": "uint256"
            },
            {
              "internalType": "uint256",
              "name": "weth",
              "type": "uint256"
            }
          ],
          "indexed": false,
          "internalType": "struct YieldOfferings.wallet",
          "name": "",
          "type": "tuple"
        }
      ],
      "name": "getWalletInfo",
      "type": "event"
    },
    {
      "anonymous": false,
      "inputs": [
        {
          "components": [
            {
              "internalType": "address",
              "name": "issuer",
              "type": "address"
            },
            {
              "internalType": "uint256",
              "name": "ID",
              "type": "uint256"
            },
            {
              "internalType": "string",
              "name": "name",
              "type": "string"
            },
            {
              "internalType": "uint256",
              "name": "Nb_fixings",
              "type": "uint256"
            },
            {
              "internalType": "uint256",
              "name": "fixing_counter",
              "type": "uint256"
            },
            {
              "internalType": "uint256",
              "name": "high_coupon",
              "type": "uint256"
            },
            {
              "internalType": "uint256",
              "name": "high_coupon_barrier",
              "type": "uint256"
            },
            {
              "internalType": "uint256",
              "name": "smaller_coupon",
              "type": "uint256"
            },
            {
              "internalType": "uint256",
              "name": "Upoutbarrier",
              "type": "uint256"
            },
            {
              "internalType": "uint256",
              "name": "di_barrier",
              "type": "uint256"
            },
            {
              "internalType": "bool",
              "name": "Di_barrier_activated",
              "type": "bool"
            },
            {
              "internalType": "uint256",
              "name": "contractID",
              "type": "uint256"
            }
          ],
          "indexed": false,
          "internalType": "struct YieldOfferings.offering",
          "name": "",
          "type": "tuple"
        }
      ],
      "name": "logAddedOffering",
      "type": "event"
    },
    {
      "inputs": [
        {
          "internalType": "address",
          "name": "",
          "type": "address"
        }
      ],
      "name": "BuyersMap",
      "outputs": [
        {
          "internalType": "address",
          "name": "issuerAddress",
          "type": "address"
        }
      ],
      "stateMutability": "view",
      "type": "function",
      "constant": true
    },
    {
      "inputs": [
        {
          "internalType": "uint256",
          "name": "",
          "type": "uint256"
        }
      ],
      "name": "Offerings",
      "outputs": [
        {
          "internalType": "address",
          "name": "issuer",
          "type": "address"
        },
        {
          "internalType": "uint256",
          "name": "ID",
          "type": "uint256"
        },
        {
          "internalType": "string",
          "name": "name",
          "type": "string"
        },
        {
          "internalType": "uint256",
          "name": "Nb_fixings",
          "type": "uint256"
        },
        {
          "internalType": "uint256",
          "name": "fixing_counter",
          "type": "uint256"
        },
        {
          "internalType": "uint256",
          "name": "high_coupon",
          "type": "uint256"
        },
        {
          "internalType": "uint256",
          "name": "high_coupon_barrier",
          "type": "uint256"
        },
        {
          "internalType": "uint256",
          "name": "smaller_coupon",
          "type": "uint256"
        },
        {
          "internalType": "uint256",
          "name": "Upoutbarrier",
          "type": "uint256"
        },
        {
          "internalType": "uint256",
          "name": "di_barrier",
          "type": "uint256"
        },
        {
          "internalType": "bool",
          "name": "Di_barrier_activated",
          "type": "bool"
        },
        {
          "internalType": "uint256",
          "name": "contractID",
          "type": "uint256"
        }
      ],
      "stateMutability": "view",
      "type": "function",
      "constant": true
    },
    {
      "inputs": [
        {
          "internalType": "address",
          "name": "_tokenIn",
          "type": "address"
        },
        {
          "internalType": "uint256",
          "name": "_amountIn",
          "type": "uint256"
        }
      ],
      "name": "depositerc20",
      "outputs": [],
      "stateMutability": "nonpayable",
      "type": "function"
    },
    {
      "inputs": [],
      "name": "fillPriceLog",
      "outputs": [],
      "stateMutability": "nonpayable",
      "type": "function"
    },
    {
      "inputs": [
        {
          "internalType": "address",
          "name": "_tokenIn",
          "type": "address"
        },
        {
          "internalType": "address",
          "name": "_tokenOut",
          "type": "address"
        },
        {
          "internalType": "uint256",
          "name": "_amountIn",
          "type": "uint256"
        }
      ],
      "name": "getAmountOutMin",
      "outputs": [
        {
          "internalType": "uint256",
          "name": "",
          "type": "uint256"
        }
      ],
      "stateMutability": "view",
      "type": "function",
      "constant": true
    },
    {
      "inputs": [],
      "name": "getDaiBalance",
      "outputs": [
        {
          "internalType": "uint256",
          "name": "",
          "type": "uint256"
        }
      ],
      "stateMutability": "view",
      "type": "function",
      "constant": true
    },
    {
      "inputs": [],
      "name": "getLatestPrice",
      "outputs": [
        {
          "internalType": "int256",
          "name": "",
          "type": "int256"
        }
      ],
      "stateMutability": "view",
      "type": "function",
      "constant": true
    },
    {
      "inputs": [],
      "name": "getUSDTBalance",
      "outputs": [
        {
          "internalType": "uint256",
          "name": "",
          "type": "uint256"
        }
      ],
      "stateMutability": "view",
      "type": "function",
      "constant": true
    },
    {
      "inputs": [],
      "name": "getWETHBalance",
      "outputs": [
        {
          "internalType": "uint256",
          "name": "",
          "type": "uint256"
        }
      ],
      "stateMutability": "view",
      "type": "function",
      "constant": true
    },
    {
      "inputs": [
        {
          "internalType": "uint256",
          "name": "",
          "type": "uint256"
        }
      ],
      "name": "offeringIDList",
      "outputs": [
        {
          "internalType": "uint256",
          "name": "",
          "type": "uint256"
        }
      ],
      "stateMutability": "view",
      "type": "function",
      "constant": true
    },
    {
      "inputs": [],
      "name": "owner",
      "outputs": [
        {
          "internalType": "address",
          "name": "",
          "type": "address"
        }
      ],
      "stateMutability": "view",
      "type": "function",
      "constant": true
    },
    {
      "inputs": [
        {
          "internalType": "address",
          "name": "_tokenIn",
          "type": "address"
        },
        {
          "internalType": "address",
          "name": "_tokenOut",
          "type": "address"
        },
        {
          "internalType": "uint256",
          "name": "_amountIn",
          "type": "uint256"
        },
        {
          "internalType": "uint256",
          "name": "_amountOutMin",
          "type": "uint256"
        }
      ],
      "name": "simpleswap",
      "outputs": [],
      "stateMutability": "nonpayable",
      "type": "function"
    },
    {
      "inputs": [
        {
          "internalType": "address",
          "name": "_tokenIn",
          "type": "address"
        },
        {
          "internalType": "address",
          "name": "_tokenOut",
          "type": "address"
        },
        {
          "internalType": "uint256",
          "name": "_amountIn",
          "type": "uint256"
        },
        {
          "internalType": "uint256",
          "name": "_amountOutMin",
          "type": "uint256"
        },
        {
          "internalType": "address",
          "name": "_to",
          "type": "address"
        }
      ],
      "name": "swap",
      "outputs": [],
      "stateMutability": "nonpayable",
      "type": "function"
    },
    {
      "inputs": [
        {
          "internalType": "address",
          "name": "",
          "type": "address"
        }
      ],
      "name": "walletMap",
      "outputs": [
        {
          "internalType": "uint256",
          "name": "usdt",
          "type": "uint256"
        },
        {
          "internalType": "uint256",
          "name": "eth",
          "type": "uint256"
        },
        {
          "internalType": "uint256",
          "name": "weth",
          "type": "uint256"
        }
      ],
      "stateMutability": "view",
      "type": "function",
      "constant": true
    },
    {
      "stateMutability": "payable",
      "type": "receive",
      "payable": true
    },
    {
      "inputs": [],
      "name": "SignInIssuer",
      "outputs": [],
      "stateMutability": "nonpayable",
      "type": "function"
    },
    {
      "inputs": [
        {
          "internalType": "address",
          "name": "CoinAddress",
          "type": "address"
        },
        {
          "internalType": "string",
          "name": "CoinName",
          "type": "string"
        }
      ],
      "name": "supportCoin",
      "outputs": [],
      "stateMutability": "nonpayable",
      "type": "function"
    },
    {
      "inputs": [
        {
          "internalType": "string",
          "name": "_name",
          "type": "string"
        },
        {
          "internalType": "uint256",
          "name": "_Nb_fixings",
          "type": "uint256"
        },
        {
          "internalType": "uint256",
          "name": "_high_coupon",
          "type": "uint256"
        },
        {
          "internalType": "uint256",
          "name": "_high_coupon_barrier",
          "type": "uint256"
        },
        {
          "internalType": "uint256",
          "name": "_smaller_coupon",
          "type": "uint256"
        },
        {
          "internalType": "uint256",
          "name": "_Upoutbarrier",
          "type": "uint256"
        },
        {
          "internalType": "uint256",
          "name": "_di_barrier",
          "type": "uint256"
        }
      ],
      "name": "addOffering",
      "outputs": [],
      "stateMutability": "nonpayable",
      "type": "function"
    },
    {
      "inputs": [],
      "name": "depositToWallet",
      "outputs": [],
      "stateMutability": "payable",
      "type": "function",
      "payable": true
    },
    {
      "inputs": [
        {
          "internalType": "uint256",
          "name": "amount",
          "type": "uint256"
        }
      ],
      "name": "swapETHFromBuiltInWallet",
      "outputs": [],
      "stateMutability": "nonpayable",
      "type": "function"
    },
    {
      "inputs": [
        {
          "internalType": "uint256",
          "name": "_id",
          "type": "uint256"
        }
      ],
      "name": "buyOffering",
      "outputs": [
        {
          "internalType": "string",
          "name": "",
          "type": "string"
        }
      ],
      "stateMutability": "payable",
      "type": "function",
      "payable": true
    },
    {
      "inputs": [
        {
          "internalType": "address",
          "name": "_issuer",
          "type": "address"
        },
        {
          "internalType": "uint256",
          "name": "tbs",
          "type": "uint256"
        }
      ],
      "name": "checkCustody",
      "outputs": [
        {
          "internalType": "bool",
          "name": "",
          "type": "bool"
        }
      ],
      "stateMutability": "nonpayable",
      "type": "function"
    },
    {
      "inputs": [],
      "name": "getCount",
      "outputs": [
        {
          "internalType": "uint256",
          "name": "count",
          "type": "uint256"
        }
      ],
      "stateMutability": "view",
      "type": "function",
      "constant": true
    },
    {
      "inputs": [],
      "name": "getContractCount",
      "outputs": [
        {
          "internalType": "uint256",
          "name": "count",
          "type": "uint256"
        }
      ],
      "stateMutability": "view",
      "type": "function",
      "constant": true
    },
    {
      "inputs": [],
      "name": "getContractETH",
      "outputs": [
        {
          "internalType": "uint256",
          "name": "",
          "type": "uint256"
        }
      ],
      "stateMutability": "view",
      "type": "function",
      "constant": true
    },
    {
      "inputs": [],
      "name": "getOfferings",
      "outputs": [
        {
          "components": [
            {
              "internalType": "address",
              "name": "issuer",
              "type": "address"
            },
            {
              "internalType": "uint256",
              "name": "ID",
              "type": "uint256"
            },
            {
              "internalType": "string",
              "name": "name",
              "type": "string"
            },
            {
              "internalType": "uint256",
              "name": "Nb_fixings",
              "type": "uint256"
            },
            {
              "internalType": "uint256",
              "name": "fixing_counter",
              "type": "uint256"
            },
            {
              "internalType": "uint256",
              "name": "high_coupon",
              "type": "uint256"
            },
            {
              "internalType": "uint256",
              "name": "high_coupon_barrier",
              "type": "uint256"
            },
            {
              "internalType": "uint256",
              "name": "smaller_coupon",
              "type": "uint256"
            },
            {
              "internalType": "uint256",
              "name": "Upoutbarrier",
              "type": "uint256"
            },
            {
              "internalType": "uint256",
              "name": "di_barrier",
              "type": "uint256"
            },
            {
              "internalType": "bool",
              "name": "Di_barrier_activated",
              "type": "bool"
            },
            {
              "internalType": "uint256",
              "name": "contractID",
              "type": "uint256"
            }
          ],
          "internalType": "struct YieldOfferings.offering[]",
          "name": "",
          "type": "tuple[]"
        }
      ],
      "stateMutability": "view",
      "type": "function",
      "constant": true
    },
    {
      "inputs": [],
      "name": "getAllContracts",
      "outputs": [
        {
          "components": [
            {
              "internalType": "address",
              "name": "buyer",
              "type": "address"
            },
            {
              "internalType": "address",
              "name": "issuer",
              "type": "address"
            },
            {
              "internalType": "uint256",
              "name": "amount",
              "type": "uint256"
            },
            {
              "internalType": "uint256",
              "name": "offeringID",
              "type": "uint256"
            },
            {
              "internalType": "uint256",
              "name": "contractID",
              "type": "uint256"
            }
          ],
          "internalType": "struct YieldOfferings.offeringContract[]",
          "name": "",
          "type": "tuple[]"
        }
      ],
      "stateMutability": "view",
      "type": "function",
      "constant": true
    }
  ],
  "bytecode": "0x608060405233600360006101000a81548173ffffffffffffffffffffffffffffffffffffffff021916908373ffffffffffffffffffffffffffffffffffffffff1602179055506000600455600060055560006006556040518060400160405280600781526020017f426f75676874210000000000000000000000000000000000000000000000000081525060099080519060200190620000a19291906200016b565b50610960600a556108fc600b55348015620000bb57600080fd5b50735f4ec3df9cbd43714fe2740f5e3616155c5b84196000806101000a81548173ffffffffffffffffffffffffffffffffffffffff021916908373ffffffffffffffffffffffffffffffffffffffff16021790555073c02aaa39b223fe8d0a0e5c4f27ead9083c756cc2600260006101000a81548173ffffffffffffffffffffffffffffffffffffffff021916908373ffffffffffffffffffffffffffffffffffffffff16021790555062000280565b82805462000179906200024a565b90600052602060002090601f0160209004810192826200019d5760008555620001e9565b82601f10620001b857805160ff1916838001178555620001e9565b82800160010185558215620001e9579182015b82811115620001e8578251825591602001919060010190620001cb565b5b509050620001f89190620001fc565b5090565b5b8082111562000217576000816000905550600101620001fd565b5090565b7f4e487b7100000000000000000000000000000000000000000000000000000000600052602260045260246000fd5b600060028204905060018216806200026357607f821691505b602082108114156200027a57620002796200021b565b5b50919050565b6144fa80620002906000396000f3fe6080604052600436106101845760003560e01c80638da5cb5b116100d1578063a87d942c1161008a578063d6a9171911610064578063d6a917191461056a578063ef3055d9146105a7578063f1f5bef0146105e4578063f49dd287146105ee5761018b565b8063a87d942c146104ff578063b07627c81461052a578063d5bcb9b5146105415761018b565b80638da5cb5b146103eb5780638e15f473146104165780639399869d1461044157806393b6a95a1461046c5780639785fac814610495578063a2bd4943146104c05761018b565b80635d8efce11161013e57806370411c131161011857806370411c13146103435780637aafa19e146103805780638258cbbd146103a9578063890d26c7146103d45761018b565b80635d8efce1146102bd5780635ddc916a146102ed57806365881ee9146103185761018b565b8062cbb73b14610190578063059886ca146101bb5780630bd5d863146101e457806318d3ce961461022c5780633c50eec1146102575780634f0238b8146102945761018b565b3661018b57005b600080fd5b34801561019c57600080fd5b506101a5610617565b6040516101b29190612cbd565b60405180910390f35b3480156101c757600080fd5b506101e260048036038101906101dd9190612d18565b6106c0565b005b3480156101f057600080fd5b5061020b60048036038101906102069190612d18565b610a33565b6040516102239c9b9a99989796959493929190612e3a565b60405180910390f35b34801561023857600080fd5b50610241610b48565b60405161024e9190613030565b60405180910390f35b34801561026357600080fd5b5061027e6004803603810190610279919061307e565b610cd2565b60405161028b9190612cbd565b60405180910390f35b3480156102a057600080fd5b506102bb60048036038101906102b691906130d1565b611080565b005b6102d760048036038101906102d29190612d18565b6114ad565b6040516102e49190613138565b60405180910390f35b3480156102f957600080fd5b5061030261178f565b60405161030f9190612cbd565b60405180910390f35b34801561032457600080fd5b5061032d611838565b60405161033a9190613379565b60405180910390f35b34801561034f57600080fd5b5061036a60048036038101906103659190612d18565b611a68565b6040516103779190612cbd565b60405180910390f35b34801561038c57600080fd5b506103a760048036038101906103a291906134d0565b611a8c565b005b3480156103b557600080fd5b506103be611b47565b6040516103cb9190612cbd565b60405180910390f35b3480156103e057600080fd5b506103e9611b4f565b005b3480156103f757600080fd5b50610400611dfe565b60405161040d919061352c565b60405180910390f35b34801561042257600080fd5b5061042b611e24565b6040516104389190613560565b60405180910390f35b34801561044d57600080fd5b50610456611ee0565b6040516104639190612cbd565b60405180910390f35b34801561047857600080fd5b50610493600480360381019061048e919061357b565b611eea565b005b3480156104a157600080fd5b506104aa611f7e565b6040516104b79190612cbd565b60405180910390f35b3480156104cc57600080fd5b506104e760048036038101906104e291906135bb565b612027565b6040516104f6939291906135e8565b60405180910390f35b34801561050b57600080fd5b50610514612051565b6040516105219190612cbd565b60405180910390f35b34801561053657600080fd5b5061053f61205e565b005b34801561054d57600080fd5b506105686004803603810190610563919061361f565b612085565b005b34801561057657600080fd5b50610591600480360381019061058c919061357b565b612551565b60405161059e919061369a565b60405180910390f35b3480156105b357600080fd5b506105ce60048036038101906105c991906135bb565b61257c565b6040516105db919061352c565b60405180910390f35b6105ec6125ba565b005b3480156105fa57600080fd5b50610615600480360381019061061091906136b5565b6127bc565b005b60008073c02aaa39b223fe8d0a0e5c4f27ead9083c756cc273ffffffffffffffffffffffffffffffffffffffff166370a08231306040518263ffffffff1660e01b8152600401610667919061352c565b60206040518083038186803b15801561067f57600080fd5b505afa158015610693573d6000803e3d6000fd5b505050506040513d601f19601f820116820180604052508101906106b79190613788565b90508091505090565b80600d60003373ffffffffffffffffffffffffffffffffffffffff1673ffffffffffffffffffffffffffffffffffffffff16815260200190815260200160002060010154101561070f57600080fd5b600060644261071e91906137e4565b90506000600267ffffffffffffffff81111561073d5761073c6133a5565b5b60405190808252806020026020018201604052801561076b5781602001602082028036833780820191505090505b509050600f60405161077c90613891565b908152602001604051809103902060009054906101000a900473ffffffffffffffffffffffffffffffffffffffff16816000815181106107bf576107be6138a6565b5b602002602001019073ffffffffffffffffffffffffffffffffffffffff16908173ffffffffffffffffffffffffffffffffffffffff1681525050600f60405161080790613921565b908152602001604051809103902060009054906101000a900473ffffffffffffffffffffffffffffffffffffffff168160018151811061084a576108496138a6565b5b602002602001019073ffffffffffffffffffffffffffffffffffffffff16908173ffffffffffffffffffffffffffffffffffffffff1681525050600260009054906101000a900473ffffffffffffffffffffffffffffffffffffffff1673ffffffffffffffffffffffffffffffffffffffff1663d0e30db0846040518263ffffffff1660e01b81526004016000604051808303818588803b1580156108ee57600080fd5b505af1158015610902573d6000803e3d6000fd5b505050505082600d60003373ffffffffffffffffffffffffffffffffffffffff1673ffffffffffffffffffffffffffffffffffffffff168152602001908152602001600020600201600082825461095991906137e4565b9250508190555082600d60003373ffffffffffffffffffffffffffffffffffffffff1673ffffffffffffffffffffffffffffffffffffffff16815260200190815260200160002060010160008282546109b29190613936565b925050819055507f72e8a9e162166777febe65180487a15d66a798aa00ccf3d4743743cf235fdb7b600d60003373ffffffffffffffffffffffffffffffffffffffff1673ffffffffffffffffffffffffffffffffffffffff168152602001908152602001600020604051610a269190613a00565b60405180910390a1505050565b600c6020528060005260406000206000915090508060000160009054906101000a900473ffffffffffffffffffffffffffffffffffffffff1690806001015490806002018054610a8290613a4a565b80601f0160208091040260200160405190810160405280929190818152602001828054610aae90613a4a565b8015610afb5780601f10610ad057610100808354040283529160200191610afb565b820191906000526020600020905b815481529060010190602001808311610ade57829003601f168201915b50505050509080600301549080600401549080600501549080600601549080600701549080600801549080600901549080600a0160009054906101000a900460ff169080600b015490508c565b6060600060055467ffffffffffffffff811115610b6857610b676133a5565b5b604051908082528060200260200182016040528015610ba157816020015b610b8e612ae0565b815260200190600190039081610b865790505b50905060005b600554811015610cca57600e60008281526020019081526020016000206040518060a00160405290816000820160009054906101000a900473ffffffffffffffffffffffffffffffffffffffff1673ffffffffffffffffffffffffffffffffffffffff1673ffffffffffffffffffffffffffffffffffffffff1681526020016001820160009054906101000a900473ffffffffffffffffffffffffffffffffffffffff1673ffffffffffffffffffffffffffffffffffffffff1673ffffffffffffffffffffffffffffffffffffffff1681526020016002820154815260200160038201548152602001600482015481525050828281518110610cac57610cab6138a6565b5b60200260200101819052508080610cc290613a7c565b915050610ba7565b508091505090565b6000606073c02aaa39b223fe8d0a0e5c4f27ead9083c756cc273ffffffffffffffffffffffffffffffffffffffff168573ffffffffffffffffffffffffffffffffffffffff161480610d63575073c02aaa39b223fe8d0a0e5c4f27ead9083c756cc273ffffffffffffffffffffffffffffffffffffffff168473ffffffffffffffffffffffffffffffffffffffff16145b15610e5757600267ffffffffffffffff811115610d8357610d826133a5565b5b604051908082528060200260200182016040528015610db15781602001602082028036833780820191505090505b5090508481600081518110610dc957610dc86138a6565b5b602002602001019073ffffffffffffffffffffffffffffffffffffffff16908173ffffffffffffffffffffffffffffffffffffffff16815250508381600181518110610e1857610e176138a6565b5b602002602001019073ffffffffffffffffffffffffffffffffffffffff16908173ffffffffffffffffffffffffffffffffffffffff1681525050610fa5565b600367ffffffffffffffff811115610e7257610e716133a5565b5b604051908082528060200260200182016040528015610ea05781602001602082028036833780820191505090505b5090508481600081518110610eb857610eb76138a6565b5b602002602001019073ffffffffffffffffffffffffffffffffffffffff16908173ffffffffffffffffffffffffffffffffffffffff168152505073c02aaa39b223fe8d0a0e5c4f27ead9083c756cc281600181518110610f1b57610f1a6138a6565b5b602002602001019073ffffffffffffffffffffffffffffffffffffffff16908173ffffffffffffffffffffffffffffffffffffffff16815250508381600281518110610f6a57610f696138a6565b5b602002602001019073ffffffffffffffffffffffffffffffffffffffff16908173ffffffffffffffffffffffffffffffffffffffff16815250505b6000737a250d5630b4cf539739df2c5dacb4c659f2488d73ffffffffffffffffffffffffffffffffffffffff1663d06ca61f85846040518363ffffffff1660e01b8152600401610ff6929190613b74565b60006040518083038186803b15801561100e57600080fd5b505afa158015611022573d6000803e3d6000fd5b505050506040513d6000823e3d601f19601f8201168201806040525081019061104b9190613c6c565b9050806001835161105c9190613936565b8151811061106d5761106c6138a6565b5b6020026020010151925050509392505050565b8373ffffffffffffffffffffffffffffffffffffffff1663095ea7b3737a250d5630b4cf539739df2c5dacb4c659f2488d846040518363ffffffff1660e01b81526004016110cf929190613cb5565b602060405180830381600087803b1580156110e957600080fd5b505af11580156110fd573d6000803e3d6000fd5b505050506040513d601f19601f820116820180604052508101906111219190613d0a565b506000429050606073c02aaa39b223fe8d0a0e5c4f27ead9083c756cc273ffffffffffffffffffffffffffffffffffffffff168673ffffffffffffffffffffffffffffffffffffffff1614806111b6575073c02aaa39b223fe8d0a0e5c4f27ead9083c756cc273ffffffffffffffffffffffffffffffffffffffff168573ffffffffffffffffffffffffffffffffffffffff16145b156112aa57600267ffffffffffffffff8111156111d6576111d56133a5565b5b6040519080825280602002602001820160405280156112045781602001602082028036833780820191505090505b509050858160008151811061121c5761121b6138a6565b5b602002602001019073ffffffffffffffffffffffffffffffffffffffff16908173ffffffffffffffffffffffffffffffffffffffff1681525050848160018151811061126b5761126a6138a6565b5b602002602001019073ffffffffffffffffffffffffffffffffffffffff16908173ffffffffffffffffffffffffffffffffffffffff16815250506113f8565b600367ffffffffffffffff8111156112c5576112c46133a5565b5b6040519080825280602002602001820160405280156112f35781602001602082028036833780820191505090505b509050858160008151811061130b5761130a6138a6565b5b602002602001019073ffffffffffffffffffffffffffffffffffffffff16908173ffffffffffffffffffffffffffffffffffffffff168152505073c02aaa39b223fe8d0a0e5c4f27ead9083c756cc28160018151811061136e5761136d6138a6565b5b602002602001019073ffffffffffffffffffffffffffffffffffffffff16908173ffffffffffffffffffffffffffffffffffffffff168152505084816002815181106113bd576113bc6138a6565b5b602002602001019073ffffffffffffffffffffffffffffffffffffffff16908173ffffffffffffffffffffffffffffffffffffffff16815250505b737a250d5630b4cf539739df2c5dacb4c659f2488d73ffffffffffffffffffffffffffffffffffffffff166338ed173985858430426040518663ffffffff1660e01b815260040161144d959493929190613d37565b600060405180830381600087803b15801561146757600080fd5b505af115801561147b573d6000803e3d6000fd5b505050506040513d6000823e3d601f19601f820116820180604052508101906114a49190613c6c565b50505050505050565b60606040518060a001604052803373ffffffffffffffffffffffffffffffffffffffff168152602001600c600085815260200190815260200160002060000160009054906101000a900473ffffffffffffffffffffffffffffffffffffffff1673ffffffffffffffffffffffffffffffffffffffff168152602001348152602001838152602001600554815250600e6000600554815260200190815260200160002060008201518160000160006101000a81548173ffffffffffffffffffffffffffffffffffffffff021916908373ffffffffffffffffffffffffffffffffffffffff16021790555060208201518160010160006101000a81548173ffffffffffffffffffffffffffffffffffffffff021916908373ffffffffffffffffffffffffffffffffffffffff160217905550604082015181600201556060820151816003015560808201518160040155905050600554600c6000848152602001908152602001600020600b01819055507f21297d35e2f7609fd21ba966364c9c5e16c397a8ff7381fb0fcf712fff9424e4600e6000600554815260200190815260200160002060405161165e9190613e6c565b60405180910390a160016005600082825461167991906137e4565b9250508190555034600d6000600c600086815260200190815260200160002060000160009054906101000a900473ffffffffffffffffffffffffffffffffffffffff1673ffffffffffffffffffffffffffffffffffffffff1673ffffffffffffffffffffffffffffffffffffffff168152602001908152602001600020600101819055506009805461170a90613a4a565b80601f016020809104026020016040519081016040528092919081815260200182805461173690613a4a565b80156117835780601f1061175857610100808354040283529160200191611783565b820191906000526020600020905b81548152906001019060200180831161176657829003601f168201915b50505050509050919050565b60008073111111111117dc0aa78b770fa6a738034120c30273ffffffffffffffffffffffffffffffffffffffff166370a08231306040518263ffffffff1660e01b81526004016117df919061352c565b60206040518083038186803b1580156117f757600080fd5b505afa15801561180b573d6000803e3d6000fd5b505050506040513d601f19601f8201168201806040525081019061182f9190613788565b90508091505090565b6060600060078054905067ffffffffffffffff81111561185b5761185a6133a5565b5b60405190808252806020026020018201604052801561189457816020015b611881612b3b565b8152602001906001900390816118795790505b50905060005b600780549050811015611a6057600c60006001836118b891906137e4565b8152602001908152602001600020604051806101800160405290816000820160009054906101000a900473ffffffffffffffffffffffffffffffffffffffff1673ffffffffffffffffffffffffffffffffffffffff1673ffffffffffffffffffffffffffffffffffffffff1681526020016001820154815260200160028201805461194290613a4a565b80601f016020809104026020016040519081016040528092919081815260200182805461196e90613a4a565b80156119bb5780601f10611990576101008083540402835291602001916119bb565b820191906000526020600020905b81548152906001019060200180831161199e57829003601f168201915b5050505050815260200160038201548152602001600482015481526020016005820154815260200160068201548152602001600782015481526020016008820154815260200160098201548152602001600a820160009054906101000a900460ff16151515158152602001600b82015481525050828281518110611a4257611a416138a6565b5b60200260200101819052508080611a5890613a7c565b91505061189a565b508091505090565b60078181548110611a7857600080fd5b906000526020600020016000915090505481565b600360009054906101000a900473ffffffffffffffffffffffffffffffffffffffff1673ffffffffffffffffffffffffffffffffffffffff163373ffffffffffffffffffffffffffffffffffffffff1614611ae657600080fd5b81600f82604051611af79190613eb8565b908152602001604051809103902060006101000a81548173ffffffffffffffffffffffffffffffffffffffff021916908373ffffffffffffffffffffffffffffffffffffffff1602179055505050565b600047905090565b600073ffffffffffffffffffffffffffffffffffffffff16601160003373ffffffffffffffffffffffffffffffffffffffff1673ffffffffffffffffffffffffffffffffffffffff16815260200190815260200160002060000160009054906101000a900473ffffffffffffffffffffffffffffffffffffffff1673ffffffffffffffffffffffffffffffffffffffff1614611c20576040517f08c379a0000000000000000000000000000000000000000000000000000000008152600401611c1790613f1b565b60405180910390fd5b604051806060016040528060008152602001600081526020016000815250600d60003373ffffffffffffffffffffffffffffffffffffffff1673ffffffffffffffffffffffffffffffffffffffff1681526020019081526020016000206000820151816000015560208201518160010155604082015181600201559050506001600654611cad91906137e4565b600681905550606060405180604001604052803373ffffffffffffffffffffffffffffffffffffffff16815260200182815250601160003373ffffffffffffffffffffffffffffffffffffffff1673ffffffffffffffffffffffffffffffffffffffff16815260200190815260200160002060008201518160000160006101000a81548173ffffffffffffffffffffffffffffffffffffffff021916908373ffffffffffffffffffffffffffffffffffffffff1602179055506020820151816001019080519060200190611d82929190612bb4565b509050507fe98c073dd958639e8957a0d059199a9480a89cd8af94ba92e4aadd4a0c214689601160003373ffffffffffffffffffffffffffffffffffffffff1673ffffffffffffffffffffffffffffffffffffffff168152602001908152602001600020604051611df39190614052565b60405180910390a150565b600360009054906101000a900473ffffffffffffffffffffffffffffffffffffffff1681565b60008060008060008060008054906101000a900473ffffffffffffffffffffffffffffffffffffffff1673ffffffffffffffffffffffffffffffffffffffff1663feaf968c6040518163ffffffff1660e01b815260040160a06040518083038186803b158015611e9357600080fd5b505afa158015611ea7573d6000803e3d6000fd5b505050506040513d601f19601f82011682018060405250810190611ecb91906140e2565b94509450945094509450839550505050505090565b6000600554905090565b8173ffffffffffffffffffffffffffffffffffffffff166323b872dd3330846040518463ffffffff1660e01b8152600401611f279392919061415d565b602060405180830381600087803b158015611f4157600080fd5b505af1158015611f55573d6000803e3d6000fd5b505050506040513d601f19601f82011682018060405250810190611f799190613d0a565b505050565b60008073dac17f958d2ee523a2206206994597c13d831ec773ffffffffffffffffffffffffffffffffffffffff166370a08231306040518263ffffffff1660e01b8152600401611fce919061352c565b60206040518083038186803b158015611fe657600080fd5b505afa158015611ffa573d6000803e3d6000fd5b505050506040513d601f19601f8201168201806040525081019061201e9190613788565b90508091505090565b600d6020528060005260406000206000915090508060000154908060010154908060020154905083565b6000600780549050905090565b6000612068611e24565b905080600160004281526020019081526020016000208190555050565b8473ffffffffffffffffffffffffffffffffffffffff166323b872dd3330866040518463ffffffff1660e01b81526004016120c29392919061415d565b602060405180830381600087803b1580156120dc57600080fd5b505af11580156120f0573d6000803e3d6000fd5b505050506040513d601f19601f820116820180604052508101906121149190613d0a565b508473ffffffffffffffffffffffffffffffffffffffff1663095ea7b3737a250d5630b4cf539739df2c5dacb4c659f2488d856040518363ffffffff1660e01b8152600401612164929190613cb5565b602060405180830381600087803b15801561217e57600080fd5b505af1158015612192573d6000803e3d6000fd5b505050506040513d601f19601f820116820180604052508101906121b69190613d0a565b506000620186a0426121c891906137e4565b9050606073c02aaa39b223fe8d0a0e5c4f27ead9083c756cc273ffffffffffffffffffffffffffffffffffffffff168773ffffffffffffffffffffffffffffffffffffffff161480612259575073c02aaa39b223fe8d0a0e5c4f27ead9083c756cc273ffffffffffffffffffffffffffffffffffffffff168673ffffffffffffffffffffffffffffffffffffffff16145b1561234d57600267ffffffffffffffff811115612279576122786133a5565b5b6040519080825280602002602001820160405280156122a75781602001602082028036833780820191505090505b50905086816000815181106122bf576122be6138a6565b5b602002602001019073ffffffffffffffffffffffffffffffffffffffff16908173ffffffffffffffffffffffffffffffffffffffff1681525050858160018151811061230e5761230d6138a6565b5b602002602001019073ffffffffffffffffffffffffffffffffffffffff16908173ffffffffffffffffffffffffffffffffffffffff168152505061249b565b600367ffffffffffffffff811115612368576123676133a5565b5b6040519080825280602002602001820160405280156123965781602001602082028036833780820191505090505b50905086816000815181106123ae576123ad6138a6565b5b602002602001019073ffffffffffffffffffffffffffffffffffffffff16908173ffffffffffffffffffffffffffffffffffffffff168152505073c02aaa39b223fe8d0a0e5c4f27ead9083c756cc281600181518110612411576124106138a6565b5b602002602001019073ffffffffffffffffffffffffffffffffffffffff16908173ffffffffffffffffffffffffffffffffffffffff168152505085816002815181106124605761245f6138a6565b5b602002602001019073ffffffffffffffffffffffffffffffffffffffff16908173ffffffffffffffffffffffffffffffffffffffff16815250505b737a250d5630b4cf539739df2c5dacb4c659f2488d73ffffffffffffffffffffffffffffffffffffffff166338ed173986868487876040518663ffffffff1660e01b81526004016124f0959493929190613d37565b600060405180830381600087803b15801561250a57600080fd5b505af115801561251e573d6000803e3d6000fd5b505050506040513d6000823e3d601f19601f820116820180604052508101906125479190613c6c565b5050505050505050565b6000806000905060008473ffffffffffffffffffffffffffffffffffffffff16319050505092915050565b60106020528060005260406000206000915090508060000160009054906101000a900473ffffffffffffffffffffffffffffffffffffffff16905081565b3373ffffffffffffffffffffffffffffffffffffffff16601160003373ffffffffffffffffffffffffffffffffffffffff1673ffffffffffffffffffffffffffffffffffffffff16815260200190815260200160002060000160009054906101000a900473ffffffffffffffffffffffffffffffffffffffff1673ffffffffffffffffffffffffffffffffffffffff1614806126e357503373ffffffffffffffffffffffffffffffffffffffff16601060003373ffffffffffffffffffffffffffffffffffffffff1673ffffffffffffffffffffffffffffffffffffffff16815260200190815260200160002060000160009054906101000a900473ffffffffffffffffffffffffffffffffffffffff1673ffffffffffffffffffffffffffffffffffffffff16145b6126ec57600080fd5b34600d60003373ffffffffffffffffffffffffffffffffffffffff1673ffffffffffffffffffffffffffffffffffffffff168152602001908152602001600020600101600082825461273e91906137e4565b925050819055507f72e8a9e162166777febe65180487a15d66a798aa00ccf3d4743743cf235fdb7b600d60003373ffffffffffffffffffffffffffffffffffffffff1673ffffffffffffffffffffffffffffffffffffffff1681526020019081526020016000206040516127b29190613a00565b60405180910390a1565b3373ffffffffffffffffffffffffffffffffffffffff16601160003373ffffffffffffffffffffffffffffffffffffffff1673ffffffffffffffffffffffffffffffffffffffff16815260200190815260200160002060000160009054906101000a900473ffffffffffffffffffffffffffffffffffffffff1673ffffffffffffffffffffffffffffffffffffffff161461288c576040517f08c379a0000000000000000000000000000000000000000000000000000000008152600401612883906141e0565b60405180910390fd5b60008751116128d0576040517f08c379a00000000000000000000000000000000000000000000000000000000081526004016128c79061424c565b60405180910390fd5b600060016004546128e191906137e4565b9050600781908060018154018082558091505060019003906000526020600020016000909190919091505560006040518061018001604052803373ffffffffffffffffffffffffffffffffffffffff1681526020018381526020018a81526020018981526020016000815260200188815260200187815260200186815260200185815260200184815260200160001515815260200182815250600c600084815260200190815260200160002060008201518160000160006101000a81548173ffffffffffffffffffffffffffffffffffffffff021916908373ffffffffffffffffffffffffffffffffffffffff1602179055506020820151816001015560408201518160020190805190602001906129fa929190612c01565b50606082015181600301556080820151816004015560a0820151816005015560c0820151816006015560e082015181600701556101008201518160080155610120820151816009015561014082015181600a0160006101000a81548160ff02191690831515021790555061016082015181600b0155905050600160046000828254612a8591906137e4565b925050819055507fe6b4dfd5503f547fb25adabc923a21bd00987c738a60bf52e8103a790ec6d75d600c6000848152602001908152602001600020604051612acd91906144a2565b60405180910390a1505050505050505050565b6040518060a00160405280600073ffffffffffffffffffffffffffffffffffffffff168152602001600073ffffffffffffffffffffffffffffffffffffffff1681526020016000815260200160008152602001600081525090565b604051806101800160405280600073ffffffffffffffffffffffffffffffffffffffff168152602001600081526020016060815260200160008152602001600081526020016000815260200160008152602001600081526020016000815260200160008152602001600015158152602001600081525090565b828054828255906000526020600020908101928215612bf0579160200282015b82811115612bef578251825591602001919060010190612bd4565b5b509050612bfd9190612c87565b5090565b828054612c0d90613a4a565b90600052602060002090601f016020900481019282612c2f5760008555612c76565b82601f10612c4857805160ff1916838001178555612c76565b82800160010185558215612c76579182015b82811115612c75578251825591602001919060010190612c5a565b5b509050612c839190612c87565b5090565b5b80821115612ca0576000816000905550600101612c88565b5090565b6000819050919050565b612cb781612ca4565b82525050565b6000602082019050612cd26000830184612cae565b92915050565b6000604051905090565b600080fd5b600080fd5b612cf581612ca4565b8114612d0057600080fd5b50565b600081359050612d1281612cec565b92915050565b600060208284031215612d2e57612d2d612ce2565b5b6000612d3c84828501612d03565b91505092915050565b600073ffffffffffffffffffffffffffffffffffffffff82169050919050565b6000612d7082612d45565b9050919050565b612d8081612d65565b82525050565b600081519050919050565b600082825260208201905092915050565b60005b83811015612dc0578082015181840152602081019050612da5565b83811115612dcf576000848401525b50505050565b6000601f19601f8301169050919050565b6000612df182612d86565b612dfb8185612d91565b9350612e0b818560208601612da2565b612e1481612dd5565b840191505092915050565b60008115159050919050565b612e3481612e1f565b82525050565b600061018082019050612e50600083018f612d77565b612e5d602083018e612cae565b8181036040830152612e6f818d612de6565b9050612e7e606083018c612cae565b612e8b608083018b612cae565b612e9860a083018a612cae565b612ea560c0830189612cae565b612eb260e0830188612cae565b612ec0610100830187612cae565b612ece610120830186612cae565b612edc610140830185612e2b565b612eea610160830184612cae565b9d9c50505050505050505050505050565b600081519050919050565b600082825260208201905092915050565b6000819050602082019050919050565b612f3081612d65565b82525050565b612f3f81612ca4565b82525050565b60a082016000820151612f5b6000850182612f27565b506020820151612f6e6020850182612f27565b506040820151612f816040850182612f36565b506060820151612f946060850182612f36565b506080820151612fa76080850182612f36565b50505050565b6000612fb98383612f45565b60a08301905092915050565b6000602082019050919050565b6000612fdd82612efb565b612fe78185612f06565b9350612ff283612f17565b8060005b8381101561302357815161300a8882612fad565b975061301583612fc5565b925050600181019050612ff6565b5085935050505092915050565b6000602082019050818103600083015261304a8184612fd2565b905092915050565b61305b81612d65565b811461306657600080fd5b50565b60008135905061307881613052565b92915050565b60008060006060848603121561309757613096612ce2565b5b60006130a586828701613069565b93505060206130b686828701613069565b92505060406130c786828701612d03565b9150509250925092565b600080600080608085870312156130eb576130ea612ce2565b5b60006130f987828801613069565b945050602061310a87828801613069565b935050604061311b87828801612d03565b925050606061312c87828801612d03565b91505092959194509250565b600060208201905081810360008301526131528184612de6565b905092915050565b600081519050919050565b600082825260208201905092915050565b6000819050602082019050919050565b600082825260208201905092915050565b60006131a282612d86565b6131ac8185613186565b93506131bc818560208601612da2565b6131c581612dd5565b840191505092915050565b6131d981612e1f565b82525050565b6000610180830160008301516131f86000860182612f27565b50602083015161320b6020860182612f36565b50604083015184820360408601526132238282613197565b91505060608301516132386060860182612f36565b50608083015161324b6080860182612f36565b5060a083015161325e60a0860182612f36565b5060c083015161327160c0860182612f36565b5060e083015161328460e0860182612f36565b50610100830151613299610100860182612f36565b506101208301516132ae610120860182612f36565b506101408301516132c36101408601826131d0565b506101608301516132d8610160860182612f36565b508091505092915050565b60006132ef83836131df565b905092915050565b6000602082019050919050565b600061330f8261315a565b6133198185613165565b93508360208202850161332b85613176565b8060005b85811015613367578484038952815161334885826132e3565b9450613353836132f7565b925060208a0199505060018101905061332f565b50829750879550505050505092915050565b600060208201905081810360008301526133938184613304565b905092915050565b600080fd5b600080fd5b7f4e487b7100000000000000000000000000000000000000000000000000000000600052604160045260246000fd5b6133dd82612dd5565b810181811067ffffffffffffffff821117156133fc576133fb6133a5565b5b80604052505050565b600061340f612cd8565b905061341b82826133d4565b919050565b600067ffffffffffffffff82111561343b5761343a6133a5565b5b61344482612dd5565b9050602081019050919050565b82818337600083830152505050565b600061347361346e84613420565b613405565b90508281526020810184848401111561348f5761348e6133a0565b5b61349a848285613451565b509392505050565b600082601f8301126134b7576134b661339b565b5b81356134c7848260208601613460565b91505092915050565b600080604083850312156134e7576134e6612ce2565b5b60006134f585828601613069565b925050602083013567ffffffffffffffff81111561351657613515612ce7565b5b613522858286016134a2565b9150509250929050565b60006020820190506135416000830184612d77565b92915050565b6000819050919050565b61355a81613547565b82525050565b60006020820190506135756000830184613551565b92915050565b6000806040838503121561359257613591612ce2565b5b60006135a085828601613069565b92505060206135b185828601612d03565b9150509250929050565b6000602082840312156135d1576135d0612ce2565b5b60006135df84828501613069565b91505092915050565b60006060820190506135fd6000830186612cae565b61360a6020830185612cae565b6136176040830184612cae565b949350505050565b600080600080600060a0868803121561363b5761363a612ce2565b5b600061364988828901613069565b955050602061365a88828901613069565b945050604061366b88828901612d03565b935050606061367c88828901612d03565b925050608061368d88828901613069565b9150509295509295909350565b60006020820190506136af6000830184612e2b565b92915050565b600080600080600080600060e0888a0312156136d4576136d3612ce2565b5b600088013567ffffffffffffffff8111156136f2576136f1612ce7565b5b6136fe8a828b016134a2565b975050602061370f8a828b01612d03565b96505060406137208a828b01612d03565b95505060606137318a828b01612d03565b94505060806137428a828b01612d03565b93505060a06137538a828b01612d03565b92505060c06137648a828b01612d03565b91505092959891949750929550565b60008151905061378281612cec565b92915050565b60006020828403121561379e5761379d612ce2565b5b60006137ac84828501613773565b91505092915050565b7f4e487b7100000000000000000000000000000000000000000000000000000000600052601160045260246000fd5b60006137ef82612ca4565b91506137fa83612ca4565b9250827fffffffffffffffffffffffffffffffffffffffffffffffffffffffffffffffff0382111561382f5761382e6137b5565b5b828201905092915050565b600081905092915050565b7f5745544800000000000000000000000000000000000000000000000000000000600082015250565b600061387b60048361383a565b915061388682613845565b600482019050919050565b600061389c8261386e565b9150819050919050565b7f4e487b7100000000000000000000000000000000000000000000000000000000600052603260045260246000fd5b7f5553445400000000000000000000000000000000000000000000000000000000600082015250565b600061390b60048361383a565b9150613916826138d5565b600482019050919050565b600061392c826138fe565b9150819050919050565b600061394182612ca4565b915061394c83612ca4565b92508282101561395f5761395e6137b5565b5b828203905092915050565b60008160001c9050919050565b6000819050919050565b600061399461398f8361396a565b613977565b9050919050565b6060820160008083015490506139b081613981565b6139bd6000860182612f36565b50600183015490506139ce81613981565b6139db6020860182612f36565b50600283015490506139ec81613981565b6139f96040860182612f36565b5050505050565b6000606082019050613a15600083018461399b565b92915050565b7f4e487b7100000000000000000000000000000000000000000000000000000000600052602260045260246000fd5b60006002820490506001821680613a6257607f821691505b60208210811415613a7657613a75613a1b565b5b50919050565b6000613a8782612ca4565b91507fffffffffffffffffffffffffffffffffffffffffffffffffffffffffffffffff821415613aba57613ab96137b5565b5b600182019050919050565b600081519050919050565b600082825260208201905092915050565b6000819050602082019050919050565b6000613afd8383612f27565b60208301905092915050565b6000602082019050919050565b6000613b2182613ac5565b613b2b8185613ad0565b9350613b3683613ae1565b8060005b83811015613b67578151613b4e8882613af1565b9750613b5983613b09565b925050600181019050613b3a565b5085935050505092915050565b6000604082019050613b896000830185612cae565b8181036020830152613b9b8184613b16565b90509392505050565b600067ffffffffffffffff821115613bbf57613bbe6133a5565b5b602082029050602081019050919050565b600080fd5b6000613be8613be384613ba4565b613405565b90508083825260208201905060208402830185811115613c0b57613c0a613bd0565b5b835b81811015613c345780613c208882613773565b845260208401935050602081019050613c0d565b5050509392505050565b600082601f830112613c5357613c5261339b565b5b8151613c63848260208601613bd5565b91505092915050565b600060208284031215613c8257613c81612ce2565b5b600082015167ffffffffffffffff811115613ca057613c9f612ce7565b5b613cac84828501613c3e565b91505092915050565b6000604082019050613cca6000830185612d77565b613cd76020830184612cae565b9392505050565b613ce781612e1f565b8114613cf257600080fd5b50565b600081519050613d0481613cde565b92915050565b600060208284031215613d2057613d1f612ce2565b5b6000613d2e84828501613cf5565b91505092915050565b600060a082019050613d4c6000830188612cae565b613d596020830187612cae565b8181036040830152613d6b8186613b16565b9050613d7a6060830185612d77565b613d876080830184612cae565b9695505050505050565b600073ffffffffffffffffffffffffffffffffffffffff82169050919050565b6000613dc4613dbf8361396a565b613d91565b9050919050565b60a082016000808301549050613de081613db1565b613ded6000860182612f27565b5060018301549050613dfe81613db1565b613e0b6020860182612f27565b5060028301549050613e1c81613981565b613e296040860182612f36565b5060038301549050613e3a81613981565b613e476060860182612f36565b5060048301549050613e5881613981565b613e656080860182612f36565b5050505050565b600060a082019050613e816000830184613dcb565b92915050565b6000613e9282612d86565b613e9c818561383a565b9350613eac818560208601612da2565b80840191505092915050565b6000613ec48284613e87565b915081905092915050565b7f416c7265616479205369676e656420696e206173204973737565722100000000600082015250565b6000613f05601c83612d91565b9150613f1082613ecf565b602082019050919050565b60006020820190508181036000830152613f3481613ef8565b9050919050565b600081549050919050565b600082825260208201905092915050565b60008190508160005260206000209050919050565b6000613f788383612f36565b60208301905092915050565b6000613f908254613981565b9050919050565b6000600182019050919050565b6000613faf82613f3b565b613fb98185613f46565b9350613fc483613f57565b8060005b83811015613ffc57613fd982613f84565b613fe38882613f6c565b9750613fee83613f97565b925050600181019050613fc8565b5085935050505092915050565b600060408301600080840154905061402081613db1565b61402d6000870182612f27565b506001840185830360208701526140448382613fa4565b925050819250505092915050565b6000602082019050818103600083015261406c8184614009565b905092915050565b600069ffffffffffffffffffff82169050919050565b61409381614074565b811461409e57600080fd5b50565b6000815190506140b08161408a565b92915050565b6140bf81613547565b81146140ca57600080fd5b50565b6000815190506140dc816140b6565b92915050565b600080600080600060a086880312156140fe576140fd612ce2565b5b600061410c888289016140a1565b955050602061411d888289016140cd565b945050604061412e88828901613773565b935050606061413f88828901613773565b9250506080614150888289016140a1565b9150509295509295909350565b60006060820190506141726000830186612d77565b61417f6020830185612d77565b61418c6040830184612cae565b949350505050565b7f506c65617365205369676e20496e206173204973737565720000000000000000600082015250565b60006141ca601883612d91565b91506141d582614194565b602082019050919050565b600060208201905081810360008301526141f9816141bd565b9050919050565b7f6e616d652063616e6e6f7420626576616c20656d707479000000000000000000600082015250565b6000614236601783612d91565b915061424182614200565b602082019050919050565b6000602082019050818103600083015261426581614229565b9050919050565b60008190508160005260206000209050919050565b6000815461428e81613a4a565b6142988186613186565b945060018216600081146142b357600181146142c5576142f8565b60ff19831686526020860193506142f8565b6142ce8561426c565b60005b838110156142f0578154818901526001820191506020810190506142d1565b808801955050505b50505092915050565b600060ff82169050919050565b600061432161431c8361396a565b614301565b9050919050565b60006101808301600080840154905061434081613db1565b61434d6000870182612f27565b506001840154905061435e81613981565b61436b6020870182612f36565b506002840185830360408701526143828382614281565b9250506003840154905061439581613981565b6143a26060870182612f36565b50600484015490506143b381613981565b6143c06080870182612f36565b50600584015490506143d181613981565b6143de60a0870182612f36565b50600684015490506143ef81613981565b6143fc60c0870182612f36565b506007840154905061440d81613981565b61441a60e0870182612f36565b506008840154905061442b81613981565b614439610100870182612f36565b506009840154905061444a81613981565b614458610120870182612f36565b50600a84015490506144698161430e565b6144776101408701826131d0565b50600b840154905061448881613981565b614496610160870182612f36565b50819250505092915050565b600060208201905081810360008301526144bc8184614328565b90509291505056fea2646970667358221220f00ceb6f8abe1031fe13e3cfc9ab7fd90bd000d0c1051578f9c2a3102496a31064736f6c63430008090033",
  "immutableReferences": {},
  "source": "pragma solidity 0.8.9;\n\nimport \"./TradeCenter.sol\";\n//import \"@openzeppelin/contracts/token/ERC20/extensions/ERC20Wrapper.sol\";\n\nimport \"./ERC20.sol\";\n\ninterface _ERC20{\n  function deposit() external payable;\n  function withdraw(uint256 amount) external;\n  function name() external returns (string memory);\n  \n}\n\ncontract YieldOfferings is TradeCenter {\n   \n_ERC20 weth;  \naddress public owner = msg.sender; // contract owner\n // will be used in logic\nuint offeringCount = 0; // keep track of all number\nuint contractCount=0;\nuint walletCount=0;\nuint[] public offeringIDList; // all ids list\naddress[] walletOwners;\nstring aloo = \"Bought!\";\n//address WETH = 0xC02aaA39b223FE8D0A0e5C4F27eAD9083C756Cc2;\n\n//mapping (address=> bool) public hasWallet;\n\n//hasWallet[key] \n\n\n\nuint price= 2400;\nuint ethusdt0= 2300;\n\nmapping (uint => offering) public Offerings; //mapping offerings to ids\nmapping (address => wallet) public walletMap;\nmapping(uint => offeringContract) ContractMap;\nmapping (string => address) CoinMap;\n\nstruct wallet {\nuint usdt;\nuint eth;\nuint weth;\n//uint ONEINCH;\n//uint WETH;\n}\n\nstruct buyer {\n    address buyerAddress;\n\n    offering[] offerings;\n    uint[] ContractsIds;\n    uint[] offeringIDList;\n}\n\nstruct issuer {\n    address issuerAddress;\n    //uint256 balance;\n    //uint256 accountPayable;\n    uint[] offeringsList;\n    //uint WalletID;\n    //uint[] ContractsIds;\n    //bool hasWallet;\n}\n\nmapping (address => issuer) public BuyersMap;\nmapping (address => issuer) internal IssuersMap;\n\n\n\nstruct offeringContract{\n    address buyer;\n    address issuer;\n    uint amount;\n    uint offeringID;\n    uint contractID;\n}\n\nstruct offering{\n    address issuer;\n    uint ID;\n    string name;\n    uint Nb_fixings;\n    uint fixing_counter;\n    uint high_coupon;\n    uint high_coupon_barrier;\n    uint smaller_coupon;\n    uint Upoutbarrier;\n    uint di_barrier;\n    bool Di_barrier_activated;\n    uint contractID;\n}\n\n\nevent logAddedOffering(offering);\nevent getContract (offeringContract);\nevent getIssuer (issuer);\nevent getWalletInfo(wallet);\n// function to add a new offering \n\nconstructor () public {\n\n    weth = _ERC20 (WETH);\n}\n\nfunction SignInIssuer () public  {\nrequire(IssuersMap[msg.sender].issuerAddress==0x0000000000000000000000000000000000000000, \"Already Signed in as Issuer!\" );\n/*struct issuer {\n    address issuerAddress;\n    offering[] offerings;\n    uint[] ContractsIds;\n}*/\nwalletMap[msg.sender] = wallet (\n0,\n0,\n0\n);\nwalletCount = walletCount+1;\n\nuint[] memory offeringEmptyList;\nIssuersMap[msg.sender] = issuer(\nmsg.sender,\nofferingEmptyList\n);\n\n\n\nemit getIssuer(IssuersMap[msg.sender]);\n\n}\n\nfunction supportCoin(address CoinAddress, string memory CoinName) public {\nrequire(msg.sender == owner);\nCoinMap[CoinName] = CoinAddress;\n\n\n}\n\n\n\nfunction addOffering(\n    string memory _name,\n    uint _Nb_fixings,\n    uint _high_coupon,\n    uint _high_coupon_barrier,\n    uint _smaller_coupon,\n    uint _Upoutbarrier,\n    uint _di_barrier\n    \n   ) public{\n    require(IssuersMap[msg.sender].issuerAddress==msg.sender, \"Please Sign In as Issuer\" );\n    require(bytes(_name).length>0, \"name cannot beval empty\");\n    //require(IssuersMap[msg.sender].issuerAddress, msg.sender);\n\n    uint newID= offeringCount + 1;\n    //offeringContract[] storage emptyList;\n    //newCampaign.deadline= block.timestamp + (_duration * 1 days);\n    offeringIDList.push(newID);\n    uint  contractID;\n    Offerings[newID] = offering(msg.sender, \n     newID, \n     _name,\n     _Nb_fixings,\n     0,\n     _high_coupon,\n     _high_coupon_barrier,\n     _smaller_coupon,\n     _Upoutbarrier,\n     _di_barrier,\n      false,\n    contractID);\n    \n    offeringCount+= 1;\n\n    /*bool ownsWallet= false;\n    for (uint i=0; i< walletOwners.length; i++){\n        if (walletOwners[i] == msg.sender)\n        ownsWallet= true;\n        break;\n    }\n\n    if (ownsWallet== false){\n        walletMap[msg.sender]= wallet(0,0);\n        walletCount +=1;\n    }*/\n\n    //emit logAddedOffering(Offerings[newID].ID, Offerings[newID].name, Offerings[newID].issuer);\n    emit logAddedOffering(Offerings[newID]);\n}\n\n\n    \n/////// BUY BACK PART /////////\n// how will we know the agreed on price?\n// how will the issuer fail to pay a coupon?\n\n/*function checkPayables(uint256 id) public returns(uint){\n    uint buyerGets;\n    Offerings[ContractMap[id].offeringID].fixing_counter+=1;\n    if (price< (Offerings[ContractMap[id].offeringID].di_barrier* ethusdt0)){\n    Offerings[ContractMap[id].offeringID].Di_barrier_activated=true;\n    }\n\n\n    // if not last fixing\n    if (Offerings[ContractMap[id].offeringID].fixing_counter< Offerings[ContractMap[id].offeringID].Nb_fixings){\n        if(price > Offerings[ContractMap[id].offeringID].Upoutbarrier*ethusdt0){\n            // send amount X to buyer+ high_coupon X\n            buyerGets= ContractMap[id].amount + (Offerings[ContractMap[id].offeringID].high_coupon*ContractMap[id].amount);\n        }\n        else if (price> Offerings[ContractMap[id].offeringID].high_coupon_barrier*ethusdt0){\n            // send buyer hight_couponX\n            buyerGets= Offerings[ContractMap[id].offeringID].high_coupon*ContractMap[id].amount;\n\n        }\n        else if (Offerings[ContractMap[id].offeringID].Di_barrier_activated== false){\n            //buyer get smaller_couponX\n            buyerGets= ContractMap[id].amount + Offerings[ContractMap[id].offeringID].smaller_coupon * ContractMap[id].amount;\n\n        }\n        else {\n            // buyer gets nothing\n            buyerGets=0;\n        }\n    }\n\n    else{\n        \n        if (price> Offerings[ContractMap[id].offeringID].high_coupon_barrier*ethusdt0){\n            // send buyer hight_couponX + X (what is this amount?)\n            buyerGets= ContractMap[id].amount + (Offerings[ContractMap[id].offeringID].high_coupon*ContractMap[id].amount);\n  \n        }\n        else if(Offerings[ContractMap[id].offeringID].Di_barrier_activated= false){\n            \n            //buyer gets lower_coupon*X+X\n            \n            buyerGets= ContractMap[id].amount + (Offerings[ContractMap[id].offeringID].smaller_coupon *ContractMap[id].amount);\n\n            \n        \n        }\n        else {\n            //X= getamount(id,)\n            buyerGets= (ContractMap[id].amount/Offerings[ContractMap[id].offeringID].high_coupon_barrier)/ ethusdt0;    \n        }\n        \n    }\n\n\n}*/\n\n\nfunction offeringsLoader(offering[] memory offeringList, uint usdtPrice) internal {\n\n\nfor (uint i = 0 ; i< offeringList.length ; i++)\n{\nhandleFixing(offeringList[i], usdtPrice);\n}\n\n\n\n}\n\n\nfunction handleFixing (offering memory Offering, uint usdtPrice) internal {\n\n\nuint  contractID = Offering.contractID;\n\n  if (usdtPrice < (Offering.di_barrier* ethusdt0)){\n    Offering.Di_barrier_activated=true;\n    }\n\n\nif(usdtPrice > Offering.Upoutbarrier*ethusdt0){\n\n            \n                uint buyerGets = ContractMap[contractID].amount + Offering.high_coupon*ContractMap[contractID].amount;\n                EndContract( contractID );\n\n        }\n\n\n\n\n}\n\nfunction EndContract ( uint contractID) internal{\n\ndelete ContractMap[contractID];\n\n}\n\n\nfunction depositToWallet () public payable {\nrequire(IssuersMap[msg.sender].issuerAddress==msg.sender || BuyersMap[msg.sender].issuerAddress==msg.sender);\n\nwalletMap[msg.sender].eth += msg.value;\n\nemit getWalletInfo(walletMap[msg.sender]);\n\n}\n\nfunction swapETHFromBuiltInWallet (uint amount)public {\n\nrequire(walletMap[msg.sender].eth >= amount);\nuint deadline = block.timestamp + 100;\n    address[] memory path = new address[](2);\n    path[0] = CoinMap[\"WETH\"];\n    path[1] = CoinMap[\"USDT\"];\n\n//WETH.call{value : amount}(\"\");\nweth.deposit{value : amount}();\nwalletMap[msg.sender]. weth += amount;\nwalletMap[msg.sender] .eth -= amount;\n//IUniswapV2Router(UNISWAP_V2_ROUTER).swapExactETHForTokens {value : amount} (0,path,address(this),deadline);\nemit getWalletInfo(walletMap[msg.sender]);\n\n}\n\n\n\nfunction buyOffering(uint _id) public payable returns(string memory) {\n\n/*struct offeringContract{\n    address buy\n    address issuer;\n    uint amount;\n    uint offeringID;\n    uint contractID;\n}*/\n\n\n\nContractMap[contractCount] = offeringContract(\n    msg.sender,\n    Offerings[_id].issuer,\n    msg.value,\n    _id,\n    contractCount\n);\nOfferings[_id]. contractID = contractCount;\n//emit getContract(ContractMap[contractCount].buyer,ContractMap[contractCount].issuer,ContractMap[contractCount].amount,ContractMap[contractCount].offeringID,ContractMap[contractCount].contractID);\nemit getContract(ContractMap[contractCount]);\ncontractCount+=1;\n\nwalletMap [Offerings[_id].issuer] . eth = msg.value ;\n\n\n//emit getWalletInfo (walletMap [Offerings[_id].issuer]);\n//Offerings[_id]. contractList . append()\n\nreturn aloo;\n\n}\n\nfunction checkCustody(address _issuer, uint tbs) public returns(bool){\n    bool isAllowed= false;\n    uint256 issuerBalance= _issuer.balance;\n    //check all linked offerings to issuer\n\n}\n\n\n\n\nfunction getCount() public view returns(uint count) {\n    return offeringIDList.length;\n}\n\nfunction getContractCount() public view returns (uint count){\n\nreturn contractCount;\n\n}\n\nfunction getContractETH () public view returns (uint){\n\nreturn address(this).balance;\n    \n}\n\nfunction getOfferings () public view returns (offering[] memory){\n\noffering[] memory toReturn= new offering[](offeringIDList.length) ;\n\nfor (uint i = 0 ; i< offeringIDList.length ; i++){\n\ntoReturn [i] = Offerings[i+1];\n\n}\n\nreturn  toReturn; //mapping offerings to ids\n\n}\n\n\nfunction getAllContracts() public view returns (offeringContract[] memory){\n\nofferingContract[] memory toReturn= new offeringContract[](contractCount) ;\n\nfor (uint i = 0 ; i< contractCount ; i++){\n\ntoReturn [i] = ContractMap[i];\n\n}\n\nreturn  toReturn; //mapping offerings to ids\n\n\n}\n\n\n\n// contract's brace\n}\n\n\n",
  "sourcePath": "D:\\projects\\Bounty_1_truffle\\contracts\\YieldOfferings.sol",
  "compiler": {
    "name": "solc",
    "version": "0.8.9+commit.e5eed63a.Emscripten.clang"
  },
  "schemaVersion": "3.4.5",
  "updatedAt": "2022-02-26T23:57:35.083Z",
  "networkType": "ethereum",
  "devdoc": {
    "kind": "dev",
    "methods": {},
    "version": 1
  },
  "userdoc": {
    "kind": "user",
    "methods": {
      "getLatestPrice()": {
        "notice": "Returns the latest price"
      }
    },
    "version": 1
  }
}