{
  "contractName": "YieldOfferings",
  "abi": [
    {
      "anonymous": false,
      "inputs": [
        {
          "indexed": false,
          "internalType": "uint256",
          "name": "ID",
          "type": "uint256"
        },
        {
          "indexed": false,
          "internalType": "string",
          "name": "OfferingName",
          "type": "string"
        },
        {
          "indexed": false,
          "internalType": "address",
          "name": "Issuer",
          "type": "address"
        }
      ],
      "name": "logAddedOffering",
      "type": "event"
    },
    {
      "inputs": [
        {
          "internalType": "uint256",
          "name": "",
          "type": "uint256"
        }
      ],
      "name": "Offerings",
      "outputs": [
        {
          "internalType": "address",
          "name": "issuer",
          "type": "address"
        },
        {
          "internalType": "uint256",
          "name": "ID",
          "type": "uint256"
        },
        {
          "internalType": "string",
          "name": "name",
          "type": "string"
        },
        {
          "internalType": "uint256",
          "name": "Nb_fixings",
          "type": "uint256"
        },
        {
          "internalType": "uint256",
          "name": "fixing_counter",
          "type": "uint256"
        },
        {
          "internalType": "uint256",
          "name": "high_coupon",
          "type": "uint256"
        },
        {
          "internalType": "uint256",
          "name": "high_coupon_barrier",
          "type": "uint256"
        },
        {
          "internalType": "uint256",
          "name": "smaller_coupon",
          "type": "uint256"
        },
        {
          "internalType": "uint256",
          "name": "Upoutbarrier",
          "type": "uint256"
        },
        {
          "internalType": "uint256",
          "name": "di_barrier",
          "type": "uint256"
        },
        {
          "internalType": "bool",
          "name": "Di_barrier_activated",
          "type": "bool"
        }
      ],
      "stateMutability": "view",
      "type": "function"
    },
    {
      "inputs": [
        {
          "internalType": "uint256",
          "name": "",
          "type": "uint256"
        }
      ],
      "name": "offeringIDList",
      "outputs": [
        {
          "internalType": "uint256",
          "name": "",
          "type": "uint256"
        }
      ],
      "stateMutability": "view",
      "type": "function"
    },
    {
      "inputs": [],
      "name": "owner",
      "outputs": [
        {
          "internalType": "address",
          "name": "",
          "type": "address"
        }
      ],
      "stateMutability": "view",
      "type": "function"
    },
    {
      "inputs": [
        {
          "internalType": "address",
          "name": "",
          "type": "address"
        }
      ],
      "name": "wallets",
      "outputs": [
        {
          "internalType": "uint256",
          "name": "usdt",
          "type": "uint256"
        },
        {
          "internalType": "uint256",
          "name": "eth",
          "type": "uint256"
        }
      ],
      "stateMutability": "view",
      "type": "function"
    },
    {
      "inputs": [
        {
          "internalType": "string",
          "name": "_name",
          "type": "string"
        },
        {
          "internalType": "uint256",
          "name": "_Nb_fixings",
          "type": "uint256"
        },
        {
          "internalType": "uint256",
          "name": "_high_coupon",
          "type": "uint256"
        },
        {
          "internalType": "uint256",
          "name": "_high_coupon_barrier",
          "type": "uint256"
        },
        {
          "internalType": "uint256",
          "name": "_smaller_coupon",
          "type": "uint256"
        },
        {
          "internalType": "uint256",
          "name": "_Upoutbarrier",
          "type": "uint256"
        },
        {
          "internalType": "uint256",
          "name": "_di_barrier",
          "type": "uint256"
        }
      ],
      "name": "addOffering",
      "outputs": [],
      "stateMutability": "nonpayable",
      "type": "function"
    },
    {
      "inputs": [
        {
          "internalType": "uint256",
          "name": "id",
          "type": "uint256"
        }
      ],
      "name": "checkPayables",
      "outputs": [
        {
          "internalType": "uint256",
          "name": "",
          "type": "uint256"
        }
      ],
      "stateMutability": "nonpayable",
      "type": "function"
    },
    {
      "inputs": [
        {
          "internalType": "uint256",
          "name": "_id",
          "type": "uint256"
        }
      ],
      "name": "buyOffering",
      "outputs": [],
      "stateMutability": "payable",
      "type": "function"
    },
    {
      "inputs": [
        {
          "internalType": "address",
          "name": "_issuer",
          "type": "address"
        },
        {
          "internalType": "uint256",
          "name": "tbs",
          "type": "uint256"
        }
      ],
      "name": "checkCustody",
      "outputs": [
        {
          "internalType": "bool",
          "name": "",
          "type": "bool"
        }
      ],
      "stateMutability": "nonpayable",
      "type": "function"
    },
    {
      "inputs": [],
      "name": "getCount",
      "outputs": [
        {
          "internalType": "uint256",
          "name": "count",
          "type": "uint256"
        }
      ],
      "stateMutability": "view",
      "type": "function"
    }
  ],
  "bytecode": "0x6080604052336000806101000a81548173ffffffffffffffffffffffffffffffffffffffff021916908373ffffffffffffffffffffffffffffffffffffffff1602179055506000600155600060025560006003556109606006556108fc60075534801561006b57600080fd5b506114988061007b6000396000f3fe6080604052600436106100865760003560e01c80638da5cb5b116100595780638da5cb5b14610169578063a87d942c14610194578063d6a91719146101bf578063da4a01fc146101fc578063f49dd2871461023957610086565b80630bd5d8631461008b5780635d8efce1146100d257806370411c13146100ee57806389b08f111461012b575b600080fd5b34801561009757600080fd5b506100b260048036038101906100ad9190610cd7565b610262565b6040516100c99b9a99989796959493929190610e08565b60405180910390f35b6100ec60048036038101906100e79190610cd7565b610371565b005b3480156100fa57600080fd5b5061011560048036038101906101109190610cd7565b6104dd565b6040516101229190610eba565b60405180910390f35b34801561013757600080fd5b50610152600480360381019061014d9190610f01565b610501565b604051610160929190610f2e565b60405180910390f35b34801561017557600080fd5b5061017e610525565b60405161018b9190610f57565b60405180910390f35b3480156101a057600080fd5b506101a9610549565b6040516101b69190610eba565b60405180910390f35b3480156101cb57600080fd5b506101e660048036038101906101e19190610f72565b610556565b6040516101f39190610fb2565b60405180910390f35b34801561020857600080fd5b50610223600480360381019061021e9190610cd7565b610581565b6040516102309190610eba565b60405180910390f35b34801561024557600080fd5b50610260600480360381019061025b9190611102565b610aa8565b005b60086020528060005260406000206000915090508060000160009054906101000a900473ffffffffffffffffffffffffffffffffffffffff16908060010154908060020180546102b1906111ef565b80601f01602080910402602001604051908101604052809291908181526020018280546102dd906111ef565b801561032a5780601f106102ff5761010080835404028352916020019161032a565b820191906000526020600020905b81548152906001019060200180831161030d57829003601f168201915b50505050509080600301549080600401549080600501549080600601549080600701549080600801549080600901549080600a0160009054906101000a900460ff1690508b565b6040518060a001604052803373ffffffffffffffffffffffffffffffffffffffff1681526020016008600084815260200190815260200160002060000160009054906101000a900473ffffffffffffffffffffffffffffffffffffffff1673ffffffffffffffffffffffffffffffffffffffff168152602001348152602001828152602001600254815250600a6000600254815260200190815260200160002060008201518160000160006101000a81548173ffffffffffffffffffffffffffffffffffffffff021916908373ffffffffffffffffffffffffffffffffffffffff16021790555060208201518160010160006101000a81548173ffffffffffffffffffffffffffffffffffffffff021916908373ffffffffffffffffffffffffffffffffffffffff1602179055506040820151816002015560608201518160030155608082015181600401559050506001600260008282546104d39190611250565b9250508190555050565b600481815481106104ed57600080fd5b906000526020600020016000915090505481565b60096020528060005260406000206000915090508060000154908060010154905082565b60008054906101000a900473ffffffffffffffffffffffffffffffffffffffff1681565b6000600480549050905090565b6000806000905060008473ffffffffffffffffffffffffffffffffffffffff16319050505092915050565b600080600160086000600a600087815260200190815260200160002060030154815260200190815260200160002060040160008282546105c19190611250565b9250508190555060075460086000600a60008781526020019081526020016000206003015481526020019081526020016000206009015461060291906112a6565b600654101561065157600160086000600a6000878152602001908152602001600020600301548152602001908152602001600020600a0160006101000a81548160ff0219169083151502179055505b60086000600a60008681526020019081526020016000206003015481526020019081526020016000206003015460086000600a60008781526020019081526020016000206003015481526020019081526020016000206004015410156108ca5760075460086000600a6000878152602001908152602001600020600301548152602001908152602001600020600801546106eb91906112a6565b600654111561076a57600a60008481526020019081526020016000206002015460086000600a60008781526020019081526020016000206003015481526020019081526020016000206005015461074291906112a6565b600a6000858152602001908152602001600020600201546107639190611250565b90506108c5565b60075460086000600a6000878152602001908152602001600020600301548152602001908152602001600020600601546107a491906112a6565b600654111561080257600a60008481526020019081526020016000206002015460086000600a6000878152602001908152602001600020600301548152602001908152602001600020600501546107fb91906112a6565b90506108c4565b6000151560086000600a6000878152602001908152602001600020600301548152602001908152602001600020600a0160009054906101000a900460ff16151514156108be57600a60008481526020019081526020016000206002015460086000600a60008781526020019081526020016000206003015481526020019081526020016000206007015461089691906112a6565b600a6000858152602001908152602001600020600201546108b79190611250565b90506108c3565b600090505b5b5b610aa2565b60075460086000600a60008781526020019081526020016000206003015481526020019081526020016000206006015461090491906112a6565b600654111561098357600a60008481526020019081526020016000206002015460086000600a60008781526020019081526020016000206003015481526020019081526020016000206005015461095b91906112a6565b600a60008581526020019081526020016000206002015461097c9190611250565b9050610aa1565b600060086000600a6000878152602001908152602001600020600301548152602001908152602001600020600a0160006101000a81548160ff021916908315150217905515610a4257600a60008481526020019081526020016000206002015460086000600a600087815260200190815260200160002060030154815260200190815260200160002060070154610a1a91906112a6565b600a600085815260200190815260200160002060020154610a3b9190611250565b9050610aa0565b60075460086000600a600087815260200190815260200160002060030154815260200190815260200160002060060154600a600086815260200190815260200160002060020154610a93919061132f565b610a9d919061132f565b90505b5b5b50919050565b600060015490506001806000828254610ac19190611250565b92505081905550600080600580549050811015610b50573373ffffffffffffffffffffffffffffffffffffffff1660058281548110610b0357610b02611360565b5b9060005260206000200160009054906101000a900473ffffffffffffffffffffffffffffffffffffffff1673ffffffffffffffffffffffffffffffffffffffff161415610b4f57600191505b5b50600015158115151415610be6576040518060400160405280600081526020016000815250600960003373ffffffffffffffffffffffffffffffffffffffff1673ffffffffffffffffffffffffffffffffffffffff1681526020019081526020016000206000820151816000015560208201518160010155905050600160036000828254610bde9190611250565b925050819055505b7faef28209239eb46794345ac474ae534542292e9b4c88fde49a32a50c8fe9297b6008600084815260200190815260200160002060010154600860008581526020019081526020016000206002016008600086815260200190815260200160002060000160009054906101000a900473ffffffffffffffffffffffffffffffffffffffff16604051610c7a93929190611424565b60405180910390a1505050505050505050565b6000604051905090565b600080fd5b600080fd5b6000819050919050565b610cb481610ca1565b8114610cbf57600080fd5b50565b600081359050610cd181610cab565b92915050565b600060208284031215610ced57610cec610c97565b5b6000610cfb84828501610cc2565b91505092915050565b600073ffffffffffffffffffffffffffffffffffffffff82169050919050565b6000610d2f82610d04565b9050919050565b610d3f81610d24565b82525050565b610d4e81610ca1565b82525050565b600081519050919050565b600082825260208201905092915050565b60005b83811015610d8e578082015181840152602081019050610d73565b83811115610d9d576000848401525b50505050565b6000601f19601f8301169050919050565b6000610dbf82610d54565b610dc98185610d5f565b9350610dd9818560208601610d70565b610de281610da3565b840191505092915050565b60008115159050919050565b610e0281610ded565b82525050565b600061016082019050610e1e600083018e610d36565b610e2b602083018d610d45565b8181036040830152610e3d818c610db4565b9050610e4c606083018b610d45565b610e59608083018a610d45565b610e6660a0830189610d45565b610e7360c0830188610d45565b610e8060e0830187610d45565b610e8e610100830186610d45565b610e9c610120830185610d45565b610eaa610140830184610df9565b9c9b505050505050505050505050565b6000602082019050610ecf6000830184610d45565b92915050565b610ede81610d24565b8114610ee957600080fd5b50565b600081359050610efb81610ed5565b92915050565b600060208284031215610f1757610f16610c97565b5b6000610f2584828501610eec565b91505092915050565b6000604082019050610f436000830185610d45565b610f506020830184610d45565b9392505050565b6000602082019050610f6c6000830184610d36565b92915050565b60008060408385031215610f8957610f88610c97565b5b6000610f9785828601610eec565b9250506020610fa885828601610cc2565b9150509250929050565b6000602082019050610fc76000830184610df9565b92915050565b600080fd5b600080fd5b7f4e487b7100000000000000000000000000000000000000000000000000000000600052604160045260246000fd5b61100f82610da3565b810181811067ffffffffffffffff8211171561102e5761102d610fd7565b5b80604052505050565b6000611041610c8d565b905061104d8282611006565b919050565b600067ffffffffffffffff82111561106d5761106c610fd7565b5b61107682610da3565b9050602081019050919050565b82818337600083830152505050565b60006110a56110a084611052565b611037565b9050828152602081018484840111156110c1576110c0610fd2565b5b6110cc848285611083565b509392505050565b600082601f8301126110e9576110e8610fcd565b5b81356110f9848260208601611092565b91505092915050565b600080600080600080600060e0888a03121561112157611120610c97565b5b600088013567ffffffffffffffff81111561113f5761113e610c9c565b5b61114b8a828b016110d4565b975050602061115c8a828b01610cc2565b965050604061116d8a828b01610cc2565b955050606061117e8a828b01610cc2565b945050608061118f8a828b01610cc2565b93505060a06111a08a828b01610cc2565b92505060c06111b18a828b01610cc2565b91505092959891949750929550565b7f4e487b7100000000000000000000000000000000000000000000000000000000600052602260045260246000fd5b6000600282049050600182168061120757607f821691505b6020821081141561121b5761121a6111c0565b5b50919050565b7f4e487b7100000000000000000000000000000000000000000000000000000000600052601160045260246000fd5b600061125b82610ca1565b915061126683610ca1565b9250827fffffffffffffffffffffffffffffffffffffffffffffffffffffffffffffffff0382111561129b5761129a611221565b5b828201905092915050565b60006112b182610ca1565b91506112bc83610ca1565b9250817fffffffffffffffffffffffffffffffffffffffffffffffffffffffffffffffff04831182151516156112f5576112f4611221565b5b828202905092915050565b7f4e487b7100000000000000000000000000000000000000000000000000000000600052601260045260246000fd5b600061133a82610ca1565b915061134583610ca1565b92508261135557611354611300565b5b828204905092915050565b7f4e487b7100000000000000000000000000000000000000000000000000000000600052603260045260246000fd5b60008190508160005260206000209050919050565b600081546113b1816111ef565b6113bb8186610d5f565b945060018216600081146113d657600181146113e85761141b565b60ff198316865260208601935061141b565b6113f18561138f565b60005b83811015611413578154818901526001820191506020810190506113f4565b808801955050505b50505092915050565b60006060820190506114396000830186610d45565b818103602083015261144b81856113a4565b905061145a6040830184610d36565b94935050505056fea26469706673582212206fa3242c47821d4db3d32dc46cd234fdfd6f30a2433a13019bb1d05b6598dc5a64736f6c63430008090033",
  "immutableReferences": {},
  "source": "pragma solidity 0.8.9;\n\ncontract YieldOfferings {\n   \naddress public owner = msg.sender; // contract owner\n // will be used in logic\nuint offeringCount = 0; // keep track of all number\nuint contractCount=0;\nuint walletCount=0;\nuint[] public offeringIDList; // all ids list\naddress[] walletOwners;\n\n//mapping (address=> bool) public hasWallet;\n\n//hasWallet[key] \n\n\n\nuint price= 2400;\nuint ethusdt0= 2300;\n\nmapping (uint => offering) public Offerings; //mapping offerings to ids\nmapping (address => wallet) public wallets;\nmapping(uint => offeringContract) ContractMap;\n\nstruct wallet {\nuint usdt;\nuint eth;\n}\n\nstruct buyer {\n    address buyerAddress;\n\n    offering[] offerings;\n    uint[] ContractsIds;\n    uint[] offeringIDList;\n}\n\nstruct issuer {\n    address issuerAddress;\n    //uint256 balance;\n    uint256 accountPayable;\n    offering[] offerings;\n    uint[] ContractsIds;\n    bool hasWallet;\n}\n\nstruct offeringContract{\n    address buyer;\n    address issuer;\n    uint amount;\n    uint offeringID;\n    uint contractID;\n}\n\nstruct offering{\n    address issuer;\n    uint ID;\n    string name;\n    uint Nb_fixings;\n    uint fixing_counter;\n    uint high_coupon;\n    uint high_coupon_barrier;\n    uint smaller_coupon;\n    uint Upoutbarrier;\n    uint di_barrier;\n    bool Di_barrier_activated;\n}\n\n\nevent logAddedOffering(uint  ID, string  OfferingName, address  Issuer);\n\n// function to add a new offering \nfunction addOffering(\n    string memory _name,\n    uint _Nb_fixings,\n    uint _high_coupon,\n    uint _high_coupon_barrier,\n    uint _smaller_coupon,\n    uint _Upoutbarrier,\n    uint _di_barrier) public{\n    \n    uint newID = offeringCount;\n    offeringCount+= 1;\n    \n\n    bool ownsWallet= false ;\n    for (uint i=0; i< walletOwners.length; i++){\n        if (walletOwners[i] == msg.sender)\n        ownsWallet= true;\n        break;\n    }\n\n    if (ownsWallet== false){\n        wallets[msg.sender]= wallet(0,0);\n        walletCount +=1;\n    }\n\nemit logAddedOffering(Offerings[newID].ID, Offerings[newID].name, Offerings[newID].issuer);\n    \n}\n/////// BUY BACK PART /////////\n// how will we know the agreed on price?\n// how will the issuer fail to pay a coupon?\n\nfunction checkPayables(uint256 id) public returns(uint){\n    uint buyerGets;\n    Offerings[ContractMap[id].offeringID].fixing_counter+=1;\n    if (price< (Offerings[ContractMap[id].offeringID].di_barrier* ethusdt0)){\n    Offerings[ContractMap[id].offeringID].Di_barrier_activated=true;\n    }\n\n\n    // if not last fixing\n    if (Offerings[ContractMap[id].offeringID].fixing_counter< Offerings[ContractMap[id].offeringID].Nb_fixings){\n        if(price > Offerings[ContractMap[id].offeringID].Upoutbarrier*ethusdt0){\n            // send amount X to buyer+ high_coupon X\n            buyerGets= ContractMap[id].amount + (Offerings[ContractMap[id].offeringID].high_coupon*ContractMap[id].amount);\n        }\n        else if (price> Offerings[ContractMap[id].offeringID].high_coupon_barrier*ethusdt0){\n            // send buyer hight_couponX\n            buyerGets= Offerings[ContractMap[id].offeringID].high_coupon*ContractMap[id].amount;\n\n        }\n        else if (Offerings[ContractMap[id].offeringID].Di_barrier_activated== false){\n            //buyer get smaller_couponX\n            buyerGets= ContractMap[id].amount + Offerings[ContractMap[id].offeringID].smaller_coupon * ContractMap[id].amount;\n\n        }\n        else {\n            // buyer gets nothing\n            buyerGets=0;\n        }\n    }\n\n    else{\n        \n        if (price> Offerings[ContractMap[id].offeringID].high_coupon_barrier*ethusdt0){\n            // send buyer hight_couponX + X (what is this amount?)\n            buyerGets= ContractMap[id].amount + (Offerings[ContractMap[id].offeringID].high_coupon*ContractMap[id].amount);\n  \n        }\n        else if(Offerings[ContractMap[id].offeringID].Di_barrier_activated= false){\n            \n            //buyer gets lower_coupon*X+X\n            \n            buyerGets= ContractMap[id].amount + (Offerings[ContractMap[id].offeringID].smaller_coupon *ContractMap[id].amount);\n\n            \n        \n        }\n        else {\n            //X= getamount(id,)\n            buyerGets= (ContractMap[id].amount/Offerings[ContractMap[id].offeringID].high_coupon_barrier)/ ethusdt0;    \n        }\n        \n    }\n\n\n}\n\nfunction buyOffering(uint _id) public payable {\n\nContractMap[contractCount] = offeringContract(\n    msg.sender,\n    Offerings[_id].issuer,\n    msg.value,\n    _id,\n    contractCount\n);\ncontractCount+=1;\n}\n\nfunction checkCustody(address _issuer, uint tbs) public returns(bool){\n    bool isAllowed= false;\n    uint256 issuerBalance= _issuer.balance;\n    //check all linked offerings to issuer\n\n}\n\nfunction getCount() public view returns(uint count) {\n    return offeringIDList.length;\n}\n\n\n// contract's brace\n}\n\n\n\n",
  "sourcePath": "D:\\projects\\Bounty_1_truffle\\contracts\\YieldOfferings.sol",
  "compiler": {
    "name": "solc",
    "version": "0.8.9+commit.e5eed63a.Emscripten.clang"
  },
  "schemaVersion": "3.4.4",
  "updatedAt": "2022-02-18T12:52:19.419Z",
  "devdoc": {
    "kind": "dev",
    "methods": {},
    "version": 1
  },
  "userdoc": {
    "kind": "user",
    "methods": {},
    "version": 1
  }
}