{
  "contractName": "YieldOfferings",
  "abi": [
    {
      "inputs": [
        {
          "internalType": "uint256",
          "name": "",
          "type": "uint256"
        }
      ],
      "name": "Offerings",
      "outputs": [
        {
          "internalType": "address",
          "name": "issuer",
          "type": "address"
        },
        {
          "internalType": "uint256",
          "name": "ID",
          "type": "uint256"
        },
        {
          "internalType": "string",
          "name": "name",
          "type": "string"
        },
        {
          "internalType": "uint256",
          "name": "Nb_fixings",
          "type": "uint256"
        },
        {
          "internalType": "uint256",
          "name": "fixing_counter",
          "type": "uint256"
        },
        {
          "internalType": "uint256",
          "name": "high_coupon",
          "type": "uint256"
        },
        {
          "internalType": "uint256",
          "name": "high_coupon_barrier",
          "type": "uint256"
        },
        {
          "internalType": "uint256",
          "name": "smaller_coupon",
          "type": "uint256"
        },
        {
          "internalType": "uint256",
          "name": "Upoutbarrier",
          "type": "uint256"
        },
        {
          "internalType": "uint256",
          "name": "di_barrier",
          "type": "uint256"
        },
        {
          "internalType": "bool",
          "name": "Di_barrier_activated",
          "type": "bool"
        }
      ],
      "stateMutability": "view",
      "type": "function"
    },
    {
      "inputs": [],
      "name": "owner",
      "outputs": [
        {
          "internalType": "address",
          "name": "",
          "type": "address"
        }
      ],
      "stateMutability": "view",
      "type": "function"
    },
    {
      "inputs": [
        {
          "internalType": "address",
          "name": "",
          "type": "address"
        }
      ],
      "name": "wallets",
      "outputs": [
        {
          "internalType": "uint256",
          "name": "usdt",
          "type": "uint256"
        },
        {
          "internalType": "uint256",
          "name": "eth",
          "type": "uint256"
        }
      ],
      "stateMutability": "view",
      "type": "function"
    },
    {
      "inputs": [
        {
          "internalType": "string",
          "name": "_name",
          "type": "string"
        },
        {
          "internalType": "uint256",
          "name": "_Nb_fixings",
          "type": "uint256"
        },
        {
          "internalType": "uint256",
          "name": "_high_coupon",
          "type": "uint256"
        },
        {
          "internalType": "uint256",
          "name": "_high_coupon_barrier",
          "type": "uint256"
        },
        {
          "internalType": "uint256",
          "name": "_smaller_coupon",
          "type": "uint256"
        },
        {
          "internalType": "uint256",
          "name": "_Upoutbarrier",
          "type": "uint256"
        },
        {
          "internalType": "uint256",
          "name": "_di_barrier",
          "type": "uint256"
        }
      ],
      "name": "addOffering",
      "outputs": [],
      "stateMutability": "nonpayable",
      "type": "function"
    },
    {
      "inputs": [
        {
          "internalType": "uint256",
          "name": "id",
          "type": "uint256"
        }
      ],
      "name": "checkPayables",
      "outputs": [
        {
          "internalType": "uint256",
          "name": "",
          "type": "uint256"
        }
      ],
      "stateMutability": "nonpayable",
      "type": "function"
    },
    {
      "inputs": [
        {
          "internalType": "uint256",
          "name": "_id",
          "type": "uint256"
        }
      ],
      "name": "buyOffering",
      "outputs": [],
      "stateMutability": "payable",
      "type": "function"
    },
    {
      "inputs": [
        {
          "internalType": "address",
          "name": "_issuer",
          "type": "address"
        },
        {
          "internalType": "uint256",
          "name": "tbs",
          "type": "uint256"
        }
      ],
      "name": "checkCustody",
      "outputs": [
        {
          "internalType": "bool",
          "name": "",
          "type": "bool"
        }
      ],
      "stateMutability": "nonpayable",
      "type": "function"
    }
  ],
  "bytecode": "0x6080604052336000806101000a81548173ffffffffffffffffffffffffffffffffffffffff021916908373ffffffffffffffffffffffffffffffffffffffff1602179055506000600155600060025560006003556107d06006556108fc60075534801561006b57600080fd5b506115548061007b6000396000f3fe6080604052600436106100705760003560e01c80638da5cb5b1161004e5780638da5cb5b14610116578063d6a9171914610141578063da4a01fc1461017e578063f49dd287146101bb57610070565b80630bd5d863146100755780635d8efce1146100bc57806389b08f11146100d8575b600080fd5b34801561008157600080fd5b5061009c60048036038101906100979190610dfa565b6101e4565b6040516100b39b9a99989796959493929190610f2b565b60405180910390f35b6100d660048036038101906100d19190610dfa565b6102f3565b005b3480156100e457600080fd5b506100ff60048036038101906100fa9190611009565b61045f565b60405161010d929190611036565b60405180910390f35b34801561012257600080fd5b5061012b610483565b604051610138919061105f565b60405180910390f35b34801561014d57600080fd5b506101686004803603810190610163919061107a565b6104a7565b60405161017591906110ba565b60405180910390f35b34801561018a57600080fd5b506101a560048036038101906101a09190610dfa565b6104d2565b6040516101b291906110d5565b60405180910390f35b3480156101c757600080fd5b506101e260048036038101906101dd9190611225565b6109f9565b005b60086020528060005260406000206000915090508060000160009054906101000a900473ffffffffffffffffffffffffffffffffffffffff169080600101549080600201805461023390611312565b80601f016020809104026020016040519081016040528092919081815260200182805461025f90611312565b80156102ac5780601f10610281576101008083540402835291602001916102ac565b820191906000526020600020905b81548152906001019060200180831161028f57829003601f168201915b50505050509080600301549080600401549080600501549080600601549080600701549080600801549080600901549080600a0160009054906101000a900460ff1690508b565b6040518060a001604052803373ffffffffffffffffffffffffffffffffffffffff1681526020016008600084815260200190815260200160002060000160009054906101000a900473ffffffffffffffffffffffffffffffffffffffff1673ffffffffffffffffffffffffffffffffffffffff168152602001348152602001828152602001600254815250600a6000600254815260200190815260200160002060008201518160000160006101000a81548173ffffffffffffffffffffffffffffffffffffffff021916908373ffffffffffffffffffffffffffffffffffffffff16021790555060208201518160010160006101000a81548173ffffffffffffffffffffffffffffffffffffffff021916908373ffffffffffffffffffffffffffffffffffffffff1602179055506040820151816002015560608201518160030155608082015181600401559050506001600260008282546104559190611373565b9250508190555050565b60096020528060005260406000206000915090508060000154908060010154905082565b60008054906101000a900473ffffffffffffffffffffffffffffffffffffffff1681565b6000806000905060008473ffffffffffffffffffffffffffffffffffffffff16319050505092915050565b600080600160086000600a600087815260200190815260200160002060030154815260200190815260200160002060040160008282546105129190611373565b9250508190555060075460086000600a60008781526020019081526020016000206003015481526020019081526020016000206009015461055391906113c9565b60065410156105a257600160086000600a6000878152602001908152602001600020600301548152602001908152602001600020600a0160006101000a81548160ff0219169083151502179055505b60086000600a60008681526020019081526020016000206003015481526020019081526020016000206003015460086000600a600087815260200190815260200160002060030154815260200190815260200160002060040154101561081b5760075460086000600a60008781526020019081526020016000206003015481526020019081526020016000206008015461063c91906113c9565b60065411156106bb57600a60008481526020019081526020016000206002015460086000600a60008781526020019081526020016000206003015481526020019081526020016000206005015461069391906113c9565b600a6000858152602001908152602001600020600201546106b49190611373565b9050610816565b60075460086000600a6000878152602001908152602001600020600301548152602001908152602001600020600601546106f591906113c9565b600654111561075357600a60008481526020019081526020016000206002015460086000600a60008781526020019081526020016000206003015481526020019081526020016000206005015461074c91906113c9565b9050610815565b6000151560086000600a6000878152602001908152602001600020600301548152602001908152602001600020600a0160009054906101000a900460ff161515141561080f57600a60008481526020019081526020016000206002015460086000600a6000878152602001908152602001600020600301548152602001908152602001600020600701546107e791906113c9565b600a6000858152602001908152602001600020600201546108089190611373565b9050610814565b600090505b5b5b6109f3565b60075460086000600a60008781526020019081526020016000206003015481526020019081526020016000206006015461085591906113c9565b60065411156108d457600a60008481526020019081526020016000206002015460086000600a6000878152602001908152602001600020600301548152602001908152602001600020600501546108ac91906113c9565b600a6000858152602001908152602001600020600201546108cd9190611373565b90506109f2565b600060086000600a6000878152602001908152602001600020600301548152602001908152602001600020600a0160006101000a81548160ff02191690831515021790551561099357600a60008481526020019081526020016000206002015460086000600a60008781526020019081526020016000206003015481526020019081526020016000206007015461096b91906113c9565b600a60008581526020019081526020016000206002015461098c9190611373565b90506109f1565b60075460086000600a600087815260200190815260200160002060030154815260200190815260200160002060060154600a6000868152602001908152602001600020600201546109e49190611452565b6109ee9190611452565b90505b5b5b50919050565b6000875111610a3d576040517f08c379a0000000000000000000000000000000000000000000000000000000008152600401610a34906114cf565b60405180910390fd5b600060018054610a4d9190611373565b905060048190806001815401808255809150506001900390600052602060002001600090919091909150556040518061016001604052803373ffffffffffffffffffffffffffffffffffffffff16815260200182815260200189815260200188815260200160008152602001878152602001868152602001858152602001848152602001838152602001600015158152506008600083815260200190815260200160002060008201518160000160006101000a81548173ffffffffffffffffffffffffffffffffffffffff021916908373ffffffffffffffffffffffffffffffffffffffff160217905550602082015181600101556040820151816002019080519060200190610b5e929190610d0d565b50606082015181600301556080820151816004015560a0820151816005015560c0820151816006015560e082015181600701556101008201518160080155610120820151816009015561014082015181600a0160006101000a81548160ff0219169083151502179055509050506001806000828254610bdd9190611373565b92505081905550600080600580549050811015610c6c573373ffffffffffffffffffffffffffffffffffffffff1660058281548110610c1f57610c1e6114ef565b5b9060005260206000200160009054906101000a900473ffffffffffffffffffffffffffffffffffffffff1673ffffffffffffffffffffffffffffffffffffffff161415610c6b57600191505b5b50600015158115151415610d02576040518060400160405280600081526020016000815250600960003373ffffffffffffffffffffffffffffffffffffffff1673ffffffffffffffffffffffffffffffffffffffff1681526020019081526020016000206000820151816000015560208201518160010155905050600160036000828254610cfa9190611373565b925050819055505b505050505050505050565b828054610d1990611312565b90600052602060002090601f016020900481019282610d3b5760008555610d82565b82601f10610d5457805160ff1916838001178555610d82565b82800160010185558215610d82579182015b82811115610d81578251825591602001919060010190610d66565b5b509050610d8f9190610d93565b5090565b5b80821115610dac576000816000905550600101610d94565b5090565b6000604051905090565b600080fd5b600080fd5b6000819050919050565b610dd781610dc4565b8114610de257600080fd5b50565b600081359050610df481610dce565b92915050565b600060208284031215610e1057610e0f610dba565b5b6000610e1e84828501610de5565b91505092915050565b600073ffffffffffffffffffffffffffffffffffffffff82169050919050565b6000610e5282610e27565b9050919050565b610e6281610e47565b82525050565b610e7181610dc4565b82525050565b600081519050919050565b600082825260208201905092915050565b60005b83811015610eb1578082015181840152602081019050610e96565b83811115610ec0576000848401525b50505050565b6000601f19601f8301169050919050565b6000610ee282610e77565b610eec8185610e82565b9350610efc818560208601610e93565b610f0581610ec6565b840191505092915050565b60008115159050919050565b610f2581610f10565b82525050565b600061016082019050610f41600083018e610e59565b610f4e602083018d610e68565b8181036040830152610f60818c610ed7565b9050610f6f606083018b610e68565b610f7c608083018a610e68565b610f8960a0830189610e68565b610f9660c0830188610e68565b610fa360e0830187610e68565b610fb1610100830186610e68565b610fbf610120830185610e68565b610fcd610140830184610f1c565b9c9b505050505050505050505050565b610fe681610e47565b8114610ff157600080fd5b50565b60008135905061100381610fdd565b92915050565b60006020828403121561101f5761101e610dba565b5b600061102d84828501610ff4565b91505092915050565b600060408201905061104b6000830185610e68565b6110586020830184610e68565b9392505050565b60006020820190506110746000830184610e59565b92915050565b6000806040838503121561109157611090610dba565b5b600061109f85828601610ff4565b92505060206110b085828601610de5565b9150509250929050565b60006020820190506110cf6000830184610f1c565b92915050565b60006020820190506110ea6000830184610e68565b92915050565b600080fd5b600080fd5b7f4e487b7100000000000000000000000000000000000000000000000000000000600052604160045260246000fd5b61113282610ec6565b810181811067ffffffffffffffff82111715611151576111506110fa565b5b80604052505050565b6000611164610db0565b90506111708282611129565b919050565b600067ffffffffffffffff8211156111905761118f6110fa565b5b61119982610ec6565b9050602081019050919050565b82818337600083830152505050565b60006111c86111c384611175565b61115a565b9050828152602081018484840111156111e4576111e36110f5565b5b6111ef8482856111a6565b509392505050565b600082601f83011261120c5761120b6110f0565b5b813561121c8482602086016111b5565b91505092915050565b600080600080600080600060e0888a03121561124457611243610dba565b5b600088013567ffffffffffffffff81111561126257611261610dbf565b5b61126e8a828b016111f7565b975050602061127f8a828b01610de5565b96505060406112908a828b01610de5565b95505060606112a18a828b01610de5565b94505060806112b28a828b01610de5565b93505060a06112c38a828b01610de5565b92505060c06112d48a828b01610de5565b91505092959891949750929550565b7f4e487b7100000000000000000000000000000000000000000000000000000000600052602260045260246000fd5b6000600282049050600182168061132a57607f821691505b6020821081141561133e5761133d6112e3565b5b50919050565b7f4e487b7100000000000000000000000000000000000000000000000000000000600052601160045260246000fd5b600061137e82610dc4565b915061138983610dc4565b9250827fffffffffffffffffffffffffffffffffffffffffffffffffffffffffffffffff038211156113be576113bd611344565b5b828201905092915050565b60006113d482610dc4565b91506113df83610dc4565b9250817fffffffffffffffffffffffffffffffffffffffffffffffffffffffffffffffff048311821515161561141857611417611344565b5b828202905092915050565b7f4e487b7100000000000000000000000000000000000000000000000000000000600052601260045260246000fd5b600061145d82610dc4565b915061146883610dc4565b92508261147857611477611423565b5b828204905092915050565b7f6e616d652063616e6e6f7420626576616c20656d707479000000000000000000600082015250565b60006114b9601783610e82565b91506114c482611483565b602082019050919050565b600060208201905081810360008301526114e8816114ac565b9050919050565b7f4e487b7100000000000000000000000000000000000000000000000000000000600052603260045260246000fdfea2646970667358221220f7d9dee7fe0b9aaa082752c598912705a9b19de0f1bc80a4387117f3bc5792fc64736f6c63430008090033",
  "immutableReferences": {},
  "source": "pragma solidity 0.8.9;\r\n\r\ncontract YieldOfferings {\r\n   \r\naddress public owner = msg.sender; // contract owner\r\n // will be used in logic\r\nuint offeringCount=0; // keep track of all number\r\nuint contractCount=0;\r\nuint walletCount=0;\r\nuint[] IDList; // all ids list\r\naddress[] walletOwners;\r\nuint price= 2000;\r\nuint ethusdt0= 2300;\r\n\r\nmapping (uint => offering) public Offerings; //mapping offerings to ids\r\nmapping (address => wallet) public wallets;\r\nmapping(uint => offeringContract) ContractMap;\r\n\r\nstruct wallet {\r\nuint usdt;\r\nuint eth;\r\n}\r\n\r\nstruct buyer {\r\n    address buyerAddress;\r\n    offering[] offerings;\r\n    uint[] ContractsIds;\r\n}\r\n\r\nstruct issuer {\r\n    address issuerAddress;\r\n    uint256 balance;\r\n    uint256 accountPayable;\r\n    offering[] offerings;\r\n    uint[] ContractsIds;\r\n}\r\n\r\nstruct offeringContract{\r\n    address buyer;\r\n    address issuer;\r\n    uint amount;\r\n    uint offeringID;\r\n    uint contractID;\r\n}\r\n\r\nstruct offering{\r\n    address issuer;\r\n    uint ID;\r\n    string name;\r\n    uint Nb_fixings;\r\n    uint fixing_counter;\r\n    uint high_coupon;\r\n    uint high_coupon_barrier;\r\n    uint smaller_coupon;\r\n    uint Upoutbarrier;\r\n    uint di_barrier;\r\n    bool Di_barrier_activated;\r\n}\r\n\r\n\r\n\r\n// function to add a new offering \r\nfunction addOffering(\r\n    string memory _name,\r\n    uint _Nb_fixings,\r\n    uint _high_coupon,\r\n    uint _high_coupon_barrier,\r\n    uint _smaller_coupon,\r\n    uint _Upoutbarrier,\r\n    uint _di_barrier) public{\r\n    \r\n    require(bytes(_name).length>0, \"name cannot beval empty\");\r\n\r\n    uint newID= offeringCount + 1;\r\n    \r\n    //newCampaign.deadline= block.timestamp + (_duration * 1 days);\r\n    IDList.push(newID);\r\n    Offerings[newID] = offering(msg.sender, \r\n     newID, \r\n     _name,\r\n     _Nb_fixings,\r\n     0,\r\n     _high_coupon,\r\n     _high_coupon_barrier,\r\n     _smaller_coupon,\r\n     _Upoutbarrier,\r\n     _di_barrier,\r\n      false);\r\n    \r\n    offeringCount+= 1;\r\n\r\n    bool ownsWallet= false;\r\n    for (uint i=0; i< walletOwners.length; i++){\r\n        if (walletOwners[i] == msg.sender)\r\n        ownsWallet= true;\r\n        break;\r\n    }\r\n\r\n    if (ownsWallet== false){\r\n        wallets[msg.sender]= wallet(0,0);\r\n        walletCount +=1;\r\n    }\r\n}\r\n\r\n\r\n\r\n\r\n/////// BUY BACK PART /////////\r\n// how will we know the agreed on price?\r\n// how will the issuer fail to pay a coupon?\r\n\r\nfunction checkPayables(uint256 id) public returns(uint){\r\n    uint buyerGets;\r\n    Offerings[ContractMap[id].offeringID].fixing_counter+=1;\r\n    if (price< (Offerings[ContractMap[id].offeringID].di_barrier* ethusdt0)){\r\n    Offerings[ContractMap[id].offeringID].Di_barrier_activated=true;\r\n    }\r\n\r\n\r\n    // if not last fixing\r\n    if (Offerings[ContractMap[id].offeringID].fixing_counter< Offerings[ContractMap[id].offeringID].Nb_fixings){\r\n        if(price > Offerings[ContractMap[id].offeringID].Upoutbarrier*ethusdt0){\r\n            // send amount X to buyer+ high_coupon X\r\n            buyerGets= ContractMap[id].amount + (Offerings[ContractMap[id].offeringID].high_coupon*ContractMap[id].amount);\r\n        }\r\n        else if (price> Offerings[ContractMap[id].offeringID].high_coupon_barrier*ethusdt0){\r\n            // send buyer hight_couponX\r\n            buyerGets= Offerings[ContractMap[id].offeringID].high_coupon*ContractMap[id].amount;\r\n\r\n        }\r\n        else if (Offerings[ContractMap[id].offeringID].Di_barrier_activated== false){\r\n            //buyer get smaller_couponX\r\n            buyerGets= ContractMap[id].amount + Offerings[ContractMap[id].offeringID].smaller_coupon * ContractMap[id].amount;\r\n\r\n        }\r\n        else {\r\n            // buyer gets nothing\r\n            buyerGets=0;\r\n        }\r\n    }\r\n\r\n    else{\r\n        \r\n        if (price> Offerings[ContractMap[id].offeringID].high_coupon_barrier*ethusdt0){\r\n            // send buyer hight_couponX + X (what is this amount?)\r\n            buyerGets= ContractMap[id].amount + (Offerings[ContractMap[id].offeringID].high_coupon*ContractMap[id].amount);\r\n  \r\n        }\r\n        else if(Offerings[ContractMap[id].offeringID].Di_barrier_activated= false){\r\n            \r\n            //buyer gets lower_coupon*X+X\r\n            \r\n            buyerGets= ContractMap[id].amount + (Offerings[ContractMap[id].offeringID].smaller_coupon *ContractMap[id].amount);\r\n\r\n            \r\n        \r\n        }\r\n        else {\r\n            //X= getamount(id,)\r\n            buyerGets= (ContractMap[id].amount/Offerings[ContractMap[id].offeringID].high_coupon_barrier)/ ethusdt0;    \r\n        }\r\n        \r\n    }\r\n\r\n\r\n}\r\n\r\nfunction buyOffering(uint _id) public payable {\r\n\r\nContractMap[contractCount] = offeringContract(\r\n    msg.sender,\r\n    Offerings[_id].issuer,\r\n    msg.value,\r\n    _id,\r\n    contractCount\r\n);\r\ncontractCount+=1;\r\n}\r\n\r\nfunction checkCustody(address _issuer, uint tbs) public returns(bool){\r\n    bool isAllowed= false;\r\n    uint256 issuerBalance= _issuer.balance;\r\n    //check all linked offerings to issuer\r\n\r\n}\r\n\r\n\r\n// contract's brace\r\n}\r\n\r\n\r\n\r\n",
  "sourcePath": "D:\\projects\\Bounty_1_truffle\\contracts\\YeildOfferings.sol",
  "compiler": {
    "name": "solc",
    "version": "0.8.9+commit.e5eed63a.Emscripten.clang"
  },
  "schemaVersion": "3.4.4",
  "updatedAt": "2022-02-15T21:37:23.081Z",
  "devdoc": {
    "kind": "dev",
    "methods": {},
    "version": 1
  },
  "userdoc": {
    "kind": "user",
    "methods": {},
    "version": 1
  }
}