{
  "contractName": "YieldOfferings",
  "abi": [
    {
      "inputs": [],
      "stateMutability": "nonpayable",
      "type": "constructor"
    },
    {
      "anonymous": false,
      "inputs": [
        {
          "components": [
            {
              "internalType": "address",
              "name": "buyer",
              "type": "address"
            },
            {
              "internalType": "address",
              "name": "issuer",
              "type": "address"
            },
            {
              "internalType": "uint256",
              "name": "amount",
              "type": "uint256"
            },
            {
              "internalType": "uint256",
              "name": "offeringID",
              "type": "uint256"
            },
            {
              "internalType": "uint256",
              "name": "contractID",
              "type": "uint256"
            },
            {
              "internalType": "int256",
              "name": "ethusdt0",
              "type": "int256"
            }
          ],
          "indexed": false,
          "internalType": "struct YieldOfferings.offeringContract",
          "name": "",
          "type": "tuple"
        }
      ],
      "name": "getContract",
      "type": "event"
    },
    {
      "anonymous": false,
      "inputs": [
        {
          "components": [
            {
              "internalType": "address",
              "name": "issuerAddress",
              "type": "address"
            },
            {
              "internalType": "uint256[]",
              "name": "offeringsList",
              "type": "uint256[]"
            }
          ],
          "indexed": false,
          "internalType": "struct YieldOfferings.issuer",
          "name": "",
          "type": "tuple"
        }
      ],
      "name": "getIssuer",
      "type": "event"
    },
    {
      "anonymous": false,
      "inputs": [
        {
          "components": [
            {
              "internalType": "uint256",
              "name": "usdt",
              "type": "uint256"
            },
            {
              "internalType": "uint256",
              "name": "eth",
              "type": "uint256"
            },
            {
              "internalType": "uint256",
              "name": "weth",
              "type": "uint256"
            }
          ],
          "indexed": false,
          "internalType": "struct YieldOfferings.wallet",
          "name": "",
          "type": "tuple"
        }
      ],
      "name": "getWalletInfo",
      "type": "event"
    },
    {
      "anonymous": false,
      "inputs": [
        {
          "components": [
            {
              "internalType": "address",
              "name": "issuer",
              "type": "address"
            },
            {
              "internalType": "uint256",
              "name": "ID",
              "type": "uint256"
            },
            {
              "internalType": "string",
              "name": "name",
              "type": "string"
            },
            {
              "internalType": "uint256",
              "name": "fixing_counter",
              "type": "uint256"
            },
            {
              "internalType": "bool",
              "name": "Di_barrier_activated",
              "type": "bool"
            },
            {
              "internalType": "uint256",
              "name": "contractID",
              "type": "uint256"
            },
            {
              "internalType": "string",
              "name": "fixing_duration",
              "type": "string"
            },
            {
              "internalType": "uint256[]",
              "name": "attributes",
              "type": "uint256[]"
            }
          ],
          "indexed": false,
          "internalType": "struct YieldOfferings.offering",
          "name": "",
          "type": "tuple"
        }
      ],
      "name": "logAddedOffering",
      "type": "event"
    },
    {
      "inputs": [
        {
          "internalType": "address",
          "name": "",
          "type": "address"
        }
      ],
      "name": "BuyersMap",
      "outputs": [
        {
          "internalType": "address",
          "name": "issuerAddress",
          "type": "address"
        }
      ],
      "stateMutability": "view",
      "type": "function"
    },
    {
      "inputs": [
        {
          "internalType": "uint256",
          "name": "",
          "type": "uint256"
        }
      ],
      "name": "Offerings",
      "outputs": [
        {
          "internalType": "address",
          "name": "issuer",
          "type": "address"
        },
        {
          "internalType": "uint256",
          "name": "ID",
          "type": "uint256"
        },
        {
          "internalType": "string",
          "name": "name",
          "type": "string"
        },
        {
          "internalType": "uint256",
          "name": "fixing_counter",
          "type": "uint256"
        },
        {
          "internalType": "bool",
          "name": "Di_barrier_activated",
          "type": "bool"
        },
        {
          "internalType": "uint256",
          "name": "contractID",
          "type": "uint256"
        },
        {
          "internalType": "string",
          "name": "fixing_duration",
          "type": "string"
        }
      ],
      "stateMutability": "view",
      "type": "function"
    },
    {
      "inputs": [
        {
          "internalType": "address",
          "name": "_tokenIn",
          "type": "address"
        },
        {
          "internalType": "uint256",
          "name": "_amountIn",
          "type": "uint256"
        }
      ],
      "name": "depositerc20",
      "outputs": [],
      "stateMutability": "nonpayable",
      "type": "function"
    },
    {
      "inputs": [
        {
          "internalType": "address",
          "name": "_tokenIn",
          "type": "address"
        },
        {
          "internalType": "address",
          "name": "_tokenOut",
          "type": "address"
        },
        {
          "internalType": "uint256",
          "name": "_amountIn",
          "type": "uint256"
        }
      ],
      "name": "getAmountOutMin",
      "outputs": [
        {
          "internalType": "uint256",
          "name": "",
          "type": "uint256"
        }
      ],
      "stateMutability": "view",
      "type": "function"
    },
    {
      "inputs": [],
      "name": "getDaiBalance",
      "outputs": [
        {
          "internalType": "uint256",
          "name": "",
          "type": "uint256"
        }
      ],
      "stateMutability": "view",
      "type": "function"
    },
    {
      "inputs": [
        {
          "internalType": "uint256",
          "name": "timestamp",
          "type": "uint256"
        }
      ],
      "name": "getDay",
      "outputs": [
        {
          "internalType": "uint8",
          "name": "",
          "type": "uint8"
        }
      ],
      "stateMutability": "pure",
      "type": "function"
    },
    {
      "inputs": [
        {
          "internalType": "uint8",
          "name": "month",
          "type": "uint8"
        },
        {
          "internalType": "uint16",
          "name": "year",
          "type": "uint16"
        }
      ],
      "name": "getDaysInMonth",
      "outputs": [
        {
          "internalType": "uint8",
          "name": "",
          "type": "uint8"
        }
      ],
      "stateMutability": "pure",
      "type": "function"
    },
    {
      "inputs": [
        {
          "internalType": "uint256",
          "name": "timestamp",
          "type": "uint256"
        }
      ],
      "name": "getHour",
      "outputs": [
        {
          "internalType": "uint8",
          "name": "",
          "type": "uint8"
        }
      ],
      "stateMutability": "pure",
      "type": "function"
    },
    {
      "inputs": [],
      "name": "getLatestPrice",
      "outputs": [
        {
          "internalType": "int256",
          "name": "",
          "type": "int256"
        }
      ],
      "stateMutability": "view",
      "type": "function"
    },
    {
      "inputs": [
        {
          "internalType": "uint256",
          "name": "timestamp",
          "type": "uint256"
        }
      ],
      "name": "getMinute",
      "outputs": [
        {
          "internalType": "uint8",
          "name": "",
          "type": "uint8"
        }
      ],
      "stateMutability": "pure",
      "type": "function"
    },
    {
      "inputs": [
        {
          "internalType": "uint256",
          "name": "timestamp",
          "type": "uint256"
        }
      ],
      "name": "getMonth",
      "outputs": [
        {
          "internalType": "uint8",
          "name": "",
          "type": "uint8"
        }
      ],
      "stateMutability": "pure",
      "type": "function"
    },
    {
      "inputs": [
        {
          "internalType": "uint256",
          "name": "timestamp",
          "type": "uint256"
        }
      ],
      "name": "getSecond",
      "outputs": [
        {
          "internalType": "uint8",
          "name": "",
          "type": "uint8"
        }
      ],
      "stateMutability": "pure",
      "type": "function"
    },
    {
      "inputs": [],
      "name": "getUSDTBalance",
      "outputs": [
        {
          "internalType": "uint256",
          "name": "",
          "type": "uint256"
        }
      ],
      "stateMutability": "view",
      "type": "function"
    },
    {
      "inputs": [],
      "name": "getWETHBalance",
      "outputs": [
        {
          "internalType": "uint256",
          "name": "",
          "type": "uint256"
        }
      ],
      "stateMutability": "view",
      "type": "function"
    },
    {
      "inputs": [
        {
          "internalType": "uint256",
          "name": "timestamp",
          "type": "uint256"
        }
      ],
      "name": "getWeekday",
      "outputs": [
        {
          "internalType": "uint8",
          "name": "",
          "type": "uint8"
        }
      ],
      "stateMutability": "pure",
      "type": "function"
    },
    {
      "inputs": [
        {
          "internalType": "uint256",
          "name": "timestamp",
          "type": "uint256"
        }
      ],
      "name": "getYear",
      "outputs": [
        {
          "internalType": "uint16",
          "name": "",
          "type": "uint16"
        }
      ],
      "stateMutability": "pure",
      "type": "function"
    },
    {
      "inputs": [
        {
          "internalType": "uint16",
          "name": "year",
          "type": "uint16"
        }
      ],
      "name": "isLeapYear",
      "outputs": [
        {
          "internalType": "bool",
          "name": "",
          "type": "bool"
        }
      ],
      "stateMutability": "pure",
      "type": "function"
    },
    {
      "inputs": [
        {
          "internalType": "uint256",
          "name": "year",
          "type": "uint256"
        }
      ],
      "name": "leapYearsBefore",
      "outputs": [
        {
          "internalType": "uint256",
          "name": "",
          "type": "uint256"
        }
      ],
      "stateMutability": "pure",
      "type": "function"
    },
    {
      "inputs": [
        {
          "internalType": "uint256",
          "name": "",
          "type": "uint256"
        }
      ],
      "name": "offeringIDList",
      "outputs": [
        {
          "internalType": "uint256",
          "name": "",
          "type": "uint256"
        }
      ],
      "stateMutability": "view",
      "type": "function"
    },
    {
      "inputs": [],
      "name": "owner",
      "outputs": [
        {
          "internalType": "address",
          "name": "",
          "type": "address"
        }
      ],
      "stateMutability": "view",
      "type": "function"
    },
    {
      "inputs": [
        {
          "internalType": "address",
          "name": "_tokenIn",
          "type": "address"
        },
        {
          "internalType": "address",
          "name": "_tokenOut",
          "type": "address"
        },
        {
          "internalType": "uint256",
          "name": "_amountIn",
          "type": "uint256"
        },
        {
          "internalType": "uint256",
          "name": "_amountOutMin",
          "type": "uint256"
        }
      ],
      "name": "simpleswap",
      "outputs": [],
      "stateMutability": "nonpayable",
      "type": "function"
    },
    {
      "inputs": [
        {
          "internalType": "address",
          "name": "_tokenIn",
          "type": "address"
        },
        {
          "internalType": "address",
          "name": "_tokenOut",
          "type": "address"
        },
        {
          "internalType": "uint256",
          "name": "_amountIn",
          "type": "uint256"
        },
        {
          "internalType": "uint256",
          "name": "_amountOutMin",
          "type": "uint256"
        },
        {
          "internalType": "address",
          "name": "_to",
          "type": "address"
        }
      ],
      "name": "swap",
      "outputs": [],
      "stateMutability": "nonpayable",
      "type": "function"
    },
    {
      "inputs": [
        {
          "internalType": "uint16",
          "name": "year",
          "type": "uint16"
        },
        {
          "internalType": "uint8",
          "name": "month",
          "type": "uint8"
        },
        {
          "internalType": "uint8",
          "name": "day",
          "type": "uint8"
        },
        {
          "internalType": "uint8",
          "name": "hour",
          "type": "uint8"
        },
        {
          "internalType": "uint8",
          "name": "minute",
          "type": "uint8"
        }
      ],
      "name": "toTimestamp",
      "outputs": [
        {
          "internalType": "uint256",
          "name": "timestamp",
          "type": "uint256"
        }
      ],
      "stateMutability": "pure",
      "type": "function"
    },
    {
      "inputs": [
        {
          "internalType": "uint16",
          "name": "year",
          "type": "uint16"
        },
        {
          "internalType": "uint8",
          "name": "month",
          "type": "uint8"
        },
        {
          "internalType": "uint8",
          "name": "day",
          "type": "uint8"
        },
        {
          "internalType": "uint8",
          "name": "hour",
          "type": "uint8"
        }
      ],
      "name": "toTimestamp",
      "outputs": [
        {
          "internalType": "uint256",
          "name": "timestamp",
          "type": "uint256"
        }
      ],
      "stateMutability": "pure",
      "type": "function"
    },
    {
      "inputs": [
        {
          "internalType": "uint16",
          "name": "year",
          "type": "uint16"
        },
        {
          "internalType": "uint8",
          "name": "month",
          "type": "uint8"
        },
        {
          "internalType": "uint8",
          "name": "day",
          "type": "uint8"
        }
      ],
      "name": "toTimestamp",
      "outputs": [
        {
          "internalType": "uint256",
          "name": "timestamp",
          "type": "uint256"
        }
      ],
      "stateMutability": "pure",
      "type": "function"
    },
    {
      "inputs": [
        {
          "internalType": "uint16",
          "name": "year",
          "type": "uint16"
        },
        {
          "internalType": "uint8",
          "name": "month",
          "type": "uint8"
        },
        {
          "internalType": "uint8",
          "name": "day",
          "type": "uint8"
        },
        {
          "internalType": "uint8",
          "name": "hour",
          "type": "uint8"
        },
        {
          "internalType": "uint8",
          "name": "minute",
          "type": "uint8"
        },
        {
          "internalType": "uint8",
          "name": "second",
          "type": "uint8"
        }
      ],
      "name": "toTimestamp",
      "outputs": [
        {
          "internalType": "uint256",
          "name": "timestamp",
          "type": "uint256"
        }
      ],
      "stateMutability": "pure",
      "type": "function"
    },
    {
      "inputs": [
        {
          "internalType": "address",
          "name": "",
          "type": "address"
        }
      ],
      "name": "walletMap",
      "outputs": [
        {
          "internalType": "uint256",
          "name": "usdt",
          "type": "uint256"
        },
        {
          "internalType": "uint256",
          "name": "eth",
          "type": "uint256"
        },
        {
          "internalType": "uint256",
          "name": "weth",
          "type": "uint256"
        }
      ],
      "stateMutability": "view",
      "type": "function"
    },
    {
      "stateMutability": "payable",
      "type": "receive"
    },
    {
      "inputs": [],
      "name": "SignInIssuer",
      "outputs": [],
      "stateMutability": "nonpayable",
      "type": "function"
    },
    {
      "inputs": [
        {
          "internalType": "address",
          "name": "CoinAddress",
          "type": "address"
        },
        {
          "internalType": "string",
          "name": "CoinName",
          "type": "string"
        }
      ],
      "name": "supportCoin",
      "outputs": [],
      "stateMutability": "nonpayable",
      "type": "function"
    },
    {
      "inputs": [
        {
          "internalType": "string",
          "name": "_name",
          "type": "string"
        },
        {
          "internalType": "uint256[]",
          "name": "input",
          "type": "uint256[]"
        },
        {
          "internalType": "string",
          "name": "fixing_duration",
          "type": "string"
        }
      ],
      "name": "addOfferingList",
      "outputs": [],
      "stateMutability": "nonpayable",
      "type": "function"
    },
    {
      "inputs": [],
      "name": "depositToWallet",
      "outputs": [],
      "stateMutability": "payable",
      "type": "function"
    },
    {
      "inputs": [
        {
          "internalType": "uint256",
          "name": "amount",
          "type": "uint256"
        }
      ],
      "name": "swapETHFromBuiltInWallet",
      "outputs": [],
      "stateMutability": "nonpayable",
      "type": "function"
    },
    {
      "inputs": [
        {
          "internalType": "uint256",
          "name": "_id",
          "type": "uint256"
        }
      ],
      "name": "buyOffering",
      "outputs": [
        {
          "internalType": "string",
          "name": "",
          "type": "string"
        }
      ],
      "stateMutability": "payable",
      "type": "function"
    },
    {
      "inputs": [],
      "name": "getCount",
      "outputs": [
        {
          "internalType": "uint256",
          "name": "count",
          "type": "uint256"
        }
      ],
      "stateMutability": "view",
      "type": "function"
    },
    {
      "inputs": [],
      "name": "getContractCount",
      "outputs": [
        {
          "internalType": "uint256",
          "name": "count",
          "type": "uint256"
        }
      ],
      "stateMutability": "view",
      "type": "function"
    },
    {
      "inputs": [],
      "name": "getContractETH",
      "outputs": [
        {
          "internalType": "uint256",
          "name": "",
          "type": "uint256"
        }
      ],
      "stateMutability": "view",
      "type": "function"
    },
    {
      "inputs": [],
      "name": "getOfferings",
      "outputs": [
        {
          "components": [
            {
              "internalType": "address",
              "name": "issuer",
              "type": "address"
            },
            {
              "internalType": "uint256",
              "name": "ID",
              "type": "uint256"
            },
            {
              "internalType": "string",
              "name": "name",
              "type": "string"
            },
            {
              "internalType": "uint256",
              "name": "fixing_counter",
              "type": "uint256"
            },
            {
              "internalType": "bool",
              "name": "Di_barrier_activated",
              "type": "bool"
            },
            {
              "internalType": "uint256",
              "name": "contractID",
              "type": "uint256"
            },
            {
              "internalType": "string",
              "name": "fixing_duration",
              "type": "string"
            },
            {
              "internalType": "uint256[]",
              "name": "attributes",
              "type": "uint256[]"
            }
          ],
          "internalType": "struct YieldOfferings.offering[]",
          "name": "",
          "type": "tuple[]"
        }
      ],
      "stateMutability": "view",
      "type": "function"
    },
    {
      "inputs": [],
      "name": "getAllContracts",
      "outputs": [
        {
          "components": [
            {
              "internalType": "address",
              "name": "buyer",
              "type": "address"
            },
            {
              "internalType": "address",
              "name": "issuer",
              "type": "address"
            },
            {
              "internalType": "uint256",
              "name": "amount",
              "type": "uint256"
            },
            {
              "internalType": "uint256",
              "name": "offeringID",
              "type": "uint256"
            },
            {
              "internalType": "uint256",
              "name": "contractID",
              "type": "uint256"
            },
            {
              "internalType": "int256",
              "name": "ethusdt0",
              "type": "int256"
            }
          ],
          "internalType": "struct YieldOfferings.offeringContract[]",
          "name": "",
          "type": "tuple[]"
        }
      ],
      "stateMutability": "view",
      "type": "function"
    },
    {
      "inputs": [],
      "name": "getDayFromTimeStamp",
      "outputs": [
        {
          "internalType": "uint8",
          "name": "",
          "type": "uint8"
        }
      ],
      "stateMutability": "view",
      "type": "function"
    },
    {
      "inputs": [],
      "name": "fillPriceLog",
      "outputs": [],
      "stateMutability": "nonpayable",
      "type": "function"
    }
  ],
  "bytecode": "0x600280546001600160a01b0319163317905560006003819055600160045560055560c06040526007608081905266426f756768742160c81b60a09081526200004b9160089190620000a8565b503480156200005957600080fd5b50600080546001600160a01b0319908116735f4ec3df9cbd43714fe2740f5e3616155c5b8419179091556001805490911673c02aaa39b223fe8d0a0e5c4f27ead9083c756cc21790556200018b565b828054620000b6906200014e565b90600052602060002090601f016020900481019282620000da576000855562000125565b82601f10620000f557805160ff191683800117855562000125565b8280016001018555821562000125579182015b828111156200012557825182559160200191906001019062000108565b506200013392915062000137565b5090565b5b8082111562000133576000815560010162000138565b600181811c908216806200016357607f821691505b602082108114156200018557634e487b7160e01b600052602260045260246000fd5b50919050565b613683806200019b6000396000f3fe60806040526004361061023e5760003560e01c80638aa001fc1161012e578063a324ad24116100ab578063b238ad0e1161006f578063b238ad0e146106ea578063d5bcb9b51461070a578063ef3055d91461072a578063f1f5bef014610760578063fa93f8831461076857600080fd5b8063a324ad2414610650578063a6f0e57714610670578063a87d942c146106a0578063b07627c8146106b5578063b1999937146106ca57600080fd5b806392d66313116100f257806392d663131461057c5780639399869d146105af57806393b6a95a146105c45780639785fac8146105e4578063a2bd4943146105f957600080fd5b80638aa001fc146104cf5780638c8d98a0146104ef5780638da5cb5b1461050f5780638e15f473146105475780639054bdec1461055c57600080fd5b80635ddc916a116101bc57806370411c131161018057806370411c13146104475780637aafa19e146104675780637f791833146104875780638258cbbd146104a7578063890d26c7146104ba57600080fd5b80635ddc916a146103b05780635dfea79e146103c557806362ba9687146103e557806365881ee91461040557806365c728401461042757600080fd5b80633e239e1a116102035780633e239e1a146103095780634ac1ad781461033b5780634d72a8c91461035b5780634f0238b8146103705780635d8efce11461039057600080fd5b8062cbb73b1461024a578063059886ca146102725780630bd5d8631461029457806318d3ce96146102c75780633c50eec1146102e957600080fd5b3661024557005b600080fd5b34801561025657600080fd5b5061025f610788565b6040519081526020015b60405180910390f35b34801561027e57600080fd5b5061029261028d366004612978565b610816565b005b3480156102a057600080fd5b506102b46102af366004612978565b610a25565b60405161026997969594939291906129ed565b3480156102d357600080fd5b506102dc610b83565b6040516102699190612a48565b3480156102f557600080fd5b5061025f610304366004612ae8565b610cc7565b34801561031557600080fd5b50610329610324366004612978565b610f3a565b60405160ff9091168152602001610269565b34801561034757600080fd5b50610329610356366004612978565b610f5e565b34801561036757600080fd5b50610329610f7a565b34801561037c57600080fd5b5061029261038b366004612b24565b610f8e565b6103a361039e366004612978565b61126f565b6040516102699190612b66565b3480156103bc57600080fd5b5061025f611483565b3480156103d157600080fd5b506102926103e0366004612c5b565b6114bf565b3480156103f157600080fd5b5061025f610400366004612d5f565b611718565b34801561041157600080fd5b5061041a611733565b6040516102699190612dff565b34801561043357600080fd5b50610329610442366004612978565b611a03565b34801561045357600080fd5b5061025f610462366004612978565b611a18565b34801561047357600080fd5b50610292610482366004612eea565b611a39565b34801561049357600080fd5b5061025f6104a2366004612f38565b611a94565b3480156104b357600080fd5b504761025f565b3480156104c657600080fd5b50610292611aae565b3480156104db57600080fd5b506103296104ea366004612978565b611c09565b3480156104fb57600080fd5b5061025f61050a366004612f8c565b611c16565b34801561051b57600080fd5b5060025461052f906001600160a01b031681565b6040516001600160a01b039091168152602001610269565b34801561055357600080fd5b5061025f611c30565b34801561056857600080fd5b5061025f610577366004612fcf565b611ccc565b34801561058857600080fd5b5061059c610597366004612978565b611e7d565b60405161ffff9091168152602001610269565b3480156105bb57600080fd5b5060045461025f565b3480156105d057600080fd5b506102926105df366004613043565b611f6d565b3480156105f057600080fd5b5061025f611ff8565b34801561060557600080fd5b5061063561061436600461306d565b600b6020526000908152604090208054600182015460029092015490919083565b60408051938452602084019290925290820152606001610269565b34801561065c57600080fd5b5061032961066b366004612978565b612034565b34801561067c57600080fd5b5061069061068b366004613088565b612049565b6040519015158152602001610269565b3480156106ac57600080fd5b5060065461025f565b3480156106c157600080fd5b506102926120a8565b3480156106d657600080fd5b5061025f6106e5366004612978565b61213e565b3480156106f657600080fd5b506103296107053660046130a3565b612183565b34801561071657600080fd5b506102926107253660046130d6565b61224a565b34801561073657600080fd5b5061052f61074536600461306d565b600e602052600090815260409020546001600160a01b031681565b6102926125c3565b34801561077457600080fd5b50610329610783366004612978565b612690565b6040516370a0823160e01b8152306004820152600090819073c02aaa39b223fe8d0a0e5c4f27ead9083c756cc2906370a08231906024015b60206040518083038186803b1580156107d857600080fd5b505afa1580156107ec573d6000803e3d6000fd5b505050506040513d601f19601f820116820180604052508101906108109190613121565b92915050565b336000908152600b602052604090206001015481111561083557600080fd5b6000610842426064613150565b6040805160028082526060820183529293506000929091602083019080368337019050509050600d60405161088190630ae8aa8960e31b815260040190565b9081526040519081900360200190205481516001600160a01b039091169082906000906108b0576108b0613168565b6001600160a01b03928316602091820292909201015260408051631554d11560e21b8152600d60048201529051908190036024019020548251911690829060019081106108ff576108ff613168565b6001600160a01b03928316602091820292909201015260015460408051630d0e30db60e41b81529051919092169163d0e30db091869160048082019260009290919082900301818588803b15801561095657600080fd5b505af115801561096a573d6000803e3d6000fd5b5050336000908152600b602052604081206002018054889550909350909150610994908490613150565b9091555050336000908152600b6020526040812060010180548592906109bb90849061317e565b9091555050336000908152600b60205260409081902090517f72e8a9e162166777febe65180487a15d66a798aa00ccf3d4743743cf235fdb7b91610a18918154815260018201546020820152600290910154604082015260600190565b60405180910390a1505050565b600a602052600090815260409020805460018201546002830180546001600160a01b03909316939192610a5790613195565b80601f0160208091040260200160405190810160405280929190818152602001828054610a8390613195565b8015610ad05780601f10610aa557610100808354040283529160200191610ad0565b820191906000526020600020905b815481529060010190602001808311610ab357829003601f168201915b5050506003840154600485015460058601546006870180549697939660ff909316955090935090610b0090613195565b80601f0160208091040260200160405190810160405280929190818152602001828054610b2c90613195565b8015610b795780601f10610b4e57610100808354040283529160200191610b79565b820191906000526020600020905b815481529060010190602001808311610b5c57829003601f168201915b5050505050905087565b6060600060045467ffffffffffffffff811115610ba257610ba2612b80565b604051908082528060200260200182016040528015610c1e57816020015b610c0b6040518060c0016040528060006001600160a01b0316815260200160006001600160a01b03168152602001600081526020016000815260200160008152602001600081525090565b815260200190600190039081610bc05790505b50905060005b600454811015610cc1576000818152600c6020908152604091829020825160c08101845281546001600160a01b03908116825260018301541692810192909252600281015492820192909252600382015460608201526004820154608082015260059091015460a08201528251839083908110610ca357610ca3613168565b60200260200101819052508080610cb9906131ca565b915050610c24565b50919050565b600060606001600160a01b03851673c02aaa39b223fe8d0a0e5c4f27ead9083c756cc21480610d1257506001600160a01b03841673c02aaa39b223fe8d0a0e5c4f27ead9083c756cc2145b15610da45760408051600280825260608201835290916020830190803683370190505090508481600081518110610d4b57610d4b613168565b60200260200101906001600160a01b031690816001600160a01b0316815250508381600181518110610d7f57610d7f613168565b60200260200101906001600160a01b031690816001600160a01b031681525050610e76565b6040805160038082526080820190925290602082016060803683370190505090508481600081518110610dd957610dd9613168565b60200260200101906001600160a01b031690816001600160a01b03168152505073c02aaa39b223fe8d0a0e5c4f27ead9083c756cc281600181518110610e2157610e21613168565b60200260200101906001600160a01b031690816001600160a01b0316815250508381600281518110610e5557610e55613168565b60200260200101906001600160a01b031690816001600160a01b0316815250505b60405163d06ca61f60e01b8152600090737a250d5630b4cf539739df2c5dacb4c659f2488d9063d06ca61f90610eb2908790869060040161321e565b60006040518083038186803b158015610eca57600080fd5b505afa158015610ede573d6000803e3d6000fd5b505050506040513d6000823e601f3d908101601f19168201604052610f069190810190613237565b90508060018351610f17919061317e565b81518110610f2757610f27613168565b6020026020010151925050509392505050565b60006018603c610f4a81856132de565b610f5491906132de565b61081091906132f2565b60006007610f6f62015180846132de565b610f54906004613150565b6000610f854261269e565b60400151905090565b60405163095ea7b360e01b8152737a250d5630b4cf539739df2c5dacb4c659f2488d6004820152602481018390526001600160a01b0385169063095ea7b390604401602060405180830381600087803b158015610fea57600080fd5b505af1158015610ffe573d6000803e3d6000fd5b505050506040513d601f19601f820116820180604052508101906110229190613306565b504260606001600160a01b03861673c02aaa39b223fe8d0a0e5c4f27ead9083c756cc2148061106d57506001600160a01b03851673c02aaa39b223fe8d0a0e5c4f27ead9083c756cc2145b156110ff57604080516002808252606082018352909160208301908036833701905050905085816000815181106110a6576110a6613168565b60200260200101906001600160a01b031690816001600160a01b03168152505084816001815181106110da576110da613168565b60200260200101906001600160a01b031690816001600160a01b0316815250506111d1565b604080516003808252608082019092529060208201606080368337019050509050858160008151811061113457611134613168565b60200260200101906001600160a01b031690816001600160a01b03168152505073c02aaa39b223fe8d0a0e5c4f27ead9083c756cc28160018151811061117c5761117c613168565b60200260200101906001600160a01b031690816001600160a01b03168152505084816002815181106111b0576111b0613168565b60200260200101906001600160a01b031690816001600160a01b0316815250505b6040516338ed173960e01b8152737a250d5630b4cf539739df2c5dacb4c659f2488d906338ed1739906112109087908790869030904290600401613328565b600060405180830381600087803b15801561122a57600080fd5b505af115801561123e573d6000803e3d6000fd5b505050506040513d6000823e601f3d908101601f191682016040526112669190810190613237565b50505050505050565b606042600061127c611c30565b6040805160c0810182523381526000878152600a602090815283822080546001600160a01b0390811683860190815234868801908152606087018d81526004805460808a0181815260a08b018d8152918a52600c808a528c8b209b518c549089166001600160a01b0319918216178d55965160018d01805491909916971696909617909655925160028a015590516003890155925187840155516005968701559054949091018490559282529190915281902090519192507fae07c750619676b65c76014d9369b102a06a3011a65578484a83ab388ef569dc916113a4919081546001600160a01b039081168252600183015416602082015260028201546040820152600382015460608201526004820154608082015260059091015460a082015260c00190565b60405180910390a16001600460008282546113bf9190613150565b90915550506000848152600a60209081526040808320546001600160a01b03168352600b909152902034600190910155600880546113fc90613195565b80601f016020809104026020016040519081016040528092919081815260200182805461142890613195565b80156114755780601f1061144a57610100808354040283529160200191611475565b820191906000526020600020905b81548152906001019060200180831161145857829003601f168201915b505050505092505050919050565b6040516370a0823160e01b8152306004820152600090819073111111111117dc0aa78b770fa6a738034120c302906370a08231906024016107c0565b336000818152600f60205260409020546001600160a01b03161461152a5760405162461bcd60e51b815260206004820152601860248201527f506c65617365205369676e20496e20617320497373756572000000000000000060448201526064015b60405180910390fd5b600083511161157b5760405162461bcd60e51b815260206004820152601760248201527f6e616d652063616e6e6f7420626576616c20656d7074790000000000000000006044820152606401611521565b6000600354600161158c9190613150565b6006805460018082019092557ff652222313e28459528d920b65115c16c04f3efc82aaedc97be59f3f377c0d3f01829055604080516101008101825233815260208082018581528284018a81526000606085018190526080850181905260a0850181905260c085018a905260e085018b9052878152600a8452948520845181546001600160a01b0319166001600160a01b0390911617815591519582019590955593518051959650929491939261164c9260028501929190910190612886565b5060608201516003820155608082015160048201805460ff191691151591909117905560a0820151600582015560c08201518051611694916006840191602090910190612886565b5060e082015180516116b091600784019160209091019061290a565b509050506001600360008282546116c79190613150565b90915550506000828152600a60205260409081902090517fdd65e5e936add42c1243a235ee70787b647fc85e7e2bf224d9013ed069f830969161170991613439565b60405180910390a15050505050565b600061172986868686866000611ccc565b9695505050505050565b60065460609060009067ffffffffffffffff81111561175457611754612b80565b6040519080825280602002602001820160405280156117d857816020015b6117c560405180610100016040528060006001600160a01b031681526020016000815260200160608152602001600081526020016000151581526020016000815260200160608152602001606081525090565b8152602001906001900390816117725790505b50905060005b600654811015610cc157600a60006117f7836001613150565b8152602080820192909252604090810160002081516101008101835281546001600160a01b03168152600182015493810193909352600281018054919284019161184090613195565b80601f016020809104026020016040519081016040528092919081815260200182805461186c90613195565b80156118b95780601f1061188e576101008083540402835291602001916118b9565b820191906000526020600020905b81548152906001019060200180831161189c57829003601f168201915b505050918352505060038201546020820152600482015460ff1615156040820152600582015460608201526006820180546080909201916118f990613195565b80601f016020809104026020016040519081016040528092919081815260200182805461192590613195565b80156119725780601f1061194757610100808354040283529160200191611972565b820191906000526020600020905b81548152906001019060200180831161195557829003601f168201915b50505050508152602001600782018054806020026020016040519081016040528092919081815260200182805480156119ca57602002820191906000526020600020905b8154815260200190600101908083116119b6575b5050505050815250508282815181106119e5576119e5613168565b602002602001018190525080806119fb906131ca565b9150506117de565b6000611a0e8261269e565b6040015192915050565b60068181548110611a2857600080fd5b600091825260209091200154905081565b6002546001600160a01b03163314611a5057600080fd5b81600d82604051611a6191906134df565b90815260405190819003602001902080546001600160a01b03929092166001600160a01b03199092169190911790555050565b6000611aa585858585600080611ccc565b95945050505050565b336000908152600f60205260409020546001600160a01b031615611b145760405162461bcd60e51b815260206004820152601c60248201527f416c7265616479205369676e656420696e2061732049737375657221000000006044820152606401611521565b6040805160608101825260008082526020808301828152838501838152338452600b909252939091209151825591516001808301919091559151600290910155600554611b6091613150565b60055560408051808201825233808252606060208084018281526000938452600f825294909220835181546001600160a01b0319166001600160a01b0390911617815593518051919492611bbc9260018501929091019061290a565b5050336000908152600f60205260409081902090517fe98c073dd958639e8957a0d059199a9480a89cd8af94ba92e4aadd4a0c2146899250611bfe91906134fb565b60405180910390a150565b6000610810603c836132f2565b6000611c288484846000806000611ccc565b949350505050565b60008060008060008060008054906101000a90046001600160a01b03166001600160a01b031663feaf968c6040518163ffffffff1660e01b815260040160a06040518083038186803b158015611c8557600080fd5b505afa158015611c99573d6000803e3d6000fd5b505050506040513d601f19601f82011682018060405250810190611cbd9190613541565b50919998505050505050505050565b60006107b25b8761ffff168161ffff161015611d2857611ceb81612049565b15611d0557611cfe6301e2850083613150565b9150611d16565b611d136301e1338083613150565b91505b80611d2081613585565b915050611cd2565b611d30612944565b601f8152611d3d89612049565b15611d4e57601d6020820152611d56565b601c60208201525b601f60408201819052601e606083018190526080830182905260a0830181905260c0830182905260e0830182905261010083018190526101208301829052610140830152610160820152600191505b8760ff168261ffff161015611e075780611dc06001846135a7565b61ffff16600c8110611dd457611dd4613168565b6020020151611de99060ff16620151806135ca565b611df39084613150565b925081611dff81613585565b925050611da5565b611e126001886135e9565b611e229060ff16620151806135ca565b611e2c9084613150565b9250611e3d60ff8716610e106135ca565b611e479084613150565b9250611e5760ff8616603c6135ca565b611e619084613150565b9250611e7060ff851684613150565b9998505050505050505050565b6000808080611e906301e13380866132de565b611e9c906107b2613150565b9150611ea96107b261213e565b611eb68361ffff1661213e565b611ec0919061317e565b9050611ed0816301e285006135ca565b611eda9084613150565b925080611ee96107b2846135a7565b61ffff16611ef7919061317e565b611f05906301e133806135ca565b611f0f9084613150565b92505b84831115611f6557611f2861068b6001846135a7565b15611f4257611f3b6301e285008461317e565b9250611f53565b611f506301e133808461317e565b92505b611f5e6001836135a7565b9150611f12565b509392505050565b6040516323b872dd60e01b8152336004820152306024820152604481018290526001600160a01b038316906323b872dd90606401602060405180830381600087803b158015611fbb57600080fd5b505af1158015611fcf573d6000803e3d6000fd5b505050506040513d601f19601f82011682018060405250810190611ff39190613306565b505050565b6040516370a0823160e01b8152306004820152600090819073dac17f958d2ee523a2206206994597c13d831ec7906370a08231906024016107c0565b600061203f8261269e565b6020015192915050565b600061205660048361360c565b61ffff161561206757506000919050565b61207260648361360c565b61ffff161561208357506001919050565b61208f6101908361360c565b61ffff16156120a057506000919050565b506001919050565b60006120b2611c30565b905060006120bf4261269e565b8051602082015160408301516009805494955092939192909186919061ffff86169081106120ef576120ef613168565b906000526020600020018360ff168154811061210d5761210d613168565b906000526020600020018260ff168154811061212b5761212b613168565b6000918252602090912001555050505050565b600061214b60018361317e565b9150612159610190836132de565b6121646064846132de565b61216f6004856132de565b612179919061317e565b6108109190613150565b60008260ff166001148061219a57508260ff166003145b806121a857508260ff166005145b806121b657508260ff166007145b806121c457508260ff166008145b806121d257508260ff16600a145b806121e057508260ff16600c145b156121ed5750601f610810565b8260ff166004148061220257508260ff166006145b8061221057508260ff166009145b8061221e57508260ff16600b145b1561222b5750601e610810565b61223482612049565b156122415750601d610810565b50601c92915050565b6040516323b872dd60e01b8152336004820152306024820152604481018490526001600160a01b038616906323b872dd90606401602060405180830381600087803b15801561229857600080fd5b505af11580156122ac573d6000803e3d6000fd5b505050506040513d601f19601f820116820180604052508101906122d09190613306565b5060405163095ea7b360e01b8152737a250d5630b4cf539739df2c5dacb4c659f2488d6004820152602481018490526001600160a01b0386169063095ea7b390604401602060405180830381600087803b15801561232d57600080fd5b505af1158015612341573d6000803e3d6000fd5b505050506040513d601f19601f820116820180604052508101906123659190613306565b50600061237542620186a0613150565b905060606001600160a01b03871673c02aaa39b223fe8d0a0e5c4f27ead9083c756cc214806123c057506001600160a01b03861673c02aaa39b223fe8d0a0e5c4f27ead9083c756cc2145b1561245257604080516002808252606082018352909160208301908036833701905050905086816000815181106123f9576123f9613168565b60200260200101906001600160a01b031690816001600160a01b031681525050858160018151811061242d5761242d613168565b60200260200101906001600160a01b031690816001600160a01b031681525050612524565b604080516003808252608082019092529060208201606080368337019050509050868160008151811061248757612487613168565b60200260200101906001600160a01b031690816001600160a01b03168152505073c02aaa39b223fe8d0a0e5c4f27ead9083c756cc2816001815181106124cf576124cf613168565b60200260200101906001600160a01b031690816001600160a01b031681525050858160028151811061250357612503613168565b60200260200101906001600160a01b031690816001600160a01b0316815250505b6040516338ed173960e01b8152737a250d5630b4cf539739df2c5dacb4c659f2488d906338ed1739906125639088908890869089908990600401613328565b600060405180830381600087803b15801561257d57600080fd5b505af1158015612591573d6000803e3d6000fd5b505050506040513d6000823e601f3d908101601f191682016040526125b99190810190613237565b5050505050505050565b336000818152600f60205260409020546001600160a01b031614806125fe5750336000818152600e60205260409020546001600160a01b0316145b61260757600080fd5b336000908152600b602052604081206001018054349290612629908490613150565b9091555050336000908152600b60205260409081902090517f72e8a9e162166777febe65180487a15d66a798aa00ccf3d4743743cf235fdb7b91612686918154815260018201546020820152600290910154604082015260600190565b60405180910390a1565b6000603c610f5481846132de565b6040805160e081018252600080825260208201819052918101829052606081018290526080810182905260a0810182905260c081018290529080806126e285611e7d565b61ffff1684526126f36107b261213e565b84516127029061ffff1661213e565b61270c919061317e565b915061271c826301e285006135ca565b6127269084613150565b9250816107b2856000015161273b91906135a7565b61ffff16612749919061317e565b612757906301e133806135ca565b6127619084613150565b92506000600191505b600c8260ff16116127d257612783828660000151612183565b6127939060ff16620151806135ca565b9050856127a08583613150565b11156127b45760ff821660208601526127d2565b6127be8185613150565b9350816127ca8161362d565b92505061276a565b600191505b6127e985602001518660000151612183565b60ff168260ff161161283857856128038562015180613150565b11156128175760ff82166040860152612838565b6128246201518085613150565b9350816128308161362d565b9250506127d7565b61284186610f3a565b60ff16606086015261285286612690565b60ff16608086015261286386611c09565b60ff1660a086015261287486610f5e565b60ff1660c08601525092949350505050565b82805461289290613195565b90600052602060002090601f0160209004810192826128b457600085556128fa565b82601f106128cd57805160ff19168380011785556128fa565b828001600101855582156128fa579182015b828111156128fa5782518255916020019190600101906128df565b50612906929150612963565b5090565b8280548282559060005260206000209081019282156128fa57916020028201828111156128fa5782518255916020019190600101906128df565b604051806101800160405280600c906020820280368337509192915050565b5b808211156129065760008155600101612964565b60006020828403121561298a57600080fd5b5035919050565b60005b838110156129ac578181015183820152602001612994565b838111156129bb576000848401525b50505050565b600081518084526129d9816020860160208601612991565b601f01601f19169290920160200192915050565b60018060a01b038816815286602082015260e060408201526000612a1460e08301886129c1565b86606084015285151560808401528460a084015282810360c0840152612a3a81856129c1565b9a9950505050505050505050565b602080825282518282018190526000919060409081850190868401855b82811015612abf57815180516001600160a01b0390811686528782015116878601528581015186860152606080820151908601526080808201519086015260a0908101519085015260c09093019290850190600101612a65565b5091979650505050505050565b80356001600160a01b0381168114612ae357600080fd5b919050565b600080600060608486031215612afd57600080fd5b612b0684612acc565b9250612b1460208501612acc565b9150604084013590509250925092565b60008060008060808587031215612b3a57600080fd5b612b4385612acc565b9350612b5160208601612acc565b93969395505050506040820135916060013590565b602081526000612b7960208301846129c1565b9392505050565b634e487b7160e01b600052604160045260246000fd5b604051601f8201601f1916810167ffffffffffffffff81118282101715612bbf57612bbf612b80565b604052919050565b600082601f830112612bd857600080fd5b813567ffffffffffffffff811115612bf257612bf2612b80565b612c05601f8201601f1916602001612b96565b818152846020838601011115612c1a57600080fd5b816020850160208301376000918101602001919091529392505050565b600067ffffffffffffffff821115612c5157612c51612b80565b5060051b60200190565b600080600060608486031215612c7057600080fd5b833567ffffffffffffffff80821115612c8857600080fd5b612c9487838801612bc7565b9450602091508186013581811115612cab57600080fd5b8601601f81018813612cbc57600080fd5b8035612ccf612cca82612c37565b612b96565b81815260059190911b8201840190848101908a831115612cee57600080fd5b928501925b82841015612d0c57833582529285019290850190612cf3565b96505050506040860135915080821115612d2557600080fd5b50612d3286828701612bc7565b9150509250925092565b803561ffff81168114612ae357600080fd5b803560ff81168114612ae357600080fd5b600080600080600060a08688031215612d7757600080fd5b612d8086612d3c565b9450612d8e60208701612d4e565b9350612d9c60408701612d4e565b9250612daa60608701612d4e565b9150612db860808701612d4e565b90509295509295909350565b600081518084526020808501945080840160005b83811015612df457815187529582019590820190600101612dd8565b509495945050505050565b60006020808301818452808551808352604092508286019150828160051b87010184880160005b83811015612edc57888303603f19018552815180516001600160a01b031684526101008882015189860152878201518189870152612e66828701826129c1565b9150506060808301518187015250608080830151612e878288018215159052565b505060a0828101519086015260c08083015186830382880152612eaa83826129c1565b9250505060e08083015192508582038187015250612ec88183612dc4565b968901969450505090860190600101612e26565b509098975050505050505050565b60008060408385031215612efd57600080fd5b612f0683612acc565b9150602083013567ffffffffffffffff811115612f2257600080fd5b612f2e85828601612bc7565b9150509250929050565b60008060008060808587031215612f4e57600080fd5b612f5785612d3c565b9350612f6560208601612d4e565b9250612f7360408601612d4e565b9150612f8160608601612d4e565b905092959194509250565b600080600060608486031215612fa157600080fd5b612faa84612d3c565b9250612fb860208501612d4e565b9150612fc660408501612d4e565b90509250925092565b60008060008060008060c08789031215612fe857600080fd5b612ff187612d3c565b9550612fff60208801612d4e565b945061300d60408801612d4e565b935061301b60608801612d4e565b925061302960808801612d4e565b915061303760a08801612d4e565b90509295509295509295565b6000806040838503121561305657600080fd5b61305f83612acc565b946020939093013593505050565b60006020828403121561307f57600080fd5b612b7982612acc565b60006020828403121561309a57600080fd5b612b7982612d3c565b600080604083850312156130b657600080fd5b6130bf83612d4e565b91506130cd60208401612d3c565b90509250929050565b600080600080600060a086880312156130ee57600080fd5b6130f786612acc565b945061310560208701612acc565b93506040860135925060608601359150612db860808701612acc565b60006020828403121561313357600080fd5b5051919050565b634e487b7160e01b600052601160045260246000fd5b600082198211156131635761316361313a565b500190565b634e487b7160e01b600052603260045260246000fd5b6000828210156131905761319061313a565b500390565b600181811c908216806131a957607f821691505b60208210811415610cc157634e487b7160e01b600052602260045260246000fd5b60006000198214156131de576131de61313a565b5060010190565b600081518084526020808501945080840160005b83811015612df45781516001600160a01b0316875295820195908201906001016131f9565b828152604060208201526000611c2860408301846131e5565b6000602080838503121561324a57600080fd5b825167ffffffffffffffff81111561326157600080fd5b8301601f8101851361327257600080fd5b8051613280612cca82612c37565b81815260059190911b8201830190838101908783111561329f57600080fd5b928401925b828410156132bd578351825292840192908401906132a4565b979650505050505050565b634e487b7160e01b600052601260045260246000fd5b6000826132ed576132ed6132c8565b500490565b600082613301576133016132c8565b500690565b60006020828403121561331857600080fd5b81518015158114612b7957600080fd5b85815284602082015260a06040820152600061334760a08301866131e5565b6001600160a01b0394909416606083015250608001529392505050565b8054600090600181811c908083168061337e57607f831692505b60208084108214156133a057634e487b7160e01b600052602260045260246000fd5b838852602088018280156133bb57600181146133cc576133f7565b60ff198716825282820197506133f7565b60008981526020902060005b878110156133f1578154848201529086019084016133d8565b83019850505b5050505050505092915050565b6000815480845260208085019450836000528060002060005b83811015612df45781548752958201956001918201910161341d565b602081526134626020820161345584546001600160a01b031690565b6001600160a01b03169052565b600182015460408201526000610100806060840152613488610120840160028601613364565b60038501546080850152600485015460ff16151560a0850152600585015460c0850152838103601f1990810160e08601526134c68260068801613364565b915080858303018386015250611aa58160078701613404565b600082516134f1818460208701612991565b9190910192915050565b602080825282546001600160a01b0316908201526040808201526000612b796060830160018501613404565b805169ffffffffffffffffffff81168114612ae357600080fd5b600080600080600060a0868803121561355957600080fd5b61356286613527565b9450602086015193506040860151925060608601519150612db860808701613527565b600061ffff8083168181141561359d5761359d61313a565b6001019392505050565b600061ffff838116908316818110156135c2576135c261313a565b039392505050565b60008160001904831182151516156135e4576135e461313a565b500290565b600060ff821660ff8416808210156136035761360361313a565b90039392505050565b600061ffff80841680613621576136216132c8565b92169190910692915050565b600060ff821660ff8114156136445761364461313a565b6001019291505056fea2646970667358221220e7bebaf2d6af76b6c670d4752d5a209d997d79c5b5013ed71fceb77e72d8c45c64736f6c63430008090033",
  "immutableReferences": {},
  "source": "pragma solidity 0.8.9;\n\nimport \"./TradeCenter.sol\";\n//import \"@openzeppelin/contracts/token/ERC20/extensions/ERC20Wrapper.sol\";\n\nimport \"./ERC20.sol\";\nimport \"./DateTime.sol\";\n\ninterface _ERC20{\n  function deposit() external payable;\n  function withdraw(uint256 amount) external;\n  function name() external returns (string memory);\n  \n}\n\ncontract YieldOfferings is TradeCenter, DateTime {\n   \n_ERC20 weth;  \naddress public owner = msg.sender; // contract owner\n // will be used in logic\nuint offeringCount = 0; // keep track of all number\nuint contractCount=1;\nuint walletCount=0;\nuint[] public offeringIDList; // all ids list\naddress[] walletOwners;\nstring aloo = \"Bought!\";\nint[][][] EthPriceLog;\n//address WETH = 0xC02aaA39b223FE8D0A0e5C4F27eAD9083C756Cc2;\n\n//mapping (address=> bool) public hasWallet;\n\n//hasWallet[key] \n\n\n\n\nmapping (uint => offering) public Offerings; //mapping offerings to ids\nmapping (address => wallet) public walletMap;\nmapping(uint => offeringContract) ContractMap;\nmapping (string => address) CoinMap;\n//mapping (_DateTime => int ) EthPriceLog;\n\nstruct wallet {\nuint usdt;\nuint eth;\nuint weth;\n//uint ONEINCH;\n//uint WETH;\n}\n\nstruct buyer {\n    address buyerAddress;\n\n    offering[] offerings;\n    uint[] ContractsIds;\n    uint[] offeringIDList;\n}\n\nstruct issuer {\n    address issuerAddress;\n    //uint256 balance;\n    //uint256 accountPayable;\n    uint[] offeringsList;\n    //uint WalletID;\n    //uint[] ContractsIds;\n    //bool hasWallet;\n}\n\nmapping (address => issuer) public BuyersMap;\nmapping (address => issuer) internal IssuersMap;\n\n\n\nstruct offeringContract{\n    address buyer;\n    address issuer;\n    uint amount;\n    uint offeringID;\n    uint contractID;\n    int ethusdt0;\n}\n\n/*uint _Nb_fixings,\n    uint _high_coupon,\n    uint _high_coupon_barrier,\n    uint _smaller_coupon,\n    uint _Upoutbarrier,\n    uint _di_barrier, */\n\n\nstruct offering{\n    address issuer;\n    uint ID;\n    string name;\n    uint fixing_counter;\n    bool Di_barrier_activated;\n    uint contractID;\n    string fixing_duration;\n    uint [] attributes;\n}\n\n\nevent logAddedOffering(offering);\nevent getContract (offeringContract);\nevent getIssuer (issuer);\nevent getWalletInfo(wallet);\n// function to add a new offering \n\nconstructor () public {\n\n    weth = _ERC20 (WETH);\n}\n\nfunction SignInIssuer () public  {\nrequire(IssuersMap[msg.sender].issuerAddress==0x0000000000000000000000000000000000000000, \"Already Signed in as Issuer!\" );\n/*struct issuer {\n    address issuerAddress;\n    offering[] offerings;\n    uint[] ContractsIds;\n}*/\nwalletMap[msg.sender] = wallet (\n0,\n0,\n0\n);\nwalletCount = walletCount+1;\n\nuint[] memory offeringEmptyList;\nIssuersMap[msg.sender] = issuer(\nmsg.sender,\nofferingEmptyList\n);\n\n\n\nemit getIssuer(IssuersMap[msg.sender]);\n\n}\n\nfunction supportCoin(address CoinAddress, string memory CoinName) public {\nrequire(msg.sender == owner);\nCoinMap[CoinName] = CoinAddress;\n\n\n}\n\n\nfunction addOfferingList(string memory _name,uint[] memory input, string memory fixing_duration)public{\nrequire(IssuersMap[msg.sender].issuerAddress==msg.sender, \"Please Sign In as Issuer\" );\nrequire(bytes(_name).length>0, \"name cannot beval empty\");\n//require(fixing_duration == \"weekly\" | fixing_duration == \"daily\" | fixing_duration == \"monthly\" );\n\n/*\nstruct offering{\n    address issuer;\n    uint ID;\n    string name;\n    uint fixing_counter;\n    bool Di_barrier_activated;\n    uint contractID;\n    string fixing_duration;\n    uint [] attributes;\n} */\n\n\n    uint newID= offeringCount + 1;\n    offeringIDList.push(newID);\n    uint  contractID;\n    Offerings[newID] = offering(msg.sender, \n     newID, \n     _name,\n     0,\n     false,\n     0,\n    fixing_duration,\n    input);\n    \n    offeringCount+= 1;\n\n    \n    emit logAddedOffering(Offerings[newID]);\n\n\n\n}\n\n\n/*function addOffering(\n    string memory _name,\n    uint _Nb_fixings,\n    uint _high_coupon,\n    uint _high_coupon_barrier,\n    uint _smaller_coupon,\n    uint _Upoutbarrier,\n    uint _di_barrier,\n    string memory fixing_duration\n    \n   ) public{\n    require(IssuersMap[msg.sender].issuerAddress==msg.sender, \"Please Sign In as Issuer\" );\n    require(bytes(_name).length>0, \"name cannot beval empty\");\n    //require(IssuersMap[msg.sender].issuerAddress, msg.sender);\n\n    uint newID= offeringCount + 1;\n    //offeringContract[] storage emptyList;\n    //newCampaign.deadline= block.timestamp + (_duration * 1 days);\n    offeringIDList.push(newID);\n    uint  contractID;\n    Offerings[newID] = offering(msg.sender, \n     newID, \n     _name,\n     _Nb_fixings,\n     0,\n     _high_coupon,\n     _high_coupon_barrier,\n     _smaller_coupon,\n     _Upoutbarrier,\n     _di_barrier,\n      false,\n    contractID,\n    fixing_duration);\n    \n    offeringCount+= 1;\n\n    \n    emit logAddedOffering(Offerings[newID]);\n}*/\n\n\n\n\nfunction offeringsLoader(offering[] memory offeringList) internal {\n\n\nfor (uint i = 0 ; i< offeringList.length ; i++)\n{\nhandleFixing(offeringList[i]);\n}\n\n\n\n}\n\n\n\n \nfunction handleFixing (offering memory Offering) internal {  //buis logic;\n\n\nuint  contractID = Offering.contractID;\nint usdtPrice = getLatestPrice();\nint ethusdt0 = ContractMap[contractID].ethusdt0;\nuint buyerGets;\n\n/*uint _Nb_fixings, 0\n    uint _high_coupon,1\n    uint _high_coupon_barrier,2\n    uint _smaller_coupon,3\n    uint _Upoutbarrier,4\n    uint _di_barrier, 5*/\nif (Offering.attributes[0] > Offering.fixing_counter){//normal fixing logic\n\n  if (usdtPrice < int((int(Offering.attributes[5])* ethusdt0))){\n    Offering.Di_barrier_activated=true;\n    }\n\n\nif(usdtPrice > int (int (Offering.attributes[4])*ethusdt0)){\n            \n                buyerGets = ContractMap[contractID].amount + Offering.attributes[1]*ContractMap[contractID].amount;\n                EndContract( contractID );\n\n        }\n\nelse if (usdtPrice > int (Offering.attributes[2]) * ethusdt0){\n\nbuyerGets = ContractMap[contractID].amount * Offering.attributes[1];\n\n}\n\nelse if (Offering.Di_barrier_activated==false){\n    buyerGets = ContractMap[contractID].amount * Offering.attributes[3];\n}\n\nelse {\n    buyerGets = 0;\n}\n\n//inside normal fixings\n}\n\n\nelse {\n\nif (usdtPrice >int (int ( Offering.attributes[2]) * ethusdt0)){\n\nbuyerGets = Offering. attributes[1] * ContractMap[contractID].amount + ContractMap[contractID].amount;\n\n\n}\n\nelse if (Offering.Di_barrier_activated= false){\n\nbuyerGets = Offering.attributes[3] * ContractMap[contractID].amount + ContractMap[contractID].amount;\n\n}\n\nelse {\n\n    buyerGets =uint ( ContractMap[contractID].amount) / uint (Offering.attributes[2]) / uint (ethusdt0) ;\n}\n\n\n\n}\n\n\n\n}\n\nfunction EndContract ( uint contractID) internal{\n\ndelete ContractMap[contractID];\n\n}\n\n\nfunction depositToWallet () public payable {\nrequire(IssuersMap[msg.sender].issuerAddress==msg.sender || BuyersMap[msg.sender].issuerAddress==msg.sender);\n\nwalletMap[msg.sender].eth += msg.value;\n\nemit getWalletInfo(walletMap[msg.sender]);\n\n}\n\nfunction swapETHFromBuiltInWallet (uint amount)public {\n\nrequire(walletMap[msg.sender].eth >= amount);\nuint deadline = block.timestamp + 100;\n    address[] memory path = new address[](2);\n    path[0] = CoinMap[\"WETH\"];\n    path[1] = CoinMap[\"USDT\"];\n\n//WETH.call{value : amount}(\"\");\nweth.deposit{value : amount}();\nwalletMap[msg.sender]. weth += amount;\nwalletMap[msg.sender] .eth -= amount;\n//IUniswapV2Router(UNISWAP_V2_ROUTER).swapExactETHForTokens {value : amount} (0,path,address(this),deadline);\nemit getWalletInfo(walletMap[msg.sender]);\n\n}\n\n\n\nfunction buyOffering(uint _id) public payable returns(string memory) {\n\n/*struct offeringContract{\n    address buy\n    address issuer;\n    uint amount;\n    uint offeringID;\n    uint contractID;\n}*/\n\n\nuint buyTimestamp = block.timestamp;\nint ethusdt0 = getLatestPrice();\nContractMap[contractCount] = offeringContract(\n    msg.sender,\n    Offerings[_id].issuer,\n    msg.value,\n    _id,\n    contractCount,\n    ethusdt0\n\n);\nOfferings[_id]. contractID = contractCount;\n//emit getContract(ContractMap[contractCount].buyer,ContractMap[contractCount].issuer,ContractMap[contractCount].amount,ContractMap[contractCount].offeringID,ContractMap[contractCount].contractID);\nemit getContract(ContractMap[contractCount]);\ncontractCount+=1;\n\nwalletMap [Offerings[_id].issuer] . eth = msg.value ;\n\n\n//emit getWalletInfo (walletMap [Offerings[_id].issuer]);\n//Offerings[_id]. contractList . append()\n\nreturn aloo;\n\n}\n/*\nfunction checkCustody(address _issuer, uint tbs) public returns(bool){\n    bool isAllowed= false;\n    uint256 issuerBalance= _issuer.balance;\n    //check all linked offerings to issuer\n\n}*/\n\n\n\n\nfunction getCount() public view returns(uint count) {\n    return offeringIDList.length;\n}\n\nfunction getContractCount() public view returns (uint count){\n\nreturn contractCount;\n\n}\n\nfunction getContractETH () public view returns (uint){\n\nreturn address(this).balance;\n    \n}\n\nfunction getOfferings () public view returns (offering[] memory){\n\noffering[] memory toReturn= new offering[](offeringIDList.length) ;\n\nfor (uint i = 0 ; i< offeringIDList.length ; i++){\n\ntoReturn [i] = Offerings[i+1];\n\n}\n\nreturn  toReturn; //mapping offerings to ids\n\n}\n\n\nfunction getAllContracts() public view returns (offeringContract[] memory){\n\nofferingContract[] memory toReturn= new offeringContract[](contractCount) ;\n\nfor (uint i = 0 ; i< contractCount ; i++){\n\ntoReturn [i] = ContractMap[i];\n\n}\n\nreturn  toReturn; //mapping offerings to ids\n\n\n}\n\n\nfunction getDayFromTimeStamp() public view returns (uint8) {\n\nreturn parseTimestamp(block.timestamp).day;\n}\n\nfunction fillPriceLog () public {\n\nint price = getLatestPrice();\n\n_DateTime memory key = parseTimestamp(block.timestamp);\n\nuint16 year =  key.year;\nuint8 month =  key.month;\nuint8 day =  key.day;\n\n\nEthPriceLog [year][month][day] = price;\n  }\n\n\n\n\n// contract's brace\n}\n\n\n",
  "sourcePath": "D:\\projects\\Bounty_1_truffle\\contracts\\YieldOfferings.sol",
  "compiler": {
    "name": "solc",
    "version": "0.8.9+commit.e5eed63a.Emscripten.clang"
  },
  "schemaVersion": "3.4.5",
  "updatedAt": "2022-03-01T17:19:43.855Z",
  "devdoc": {
    "kind": "dev",
    "methods": {},
    "version": 1
  },
  "userdoc": {
    "kind": "user",
    "methods": {
      "getLatestPrice()": {
        "notice": "Returns the latest price"
      }
    },
    "version": 1
  }
}