{
  "contractName": "YieldOfferings",
  "abi": [
    {
      "inputs": [],
      "stateMutability": "nonpayable",
      "type": "constructor"
    },
    {
      "anonymous": false,
      "inputs": [
        {
          "indexed": false,
          "internalType": "uint256[]",
          "name": "",
          "type": "uint256[]"
        }
      ],
      "name": "getAmounts",
      "type": "event"
    },
    {
      "anonymous": false,
      "inputs": [
        {
          "components": [
            {
              "internalType": "address",
              "name": "buyer",
              "type": "address"
            },
            {
              "internalType": "address",
              "name": "issuer",
              "type": "address"
            },
            {
              "internalType": "uint256",
              "name": "amount",
              "type": "uint256"
            },
            {
              "internalType": "uint256",
              "name": "offeringID",
              "type": "uint256"
            },
            {
              "internalType": "uint256",
              "name": "contractID",
              "type": "uint256"
            },
            {
              "internalType": "int256",
              "name": "ethusdt0",
              "type": "int256"
            }
          ],
          "indexed": false,
          "internalType": "struct YieldOfferings.offeringContract",
          "name": "",
          "type": "tuple"
        }
      ],
      "name": "getContract",
      "type": "event"
    },
    {
      "anonymous": false,
      "inputs": [
        {
          "components": [
            {
              "internalType": "address",
              "name": "issuerAddress",
              "type": "address"
            },
            {
              "internalType": "uint256[]",
              "name": "offeringsList",
              "type": "uint256[]"
            }
          ],
          "indexed": false,
          "internalType": "struct YieldOfferings.issuer",
          "name": "",
          "type": "tuple"
        }
      ],
      "name": "getIssuer",
      "type": "event"
    },
    {
      "anonymous": false,
      "inputs": [
        {
          "components": [
            {
              "internalType": "uint256",
              "name": "usdt",
              "type": "uint256"
            },
            {
              "internalType": "uint256",
              "name": "eth",
              "type": "uint256"
            },
            {
              "internalType": "uint256",
              "name": "weth",
              "type": "uint256"
            }
          ],
          "indexed": false,
          "internalType": "struct YieldOfferings.wallet",
          "name": "",
          "type": "tuple"
        }
      ],
      "name": "getWalletInfo",
      "type": "event"
    },
    {
      "anonymous": false,
      "inputs": [
        {
          "indexed": false,
          "internalType": "uint256",
          "name": "",
          "type": "uint256"
        }
      ],
      "name": "gets",
      "type": "event"
    },
    {
      "anonymous": false,
      "inputs": [
        {
          "components": [
            {
              "internalType": "address",
              "name": "issuer",
              "type": "address"
            },
            {
              "internalType": "uint256",
              "name": "ID",
              "type": "uint256"
            },
            {
              "internalType": "string",
              "name": "name",
              "type": "string"
            },
            {
              "internalType": "uint256",
              "name": "fixing_counter",
              "type": "uint256"
            },
            {
              "internalType": "bool",
              "name": "Di_barrier_activated",
              "type": "bool"
            },
            {
              "internalType": "uint256",
              "name": "contractID",
              "type": "uint256"
            },
            {
              "internalType": "string",
              "name": "fixing_duration",
              "type": "string"
            },
            {
              "internalType": "uint256[]",
              "name": "attributes",
              "type": "uint256[]"
            }
          ],
          "indexed": false,
          "internalType": "struct YieldOfferings.offering",
          "name": "",
          "type": "tuple"
        }
      ],
      "name": "logAddedOffering",
      "type": "event"
    },
    {
      "inputs": [
        {
          "internalType": "address",
          "name": "",
          "type": "address"
        }
      ],
      "name": "BuyersMap",
      "outputs": [
        {
          "internalType": "address",
          "name": "issuerAddress",
          "type": "address"
        }
      ],
      "stateMutability": "view",
      "type": "function",
      "constant": true
    },
    {
      "inputs": [
        {
          "internalType": "uint256",
          "name": "",
          "type": "uint256"
        }
      ],
      "name": "DailyofferingIDList",
      "outputs": [
        {
          "internalType": "uint256",
          "name": "",
          "type": "uint256"
        }
      ],
      "stateMutability": "view",
      "type": "function",
      "constant": true
    },
    {
      "inputs": [
        {
          "internalType": "uint256",
          "name": "",
          "type": "uint256"
        }
      ],
      "name": "MonthlyofferingIDList",
      "outputs": [
        {
          "internalType": "uint256",
          "name": "",
          "type": "uint256"
        }
      ],
      "stateMutability": "view",
      "type": "function",
      "constant": true
    },
    {
      "inputs": [
        {
          "internalType": "uint256",
          "name": "",
          "type": "uint256"
        }
      ],
      "name": "Offerings",
      "outputs": [
        {
          "internalType": "address",
          "name": "issuer",
          "type": "address"
        },
        {
          "internalType": "uint256",
          "name": "ID",
          "type": "uint256"
        },
        {
          "internalType": "string",
          "name": "name",
          "type": "string"
        },
        {
          "internalType": "uint256",
          "name": "fixing_counter",
          "type": "uint256"
        },
        {
          "internalType": "bool",
          "name": "Di_barrier_activated",
          "type": "bool"
        },
        {
          "internalType": "uint256",
          "name": "contractID",
          "type": "uint256"
        },
        {
          "internalType": "string",
          "name": "fixing_duration",
          "type": "string"
        }
      ],
      "stateMutability": "view",
      "type": "function",
      "constant": true
    },
    {
      "inputs": [
        {
          "internalType": "uint256",
          "name": "",
          "type": "uint256"
        }
      ],
      "name": "WeeklyofferingIDList",
      "outputs": [
        {
          "internalType": "uint256",
          "name": "",
          "type": "uint256"
        }
      ],
      "stateMutability": "view",
      "type": "function",
      "constant": true
    },
    {
      "inputs": [
        {
          "internalType": "address",
          "name": "_tokenIn",
          "type": "address"
        },
        {
          "internalType": "uint256",
          "name": "_amountIn",
          "type": "uint256"
        }
      ],
      "name": "depositerc20",
      "outputs": [],
      "stateMutability": "nonpayable",
      "type": "function"
    },
    {
      "inputs": [
        {
          "internalType": "address",
          "name": "_tokenIn",
          "type": "address"
        },
        {
          "internalType": "address",
          "name": "_tokenOut",
          "type": "address"
        },
        {
          "internalType": "uint256",
          "name": "_amountIn",
          "type": "uint256"
        }
      ],
      "name": "getAmountOutMin",
      "outputs": [
        {
          "internalType": "uint256",
          "name": "",
          "type": "uint256"
        }
      ],
      "stateMutability": "view",
      "type": "function",
      "constant": true
    },
    {
      "inputs": [],
      "name": "getDaiBalance",
      "outputs": [
        {
          "internalType": "uint256",
          "name": "",
          "type": "uint256"
        }
      ],
      "stateMutability": "view",
      "type": "function",
      "constant": true
    },
    {
      "inputs": [
        {
          "internalType": "uint256",
          "name": "timestamp",
          "type": "uint256"
        }
      ],
      "name": "getDay",
      "outputs": [
        {
          "internalType": "uint8",
          "name": "",
          "type": "uint8"
        }
      ],
      "stateMutability": "pure",
      "type": "function",
      "constant": true
    },
    {
      "inputs": [
        {
          "internalType": "uint8",
          "name": "month",
          "type": "uint8"
        },
        {
          "internalType": "uint16",
          "name": "year",
          "type": "uint16"
        }
      ],
      "name": "getDaysInMonth",
      "outputs": [
        {
          "internalType": "uint8",
          "name": "",
          "type": "uint8"
        }
      ],
      "stateMutability": "pure",
      "type": "function",
      "constant": true
    },
    {
      "inputs": [
        {
          "internalType": "uint256",
          "name": "timestamp",
          "type": "uint256"
        }
      ],
      "name": "getHour",
      "outputs": [
        {
          "internalType": "uint8",
          "name": "",
          "type": "uint8"
        }
      ],
      "stateMutability": "pure",
      "type": "function",
      "constant": true
    },
    {
      "inputs": [],
      "name": "getLatestPrice",
      "outputs": [
        {
          "internalType": "int256",
          "name": "",
          "type": "int256"
        }
      ],
      "stateMutability": "view",
      "type": "function",
      "constant": true
    },
    {
      "inputs": [
        {
          "internalType": "uint256",
          "name": "timestamp",
          "type": "uint256"
        }
      ],
      "name": "getMinute",
      "outputs": [
        {
          "internalType": "uint8",
          "name": "",
          "type": "uint8"
        }
      ],
      "stateMutability": "pure",
      "type": "function",
      "constant": true
    },
    {
      "inputs": [
        {
          "internalType": "uint256",
          "name": "timestamp",
          "type": "uint256"
        }
      ],
      "name": "getMonth",
      "outputs": [
        {
          "internalType": "uint8",
          "name": "",
          "type": "uint8"
        }
      ],
      "stateMutability": "pure",
      "type": "function",
      "constant": true
    },
    {
      "inputs": [
        {
          "internalType": "uint256",
          "name": "timestamp",
          "type": "uint256"
        }
      ],
      "name": "getSecond",
      "outputs": [
        {
          "internalType": "uint8",
          "name": "",
          "type": "uint8"
        }
      ],
      "stateMutability": "pure",
      "type": "function",
      "constant": true
    },
    {
      "inputs": [],
      "name": "getUSDTBalance",
      "outputs": [
        {
          "internalType": "uint256",
          "name": "",
          "type": "uint256"
        }
      ],
      "stateMutability": "view",
      "type": "function",
      "constant": true
    },
    {
      "inputs": [],
      "name": "getWETHBalance",
      "outputs": [
        {
          "internalType": "uint256",
          "name": "",
          "type": "uint256"
        }
      ],
      "stateMutability": "view",
      "type": "function",
      "constant": true
    },
    {
      "inputs": [
        {
          "internalType": "uint256",
          "name": "timestamp",
          "type": "uint256"
        }
      ],
      "name": "getWeekday",
      "outputs": [
        {
          "internalType": "uint8",
          "name": "",
          "type": "uint8"
        }
      ],
      "stateMutability": "pure",
      "type": "function",
      "constant": true
    },
    {
      "inputs": [
        {
          "internalType": "uint256",
          "name": "timestamp",
          "type": "uint256"
        }
      ],
      "name": "getYear",
      "outputs": [
        {
          "internalType": "uint16",
          "name": "",
          "type": "uint16"
        }
      ],
      "stateMutability": "pure",
      "type": "function",
      "constant": true
    },
    {
      "inputs": [
        {
          "internalType": "uint16",
          "name": "year",
          "type": "uint16"
        }
      ],
      "name": "isLeapYear",
      "outputs": [
        {
          "internalType": "bool",
          "name": "",
          "type": "bool"
        }
      ],
      "stateMutability": "pure",
      "type": "function",
      "constant": true
    },
    {
      "inputs": [
        {
          "internalType": "uint256",
          "name": "year",
          "type": "uint256"
        }
      ],
      "name": "leapYearsBefore",
      "outputs": [
        {
          "internalType": "uint256",
          "name": "",
          "type": "uint256"
        }
      ],
      "stateMutability": "pure",
      "type": "function",
      "constant": true
    },
    {
      "inputs": [],
      "name": "owner",
      "outputs": [
        {
          "internalType": "address",
          "name": "",
          "type": "address"
        }
      ],
      "stateMutability": "view",
      "type": "function",
      "constant": true
    },
    {
      "inputs": [
        {
          "internalType": "address",
          "name": "_tokenIn",
          "type": "address"
        },
        {
          "internalType": "address",
          "name": "_tokenOut",
          "type": "address"
        },
        {
          "internalType": "uint256",
          "name": "_amountIn",
          "type": "uint256"
        },
        {
          "internalType": "uint256",
          "name": "_amountOutMin",
          "type": "uint256"
        }
      ],
      "name": "simpleswap",
      "outputs": [
        {
          "internalType": "uint256[]",
          "name": "amounts",
          "type": "uint256[]"
        }
      ],
      "stateMutability": "nonpayable",
      "type": "function"
    },
    {
      "inputs": [
        {
          "internalType": "address",
          "name": "_tokenIn",
          "type": "address"
        },
        {
          "internalType": "address",
          "name": "_tokenOut",
          "type": "address"
        },
        {
          "internalType": "uint256",
          "name": "_amountIn",
          "type": "uint256"
        },
        {
          "internalType": "uint256",
          "name": "_amountOutMin",
          "type": "uint256"
        },
        {
          "internalType": "address",
          "name": "_to",
          "type": "address"
        }
      ],
      "name": "swap",
      "outputs": [],
      "stateMutability": "nonpayable",
      "type": "function"
    },
    {
      "inputs": [
        {
          "internalType": "uint16",
          "name": "year",
          "type": "uint16"
        },
        {
          "internalType": "uint8",
          "name": "month",
          "type": "uint8"
        },
        {
          "internalType": "uint8",
          "name": "day",
          "type": "uint8"
        },
        {
          "internalType": "uint8",
          "name": "hour",
          "type": "uint8"
        },
        {
          "internalType": "uint8",
          "name": "minute",
          "type": "uint8"
        }
      ],
      "name": "toTimestamp",
      "outputs": [
        {
          "internalType": "uint256",
          "name": "timestamp",
          "type": "uint256"
        }
      ],
      "stateMutability": "pure",
      "type": "function",
      "constant": true
    },
    {
      "inputs": [
        {
          "internalType": "uint16",
          "name": "year",
          "type": "uint16"
        },
        {
          "internalType": "uint8",
          "name": "month",
          "type": "uint8"
        },
        {
          "internalType": "uint8",
          "name": "day",
          "type": "uint8"
        },
        {
          "internalType": "uint8",
          "name": "hour",
          "type": "uint8"
        }
      ],
      "name": "toTimestamp",
      "outputs": [
        {
          "internalType": "uint256",
          "name": "timestamp",
          "type": "uint256"
        }
      ],
      "stateMutability": "pure",
      "type": "function",
      "constant": true
    },
    {
      "inputs": [
        {
          "internalType": "uint16",
          "name": "year",
          "type": "uint16"
        },
        {
          "internalType": "uint8",
          "name": "month",
          "type": "uint8"
        },
        {
          "internalType": "uint8",
          "name": "day",
          "type": "uint8"
        }
      ],
      "name": "toTimestamp",
      "outputs": [
        {
          "internalType": "uint256",
          "name": "timestamp",
          "type": "uint256"
        }
      ],
      "stateMutability": "pure",
      "type": "function",
      "constant": true
    },
    {
      "inputs": [
        {
          "internalType": "uint16",
          "name": "year",
          "type": "uint16"
        },
        {
          "internalType": "uint8",
          "name": "month",
          "type": "uint8"
        },
        {
          "internalType": "uint8",
          "name": "day",
          "type": "uint8"
        },
        {
          "internalType": "uint8",
          "name": "hour",
          "type": "uint8"
        },
        {
          "internalType": "uint8",
          "name": "minute",
          "type": "uint8"
        },
        {
          "internalType": "uint8",
          "name": "second",
          "type": "uint8"
        }
      ],
      "name": "toTimestamp",
      "outputs": [
        {
          "internalType": "uint256",
          "name": "timestamp",
          "type": "uint256"
        }
      ],
      "stateMutability": "pure",
      "type": "function",
      "constant": true
    },
    {
      "inputs": [
        {
          "internalType": "address",
          "name": "",
          "type": "address"
        }
      ],
      "name": "walletMap",
      "outputs": [
        {
          "internalType": "uint256",
          "name": "usdt",
          "type": "uint256"
        },
        {
          "internalType": "uint256",
          "name": "eth",
          "type": "uint256"
        },
        {
          "internalType": "uint256",
          "name": "weth",
          "type": "uint256"
        }
      ],
      "stateMutability": "view",
      "type": "function",
      "constant": true
    },
    {
      "stateMutability": "payable",
      "type": "receive",
      "payable": true
    },
    {
      "inputs": [],
      "name": "SignInIssuer",
      "outputs": [],
      "stateMutability": "nonpayable",
      "type": "function"
    },
    {
      "inputs": [
        {
          "internalType": "address",
          "name": "CoinAddress",
          "type": "address"
        },
        {
          "internalType": "string",
          "name": "CoinName",
          "type": "string"
        }
      ],
      "name": "supportCoin",
      "outputs": [],
      "stateMutability": "nonpayable",
      "type": "function"
    },
    {
      "inputs": [
        {
          "internalType": "string",
          "name": "a",
          "type": "string"
        },
        {
          "internalType": "string",
          "name": "b",
          "type": "string"
        }
      ],
      "name": "compareStrings",
      "outputs": [
        {
          "internalType": "bool",
          "name": "",
          "type": "bool"
        }
      ],
      "stateMutability": "view",
      "type": "function",
      "constant": true
    },
    {
      "inputs": [
        {
          "internalType": "string",
          "name": "_name",
          "type": "string"
        },
        {
          "internalType": "uint256[]",
          "name": "input",
          "type": "uint256[]"
        },
        {
          "internalType": "string",
          "name": "fixing_duration",
          "type": "string"
        }
      ],
      "name": "addOfferingList",
      "outputs": [],
      "stateMutability": "nonpayable",
      "type": "function"
    },
    {
      "inputs": [
        {
          "internalType": "int256",
          "name": "usdtPrice",
          "type": "int256"
        }
      ],
      "name": "WeeklyofferingsLoader",
      "outputs": [
        {
          "internalType": "uint256",
          "name": "",
          "type": "uint256"
        }
      ],
      "stateMutability": "nonpayable",
      "type": "function"
    },
    {
      "inputs": [
        {
          "components": [
            {
              "internalType": "address",
              "name": "issuer",
              "type": "address"
            },
            {
              "internalType": "uint256",
              "name": "ID",
              "type": "uint256"
            },
            {
              "internalType": "string",
              "name": "name",
              "type": "string"
            },
            {
              "internalType": "uint256",
              "name": "fixing_counter",
              "type": "uint256"
            },
            {
              "internalType": "bool",
              "name": "Di_barrier_activated",
              "type": "bool"
            },
            {
              "internalType": "uint256",
              "name": "contractID",
              "type": "uint256"
            },
            {
              "internalType": "string",
              "name": "fixing_duration",
              "type": "string"
            },
            {
              "internalType": "uint256[]",
              "name": "attributes",
              "type": "uint256[]"
            }
          ],
          "internalType": "struct YieldOfferings.offering",
          "name": "Offering",
          "type": "tuple"
        },
        {
          "internalType": "int256",
          "name": "usdtPrice",
          "type": "int256"
        },
        {
          "internalType": "int256",
          "name": "ethusdt0",
          "type": "int256"
        }
      ],
      "name": "handleFixing",
      "outputs": [
        {
          "internalType": "uint256",
          "name": "",
          "type": "uint256"
        }
      ],
      "stateMutability": "nonpayable",
      "type": "function"
    },
    {
      "inputs": [],
      "name": "depositToWallet",
      "outputs": [],
      "stateMutability": "payable",
      "type": "function",
      "payable": true
    },
    {
      "inputs": [
        {
          "internalType": "uint256",
          "name": "amount",
          "type": "uint256"
        }
      ],
      "name": "swapETHFromBuiltInWallet",
      "outputs": [
        {
          "internalType": "uint256[]",
          "name": "",
          "type": "uint256[]"
        }
      ],
      "stateMutability": "nonpayable",
      "type": "function"
    },
    {
      "inputs": [
        {
          "internalType": "uint256",
          "name": "_id",
          "type": "uint256"
        }
      ],
      "name": "buyOffering",
      "outputs": [
        {
          "internalType": "string",
          "name": "",
          "type": "string"
        }
      ],
      "stateMutability": "payable",
      "type": "function",
      "payable": true
    },
    {
      "inputs": [],
      "name": "getCount",
      "outputs": [
        {
          "internalType": "uint256",
          "name": "count",
          "type": "uint256"
        }
      ],
      "stateMutability": "view",
      "type": "function",
      "constant": true
    },
    {
      "inputs": [],
      "name": "getContractCount",
      "outputs": [
        {
          "internalType": "uint256",
          "name": "count",
          "type": "uint256"
        }
      ],
      "stateMutability": "view",
      "type": "function",
      "constant": true
    },
    {
      "inputs": [],
      "name": "getContractETH",
      "outputs": [
        {
          "internalType": "uint256",
          "name": "",
          "type": "uint256"
        }
      ],
      "stateMutability": "view",
      "type": "function",
      "constant": true
    },
    {
      "inputs": [],
      "name": "getOfferings",
      "outputs": [
        {
          "components": [
            {
              "internalType": "address",
              "name": "issuer",
              "type": "address"
            },
            {
              "internalType": "uint256",
              "name": "ID",
              "type": "uint256"
            },
            {
              "internalType": "string",
              "name": "name",
              "type": "string"
            },
            {
              "internalType": "uint256",
              "name": "fixing_counter",
              "type": "uint256"
            },
            {
              "internalType": "bool",
              "name": "Di_barrier_activated",
              "type": "bool"
            },
            {
              "internalType": "uint256",
              "name": "contractID",
              "type": "uint256"
            },
            {
              "internalType": "string",
              "name": "fixing_duration",
              "type": "string"
            },
            {
              "internalType": "uint256[]",
              "name": "attributes",
              "type": "uint256[]"
            }
          ],
          "internalType": "struct YieldOfferings.offering[]",
          "name": "",
          "type": "tuple[]"
        }
      ],
      "stateMutability": "view",
      "type": "function",
      "constant": true
    },
    {
      "inputs": [],
      "name": "getAllContracts",
      "outputs": [
        {
          "components": [
            {
              "internalType": "address",
              "name": "buyer",
              "type": "address"
            },
            {
              "internalType": "address",
              "name": "issuer",
              "type": "address"
            },
            {
              "internalType": "uint256",
              "name": "amount",
              "type": "uint256"
            },
            {
              "internalType": "uint256",
              "name": "offeringID",
              "type": "uint256"
            },
            {
              "internalType": "uint256",
              "name": "contractID",
              "type": "uint256"
            },
            {
              "internalType": "int256",
              "name": "ethusdt0",
              "type": "int256"
            }
          ],
          "internalType": "struct YieldOfferings.offeringContract[]",
          "name": "",
          "type": "tuple[]"
        }
      ],
      "stateMutability": "view",
      "type": "function",
      "constant": true
    },
    {
      "inputs": [],
      "name": "getDayFromTimeStamp",
      "outputs": [
        {
          "internalType": "uint8",
          "name": "",
          "type": "uint8"
        }
      ],
      "stateMutability": "view",
      "type": "function",
      "constant": true
    },
    {
      "inputs": [],
      "name": "fillPriceLog",
      "outputs": [],
      "stateMutability": "nonpayable",
      "type": "function"
    }
  ],
  "bytecode": "0x600280546001600160a01b0319163317905560006003819055600160045560055560c06040526007608081905266426f756768742160c81b60a09081526200004b91600a9190620000a8565b503480156200005957600080fd5b50600080546001600160a01b0319908116735f4ec3df9cbd43714fe2740f5e3616155c5b8419179091556001805490911673c02aaa39b223fe8d0a0e5c4f27ead9083c756cc21790556200018b565b828054620000b6906200014e565b90600052602060002090601f016020900481019282620000da576000855562000125565b82601f10620000f557805160ff191683800117855562000125565b8280016001018555821562000125579182015b828111156200012557825182559160200191906001019062000108565b506200013392915062000137565b5090565b5b8082111562000133576000815560010162000138565b600181811c908216806200016357607f821691505b602082108114156200018557634e487b7160e01b600052602260045260246000fd5b50919050565b614180806200019b6000396000f3fe6080604052600436106102755760003560e01c80638aa001fc1161014f578063a6f0e577116100c1578063cd33c9411161007a578063cd33c941146107ae578063d5bcb9b5146107ce578063e7af8f1c146107ee578063ef3055d91461080e578063f1f5bef014610844578063fa93f8831461084c57600080fd5b8063a6f0e577146106f4578063a87d942c14610724578063b07627c814610739578063b19999371461074e578063b238ad0e1461076e578063bed34bba1461078e57600080fd5b806392d663131161011357806392d66313146106005780639399869d1461063357806393b6a95a146106485780639785fac814610668578063a2bd49431461067d578063a324ad24146106d457600080fd5b80638aa001fc146105535780638c8d98a0146105735780638da5cb5b146105935780638e15f473146105cb5780639054bdec146105e057600080fd5b80635dcba4e7116101e857806365c72840116101ac57806365c72840146104ab5780637aafa19e146104cb5780637d096ddf146104eb5780637f7918331461050b5780638258cbbd1461052b578063890d26c71461053e57600080fd5b80635dcba4e7146104125780635ddc916a146104325780635dfea79e1461044757806362ba96871461046957806365881ee91461048957600080fd5b80633e239e1a1161023a5780633e239e1a1461034b5780634ac1ad781461037d5780634d72a8c91461039d5780634f0238b8146103b2578063575ffa0d146103d25780635d8efce1146103f257600080fd5b8062cbb73b14610281578063059886ca146102a95780630bd5d863146102d657806318d3ce96146103095780633c50eec11461032b57600080fd5b3661027c57005b600080fd5b34801561028d57600080fd5b5061029661086c565b6040519081526020015b60405180910390f35b3480156102b557600080fd5b506102c96102c43660046131ea565b6108f4565b6040516102a09190613203565b3480156102e257600080fd5b506102f66102f13660046131ea565b610ba4565b6040516102a097969594939291906132a3565b34801561031557600080fd5b5061031e610d02565b6040516102a091906132fe565b34801561033757600080fd5b5061029661034636600461339e565b610e46565b34801561035757600080fd5b5061036b6103663660046131ea565b6110a8565b60405160ff90911681526020016102a0565b34801561038957600080fd5b5061036b6103983660046131ea565b6110cc565b3480156103a957600080fd5b5061036b6110e8565b3480156103be57600080fd5b506102c96103cd3660046133da565b6110fc565b3480156103de57600080fd5b506102966103ed3660046131ea565b6113d0565b6104056104003660046131ea565b611637565b6040516102a0919061341c565b34801561041e57600080fd5b5061029661042d3660046131ea565b611868565b34801561043e57600080fd5b50610296611889565b34801561045357600080fd5b5061046761046236600461359f565b6118c5565b005b34801561047557600080fd5b5061029661048436600461364a565b611c7d565b34801561049557600080fd5b5061049e611c98565b6040516102a091906136ea565b3480156104b757600080fd5b5061036b6104c63660046131ea565b611f66565b3480156104d757600080fd5b506104676104e63660046137d5565b611f7b565b3480156104f757600080fd5b506102966105063660046131ea565b611fd6565b34801561051757600080fd5b50610296610526366004613823565b611fe6565b34801561053757600080fd5b5047610296565b34801561054a57600080fd5b50610467612000565b34801561055f57600080fd5b5061036b61056e3660046131ea565b61215b565b34801561057f57600080fd5b5061029661058e366004613877565b612168565b34801561059f57600080fd5b506002546105b3906001600160a01b031681565b6040516001600160a01b0390911681526020016102a0565b3480156105d757600080fd5b50610296612182565b3480156105ec57600080fd5b506102966105fb3660046138ba565b61221e565b34801561060c57600080fd5b5061062061061b3660046131ea565b6123cf565b60405161ffff90911681526020016102a0565b34801561063f57600080fd5b50600454610296565b34801561065457600080fd5b5061046761066336600461392e565b6124bf565b34801561067457600080fd5b5061029661254a565b34801561068957600080fd5b506106b9610698366004613958565b600d6020526000908152604090208054600182015460029092015490919083565b604080519384526020840192909252908201526060016102a0565b3480156106e057600080fd5b5061036b6106ef3660046131ea565b612586565b34801561070057600080fd5b5061071461070f366004613973565b61259b565b60405190151581526020016102a0565b34801561073057600080fd5b50600754610296565b34801561074557600080fd5b506104676125fa565b34801561075a57600080fd5b506102966107693660046131ea565b612690565b34801561077a57600080fd5b5061036b61078936600461398e565b6126d5565b34801561079a57600080fd5b506107146107a93660046139c1565b61279c565b3480156107ba57600080fd5b506102966107c93660046131ea565b6127f5565b3480156107da57600080fd5b506104676107e9366004613a1b565b612805565b3480156107fa57600080fd5b50610296610809366004613a82565b612b6c565b34801561081a57600080fd5b506105b3610829366004613958565b6010602052600090815260409020546001600160a01b031681565b610467612e35565b34801561085857600080fd5b5061036b6108673660046131ea565b612f02565b6040516370a0823160e01b8152306004820152600090819060008051602061412b833981519152906370a08231906024015b60206040518083038186803b1580156108b657600080fd5b505afa1580156108ca573d6000803e3d6000fd5b505050506040513d601f19601f820116820180604052508101906108ee9190613b89565b92915050565b336000908152600d602052604090206001015460609082111561091657600080fd5b6000610923426064613bb8565b604080516002808252606082018352929350600092909160208301908036833701905050905060008051602061412b8339815191528160008151811061096b5761096b613bd0565b60200260200101906001600160a01b031690816001600160a01b03168152505073dac17f958d2ee523a2206206994597c13d831ec7816001815181106109b3576109b3613bd0565b6001600160a01b03928316602091820292909201015260015460408051630d0e30db60e41b81529051919092169163d0e30db091879160048082019260009290919082900301818588803b158015610a0a57600080fd5b505af1158015610a1e573d6000803e3d6000fd5b50505050506000610a5260008051602061412b833981519152736b175474e89094c44da98b954eedeac495271d0f87610e46565b90506000610a8460008051602061412b833981519152736b175474e89094c44da98b954eedeac495271d0f88856110fc565b90507f8877fecc35f925da8a88e73d44b3c2502b8f43e2c21645c6bef7dbc2da04151981604051610ab59190613203565b60405180910390a180600181518110610ad057610ad0613bd0565b6020026020010151600d6000336001600160a01b03166001600160a01b031681526020019081526020016000206000016000828254610b0f9190613bb8565b9091555050336000908152600d602052604081206001018054889290610b36908490613be6565b9091555050336000908152600d60205260409081902090517f72e8a9e162166777febe65180487a15d66a798aa00ccf3d4743743cf235fdb7b91610b93918154815260018201546020820152600290910154604082015260600190565b60405180910390a195945050505050565b600c602052600090815260409020805460018201546002830180546001600160a01b03909316939192610bd690613bfd565b80601f0160208091040260200160405190810160405280929190818152602001828054610c0290613bfd565b8015610c4f5780601f10610c2457610100808354040283529160200191610c4f565b820191906000526020600020905b815481529060010190602001808311610c3257829003601f168201915b5050506003840154600485015460058601546006870180549697939660ff909316955090935090610c7f90613bfd565b80601f0160208091040260200160405190810160405280929190818152602001828054610cab90613bfd565b8015610cf85780601f10610ccd57610100808354040283529160200191610cf8565b820191906000526020600020905b815481529060010190602001808311610cdb57829003601f168201915b5050505050905087565b6060600060045467ffffffffffffffff811115610d2157610d2161342f565b604051908082528060200260200182016040528015610d9d57816020015b610d8a6040518060c0016040528060006001600160a01b0316815260200160006001600160a01b03168152602001600081526020016000815260200160008152602001600081525090565b815260200190600190039081610d3f5790505b50905060005b600454811015610e40576000818152600e6020908152604091829020825160c08101845281546001600160a01b03908116825260018301541692810192909252600281015492820192909252600382015460608201526004820154608082015260059091015460a08201528251839083908110610e2257610e22613bd0565b60200260200101819052508080610e3890613c32565b915050610da3565b50919050565b600060606001600160a01b03851660008051602061412b8339815191521480610e8557506001600160a01b03841660008051602061412b833981519152145b15610f175760408051600280825260608201835290916020830190803683370190505090508481600081518110610ebe57610ebe613bd0565b60200260200101906001600160a01b031690816001600160a01b0316815250508381600181518110610ef257610ef2613bd0565b60200260200101906001600160a01b031690816001600160a01b031681525050610fe3565b6040805160038082526080820190925290602082016060803683370190505090508481600081518110610f4c57610f4c613bd0565b60200260200101906001600160a01b031690816001600160a01b03168152505060008051602061412b83398151915281600181518110610f8e57610f8e613bd0565b60200260200101906001600160a01b031690816001600160a01b0316815250508381600281518110610fc257610fc2613bd0565b60200260200101906001600160a01b031690816001600160a01b0316815250505b60405163d06ca61f60e01b8152600090737a250d5630b4cf539739df2c5dacb4c659f2488d9063d06ca61f9061101f9087908690600401613c86565b60006040518083038186803b15801561103757600080fd5b505afa15801561104b573d6000803e3d6000fd5b505050506040513d6000823e601f3d908101601f191682016040526110739190810190613c9f565b905080600183516110849190613be6565b8151811061109457611094613bd0565b6020026020010151925050505b9392505050565b60006018603c6110b88185613d3b565b6110c29190613d3b565b6108ee9190613d4f565b600060076110dd6201518084613d3b565b6110c2906004613bb8565b60006110f342612f10565b60400151905090565b60405163095ea7b360e01b8152737a250d5630b4cf539739df2c5dacb4c659f2488d6004820152602481018390526060906001600160a01b0386169063095ea7b390604401602060405180830381600087803b15801561115b57600080fd5b505af115801561116f573d6000803e3d6000fd5b505050506040513d601f19601f820116820180604052508101906111939190613d63565b504260606001600160a01b03871660008051602061412b83398151915214806111d257506001600160a01b03861660008051602061412b833981519152145b15611264576040805160028082526060820183529091602083019080368337019050509050868160008151811061120b5761120b613bd0565b60200260200101906001600160a01b031690816001600160a01b031681525050858160018151811061123f5761123f613bd0565b60200260200101906001600160a01b031690816001600160a01b031681525050611330565b604080516003808252608082019092529060208201606080368337019050509050868160008151811061129957611299613bd0565b60200260200101906001600160a01b031690816001600160a01b03168152505060008051602061412b833981519152816001815181106112db576112db613bd0565b60200260200101906001600160a01b031690816001600160a01b031681525050858160028151811061130f5761130f613bd0565b60200260200101906001600160a01b031690816001600160a01b0316815250505b6040516338ed173960e01b8152737a250d5630b4cf539739df2c5dacb4c659f2488d906338ed17399061136f9088908890869030904290600401613d80565b600060405180830381600087803b15801561138957600080fd5b505af115801561139d573d6000803e3d6000fd5b505050506040513d6000823e601f3d908101601f191682016040526113c59190810190613c9f565b979650505050505050565b60008060005b6007548110156115fd576115e9600c6000600784815481106113fa576113fa613bd0565b60009182526020808320909101548352828101939093526040918201902081516101008101835281546001600160a01b03168152600182015493810193909352600281018054919284019161144e90613bfd565b80601f016020809104026020016040519081016040528092919081815260200182805461147a90613bfd565b80156114c75780601f1061149c576101008083540402835291602001916114c7565b820191906000526020600020905b8154815290600101906020018083116114aa57829003601f168201915b505050918352505060038201546020820152600482015460ff16151560408201526005820154606082015260068201805460809092019161150790613bfd565b80601f016020809104026020016040519081016040528092919081815260200182805461153390613bfd565b80156115805780601f1061155557610100808354040283529160200191611580565b820191906000526020600020905b81548152906001019060200180831161156357829003601f168201915b50505050508152602001600782018054806020026020016040519081016040528092919081815260200182805480156115d857602002820191906000526020600020905b8154815260200190600101908083116115c4575b505050505081525050856000612b6c565b9150806115f581613c32565b9150506113d6565b506040518181527fd30f3f489abf7c7b7a41f7d31687fa124499f3e46aea1fec81b7f32c5e7b4a649060200160405180910390a192915050565b6000818152600c60205260409020600501546060901561165657600080fd5b426000611661612182565b6040805160c0810182523381526000878152600c602090815283822080546001600160a01b0390811683860190815234868801908152606087018d81526004805460808a0181815260a08b018d8152918a52600e808a528c8b209b518c549089166001600160a01b0319918216178d55965160018d01805491909916971696909617909655925160028a015590516003890155925187840155516005968701559054949091018490559282529190915281902090519192507fae07c750619676b65c76014d9369b102a06a3011a65578484a83ab388ef569dc91611789919081546001600160a01b039081168252600183015416602082015260028201546040820152600382015460608201526004820154608082015260059091015460a082015260c00190565b60405180910390a16001600460008282546117a49190613bb8565b90915550506000848152600c60209081526040808320546001600160a01b03168352600d909152902034600190910155600a80546117e190613bfd565b80601f016020809104026020016040519081016040528092919081815260200182805461180d90613bfd565b801561185a5780601f1061182f5761010080835404028352916020019161185a565b820191906000526020600020905b81548152906001019060200180831161183d57829003601f168201915b505050505092505050919050565b6008818154811061187857600080fd5b600091825260209091200154905081565b6040516370a0823160e01b8152306004820152600090819073111111111117dc0aa78b770fa6a738034120c302906370a082319060240161089e565b336000818152601160205260409020546001600160a01b0316146119305760405162461bcd60e51b815260206004820152601860248201527f506c65617365205369676e20496e20617320497373756572000000000000000060448201526064015b60405180910390fd5b60008351116119815760405162461bcd60e51b815260206004820152601760248201527f6e616d652063616e6e6f7420626576616c20656d7074790000000000000000006044820152606401611927565b6119a981604051806040016040528060068152602001657765656b6c7960d01b81525061279c565b806119d857506119d881604051806040016040528060078152602001666d6f6e74686c7960c81b81525061279c565b80611a0b5750611a0581604051806040016040528060058152602001646461696c7960d81b81525061279c565b15156001145b611a1457600080fd5b60006003546001611a259190613bb8565b9050611a4f82604051806040016040528060068152602001657765656b6c7960d01b81525061279c565b15611a8e57600780546001810182556000919091527fa66cc928b5edb82af9bd49922954155ab7b0942694bea4ce44661d9a8736c68801819055611b2c565b611ab782604051806040016040528060078152602001666d6f6e74686c7960c81b81525061279c565b15611af657600680546001810182556000919091527ff652222313e28459528d920b65115c16c04f3efc82aaedc97be59f3f377c0d3f01819055611b2c565b600880546001810182556000919091527ff3f7a9fe364faab93b216da50a3214154f22a0a2b415b23a84c8169e8b636ee3018190555b604080516101008101825233815260208082018481528284018881526000606085018190526080850181905260a0850181905260c0850188905260e08501899052868152600c8452948520845181546001600160a01b0319166001600160a01b03909116178155915160018301555180519192611bb1926002850192909101906130f8565b5060608201516003820155608082015160048201805460ff191691151591909117905560a0820151600582015560c08201518051611bf99160068401916020909101906130f8565b5060e08201518051611c1591600784019160209091019061317c565b50905050600160036000828254611c2c9190613bb8565b90915550506000828152600c60205260409081902090517fdd65e5e936add42c1243a235ee70787b647fc85e7e2bf224d9013ed069f8309691611c6e91613e91565b60405180910390a15050505050565b6000611c8e8686868686600061221e565b9695505050505050565b6060600060035467ffffffffffffffff811115611cb757611cb761342f565b604051908082528060200260200182016040528015611d3b57816020015b611d2860405180610100016040528060006001600160a01b031681526020016000815260200160608152602001600081526020016000151581526020016000815260200160608152602001606081525090565b815260200190600190039081611cd55790505b50905060005b600354811015610e4057600c6000611d5a836001613bb8565b8152602080820192909252604090810160002081516101008101835281546001600160a01b031681526001820154938101939093526002810180549192840191611da390613bfd565b80601f0160208091040260200160405190810160405280929190818152602001828054611dcf90613bfd565b8015611e1c5780601f10611df157610100808354040283529160200191611e1c565b820191906000526020600020905b815481529060010190602001808311611dff57829003601f168201915b505050918352505060038201546020820152600482015460ff161515604082015260058201546060820152600682018054608090920191611e5c90613bfd565b80601f0160208091040260200160405190810160405280929190818152602001828054611e8890613bfd565b8015611ed55780601f10611eaa57610100808354040283529160200191611ed5565b820191906000526020600020905b815481529060010190602001808311611eb857829003601f168201915b5050505050815260200160078201805480602002602001604051908101604052809291908181526020018280548015611f2d57602002820191906000526020600020905b815481526020019060010190808311611f19575b505050505081525050828281518110611f4857611f48613bd0565b60200260200101819052508080611f5e90613c32565b915050611d41565b6000611f7182612f10565b6040015192915050565b6002546001600160a01b03163314611f9257600080fd5b81600f82604051611fa39190613f37565b90815260405190819003602001902080546001600160a01b03929092166001600160a01b03199092169190911790555050565b6006818154811061187857600080fd5b6000611ff78585858560008061221e565b95945050505050565b336000908152601160205260409020546001600160a01b0316156120665760405162461bcd60e51b815260206004820152601c60248201527f416c7265616479205369676e656420696e2061732049737375657221000000006044820152606401611927565b6040805160608101825260008082526020808301828152838501838152338452600d9092529390912091518255915160018083019190915591516002909101556005546120b291613bb8565b600555604080518082018252338082526060602080840182815260009384526011825294909220835181546001600160a01b0319166001600160a01b039091161781559351805191949261210e9260018501929091019061317c565b5050336000908152601160205260409081902090517fe98c073dd958639e8957a0d059199a9480a89cd8af94ba92e4aadd4a0c21468992506121509190613f53565b60405180910390a150565b60006108ee603c83613d4f565b600061217a848484600080600061221e565b949350505050565b60008060008060008060008054906101000a90046001600160a01b03166001600160a01b031663feaf968c6040518163ffffffff1660e01b815260040160a06040518083038186803b1580156121d757600080fd5b505afa1580156121eb573d6000803e3d6000fd5b505050506040513d601f19601f8201168201806040525081019061220f9190613f99565b50919998505050505050505050565b60006107b25b8761ffff168161ffff16101561227a5761223d8161259b565b15612257576122506301e2850083613bb8565b9150612268565b6122656301e1338083613bb8565b91505b8061227281613fdd565b915050612224565b6122826131b6565b601f815261228f8961259b565b156122a057601d60208201526122a8565b601c60208201525b601f60408201819052601e606083018190526080830182905260a0830181905260c0830182905260e0830182905261010083018190526101208301829052610140830152610160820152600191505b8760ff168261ffff1610156123595780612312600184613fff565b61ffff16600c811061232657612326613bd0565b602002015161233b9060ff1662015180614022565b6123459084613bb8565b92508161235181613fdd565b9250506122f7565b612364600188614041565b6123749060ff1662015180614022565b61237e9084613bb8565b925061238f60ff8716610e10614022565b6123999084613bb8565b92506123a960ff8616603c614022565b6123b39084613bb8565b92506123c260ff851684613bb8565b9998505050505050505050565b60008080806123e26301e1338086613d3b565b6123ee906107b2613bb8565b91506123fb6107b2612690565b6124088361ffff16612690565b6124129190613be6565b9050612422816301e28500614022565b61242c9084613bb8565b92508061243b6107b284613fff565b61ffff166124499190613be6565b612457906301e13380614022565b6124619084613bb8565b92505b848311156124b75761247a61070f600184613fff565b156124945761248d6301e2850084613be6565b92506124a5565b6124a26301e1338084613be6565b92505b6124b0600183613fff565b9150612464565b509392505050565b6040516323b872dd60e01b8152336004820152306024820152604481018290526001600160a01b038316906323b872dd90606401602060405180830381600087803b15801561250d57600080fd5b505af1158015612521573d6000803e3d6000fd5b505050506040513d601f19601f820116820180604052508101906125459190613d63565b505050565b6040516370a0823160e01b81523060048201526000908190736b175474e89094c44da98b954eedeac495271d0f906370a082319060240161089e565b600061259182612f10565b6020015192915050565b60006125a8600483614064565b61ffff16156125b957506000919050565b6125c4606483614064565b61ffff16156125d557506001919050565b6125e161019083614064565b61ffff16156125f257506000919050565b506001919050565b6000612604612182565b9050600061261142612f10565b805160208201516040830151600b805494955092939192909186919061ffff861690811061264157612641613bd0565b906000526020600020018360ff168154811061265f5761265f613bd0565b906000526020600020018260ff168154811061267d5761267d613bd0565b6000918252602090912001555050505050565b600061269d600183613be6565b91506126ab61019083613d3b565b6126b6606484613d3b565b6126c1600485613d3b565b6126cb9190613be6565b6108ee9190613bb8565b60008260ff16600114806126ec57508260ff166003145b806126fa57508260ff166005145b8061270857508260ff166007145b8061271657508260ff166008145b8061272457508260ff16600a145b8061273257508260ff16600c145b1561273f5750601f6108ee565b8260ff166004148061275457508260ff166006145b8061276257508260ff166009145b8061277057508260ff16600b145b1561277d5750601e6108ee565b6127868261259b565b156127935750601d6108ee565b50601c92915050565b6000816040516020016127af9190613f37565b60405160208183030381529060405280519060200120836040516020016127d69190613f37565b6040516020818303038152906040528051906020012014905092915050565b6007818154811061187857600080fd5b6040516323b872dd60e01b8152336004820152306024820152604481018490526001600160a01b038616906323b872dd90606401602060405180830381600087803b15801561285357600080fd5b505af1158015612867573d6000803e3d6000fd5b505050506040513d601f19601f8201168201806040525081019061288b9190613d63565b5060405163095ea7b360e01b8152737a250d5630b4cf539739df2c5dacb4c659f2488d6004820152602481018490526001600160a01b0386169063095ea7b390604401602060405180830381600087803b1580156128e857600080fd5b505af11580156128fc573d6000803e3d6000fd5b505050506040513d601f19601f820116820180604052508101906129209190613d63565b50600061293042620186a0613bb8565b905060606001600160a01b03871660008051602061412b833981519152148061296f57506001600160a01b03861660008051602061412b833981519152145b15612a0157604080516002808252606082018352909160208301908036833701905050905086816000815181106129a8576129a8613bd0565b60200260200101906001600160a01b031690816001600160a01b03168152505085816001815181106129dc576129dc613bd0565b60200260200101906001600160a01b031690816001600160a01b031681525050612acd565b6040805160038082526080820190925290602082016060803683370190505090508681600081518110612a3657612a36613bd0565b60200260200101906001600160a01b031690816001600160a01b03168152505060008051602061412b83398151915281600181518110612a7857612a78613bd0565b60200260200101906001600160a01b031690816001600160a01b0316815250508581600281518110612aac57612aac613bd0565b60200260200101906001600160a01b031690816001600160a01b0316815250505b6040516338ed173960e01b8152737a250d5630b4cf539739df2c5dacb4c659f2488d906338ed173990612b0c9088908890869089908990600401613d80565b600060405180830381600087803b158015612b2657600080fd5b505af1158015612b3a573d6000803e3d6000fd5b505050506040513d6000823e601f3d908101601f19168201604052612b629190810190613c9f565b5050505050505050565b6000808460a001519050600085606001518660e00151600081518110612b9457612b94613bd0565b60200260200101511115612d4d57838660e00151600581518110612bba57612bba613bd0565b6020026020010151612bcc9190614085565b851215612bdb57600160808701525b838660e00151600481518110612bf357612bf3613bd0565b6020026020010151612c059190614085565b851315612cad576000828152600e602052604090206002015460e087015180516001908110612c3657612c36613bd0565b6020026020010151612c489190614022565b6000838152600e6020526040902060020154612c649190613bb8565b6000838152600e6020526040812080546001600160a01b031990811682556001820180549091169055600281018290556003810182905560048101829055600501559050612e2c565b838660e00151600281518110612cc557612cc5613bd0565b6020026020010151612cd79190614085565b851315612d25578560e00151600181518110612cf557612cf5613bd0565b6020026020010151600e600084815260200190815260200160002060020154612d1e9190614022565b9050612e2c565b6080860151612d45578560e00151600381518110612cf557612cf5613bd0565b506000612e2c565b838660e00151600281518110612d6557612d65613bd0565b6020026020010151612d779190614085565b851315612dce576000828152600e602052604090206002015460e087015180518291906001908110612dab57612dab613bd0565b6020026020010151612dbd9190614022565b612dc79190613bb8565b9050612e23565b60006080870152838660e00151600281518110612ded57612ded613bd0565b6020026020010151600e600085815260200190815260200160002060020154612e169190613d3b565b612e209190613d3b565b90505b91506110a19050565b50509392505050565b336000818152601160205260409020546001600160a01b03161480612e705750336000818152601060205260409020546001600160a01b0316145b612e7957600080fd5b336000908152600d602052604081206001018054349290612e9b908490613bb8565b9091555050336000908152600d60205260409081902090517f72e8a9e162166777febe65180487a15d66a798aa00ccf3d4743743cf235fdb7b91612ef8918154815260018201546020820152600290910154604082015260600190565b60405180910390a1565b6000603c6110c28184613d3b565b6040805160e081018252600080825260208201819052918101829052606081018290526080810182905260a0810182905260c08101829052908080612f54856123cf565b61ffff168452612f656107b2612690565b8451612f749061ffff16612690565b612f7e9190613be6565b9150612f8e826301e28500614022565b612f989084613bb8565b9250816107b28560000151612fad9190613fff565b61ffff16612fbb9190613be6565b612fc9906301e13380614022565b612fd39084613bb8565b92506000600191505b600c8260ff161161304457612ff58286600001516126d5565b6130059060ff1662015180614022565b9050856130128583613bb8565b11156130265760ff82166020860152613044565b6130308185613bb8565b93508161303c8161410a565b925050612fdc565b600191505b61305b856020015186600001516126d5565b60ff168260ff16116130aa57856130758562015180613bb8565b11156130895760ff821660408601526130aa565b6130966201518085613bb8565b9350816130a28161410a565b925050613049565b6130b3866110a8565b60ff1660608601526130c486612f02565b60ff1660808601526130d58661215b565b60ff1660a08601526130e6866110cc565b60ff1660c08601525092949350505050565b82805461310490613bfd565b90600052602060002090601f016020900481019282613126576000855561316c565b82601f1061313f57805160ff191683800117855561316c565b8280016001018555821561316c579182015b8281111561316c578251825591602001919060010190613151565b506131789291506131d5565b5090565b82805482825590600052602060002090810192821561316c579160200282018281111561316c578251825591602001919060010190613151565b604051806101800160405280600c906020820280368337509192915050565b5b8082111561317857600081556001016131d6565b6000602082840312156131fc57600080fd5b5035919050565b6020808252825182820181905260009190848201906040850190845b8181101561323b5783518352928401929184019160010161321f565b50909695505050505050565b60005b8381101561326257818101518382015260200161324a565b83811115613271576000848401525b50505050565b6000815180845261328f816020860160208601613247565b601f01601f19169290920160200192915050565b60018060a01b038816815286602082015260e0604082015260006132ca60e0830188613277565b86606084015285151560808401528460a084015282810360c08401526132f08185613277565b9a9950505050505050505050565b602080825282518282018190526000919060409081850190868401855b8281101561337557815180516001600160a01b0390811686528782015116878601528581015186860152606080820151908601526080808201519086015260a0908101519085015260c0909301929085019060010161331b565b5091979650505050505050565b80356001600160a01b038116811461339957600080fd5b919050565b6000806000606084860312156133b357600080fd5b6133bc84613382565b92506133ca60208501613382565b9150604084013590509250925092565b600080600080608085870312156133f057600080fd5b6133f985613382565b935061340760208601613382565b93969395505050506040820135916060013590565b6020815260006110a16020830184613277565b634e487b7160e01b600052604160045260246000fd5b604051610100810167ffffffffffffffff811182821017156134695761346961342f565b60405290565b604051601f8201601f1916810167ffffffffffffffff811182821017156134985761349861342f565b604052919050565b600082601f8301126134b157600080fd5b813567ffffffffffffffff8111156134cb576134cb61342f565b6134de601f8201601f191660200161346f565b8181528460208386010111156134f357600080fd5b816020850160208301376000918101602001919091529392505050565b600067ffffffffffffffff82111561352a5761352a61342f565b5060051b60200190565b600082601f83011261354557600080fd5b8135602061355a61355583613510565b61346f565b82815260059290921b8401810191818101908684111561357957600080fd5b8286015b84811015613594578035835291830191830161357d565b509695505050505050565b6000806000606084860312156135b457600080fd5b833567ffffffffffffffff808211156135cc57600080fd5b6135d8878388016134a0565b945060208601359150808211156135ee57600080fd5b6135fa87838801613534565b9350604086013591508082111561361057600080fd5b5061361d868287016134a0565b9150509250925092565b803561ffff8116811461339957600080fd5b803560ff8116811461339957600080fd5b600080600080600060a0868803121561366257600080fd5b61366b86613627565b945061367960208701613639565b935061368760408701613639565b925061369560608701613639565b91506136a360808701613639565b90509295509295909350565b600081518084526020808501945080840160005b838110156136df578151875295820195908201906001016136c3565b509495945050505050565b60006020808301818452808551808352604092508286019150828160051b87010184880160005b838110156137c757888303603f19018552815180516001600160a01b03168452610100888201518986015287820151818987015261375182870182613277565b91505060608083015181870152506080808301516137728288018215159052565b505060a0828101519086015260c080830151868303828801526137958382613277565b9250505060e080830151925085820381870152506137b381836136af565b968901969450505090860190600101613711565b509098975050505050505050565b600080604083850312156137e857600080fd5b6137f183613382565b9150602083013567ffffffffffffffff81111561380d57600080fd5b613819858286016134a0565b9150509250929050565b6000806000806080858703121561383957600080fd5b61384285613627565b935061385060208601613639565b925061385e60408601613639565b915061386c60608601613639565b905092959194509250565b60008060006060848603121561388c57600080fd5b61389584613627565b92506138a360208501613639565b91506138b160408501613639565b90509250925092565b60008060008060008060c087890312156138d357600080fd5b6138dc87613627565b95506138ea60208801613639565b94506138f860408801613639565b935061390660608801613639565b925061391460808801613639565b915061392260a08801613639565b90509295509295509295565b6000806040838503121561394157600080fd5b61394a83613382565b946020939093013593505050565b60006020828403121561396a57600080fd5b6110a182613382565b60006020828403121561398557600080fd5b6110a182613627565b600080604083850312156139a157600080fd5b6139aa83613639565b91506139b860208401613627565b90509250929050565b600080604083850312156139d457600080fd5b823567ffffffffffffffff808211156139ec57600080fd5b6139f8868387016134a0565b93506020850135915080821115613a0e57600080fd5b50613819858286016134a0565b600080600080600060a08688031215613a3357600080fd5b613a3c86613382565b9450613a4a60208701613382565b935060408601359250606086013591506136a360808701613382565b8015158114613a7457600080fd5b50565b803561339981613a66565b600080600060608486031215613a9757600080fd5b833567ffffffffffffffff80821115613aaf57600080fd5b908501906101008288031215613ac457600080fd5b613acc613445565b613ad583613382565b815260208301356020820152604083013582811115613af357600080fd5b613aff898286016134a0565b60408301525060608301356060820152613b1b60808401613a77565b608082015260a083013560a082015260c083013582811115613b3c57600080fd5b613b48898286016134a0565b60c08301525060e083013582811115613b6057600080fd5b613b6c89828601613534565b60e083015250976020870135975060409096013595945050505050565b600060208284031215613b9b57600080fd5b5051919050565b634e487b7160e01b600052601160045260246000fd5b60008219821115613bcb57613bcb613ba2565b500190565b634e487b7160e01b600052603260045260246000fd5b600082821015613bf857613bf8613ba2565b500390565b600181811c90821680613c1157607f821691505b60208210811415610e4057634e487b7160e01b600052602260045260246000fd5b6000600019821415613c4657613c46613ba2565b5060010190565b600081518084526020808501945080840160005b838110156136df5781516001600160a01b031687529582019590820190600101613c61565b82815260406020820152600061217a6040830184613c4d565b60006020808385031215613cb257600080fd5b825167ffffffffffffffff811115613cc957600080fd5b8301601f81018513613cda57600080fd5b8051613ce861355582613510565b81815260059190911b82018301908381019087831115613d0757600080fd5b928401925b828410156113c557835182529284019290840190613d0c565b634e487b7160e01b600052601260045260246000fd5b600082613d4a57613d4a613d25565b500490565b600082613d5e57613d5e613d25565b500690565b600060208284031215613d7557600080fd5b81516110a181613a66565b85815284602082015260a060408201526000613d9f60a0830186613c4d565b6001600160a01b0394909416606083015250608001529392505050565b8054600090600181811c9080831680613dd657607f831692505b6020808410821415613df857634e487b7160e01b600052602260045260246000fd5b83885260208801828015613e135760018114613e2457613e4f565b60ff19871682528282019750613e4f565b60008981526020902060005b87811015613e4957815484820152908601908401613e30565b83019850505b5050505050505092915050565b6000815480845260208085019450836000528060002060005b838110156136df57815487529582019560019182019101613e75565b60208152613eba60208201613ead84546001600160a01b031690565b6001600160a01b03169052565b600182015460408201526000610100806060840152613ee0610120840160028601613dbc565b60038501546080850152600485015460ff16151560a0850152600585015460c0850152838103601f1990810160e0860152613f1e8260068801613dbc565b915080858303018386015250611ff78160078701613e5c565b60008251613f49818460208701613247565b9190910192915050565b602080825282546001600160a01b03169082015260408082015260006110a16060830160018501613e5c565b805169ffffffffffffffffffff8116811461339957600080fd5b600080600080600060a08688031215613fb157600080fd5b613fba86613f7f565b94506020860151935060408601519250606086015191506136a360808701613f7f565b600061ffff80831681811415613ff557613ff5613ba2565b6001019392505050565b600061ffff8381169083168181101561401a5761401a613ba2565b039392505050565b600081600019048311821515161561403c5761403c613ba2565b500290565b600060ff821660ff84168082101561405b5761405b613ba2565b90039392505050565b600061ffff8084168061407957614079613d25565b92169190910692915050565b60006001600160ff1b03818413828413808216868404861116156140ab576140ab613ba2565b600160ff1b60008712828116878305891216156140ca576140ca613ba2565b600087129250878205871284841616156140e6576140e6613ba2565b878505871281841616156140fc576140fc613ba2565b505050929093029392505050565b600060ff821660ff81141561412157614121613ba2565b6001019291505056fe000000000000000000000000c02aaa39b223fe8d0a0e5c4f27ead9083c756cc2a2646970667358221220e475ea2db1e0cb169ac4c19b42a6114c566b3b46b045c48abb1a754472dec26664736f6c63430008090033",
  "immutableReferences": {},
  "source": "pragma solidity 0.8.9;\n\nimport \"./TradeCenter.sol\";\n//import \"@openzeppelin/contracts/token/ERC20/extensions/ERC20Wrapper.sol\";\n\nimport \"./ERC20.sol\";\nimport \"./DateTime.sol\";\n\ninterface _ERC20{\n  function deposit() external payable;\n  function withdraw(uint256 amount) external;\n  function name() external returns (string memory);\n  \n}\n\ncontract YieldOfferings is TradeCenter, DateTime {\n   \n_ERC20 weth;  \n//ERC20 usdt;\naddress public owner = msg.sender; // contract owner\n // will be used in logic\nuint offeringCount = 0; // keep track of all number\nuint contractCount=1;\nuint walletCount=0;\nuint[] public MonthlyofferingIDList; // all ids list\nuint[] public WeeklyofferingIDList;\nuint[] public DailyofferingIDList;\naddress[] walletOwners;\nstring aloo = \"Bought!\";\nint[][][] EthPriceLog;\n//address WETH = 0xC02aaA39b223FE8D0A0e5C4F27eAD9083C756Cc2;\n\n//mapping (address=> bool) public hasWallet;\n\n//hasWallet[key] \n\n\n\n\nmapping (uint => offering) public Offerings; //mapping offerings to ids\nmapping (address => wallet) public walletMap;\nmapping(uint => offeringContract) ContractMap;\nmapping (string => address) CoinMap;\n//mapping (_DateTime => int ) EthPriceLog;\n\nstruct wallet {\nuint usdt;\nuint eth;\nuint weth;\n//uint ONEINCH;\n//uint WETH;\n}\n\nstruct buyer {\n    address buyerAddress;\n\n    offering[] offerings;\n    uint[] ContractsIds;\n    uint[] offeringIDList;\n}\n\nstruct issuer {\n    address issuerAddress;\n    //uint256 balance;\n    //uint256 accountPayable;\n    uint[] offeringsList;\n    //uint WalletID;\n    //uint[] ContractsIds;\n    //bool hasWallet;\n}\n\nmapping (address => issuer) public BuyersMap;\nmapping (address => issuer) internal IssuersMap;\n\n\n\nstruct offeringContract{\n    address buyer;\n    address issuer;\n    uint amount;\n    uint offeringID;\n    uint contractID;\n    int ethusdt0;\n}\n\n/*uint _Nb_fixings,\n    uint _high_coupon,\n    uint _high_coupon_barrier,\n    uint _smaller_coupon,\n    uint _Upoutbarrier,\n    uint _di_barrier, */\n\n\nstruct offering{\n    address issuer;\n    uint ID;\n    string name;\n    uint fixing_counter;\n    bool Di_barrier_activated;\n    uint contractID;\n    string fixing_duration;\n    uint [] attributes;\n}\n\n\nevent logAddedOffering(offering);\nevent getContract (offeringContract);\nevent getIssuer (issuer);\nevent getWalletInfo(wallet);\n// function to add a new offering \n\nconstructor () public {\n\n    weth = _ERC20 (WETH);\n    //usdt = ERC20 (0xdAC17F958D2ee523a2206206994597C13D831ec7);\n}\n\nfunction SignInIssuer () public  {\nrequire(IssuersMap[msg.sender].issuerAddress==0x0000000000000000000000000000000000000000, \"Already Signed in as Issuer!\" );\n/*struct issuer {\n    address issuerAddress;\n    offering[] offerings;\n    uint[] ContractsIds;\n}*/\nwalletMap[msg.sender] = wallet (\n0,\n0,\n0\n);\nwalletCount = walletCount+1;\n\nuint[] memory offeringEmptyList;\nIssuersMap[msg.sender] = issuer(\nmsg.sender,\nofferingEmptyList\n);\n\n\n\nemit getIssuer(IssuersMap[msg.sender]);\n\n}\n\nfunction supportCoin(address CoinAddress, string memory CoinName) public {\nrequire(msg.sender == owner);\nCoinMap[CoinName] = CoinAddress;\n\n}\n\nfunction compareStrings(string memory a, string memory b) public view returns (bool) {\n    return (keccak256(abi.encodePacked((a))) == keccak256(abi.encodePacked((b))));\n}\n\nfunction addOfferingList(string memory _name,uint[] memory input, string memory fixing_duration)public{\nrequire(IssuersMap[msg.sender].issuerAddress==msg.sender, \"Please Sign In as Issuer\" );\nrequire(bytes(_name).length>0, \"name cannot beval empty\");\nrequire(compareStrings(fixing_duration, \"weekly\") || compareStrings(fixing_duration, \"monthly\") || (compareStrings(fixing_duration, \"daily\") ) == true   );\n\n/*\nstruct offering{\n    address issuer;\n    uint ID;\n    string name;\n    uint fixing_counter;\n    bool Di_barrier_activated;\n    uint contractID;\n    string fixing_duration;\n    uint [] attributes;\n} */\n\n\n    uint newID= offeringCount + 1;\n    if (compareStrings(fixing_duration, \"weekly\") )\n    {WeeklyofferingIDList.push(newID);}\n    else if (compareStrings(fixing_duration, \"monthly\") )\n    {MonthlyofferingIDList.push(newID);}\n    else {DailyofferingIDList.push(newID);}\n\n    uint  contractID;\n    Offerings[newID] = offering(msg.sender, \n     newID, \n     _name,\n     0,\n     false,\n     0,\n    fixing_duration,\n    input);\n    \n    offeringCount+= 1;\n\n    emit logAddedOffering(Offerings[newID]);\n}\n\n\n/*function addOffering(\n    string memory _name,\n    uint _Nb_fixings,\n    uint _high_coupon,\n    uint _high_coupon_barrier,\n    uint _smaller_coupon,\n    uint _Upoutbarrier,\n    uint _di_barrier,\n    string memory fixing_duration\n    \n   ) public{\n    require(IssuersMap[msg.sender].issuerAddress==msg.sender, \"Please Sign In as Issuer\" );\n    require(bytes(_name).length>0, \"name cannot beval empty\");\n    //require(IssuersMap[msg.sender].issuerAddress, msg.sender);\n\n    uint newID= offeringCount + 1;\n    //offeringContract[] storage emptyList;\n    //newCampaign.deadline= block.timestamp + (_duration * 1 days);\n    offeringIDList.push(newID);\n    uint  contractID;\n    Offerings[newID] = offering(msg.sender, \n     newID, \n     _name,\n     _Nb_fixings,\n     0,\n     _high_coupon,\n     _high_coupon_barrier,\n     _smaller_coupon,\n     _Upoutbarrier,\n     _di_barrier,\n      false,\n    contractID,\n    fixing_duration);\n    \n    offeringCount+= 1;\n\n    \n    emit logAddedOffering(Offerings[newID]);\n}*/\n\n\n\nevent gets(uint);\nfunction WeeklyofferingsLoader(int usdtPrice) public returns(uint) {\n\nuint buyerGets;\nfor (uint i = 0 ; i< WeeklyofferingIDList.length ; i++)\n{\nbuyerGets = handleFixing(Offerings[ WeeklyofferingIDList[i]], usdtPrice,0);\n}\nemit gets(buyerGets);\nreturn buyerGets;\n}\n\n/*function DailyofferingsLoader() external {\n\n\nfor (uint i = 0 ; i< DailyofferingIDList.length ; i++)\n{\nhandleFixing(Offerings[ DailyofferingIDList[i]]);\n}\n\n}\n\nfunction MonthlyofferingsLoader() external {\n\n\nfor (uint i = 0 ; i< MonthlyofferingIDList.length ; i++)\n{\nhandleFixing(Offerings[ MonthlyofferingIDList[i]]);\n}\n\n}\n*/\n\n\n\n\n \nfunction handleFixing (offering memory Offering, int usdtPrice , int ethusdt0) public returns (uint) {  //buis logic;\n\nuint  contractID = Offering.contractID;\n//int usdtPrice = getLatestPrice();\n//int ethusdt0 = ContractMap[contractID].ethusdt0;\n\nuint buyerGets;\n\n/*uint _Nb_fixings, 0\n    uint _high_coupon,1\n    uint _high_coupon_barrier,2\n    uint _smaller_coupon,3\n    uint _Upoutbarrier,4\n    uint _di_barrier, 5*/\nif (Offering.attributes[0] > Offering.fixing_counter){//normal fixing logic\n\n  if (usdtPrice < int((int(Offering.attributes[5])* ethusdt0))){\n    Offering.Di_barrier_activated=true;\n    }\n\n\nif(usdtPrice > int (int (Offering.attributes[4])*ethusdt0)){\n            \n                buyerGets = ContractMap[contractID].amount + Offering.attributes[1]*ContractMap[contractID].amount;\n                EndContract( contractID );\n\n        }\n\nelse if (usdtPrice > int (Offering.attributes[2]) * ethusdt0){\n\nbuyerGets = ContractMap[contractID].amount * Offering.attributes[1];\n\n}\n\nelse if (Offering.Di_barrier_activated==false){\n    buyerGets = ContractMap[contractID].amount * Offering.attributes[3];\n}\n\nelse {\n    buyerGets = 0;\n}\n\n//inside normal fixings\n}\n\n\nelse {\n\nif (usdtPrice >int (int ( Offering.attributes[2]) * ethusdt0)){\n\nbuyerGets = Offering. attributes[1] * ContractMap[contractID].amount + ContractMap[contractID].amount;\n\n\n}\n\nelse if (Offering.Di_barrier_activated= false){\n\nbuyerGets = Offering.attributes[3] * ContractMap[contractID].amount + ContractMap[contractID].amount;\n\n}\n\nelse {\n\n    buyerGets =uint ( ContractMap[contractID].amount) / uint (Offering.attributes[2]) / uint (ethusdt0) ;\n}\n\n\n//ContractMap [contractID].buyer.call{value : buyerGets}(\"\");\nreturn buyerGets;\n\n}\n\n\n\n}\n\nfunction EndContract ( uint contractID) internal{\n\ndelete ContractMap[contractID];\n\n}\n\n\nfunction depositToWallet () public payable {\nrequire(IssuersMap[msg.sender].issuerAddress==msg.sender || BuyersMap[msg.sender].issuerAddress==msg.sender);\n\nwalletMap[msg.sender].eth += msg.value;\n\nemit getWalletInfo(walletMap[msg.sender]);\n\n}\n\nevent getAmounts(uint[]);\n\nfunction swapETHFromBuiltInWallet (uint amount)public returns(uint [] memory) {\n\nrequire(walletMap[msg.sender].eth >= amount);\nuint deadline = block.timestamp + 100;\n    address[] memory path = new address[](2);\n    path[0] = WETH;\n    path[1] = 0xdAC17F958D2ee523a2206206994597C13D831ec7;\n\n//WETH.call{value : amount}(\"\");\nweth.deposit{value : amount}();\n\nuint amount_min =  getAmountOutMin(WETH, 0x6B175474E89094C44Da98b954EedeAC495271d0F , amount);\nuint [] memory amounts = simpleswap(WETH, 0x6B175474E89094C44Da98b954EedeAC495271d0F, amount, amount_min);\n\nemit getAmounts(amounts);\nwalletMap[msg.sender]. usdt += amounts[1];\nwalletMap[msg.sender] .eth -= amount;\n\n//IUniswapV2Router(UNISWAP_V2_ROUTER).swapExactETHForTokens {value : amount} (0,path,address(this),deadline);\nemit getWalletInfo(walletMap[msg.sender]);\nreturn amounts;\n}\n\n\n\nfunction buyOffering(uint _id) public payable returns(string memory) {\n    require (Offerings[_id].contractID == 0);\n\n/*struct offeringContract{\n    address buy\n    address issuer;\n    uint amount;\n    uint offeringID;\n    uint contractID;\n}*/\n\n\nuint buyTimestamp = block.timestamp;\nint ethusdt0 = getLatestPrice();\nContractMap[contractCount] = offeringContract(\n    msg.sender,\n    Offerings[_id].issuer,\n    msg.value,\n    _id,\n    contractCount,\n    ethusdt0\n\n);\nOfferings[_id]. contractID = contractCount;\n//emit getContract(ContractMap[contractCount].buyer,ContractMap[contractCount].issuer,ContractMap[contractCount].amount,ContractMap[contractCount].offeringID,ContractMap[contractCount].contractID);\nemit getContract(ContractMap[contractCount]);\ncontractCount+=1;\n\nwalletMap [Offerings[_id].issuer] . eth = msg.value ;\n\n\n//emit getWalletInfo (walletMap [Offerings[_id].issuer]);\n//Offerings[_id]. contractList . append()\n\nreturn aloo;\n\n}\n/*\nfunction checkCustody(address _issuer, uint tbs) public returns(bool){\n    bool isAllowed= false;\n    uint256 issuerBalance= _issuer.balance;\n    //check all linked offerings to issuer\n\n}*/\n\n\n\n\nfunction getCount() public view returns(uint count) {\n    return WeeklyofferingIDList.length;\n}\n\nfunction getContractCount() public view returns (uint count){\n\nreturn contractCount;\n\n}\n\nfunction getContractETH () public view returns (uint){\n\nreturn address(this).balance;\n    \n}\n\nfunction getOfferings () public view returns (offering[] memory){\n\noffering[] memory toReturn= new offering[](offeringCount) ;\n\nfor (uint i = 0 ; i< offeringCount ; i++){\n\ntoReturn [i] = Offerings[i+1];\n\n}\n\nreturn  toReturn; //mapping offerings to ids\n\n}\n\n\nfunction getAllContracts() public view returns (offeringContract[] memory){\n\nofferingContract[] memory toReturn= new offeringContract[](contractCount) ;\n\nfor (uint i = 0 ; i< contractCount ; i++){\n\ntoReturn [i] = ContractMap[i];\n\n}\n\nreturn  toReturn; //mapping offerings to ids\n\n\n}\n\n\nfunction getDayFromTimeStamp() public view returns (uint8) {\n\nreturn parseTimestamp(block.timestamp).day;\n}\n\nfunction fillPriceLog () public {\n\nint price = getLatestPrice();\n\n_DateTime memory key = parseTimestamp(block.timestamp);\n\nuint16 year =  key.year;\nuint8 month =  key.month;\nuint8 day =  key.day;\n\n\nEthPriceLog [year][month][day] = price;\n  }\n\n\n\n\n// contract's brace\n}\n\n\n",
  "sourcePath": "D:\\projects\\Bounty_1_truffle\\contracts\\YieldOfferings.sol",
  "compiler": {
    "name": "solc",
    "version": "0.8.9+commit.e5eed63a.Emscripten.clang"
  },
  "schemaVersion": "3.4.5",
  "updatedAt": "2022-03-05T01:10:12.372Z",
  "networkType": "ethereum",
  "devdoc": {
    "kind": "dev",
    "methods": {},
    "version": 1
  },
  "userdoc": {
    "kind": "user",
    "methods": {
      "getLatestPrice()": {
        "notice": "Returns the latest price"
      }
    },
    "version": 1
  }
}