{
  "contractName": "YieldOfferings",
  "abi": [
    {
      "inputs": [],
      "stateMutability": "nonpayable",
      "type": "constructor"
    },
    {
      "anonymous": false,
      "inputs": [
        {
          "components": [
            {
              "internalType": "address",
              "name": "buyer",
              "type": "address"
            },
            {
              "internalType": "address",
              "name": "issuer",
              "type": "address"
            },
            {
              "internalType": "uint256",
              "name": "amount",
              "type": "uint256"
            },
            {
              "internalType": "uint256",
              "name": "offeringID",
              "type": "uint256"
            },
            {
              "internalType": "uint256",
              "name": "contractID",
              "type": "uint256"
            }
          ],
          "indexed": false,
          "internalType": "struct YieldOfferings.offeringContract",
          "name": "",
          "type": "tuple"
        }
      ],
      "name": "getContract",
      "type": "event"
    },
    {
      "anonymous": false,
      "inputs": [
        {
          "components": [
            {
              "internalType": "address",
              "name": "issuerAddress",
              "type": "address"
            },
            {
              "internalType": "uint256[]",
              "name": "offeringsList",
              "type": "uint256[]"
            }
          ],
          "indexed": false,
          "internalType": "struct YieldOfferings.issuer",
          "name": "",
          "type": "tuple"
        }
      ],
      "name": "getIssuer",
      "type": "event"
    },
    {
      "anonymous": false,
      "inputs": [
        {
          "components": [
            {
              "internalType": "uint256",
              "name": "usdt",
              "type": "uint256"
            },
            {
              "internalType": "uint256",
              "name": "eth",
              "type": "uint256"
            },
            {
              "internalType": "uint256",
              "name": "weth",
              "type": "uint256"
            }
          ],
          "indexed": false,
          "internalType": "struct YieldOfferings.wallet",
          "name": "",
          "type": "tuple"
        }
      ],
      "name": "getWalletInfo",
      "type": "event"
    },
    {
      "anonymous": false,
      "inputs": [
        {
          "components": [
            {
              "internalType": "address",
              "name": "issuer",
              "type": "address"
            },
            {
              "internalType": "uint256",
              "name": "ID",
              "type": "uint256"
            },
            {
              "internalType": "string",
              "name": "name",
              "type": "string"
            },
            {
              "internalType": "uint256",
              "name": "Nb_fixings",
              "type": "uint256"
            },
            {
              "internalType": "uint256",
              "name": "fixing_counter",
              "type": "uint256"
            },
            {
              "internalType": "uint256",
              "name": "high_coupon",
              "type": "uint256"
            },
            {
              "internalType": "uint256",
              "name": "high_coupon_barrier",
              "type": "uint256"
            },
            {
              "internalType": "uint256",
              "name": "smaller_coupon",
              "type": "uint256"
            },
            {
              "internalType": "uint256",
              "name": "Upoutbarrier",
              "type": "uint256"
            },
            {
              "internalType": "uint256",
              "name": "di_barrier",
              "type": "uint256"
            },
            {
              "internalType": "bool",
              "name": "Di_barrier_activated",
              "type": "bool"
            },
            {
              "internalType": "uint256",
              "name": "contractID",
              "type": "uint256"
            }
          ],
          "indexed": false,
          "internalType": "struct YieldOfferings.offering",
          "name": "",
          "type": "tuple"
        }
      ],
      "name": "logAddedOffering",
      "type": "event"
    },
    {
      "inputs": [
        {
          "internalType": "address",
          "name": "",
          "type": "address"
        }
      ],
      "name": "BuyersMap",
      "outputs": [
        {
          "internalType": "address",
          "name": "issuerAddress",
          "type": "address"
        }
      ],
      "stateMutability": "view",
      "type": "function"
    },
    {
      "inputs": [
        {
          "internalType": "uint256",
          "name": "",
          "type": "uint256"
        }
      ],
      "name": "Offerings",
      "outputs": [
        {
          "internalType": "address",
          "name": "issuer",
          "type": "address"
        },
        {
          "internalType": "uint256",
          "name": "ID",
          "type": "uint256"
        },
        {
          "internalType": "string",
          "name": "name",
          "type": "string"
        },
        {
          "internalType": "uint256",
          "name": "Nb_fixings",
          "type": "uint256"
        },
        {
          "internalType": "uint256",
          "name": "fixing_counter",
          "type": "uint256"
        },
        {
          "internalType": "uint256",
          "name": "high_coupon",
          "type": "uint256"
        },
        {
          "internalType": "uint256",
          "name": "high_coupon_barrier",
          "type": "uint256"
        },
        {
          "internalType": "uint256",
          "name": "smaller_coupon",
          "type": "uint256"
        },
        {
          "internalType": "uint256",
          "name": "Upoutbarrier",
          "type": "uint256"
        },
        {
          "internalType": "uint256",
          "name": "di_barrier",
          "type": "uint256"
        },
        {
          "internalType": "bool",
          "name": "Di_barrier_activated",
          "type": "bool"
        },
        {
          "internalType": "uint256",
          "name": "contractID",
          "type": "uint256"
        }
      ],
      "stateMutability": "view",
      "type": "function"
    },
    {
      "inputs": [
        {
          "internalType": "address",
          "name": "_tokenIn",
          "type": "address"
        },
        {
          "internalType": "uint256",
          "name": "_amountIn",
          "type": "uint256"
        }
      ],
      "name": "depositerc20",
      "outputs": [],
      "stateMutability": "nonpayable",
      "type": "function"
    },
    {
      "inputs": [
        {
          "internalType": "address",
          "name": "_tokenIn",
          "type": "address"
        },
        {
          "internalType": "address",
          "name": "_tokenOut",
          "type": "address"
        },
        {
          "internalType": "uint256",
          "name": "_amountIn",
          "type": "uint256"
        }
      ],
      "name": "getAmountOutMin",
      "outputs": [
        {
          "internalType": "uint256",
          "name": "",
          "type": "uint256"
        }
      ],
      "stateMutability": "view",
      "type": "function"
    },
    {
      "inputs": [],
      "name": "getDaiBalance",
      "outputs": [
        {
          "internalType": "uint256",
          "name": "",
          "type": "uint256"
        }
      ],
      "stateMutability": "view",
      "type": "function"
    },
    {
      "inputs": [
        {
          "internalType": "uint256",
          "name": "timestamp",
          "type": "uint256"
        }
      ],
      "name": "getDay",
      "outputs": [
        {
          "internalType": "uint8",
          "name": "",
          "type": "uint8"
        }
      ],
      "stateMutability": "pure",
      "type": "function"
    },
    {
      "inputs": [
        {
          "internalType": "uint8",
          "name": "month",
          "type": "uint8"
        },
        {
          "internalType": "uint16",
          "name": "year",
          "type": "uint16"
        }
      ],
      "name": "getDaysInMonth",
      "outputs": [
        {
          "internalType": "uint8",
          "name": "",
          "type": "uint8"
        }
      ],
      "stateMutability": "pure",
      "type": "function"
    },
    {
      "inputs": [
        {
          "internalType": "uint256",
          "name": "timestamp",
          "type": "uint256"
        }
      ],
      "name": "getHour",
      "outputs": [
        {
          "internalType": "uint8",
          "name": "",
          "type": "uint8"
        }
      ],
      "stateMutability": "pure",
      "type": "function"
    },
    {
      "inputs": [],
      "name": "getLatestPrice",
      "outputs": [
        {
          "internalType": "int256",
          "name": "",
          "type": "int256"
        }
      ],
      "stateMutability": "view",
      "type": "function"
    },
    {
      "inputs": [
        {
          "internalType": "uint256",
          "name": "timestamp",
          "type": "uint256"
        }
      ],
      "name": "getMinute",
      "outputs": [
        {
          "internalType": "uint8",
          "name": "",
          "type": "uint8"
        }
      ],
      "stateMutability": "pure",
      "type": "function"
    },
    {
      "inputs": [
        {
          "internalType": "uint256",
          "name": "timestamp",
          "type": "uint256"
        }
      ],
      "name": "getMonth",
      "outputs": [
        {
          "internalType": "uint8",
          "name": "",
          "type": "uint8"
        }
      ],
      "stateMutability": "pure",
      "type": "function"
    },
    {
      "inputs": [
        {
          "internalType": "uint256",
          "name": "timestamp",
          "type": "uint256"
        }
      ],
      "name": "getSecond",
      "outputs": [
        {
          "internalType": "uint8",
          "name": "",
          "type": "uint8"
        }
      ],
      "stateMutability": "pure",
      "type": "function"
    },
    {
      "inputs": [],
      "name": "getUSDTBalance",
      "outputs": [
        {
          "internalType": "uint256",
          "name": "",
          "type": "uint256"
        }
      ],
      "stateMutability": "view",
      "type": "function"
    },
    {
      "inputs": [],
      "name": "getWETHBalance",
      "outputs": [
        {
          "internalType": "uint256",
          "name": "",
          "type": "uint256"
        }
      ],
      "stateMutability": "view",
      "type": "function"
    },
    {
      "inputs": [
        {
          "internalType": "uint256",
          "name": "timestamp",
          "type": "uint256"
        }
      ],
      "name": "getWeekday",
      "outputs": [
        {
          "internalType": "uint8",
          "name": "",
          "type": "uint8"
        }
      ],
      "stateMutability": "pure",
      "type": "function"
    },
    {
      "inputs": [
        {
          "internalType": "uint256",
          "name": "timestamp",
          "type": "uint256"
        }
      ],
      "name": "getYear",
      "outputs": [
        {
          "internalType": "uint16",
          "name": "",
          "type": "uint16"
        }
      ],
      "stateMutability": "pure",
      "type": "function"
    },
    {
      "inputs": [
        {
          "internalType": "uint16",
          "name": "year",
          "type": "uint16"
        }
      ],
      "name": "isLeapYear",
      "outputs": [
        {
          "internalType": "bool",
          "name": "",
          "type": "bool"
        }
      ],
      "stateMutability": "pure",
      "type": "function"
    },
    {
      "inputs": [
        {
          "internalType": "uint256",
          "name": "year",
          "type": "uint256"
        }
      ],
      "name": "leapYearsBefore",
      "outputs": [
        {
          "internalType": "uint256",
          "name": "",
          "type": "uint256"
        }
      ],
      "stateMutability": "pure",
      "type": "function"
    },
    {
      "inputs": [
        {
          "internalType": "uint256",
          "name": "",
          "type": "uint256"
        }
      ],
      "name": "offeringIDList",
      "outputs": [
        {
          "internalType": "uint256",
          "name": "",
          "type": "uint256"
        }
      ],
      "stateMutability": "view",
      "type": "function"
    },
    {
      "inputs": [],
      "name": "owner",
      "outputs": [
        {
          "internalType": "address",
          "name": "",
          "type": "address"
        }
      ],
      "stateMutability": "view",
      "type": "function"
    },
    {
      "inputs": [
        {
          "internalType": "address",
          "name": "_tokenIn",
          "type": "address"
        },
        {
          "internalType": "address",
          "name": "_tokenOut",
          "type": "address"
        },
        {
          "internalType": "uint256",
          "name": "_amountIn",
          "type": "uint256"
        },
        {
          "internalType": "uint256",
          "name": "_amountOutMin",
          "type": "uint256"
        }
      ],
      "name": "simpleswap",
      "outputs": [],
      "stateMutability": "nonpayable",
      "type": "function"
    },
    {
      "inputs": [
        {
          "internalType": "address",
          "name": "_tokenIn",
          "type": "address"
        },
        {
          "internalType": "address",
          "name": "_tokenOut",
          "type": "address"
        },
        {
          "internalType": "uint256",
          "name": "_amountIn",
          "type": "uint256"
        },
        {
          "internalType": "uint256",
          "name": "_amountOutMin",
          "type": "uint256"
        },
        {
          "internalType": "address",
          "name": "_to",
          "type": "address"
        }
      ],
      "name": "swap",
      "outputs": [],
      "stateMutability": "nonpayable",
      "type": "function"
    },
    {
      "inputs": [
        {
          "internalType": "uint16",
          "name": "year",
          "type": "uint16"
        },
        {
          "internalType": "uint8",
          "name": "month",
          "type": "uint8"
        },
        {
          "internalType": "uint8",
          "name": "day",
          "type": "uint8"
        },
        {
          "internalType": "uint8",
          "name": "hour",
          "type": "uint8"
        },
        {
          "internalType": "uint8",
          "name": "minute",
          "type": "uint8"
        }
      ],
      "name": "toTimestamp",
      "outputs": [
        {
          "internalType": "uint256",
          "name": "timestamp",
          "type": "uint256"
        }
      ],
      "stateMutability": "pure",
      "type": "function"
    },
    {
      "inputs": [
        {
          "internalType": "uint16",
          "name": "year",
          "type": "uint16"
        },
        {
          "internalType": "uint8",
          "name": "month",
          "type": "uint8"
        },
        {
          "internalType": "uint8",
          "name": "day",
          "type": "uint8"
        },
        {
          "internalType": "uint8",
          "name": "hour",
          "type": "uint8"
        }
      ],
      "name": "toTimestamp",
      "outputs": [
        {
          "internalType": "uint256",
          "name": "timestamp",
          "type": "uint256"
        }
      ],
      "stateMutability": "pure",
      "type": "function"
    },
    {
      "inputs": [
        {
          "internalType": "uint16",
          "name": "year",
          "type": "uint16"
        },
        {
          "internalType": "uint8",
          "name": "month",
          "type": "uint8"
        },
        {
          "internalType": "uint8",
          "name": "day",
          "type": "uint8"
        }
      ],
      "name": "toTimestamp",
      "outputs": [
        {
          "internalType": "uint256",
          "name": "timestamp",
          "type": "uint256"
        }
      ],
      "stateMutability": "pure",
      "type": "function"
    },
    {
      "inputs": [
        {
          "internalType": "uint16",
          "name": "year",
          "type": "uint16"
        },
        {
          "internalType": "uint8",
          "name": "month",
          "type": "uint8"
        },
        {
          "internalType": "uint8",
          "name": "day",
          "type": "uint8"
        },
        {
          "internalType": "uint8",
          "name": "hour",
          "type": "uint8"
        },
        {
          "internalType": "uint8",
          "name": "minute",
          "type": "uint8"
        },
        {
          "internalType": "uint8",
          "name": "second",
          "type": "uint8"
        }
      ],
      "name": "toTimestamp",
      "outputs": [
        {
          "internalType": "uint256",
          "name": "timestamp",
          "type": "uint256"
        }
      ],
      "stateMutability": "pure",
      "type": "function"
    },
    {
      "inputs": [
        {
          "internalType": "address",
          "name": "",
          "type": "address"
        }
      ],
      "name": "walletMap",
      "outputs": [
        {
          "internalType": "uint256",
          "name": "usdt",
          "type": "uint256"
        },
        {
          "internalType": "uint256",
          "name": "eth",
          "type": "uint256"
        },
        {
          "internalType": "uint256",
          "name": "weth",
          "type": "uint256"
        }
      ],
      "stateMutability": "view",
      "type": "function"
    },
    {
      "stateMutability": "payable",
      "type": "receive"
    },
    {
      "inputs": [],
      "name": "SignInIssuer",
      "outputs": [],
      "stateMutability": "nonpayable",
      "type": "function"
    },
    {
      "inputs": [
        {
          "internalType": "address",
          "name": "CoinAddress",
          "type": "address"
        },
        {
          "internalType": "string",
          "name": "CoinName",
          "type": "string"
        }
      ],
      "name": "supportCoin",
      "outputs": [],
      "stateMutability": "nonpayable",
      "type": "function"
    },
    {
      "inputs": [
        {
          "internalType": "string",
          "name": "_name",
          "type": "string"
        },
        {
          "internalType": "uint256",
          "name": "_Nb_fixings",
          "type": "uint256"
        },
        {
          "internalType": "uint256",
          "name": "_high_coupon",
          "type": "uint256"
        },
        {
          "internalType": "uint256",
          "name": "_high_coupon_barrier",
          "type": "uint256"
        },
        {
          "internalType": "uint256",
          "name": "_smaller_coupon",
          "type": "uint256"
        },
        {
          "internalType": "uint256",
          "name": "_Upoutbarrier",
          "type": "uint256"
        },
        {
          "internalType": "uint256",
          "name": "_di_barrier",
          "type": "uint256"
        }
      ],
      "name": "addOffering",
      "outputs": [],
      "stateMutability": "nonpayable",
      "type": "function"
    },
    {
      "inputs": [],
      "name": "depositToWallet",
      "outputs": [],
      "stateMutability": "payable",
      "type": "function"
    },
    {
      "inputs": [
        {
          "internalType": "uint256",
          "name": "amount",
          "type": "uint256"
        }
      ],
      "name": "swapETHFromBuiltInWallet",
      "outputs": [],
      "stateMutability": "nonpayable",
      "type": "function"
    },
    {
      "inputs": [
        {
          "internalType": "uint256",
          "name": "_id",
          "type": "uint256"
        }
      ],
      "name": "buyOffering",
      "outputs": [
        {
          "internalType": "string",
          "name": "",
          "type": "string"
        }
      ],
      "stateMutability": "payable",
      "type": "function"
    },
    {
      "inputs": [],
      "name": "getCount",
      "outputs": [
        {
          "internalType": "uint256",
          "name": "count",
          "type": "uint256"
        }
      ],
      "stateMutability": "view",
      "type": "function"
    },
    {
      "inputs": [],
      "name": "getContractCount",
      "outputs": [
        {
          "internalType": "uint256",
          "name": "count",
          "type": "uint256"
        }
      ],
      "stateMutability": "view",
      "type": "function"
    },
    {
      "inputs": [],
      "name": "getContractETH",
      "outputs": [
        {
          "internalType": "uint256",
          "name": "",
          "type": "uint256"
        }
      ],
      "stateMutability": "view",
      "type": "function"
    },
    {
      "inputs": [],
      "name": "getOfferings",
      "outputs": [
        {
          "components": [
            {
              "internalType": "address",
              "name": "issuer",
              "type": "address"
            },
            {
              "internalType": "uint256",
              "name": "ID",
              "type": "uint256"
            },
            {
              "internalType": "string",
              "name": "name",
              "type": "string"
            },
            {
              "internalType": "uint256",
              "name": "Nb_fixings",
              "type": "uint256"
            },
            {
              "internalType": "uint256",
              "name": "fixing_counter",
              "type": "uint256"
            },
            {
              "internalType": "uint256",
              "name": "high_coupon",
              "type": "uint256"
            },
            {
              "internalType": "uint256",
              "name": "high_coupon_barrier",
              "type": "uint256"
            },
            {
              "internalType": "uint256",
              "name": "smaller_coupon",
              "type": "uint256"
            },
            {
              "internalType": "uint256",
              "name": "Upoutbarrier",
              "type": "uint256"
            },
            {
              "internalType": "uint256",
              "name": "di_barrier",
              "type": "uint256"
            },
            {
              "internalType": "bool",
              "name": "Di_barrier_activated",
              "type": "bool"
            },
            {
              "internalType": "uint256",
              "name": "contractID",
              "type": "uint256"
            }
          ],
          "internalType": "struct YieldOfferings.offering[]",
          "name": "",
          "type": "tuple[]"
        }
      ],
      "stateMutability": "view",
      "type": "function"
    },
    {
      "inputs": [],
      "name": "getAllContracts",
      "outputs": [
        {
          "components": [
            {
              "internalType": "address",
              "name": "buyer",
              "type": "address"
            },
            {
              "internalType": "address",
              "name": "issuer",
              "type": "address"
            },
            {
              "internalType": "uint256",
              "name": "amount",
              "type": "uint256"
            },
            {
              "internalType": "uint256",
              "name": "offeringID",
              "type": "uint256"
            },
            {
              "internalType": "uint256",
              "name": "contractID",
              "type": "uint256"
            }
          ],
          "internalType": "struct YieldOfferings.offeringContract[]",
          "name": "",
          "type": "tuple[]"
        }
      ],
      "stateMutability": "view",
      "type": "function"
    },
    {
      "inputs": [],
      "name": "getDayFromTimeStamp",
      "outputs": [
        {
          "internalType": "uint8",
          "name": "",
          "type": "uint8"
        }
      ],
      "stateMutability": "view",
      "type": "function"
    },
    {
      "inputs": [],
      "name": "fillPriceLog",
      "outputs": [],
      "stateMutability": "nonpayable",
      "type": "function"
    }
  ],
  "bytecode": "0x608060405233600260006101000a81548173ffffffffffffffffffffffffffffffffffffffff021916908373ffffffffffffffffffffffffffffffffffffffff1602179055506000600355600060045560006005556040518060400160405280600781526020017f426f75676874210000000000000000000000000000000000000000000000000081525060089080519060200190620000a19291906200016b565b50610960600a556108fc600b55348015620000bb57600080fd5b50735f4ec3df9cbd43714fe2740f5e3616155c5b84196000806101000a81548173ffffffffffffffffffffffffffffffffffffffff021916908373ffffffffffffffffffffffffffffffffffffffff16021790555073c02aaa39b223fe8d0a0e5c4f27ead9083c756cc2600160006101000a81548173ffffffffffffffffffffffffffffffffffffffff021916908373ffffffffffffffffffffffffffffffffffffffff16021790555062000280565b82805462000179906200024a565b90600052602060002090601f0160209004810192826200019d5760008555620001e9565b82601f10620001b857805160ff1916838001178555620001e9565b82800160010185558215620001e9579182015b82811115620001e8578251825591602001919060010190620001cb565b5b509050620001f89190620001fc565b5090565b5b8082111562000217576000816000905550600101620001fd565b5090565b7f4e487b7100000000000000000000000000000000000000000000000000000000600052602260045260246000fd5b600060028204905060018216806200026357607f821691505b602082108114156200027a57620002796200021b565b5b50919050565b6157d980620002906000396000f3fe60806040526004361061023e5760003560e01c80638c8d98a01161012e578063a6f0e577116100ab578063d5bcb9b51161006f578063d5bcb9b51461093f578063ef3055d914610968578063f1f5bef0146109a5578063f49dd287146109af578063fa93f883146109d857610245565b8063a6f0e57714610846578063a87d942c14610883578063b07627c8146108ae578063b1999937146108c5578063b238ad0e1461090257610245565b80639399869d116100f25780639399869d1461074b57806393b6a95a146107765780639785fac81461079f578063a2bd4943146107ca578063a324ad241461080957610245565b80638c8d98a01461063e5780638da5cb5b1461067b5780638e15f473146106a65780639054bdec146106d157806392d663131461070e57610245565b80635ddc916a116101bc5780637aafa19e116101805780637aafa19e146105595780637f791833146105825780638258cbbd146105bf578063890d26c7146105ea5780638aa001fc1461060157610245565b80635ddc916a1461044c57806362ba96871461047757806365881ee9146104b457806365c72840146104df57806370411c131461051c57610245565b80633e239e1a116102035780633e239e1a1461034e5780634ac1ad781461038b5780634d72a8c9146103c85780634f0238b8146103f35780635d8efce11461041c57610245565b8062cbb73b1461024a578063059886ca146102755780630bd5d8631461029e57806318d3ce96146102e65780633c50eec11461031157610245565b3661024557005b600080fd5b34801561025657600080fd5b5061025f610a15565b60405161026c9190613acd565b60405180910390f35b34801561028157600080fd5b5061029c60048036038101906102979190613b28565b610abe565b005b3480156102aa57600080fd5b506102c560048036038101906102c09190613b28565b610e31565b6040516102dd9c9b9a99989796959493929190613c4a565b60405180910390f35b3480156102f257600080fd5b506102fb610f46565b6040516103089190613e40565b60405180910390f35b34801561031d57600080fd5b5061033860048036038101906103339190613e8e565b6110d0565b6040516103459190613acd565b60405180910390f35b34801561035a57600080fd5b5061037560048036038101906103709190613b28565b61147e565b6040516103829190613efd565b60405180910390f35b34801561039757600080fd5b506103b260048036038101906103ad9190613b28565b6114ab565b6040516103bf9190613efd565b60405180910390f35b3480156103d457600080fd5b506103dd6114db565b6040516103ea9190613efd565b60405180910390f35b3480156103ff57600080fd5b5061041a60048036038101906104159190613f18565b6114ef565b005b61043660048036038101906104319190613b28565b61191c565b6040516104439190613f7f565b60405180910390f35b34801561045857600080fd5b50610461611bfe565b60405161046e9190613acd565b60405180910390f35b34801561048357600080fd5b5061049e60048036038101906104999190614007565b611ca7565b6040516104ab9190613acd565b60405180910390f35b3480156104c057600080fd5b506104c9611cc3565b6040516104d691906142a1565b60405180910390f35b3480156104eb57600080fd5b5061050660048036038101906105019190613b28565b611ef3565b6040516105139190613efd565b60405180910390f35b34801561052857600080fd5b50610543600480360381019061053e9190613b28565b611f09565b6040516105509190613acd565b60405180910390f35b34801561056557600080fd5b50610580600480360381019061057b91906143f8565b611f2d565b005b34801561058e57600080fd5b506105a960048036038101906105a49190614454565b611fe8565b6040516105b69190613acd565b60405180910390f35b3480156105cb57600080fd5b506105d4612003565b6040516105e19190613acd565b60405180910390f35b3480156105f657600080fd5b506105ff61200b565b005b34801561060d57600080fd5b5061062860048036038101906106239190613b28565b6122ba565b6040516106359190613efd565b60405180910390f35b34801561064a57600080fd5b50610665600480360381019061066091906144bb565b6122d0565b6040516106729190613acd565b60405180910390f35b34801561068757600080fd5b506106906122eb565b60405161069d919061450e565b60405180910390f35b3480156106b257600080fd5b506106bb612311565b6040516106c89190614542565b60405180910390f35b3480156106dd57600080fd5b506106f860048036038101906106f3919061455d565b6123cd565b6040516107059190613acd565b60405180910390f35b34801561071a57600080fd5b5061073560048036038101906107309190613b28565b612738565b60405161074291906145f9565b60405180910390f35b34801561075757600080fd5b5061076061284f565b60405161076d9190613acd565b60405180910390f35b34801561078257600080fd5b5061079d60048036038101906107989190614614565b612859565b005b3480156107ab57600080fd5b506107b46128ed565b6040516107c19190613acd565b60405180910390f35b3480156107d657600080fd5b506107f160048036038101906107ec9190614654565b612996565b60405161080093929190614681565b60405180910390f35b34801561081557600080fd5b50610830600480360381019061082b9190613b28565b6129c0565b60405161083d9190613efd565b60405180910390f35b34801561085257600080fd5b5061086d600480360381019061086891906146b8565b6129d6565b60405161087a91906146e5565b60405180910390f35b34801561088f57600080fd5b50610898612a45565b6040516108a59190613acd565b60405180910390f35b3480156108ba57600080fd5b506108c3612a52565b005b3480156108d157600080fd5b506108ec60048036038101906108e79190613b28565b612af8565b6040516108f99190613acd565b60405180910390f35b34801561090e57600080fd5b5061092960048036038101906109249190614700565b612b4c565b6040516109369190613efd565b60405180910390f35b34801561094b57600080fd5b5061096660048036038101906109619190614740565b612c18565b005b34801561097457600080fd5b5061098f600480360381019061098a9190614654565b6130e4565b60405161099c919061450e565b60405180910390f35b6109ad613122565b005b3480156109bb57600080fd5b506109d660048036038101906109d191906147bb565b613324565b005b3480156109e457600080fd5b506109ff60048036038101906109fa9190613b28565b613648565b604051610a0c9190613efd565b60405180910390f35b60008073c02aaa39b223fe8d0a0e5c4f27ead9083c756cc273ffffffffffffffffffffffffffffffffffffffff166370a08231306040518263ffffffff1660e01b8152600401610a65919061450e565b60206040518083038186803b158015610a7d57600080fd5b505afa158015610a91573d6000803e3d6000fd5b505050506040513d601f19601f82011682018060405250810190610ab5919061488e565b90508091505090565b80600d60003373ffffffffffffffffffffffffffffffffffffffff1673ffffffffffffffffffffffffffffffffffffffff168152602001908152602001600020600101541015610b0d57600080fd5b6000606442610b1c91906148ea565b90506000600267ffffffffffffffff811115610b3b57610b3a6142cd565b5b604051908082528060200260200182016040528015610b695781602001602082028036833780820191505090505b509050600f604051610b7a90614997565b908152602001604051809103902060009054906101000a900473ffffffffffffffffffffffffffffffffffffffff1681600081518110610bbd57610bbc6149ac565b5b602002602001019073ffffffffffffffffffffffffffffffffffffffff16908173ffffffffffffffffffffffffffffffffffffffff1681525050600f604051610c0590614a27565b908152602001604051809103902060009054906101000a900473ffffffffffffffffffffffffffffffffffffffff1681600181518110610c4857610c476149ac565b5b602002602001019073ffffffffffffffffffffffffffffffffffffffff16908173ffffffffffffffffffffffffffffffffffffffff1681525050600160009054906101000a900473ffffffffffffffffffffffffffffffffffffffff1673ffffffffffffffffffffffffffffffffffffffff1663d0e30db0846040518263ffffffff1660e01b81526004016000604051808303818588803b158015610cec57600080fd5b505af1158015610d00573d6000803e3d6000fd5b505050505082600d60003373ffffffffffffffffffffffffffffffffffffffff1673ffffffffffffffffffffffffffffffffffffffff1681526020019081526020016000206002016000828254610d5791906148ea565b9250508190555082600d60003373ffffffffffffffffffffffffffffffffffffffff1673ffffffffffffffffffffffffffffffffffffffff1681526020019081526020016000206001016000828254610db09190614a3c565b925050819055507f72e8a9e162166777febe65180487a15d66a798aa00ccf3d4743743cf235fdb7b600d60003373ffffffffffffffffffffffffffffffffffffffff1673ffffffffffffffffffffffffffffffffffffffff168152602001908152602001600020604051610e249190614b06565b60405180910390a1505050565b600c6020528060005260406000206000915090508060000160009054906101000a900473ffffffffffffffffffffffffffffffffffffffff1690806001015490806002018054610e8090614b50565b80601f0160208091040260200160405190810160405280929190818152602001828054610eac90614b50565b8015610ef95780601f10610ece57610100808354040283529160200191610ef9565b820191906000526020600020905b815481529060010190602001808311610edc57829003601f168201915b50505050509080600301549080600401549080600501549080600601549080600701549080600801549080600901549080600a0160009054906101000a900460ff169080600b015490508c565b6060600060045467ffffffffffffffff811115610f6657610f656142cd565b5b604051908082528060200260200182016040528015610f9f57816020015b610f8c61387a565b815260200190600190039081610f845790505b50905060005b6004548110156110c857600e60008281526020019081526020016000206040518060a00160405290816000820160009054906101000a900473ffffffffffffffffffffffffffffffffffffffff1673ffffffffffffffffffffffffffffffffffffffff1673ffffffffffffffffffffffffffffffffffffffff1681526020016001820160009054906101000a900473ffffffffffffffffffffffffffffffffffffffff1673ffffffffffffffffffffffffffffffffffffffff1673ffffffffffffffffffffffffffffffffffffffff16815260200160028201548152602001600382015481526020016004820154815250508282815181106110aa576110a96149ac565b5b602002602001018190525080806110c090614b82565b915050610fa5565b508091505090565b6000606073c02aaa39b223fe8d0a0e5c4f27ead9083c756cc273ffffffffffffffffffffffffffffffffffffffff168573ffffffffffffffffffffffffffffffffffffffff161480611161575073c02aaa39b223fe8d0a0e5c4f27ead9083c756cc273ffffffffffffffffffffffffffffffffffffffff168473ffffffffffffffffffffffffffffffffffffffff16145b1561125557600267ffffffffffffffff811115611181576111806142cd565b5b6040519080825280602002602001820160405280156111af5781602001602082028036833780820191505090505b50905084816000815181106111c7576111c66149ac565b5b602002602001019073ffffffffffffffffffffffffffffffffffffffff16908173ffffffffffffffffffffffffffffffffffffffff16815250508381600181518110611216576112156149ac565b5b602002602001019073ffffffffffffffffffffffffffffffffffffffff16908173ffffffffffffffffffffffffffffffffffffffff16815250506113a3565b600367ffffffffffffffff8111156112705761126f6142cd565b5b60405190808252806020026020018201604052801561129e5781602001602082028036833780820191505090505b50905084816000815181106112b6576112b56149ac565b5b602002602001019073ffffffffffffffffffffffffffffffffffffffff16908173ffffffffffffffffffffffffffffffffffffffff168152505073c02aaa39b223fe8d0a0e5c4f27ead9083c756cc281600181518110611319576113186149ac565b5b602002602001019073ffffffffffffffffffffffffffffffffffffffff16908173ffffffffffffffffffffffffffffffffffffffff16815250508381600281518110611368576113676149ac565b5b602002602001019073ffffffffffffffffffffffffffffffffffffffff16908173ffffffffffffffffffffffffffffffffffffffff16815250505b6000737a250d5630b4cf539739df2c5dacb4c659f2488d73ffffffffffffffffffffffffffffffffffffffff1663d06ca61f85846040518363ffffffff1660e01b81526004016113f4929190614c7a565b60006040518083038186803b15801561140c57600080fd5b505afa158015611420573d6000803e3d6000fd5b505050506040513d6000823e3d601f19601f820116820180604052508101906114499190614d72565b9050806001835161145a9190614a3c565b8151811061146b5761146a6149ac565b5b6020026020010151925050509392505050565b60006018603c80846114909190614dea565b61149a9190614dea565b6114a49190614e1b565b9050919050565b60006007600462015180846114c09190614dea565b6114ca91906148ea565b6114d49190614e1b565b9050919050565b60006114e642613669565b60400151905090565b8373ffffffffffffffffffffffffffffffffffffffff1663095ea7b3737a250d5630b4cf539739df2c5dacb4c659f2488d846040518363ffffffff1660e01b815260040161153e929190614e4c565b602060405180830381600087803b15801561155857600080fd5b505af115801561156c573d6000803e3d6000fd5b505050506040513d601f19601f820116820180604052508101906115909190614ea1565b506000429050606073c02aaa39b223fe8d0a0e5c4f27ead9083c756cc273ffffffffffffffffffffffffffffffffffffffff168673ffffffffffffffffffffffffffffffffffffffff161480611625575073c02aaa39b223fe8d0a0e5c4f27ead9083c756cc273ffffffffffffffffffffffffffffffffffffffff168573ffffffffffffffffffffffffffffffffffffffff16145b1561171957600267ffffffffffffffff811115611645576116446142cd565b5b6040519080825280602002602001820160405280156116735781602001602082028036833780820191505090505b509050858160008151811061168b5761168a6149ac565b5b602002602001019073ffffffffffffffffffffffffffffffffffffffff16908173ffffffffffffffffffffffffffffffffffffffff168152505084816001815181106116da576116d96149ac565b5b602002602001019073ffffffffffffffffffffffffffffffffffffffff16908173ffffffffffffffffffffffffffffffffffffffff1681525050611867565b600367ffffffffffffffff811115611734576117336142cd565b5b6040519080825280602002602001820160405280156117625781602001602082028036833780820191505090505b509050858160008151811061177a576117796149ac565b5b602002602001019073ffffffffffffffffffffffffffffffffffffffff16908173ffffffffffffffffffffffffffffffffffffffff168152505073c02aaa39b223fe8d0a0e5c4f27ead9083c756cc2816001815181106117dd576117dc6149ac565b5b602002602001019073ffffffffffffffffffffffffffffffffffffffff16908173ffffffffffffffffffffffffffffffffffffffff1681525050848160028151811061182c5761182b6149ac565b5b602002602001019073ffffffffffffffffffffffffffffffffffffffff16908173ffffffffffffffffffffffffffffffffffffffff16815250505b737a250d5630b4cf539739df2c5dacb4c659f2488d73ffffffffffffffffffffffffffffffffffffffff166338ed173985858430426040518663ffffffff1660e01b81526004016118bc959493929190614ece565b600060405180830381600087803b1580156118d657600080fd5b505af11580156118ea573d6000803e3d6000fd5b505050506040513d6000823e3d601f19601f820116820180604052508101906119139190614d72565b50505050505050565b60606040518060a001604052803373ffffffffffffffffffffffffffffffffffffffff168152602001600c600085815260200190815260200160002060000160009054906101000a900473ffffffffffffffffffffffffffffffffffffffff1673ffffffffffffffffffffffffffffffffffffffff168152602001348152602001838152602001600454815250600e6000600454815260200190815260200160002060008201518160000160006101000a81548173ffffffffffffffffffffffffffffffffffffffff021916908373ffffffffffffffffffffffffffffffffffffffff16021790555060208201518160010160006101000a81548173ffffffffffffffffffffffffffffffffffffffff021916908373ffffffffffffffffffffffffffffffffffffffff160217905550604082015181600201556060820151816003015560808201518160040155905050600454600c6000848152602001908152602001600020600b01819055507f21297d35e2f7609fd21ba966364c9c5e16c397a8ff7381fb0fcf712fff9424e4600e60006004548152602001908152602001600020604051611acd9190615003565b60405180910390a1600160046000828254611ae891906148ea565b9250508190555034600d6000600c600086815260200190815260200160002060000160009054906101000a900473ffffffffffffffffffffffffffffffffffffffff1673ffffffffffffffffffffffffffffffffffffffff1673ffffffffffffffffffffffffffffffffffffffff1681526020019081526020016000206001018190555060088054611b7990614b50565b80601f0160208091040260200160405190810160405280929190818152602001828054611ba590614b50565b8015611bf25780601f10611bc757610100808354040283529160200191611bf2565b820191906000526020600020905b815481529060010190602001808311611bd557829003601f168201915b50505050509050919050565b60008073111111111117dc0aa78b770fa6a738034120c30273ffffffffffffffffffffffffffffffffffffffff166370a08231306040518263ffffffff1660e01b8152600401611c4e919061450e565b60206040518083038186803b158015611c6657600080fd5b505afa158015611c7a573d6000803e3d6000fd5b505050506040513d601f19601f82011682018060405250810190611c9e919061488e565b90508091505090565b6000611cb8868686868660006123cd565b905095945050505050565b6060600060068054905067ffffffffffffffff811115611ce657611ce56142cd565b5b604051908082528060200260200182016040528015611d1f57816020015b611d0c6138d5565b815260200190600190039081611d045790505b50905060005b600680549050811015611eeb57600c6000600183611d4391906148ea565b8152602001908152602001600020604051806101800160405290816000820160009054906101000a900473ffffffffffffffffffffffffffffffffffffffff1673ffffffffffffffffffffffffffffffffffffffff1673ffffffffffffffffffffffffffffffffffffffff16815260200160018201548152602001600282018054611dcd90614b50565b80601f0160208091040260200160405190810160405280929190818152602001828054611df990614b50565b8015611e465780601f10611e1b57610100808354040283529160200191611e46565b820191906000526020600020905b815481529060010190602001808311611e2957829003601f168201915b5050505050815260200160038201548152602001600482015481526020016005820154815260200160068201548152602001600782015481526020016008820154815260200160098201548152602001600a820160009054906101000a900460ff16151515158152602001600b82015481525050828281518110611ecd57611ecc6149ac565b5b60200260200101819052508080611ee390614b82565b915050611d25565b508091505090565b6000611efe82613669565b604001519050919050565b60068181548110611f1957600080fd5b906000526020600020016000915090505481565b600260009054906101000a900473ffffffffffffffffffffffffffffffffffffffff1673ffffffffffffffffffffffffffffffffffffffff163373ffffffffffffffffffffffffffffffffffffffff1614611f8757600080fd5b81600f82604051611f98919061504f565b908152602001604051809103902060006101000a81548173ffffffffffffffffffffffffffffffffffffffff021916908373ffffffffffffffffffffffffffffffffffffffff1602179055505050565b6000611ff9858585856000806123cd565b9050949350505050565b600047905090565b600073ffffffffffffffffffffffffffffffffffffffff16601160003373ffffffffffffffffffffffffffffffffffffffff1673ffffffffffffffffffffffffffffffffffffffff16815260200190815260200160002060000160009054906101000a900473ffffffffffffffffffffffffffffffffffffffff1673ffffffffffffffffffffffffffffffffffffffff16146120dc576040517f08c379a00000000000000000000000000000000000000000000000000000000081526004016120d3906150b2565b60405180910390fd5b604051806060016040528060008152602001600081526020016000815250600d60003373ffffffffffffffffffffffffffffffffffffffff1673ffffffffffffffffffffffffffffffffffffffff168152602001908152602001600020600082015181600001556020820151816001015560408201518160020155905050600160055461216991906148ea565b600581905550606060405180604001604052803373ffffffffffffffffffffffffffffffffffffffff16815260200182815250601160003373ffffffffffffffffffffffffffffffffffffffff1673ffffffffffffffffffffffffffffffffffffffff16815260200190815260200160002060008201518160000160006101000a81548173ffffffffffffffffffffffffffffffffffffffff021916908373ffffffffffffffffffffffffffffffffffffffff160217905550602082015181600101908051906020019061223e92919061394e565b509050507fe98c073dd958639e8957a0d059199a9480a89cd8af94ba92e4aadd4a0c214689601160003373ffffffffffffffffffffffffffffffffffffffff1673ffffffffffffffffffffffffffffffffffffffff1681526020019081526020016000206040516122af91906151e9565b60405180910390a150565b6000603c826122c99190614e1b565b9050919050565b60006122e284848460008060006123cd565b90509392505050565b600260009054906101000a900473ffffffffffffffffffffffffffffffffffffffff1681565b60008060008060008060008054906101000a900473ffffffffffffffffffffffffffffffffffffffff1673ffffffffffffffffffffffffffffffffffffffff1663feaf968c6040518163ffffffff1660e01b815260040160a06040518083038186803b15801561238057600080fd5b505afa158015612394573d6000803e3d6000fd5b505050506040513d601f19601f820116820180604052508101906123b89190615279565b94509450945094509450839550505050505090565b6000806107b290505b8761ffff168161ffff161015612431576123ef816129d6565b1561240b576301e285008261240491906148ea565b915061241e565b6301e133808261241b91906148ea565b91505b8080612429906152f4565b9150506123d6565b61243961399b565b601f816000600c811061244f5761244e6149ac565b5b602002019060ff16908160ff1681525050612469896129d6565b1561249a57601d816001600c8110612484576124836149ac565b5b602002019060ff16908160ff16815250506124c2565b601c816001600c81106124b0576124af6149ac565b5b602002019060ff16908160ff16815250505b601f816002600c81106124d8576124d76149ac565b5b602002019060ff16908160ff1681525050601e816003600c81106124ff576124fe6149ac565b5b602002019060ff16908160ff1681525050601f816004600c8110612526576125256149ac565b5b602002019060ff16908160ff1681525050601e816005600c811061254d5761254c6149ac565b5b602002019060ff16908160ff1681525050601f816006600c8110612574576125736149ac565b5b602002019060ff16908160ff1681525050601f816007600c811061259b5761259a6149ac565b5b602002019060ff16908160ff1681525050601e816008600c81106125c2576125c16149ac565b5b602002019060ff16908160ff1681525050601f816009600c81106125e9576125e86149ac565b5b602002019060ff16908160ff1681525050601e81600a600c81106126105761260f6149ac565b5b602002019060ff16908160ff1681525050601f81600b600c8110612637576126366149ac565b5b602002019060ff16908160ff1681525050600191505b8760ff168261ffff1610156126b5578060018361266a919061531f565b61ffff16600c811061267f5761267e6149ac565b5b602002015160ff16620151806126959190615353565b836126a091906148ea565b925081806126ad906152f4565b92505061264d565b6001876126c291906153ad565b60ff16620151806126d39190615353565b836126de91906148ea565b92508560ff16610e106126f19190615353565b836126fc91906148ea565b92508460ff16603c61270e9190615353565b8361271991906148ea565b92508360ff168361272a91906148ea565b925050509695505050505050565b600080600090506000806301e13380856127529190614dea565b6107b261ffff1661276391906148ea565b91506127746107b261ffff16612af8565b6127818361ffff16612af8565b61278b9190614a3c565b9050806301e2850061279d9190615353565b836127a891906148ea565b9250806107b2836127b9919061531f565b61ffff166127c79190614a3c565b6301e133806127d69190615353565b836127e191906148ea565b92505b84831115612844576128016001836127fc919061531f565b6129d6565b1561281d576301e28500836128169190614a3c565b9250612830565b6301e133808361282d9190614a3c565b92505b60018261283d919061531f565b91506127e4565b819350505050919050565b6000600454905090565b8173ffffffffffffffffffffffffffffffffffffffff166323b872dd3330846040518463ffffffff1660e01b8152600401612896939291906153e1565b602060405180830381600087803b1580156128b057600080fd5b505af11580156128c4573d6000803e3d6000fd5b505050506040513d601f19601f820116820180604052508101906128e89190614ea1565b505050565b60008073dac17f958d2ee523a2206206994597c13d831ec773ffffffffffffffffffffffffffffffffffffffff166370a08231306040518263ffffffff1660e01b815260040161293d919061450e565b60206040518083038186803b15801561295557600080fd5b505afa158015612969573d6000803e3d6000fd5b505050506040513d601f19601f8201168201806040525081019061298d919061488e565b90508091505090565b600d6020528060005260406000206000915090508060000154908060010154908060020154905083565b60006129cb82613669565b602001519050919050565b6000806004836129e69190615418565b61ffff16146129f85760009050612a40565b6000606483612a079190615418565b61ffff1614612a195760019050612a40565b600061019083612a299190615418565b61ffff1614612a3b5760009050612a40565b600190505b919050565b6000600680549050905090565b6000612a5c612311565b905060004290506000612a6e42613669565b90506000816000015190506000826020015190506000836040015190508560098461ffff1681548110612aa457612aa36149ac565b5b906000526020600020018360ff1681548110612ac357612ac26149ac565b5b906000526020600020018260ff1681548110612ae257612ae16149ac565b5b9060005260206000200181905550505050505050565b6000600182612b079190614a3c565b915061019082612b179190614dea565b606483612b249190614dea565b600484612b319190614dea565b612b3b9190614a3c565b612b4591906148ea565b9050919050565b600060018360ff161480612b63575060038360ff16145b80612b71575060058360ff16145b80612b7f575060078360ff16145b80612b8d575060088360ff16145b80612b9b5750600a8360ff16145b80612ba95750600c8360ff16145b15612bb757601f9050612c12565b60048360ff161480612bcc575060068360ff16145b80612bda575060098360ff16145b80612be85750600b8360ff16145b15612bf657601e9050612c12565b612bff826129d6565b15612c0d57601d9050612c12565b601c90505b92915050565b8473ffffffffffffffffffffffffffffffffffffffff166323b872dd3330866040518463ffffffff1660e01b8152600401612c55939291906153e1565b602060405180830381600087803b158015612c6f57600080fd5b505af1158015612c83573d6000803e3d6000fd5b505050506040513d601f19601f82011682018060405250810190612ca79190614ea1565b508473ffffffffffffffffffffffffffffffffffffffff1663095ea7b3737a250d5630b4cf539739df2c5dacb4c659f2488d856040518363ffffffff1660e01b8152600401612cf7929190614e4c565b602060405180830381600087803b158015612d1157600080fd5b505af1158015612d25573d6000803e3d6000fd5b505050506040513d601f19601f82011682018060405250810190612d499190614ea1565b506000620186a042612d5b91906148ea565b9050606073c02aaa39b223fe8d0a0e5c4f27ead9083c756cc273ffffffffffffffffffffffffffffffffffffffff168773ffffffffffffffffffffffffffffffffffffffff161480612dec575073c02aaa39b223fe8d0a0e5c4f27ead9083c756cc273ffffffffffffffffffffffffffffffffffffffff168673ffffffffffffffffffffffffffffffffffffffff16145b15612ee057600267ffffffffffffffff811115612e0c57612e0b6142cd565b5b604051908082528060200260200182016040528015612e3a5781602001602082028036833780820191505090505b5090508681600081518110612e5257612e516149ac565b5b602002602001019073ffffffffffffffffffffffffffffffffffffffff16908173ffffffffffffffffffffffffffffffffffffffff16815250508581600181518110612ea157612ea06149ac565b5b602002602001019073ffffffffffffffffffffffffffffffffffffffff16908173ffffffffffffffffffffffffffffffffffffffff168152505061302e565b600367ffffffffffffffff811115612efb57612efa6142cd565b5b604051908082528060200260200182016040528015612f295781602001602082028036833780820191505090505b5090508681600081518110612f4157612f406149ac565b5b602002602001019073ffffffffffffffffffffffffffffffffffffffff16908173ffffffffffffffffffffffffffffffffffffffff168152505073c02aaa39b223fe8d0a0e5c4f27ead9083c756cc281600181518110612fa457612fa36149ac565b5b602002602001019073ffffffffffffffffffffffffffffffffffffffff16908173ffffffffffffffffffffffffffffffffffffffff16815250508581600281518110612ff357612ff26149ac565b5b602002602001019073ffffffffffffffffffffffffffffffffffffffff16908173ffffffffffffffffffffffffffffffffffffffff16815250505b737a250d5630b4cf539739df2c5dacb4c659f2488d73ffffffffffffffffffffffffffffffffffffffff166338ed173986868487876040518663ffffffff1660e01b8152600401613083959493929190614ece565b600060405180830381600087803b15801561309d57600080fd5b505af11580156130b1573d6000803e3d6000fd5b505050506040513d6000823e3d601f19601f820116820180604052508101906130da9190614d72565b5050505050505050565b60106020528060005260406000206000915090508060000160009054906101000a900473ffffffffffffffffffffffffffffffffffffffff16905081565b3373ffffffffffffffffffffffffffffffffffffffff16601160003373ffffffffffffffffffffffffffffffffffffffff1673ffffffffffffffffffffffffffffffffffffffff16815260200190815260200160002060000160009054906101000a900473ffffffffffffffffffffffffffffffffffffffff1673ffffffffffffffffffffffffffffffffffffffff16148061324b57503373ffffffffffffffffffffffffffffffffffffffff16601060003373ffffffffffffffffffffffffffffffffffffffff1673ffffffffffffffffffffffffffffffffffffffff16815260200190815260200160002060000160009054906101000a900473ffffffffffffffffffffffffffffffffffffffff1673ffffffffffffffffffffffffffffffffffffffff16145b61325457600080fd5b34600d60003373ffffffffffffffffffffffffffffffffffffffff1673ffffffffffffffffffffffffffffffffffffffff16815260200190815260200160002060010160008282546132a691906148ea565b925050819055507f72e8a9e162166777febe65180487a15d66a798aa00ccf3d4743743cf235fdb7b600d60003373ffffffffffffffffffffffffffffffffffffffff1673ffffffffffffffffffffffffffffffffffffffff16815260200190815260200160002060405161331a9190614b06565b60405180910390a1565b3373ffffffffffffffffffffffffffffffffffffffff16601160003373ffffffffffffffffffffffffffffffffffffffff1673ffffffffffffffffffffffffffffffffffffffff16815260200190815260200160002060000160009054906101000a900473ffffffffffffffffffffffffffffffffffffffff1673ffffffffffffffffffffffffffffffffffffffff16146133f4576040517f08c379a00000000000000000000000000000000000000000000000000000000081526004016133eb90615495565b60405180910390fd5b6000875111613438576040517f08c379a000000000000000000000000000000000000000000000000000000000815260040161342f90615501565b60405180910390fd5b6000600160035461344991906148ea565b9050600681908060018154018082558091505060019003906000526020600020016000909190919091505560006040518061018001604052803373ffffffffffffffffffffffffffffffffffffffff1681526020018381526020018a81526020018981526020016000815260200188815260200187815260200186815260200185815260200184815260200160001515815260200182815250600c600084815260200190815260200160002060008201518160000160006101000a81548173ffffffffffffffffffffffffffffffffffffffff021916908373ffffffffffffffffffffffffffffffffffffffff1602179055506020820151816001015560408201518160020190805190602001906135629291906139be565b50606082015181600301556080820151816004015560a0820151816005015560c0820151816006015560e082015181600701556101008201518160080155610120820151816009015561014082015181600a0160006101000a81548160ff02191690831515021790555061016082015181600b01559050506001600360008282546135ed91906148ea565b925050819055507fe6b4dfd5503f547fb25adabc923a21bd00987c738a60bf52e8103a790ec6d75d600c60008481526020019081526020016000206040516136359190615757565b60405180910390a1505050505050505050565b6000603c80836136589190614dea565b6136629190614e1b565b9050919050565b613671613a44565b6000808061367e85612738565b846000019061ffff16908161ffff16815250506136a06107b261ffff16612af8565b6136b1856000015161ffff16612af8565b6136bb9190614a3c565b9150816301e285006136cd9190615353565b836136d891906148ea565b9250816107b285600001516136ed919061531f565b61ffff166136fb9190614a3c565b6301e1338061370a9190615353565b8361371591906148ea565b92506000600191505b600c8260ff161161379557613737828660000151612b4c565b60ff16620151806137489190615353565b905085848261375791906148ea565b11156137745781856020019060ff16908160ff1681525050613795565b808461378091906148ea565b9350818061378d90615779565b92505061371e565b600191505b6137ac85602001518660000151612b4c565b60ff168260ff1611613809578584620151806137c891906148ea565b11156137e55781856040019060ff16908160ff1681525050613809565b62015180846137f491906148ea565b9350818061380190615779565b92505061379a565b6138128661147e565b856060019060ff16908160ff168152505061382c86613648565b856080019060ff16908160ff1681525050613846866122ba565b8560a0019060ff16908160ff1681525050613860866114ab565b8560c0019060ff16908160ff168152505050505050919050565b6040518060a00160405280600073ffffffffffffffffffffffffffffffffffffffff168152602001600073ffffffffffffffffffffffffffffffffffffffff1681526020016000815260200160008152602001600081525090565b604051806101800160405280600073ffffffffffffffffffffffffffffffffffffffff168152602001600081526020016060815260200160008152602001600081526020016000815260200160008152602001600081526020016000815260200160008152602001600015158152602001600081525090565b82805482825590600052602060002090810192821561398a579160200282015b8281111561398957825182559160200191906001019061396e565b5b5090506139979190613a97565b5090565b604051806101800160405280600c90602082028036833780820191505090505090565b8280546139ca90614b50565b90600052602060002090601f0160209004810192826139ec5760008555613a33565b82601f10613a0557805160ff1916838001178555613a33565b82800160010185558215613a33579182015b82811115613a32578251825591602001919060010190613a17565b5b509050613a409190613a97565b5090565b6040518060e00160405280600061ffff168152602001600060ff168152602001600060ff168152602001600060ff168152602001600060ff168152602001600060ff168152602001600060ff1681525090565b5b80821115613ab0576000816000905550600101613a98565b5090565b6000819050919050565b613ac781613ab4565b82525050565b6000602082019050613ae26000830184613abe565b92915050565b6000604051905090565b600080fd5b600080fd5b613b0581613ab4565b8114613b1057600080fd5b50565b600081359050613b2281613afc565b92915050565b600060208284031215613b3e57613b3d613af2565b5b6000613b4c84828501613b13565b91505092915050565b600073ffffffffffffffffffffffffffffffffffffffff82169050919050565b6000613b8082613b55565b9050919050565b613b9081613b75565b82525050565b600081519050919050565b600082825260208201905092915050565b60005b83811015613bd0578082015181840152602081019050613bb5565b83811115613bdf576000848401525b50505050565b6000601f19601f8301169050919050565b6000613c0182613b96565b613c0b8185613ba1565b9350613c1b818560208601613bb2565b613c2481613be5565b840191505092915050565b60008115159050919050565b613c4481613c2f565b82525050565b600061018082019050613c60600083018f613b87565b613c6d602083018e613abe565b8181036040830152613c7f818d613bf6565b9050613c8e606083018c613abe565b613c9b608083018b613abe565b613ca860a083018a613abe565b613cb560c0830189613abe565b613cc260e0830188613abe565b613cd0610100830187613abe565b613cde610120830186613abe565b613cec610140830185613c3b565b613cfa610160830184613abe565b9d9c50505050505050505050505050565b600081519050919050565b600082825260208201905092915050565b6000819050602082019050919050565b613d4081613b75565b82525050565b613d4f81613ab4565b82525050565b60a082016000820151613d6b6000850182613d37565b506020820151613d7e6020850182613d37565b506040820151613d916040850182613d46565b506060820151613da46060850182613d46565b506080820151613db76080850182613d46565b50505050565b6000613dc98383613d55565b60a08301905092915050565b6000602082019050919050565b6000613ded82613d0b565b613df78185613d16565b9350613e0283613d27565b8060005b83811015613e33578151613e1a8882613dbd565b9750613e2583613dd5565b925050600181019050613e06565b5085935050505092915050565b60006020820190508181036000830152613e5a8184613de2565b905092915050565b613e6b81613b75565b8114613e7657600080fd5b50565b600081359050613e8881613e62565b92915050565b600080600060608486031215613ea757613ea6613af2565b5b6000613eb586828701613e79565b9350506020613ec686828701613e79565b9250506040613ed786828701613b13565b9150509250925092565b600060ff82169050919050565b613ef781613ee1565b82525050565b6000602082019050613f126000830184613eee565b92915050565b60008060008060808587031215613f3257613f31613af2565b5b6000613f4087828801613e79565b9450506020613f5187828801613e79565b9350506040613f6287828801613b13565b9250506060613f7387828801613b13565b91505092959194509250565b60006020820190508181036000830152613f998184613bf6565b905092915050565b600061ffff82169050919050565b613fb881613fa1565b8114613fc357600080fd5b50565b600081359050613fd581613faf565b92915050565b613fe481613ee1565b8114613fef57600080fd5b50565b60008135905061400181613fdb565b92915050565b600080600080600060a0868803121561402357614022613af2565b5b600061403188828901613fc6565b955050602061404288828901613ff2565b945050604061405388828901613ff2565b935050606061406488828901613ff2565b925050608061407588828901613ff2565b9150509295509295909350565b600081519050919050565b600082825260208201905092915050565b6000819050602082019050919050565b600082825260208201905092915050565b60006140ca82613b96565b6140d481856140ae565b93506140e4818560208601613bb2565b6140ed81613be5565b840191505092915050565b61410181613c2f565b82525050565b6000610180830160008301516141206000860182613d37565b5060208301516141336020860182613d46565b506040830151848203604086015261414b82826140bf565b91505060608301516141606060860182613d46565b5060808301516141736080860182613d46565b5060a083015161418660a0860182613d46565b5060c083015161419960c0860182613d46565b5060e08301516141ac60e0860182613d46565b506101008301516141c1610100860182613d46565b506101208301516141d6610120860182613d46565b506101408301516141eb6101408601826140f8565b50610160830151614200610160860182613d46565b508091505092915050565b60006142178383614107565b905092915050565b6000602082019050919050565b600061423782614082565b614241818561408d565b9350836020820285016142538561409e565b8060005b8581101561428f5784840389528151614270858261420b565b945061427b8361421f565b925060208a01995050600181019050614257565b50829750879550505050505092915050565b600060208201905081810360008301526142bb818461422c565b905092915050565b600080fd5b600080fd5b7f4e487b7100000000000000000000000000000000000000000000000000000000600052604160045260246000fd5b61430582613be5565b810181811067ffffffffffffffff82111715614324576143236142cd565b5b80604052505050565b6000614337613ae8565b905061434382826142fc565b919050565b600067ffffffffffffffff821115614363576143626142cd565b5b61436c82613be5565b9050602081019050919050565b82818337600083830152505050565b600061439b61439684614348565b61432d565b9050828152602081018484840111156143b7576143b66142c8565b5b6143c2848285614379565b509392505050565b600082601f8301126143df576143de6142c3565b5b81356143ef848260208601614388565b91505092915050565b6000806040838503121561440f5761440e613af2565b5b600061441d85828601613e79565b925050602083013567ffffffffffffffff81111561443e5761443d613af7565b5b61444a858286016143ca565b9150509250929050565b6000806000806080858703121561446e5761446d613af2565b5b600061447c87828801613fc6565b945050602061448d87828801613ff2565b935050604061449e87828801613ff2565b92505060606144af87828801613ff2565b91505092959194509250565b6000806000606084860312156144d4576144d3613af2565b5b60006144e286828701613fc6565b93505060206144f386828701613ff2565b925050604061450486828701613ff2565b9150509250925092565b60006020820190506145236000830184613b87565b92915050565b6000819050919050565b61453c81614529565b82525050565b60006020820190506145576000830184614533565b92915050565b60008060008060008060c0878903121561457a57614579613af2565b5b600061458889828a01613fc6565b965050602061459989828a01613ff2565b95505060406145aa89828a01613ff2565b94505060606145bb89828a01613ff2565b93505060806145cc89828a01613ff2565b92505060a06145dd89828a01613ff2565b9150509295509295509295565b6145f381613fa1565b82525050565b600060208201905061460e60008301846145ea565b92915050565b6000806040838503121561462b5761462a613af2565b5b600061463985828601613e79565b925050602061464a85828601613b13565b9150509250929050565b60006020828403121561466a57614669613af2565b5b600061467884828501613e79565b91505092915050565b60006060820190506146966000830186613abe565b6146a36020830185613abe565b6146b06040830184613abe565b949350505050565b6000602082840312156146ce576146cd613af2565b5b60006146dc84828501613fc6565b91505092915050565b60006020820190506146fa6000830184613c3b565b92915050565b6000806040838503121561471757614716613af2565b5b600061472585828601613ff2565b925050602061473685828601613fc6565b9150509250929050565b600080600080600060a0868803121561475c5761475b613af2565b5b600061476a88828901613e79565b955050602061477b88828901613e79565b945050604061478c88828901613b13565b935050606061479d88828901613b13565b92505060806147ae88828901613e79565b9150509295509295909350565b600080600080600080600060e0888a0312156147da576147d9613af2565b5b600088013567ffffffffffffffff8111156147f8576147f7613af7565b5b6148048a828b016143ca565b97505060206148158a828b01613b13565b96505060406148268a828b01613b13565b95505060606148378a828b01613b13565b94505060806148488a828b01613b13565b93505060a06148598a828b01613b13565b92505060c061486a8a828b01613b13565b91505092959891949750929550565b60008151905061488881613afc565b92915050565b6000602082840312156148a4576148a3613af2565b5b60006148b284828501614879565b91505092915050565b7f4e487b7100000000000000000000000000000000000000000000000000000000600052601160045260246000fd5b60006148f582613ab4565b915061490083613ab4565b9250827fffffffffffffffffffffffffffffffffffffffffffffffffffffffffffffffff03821115614935576149346148bb565b5b828201905092915050565b600081905092915050565b7f5745544800000000000000000000000000000000000000000000000000000000600082015250565b6000614981600483614940565b915061498c8261494b565b600482019050919050565b60006149a282614974565b9150819050919050565b7f4e487b7100000000000000000000000000000000000000000000000000000000600052603260045260246000fd5b7f5553445400000000000000000000000000000000000000000000000000000000600082015250565b6000614a11600483614940565b9150614a1c826149db565b600482019050919050565b6000614a3282614a04565b9150819050919050565b6000614a4782613ab4565b9150614a5283613ab4565b925082821015614a6557614a646148bb565b5b828203905092915050565b60008160001c9050919050565b6000819050919050565b6000614a9a614a9583614a70565b614a7d565b9050919050565b606082016000808301549050614ab681614a87565b614ac36000860182613d46565b5060018301549050614ad481614a87565b614ae16020860182613d46565b5060028301549050614af281614a87565b614aff6040860182613d46565b5050505050565b6000606082019050614b1b6000830184614aa1565b92915050565b7f4e487b7100000000000000000000000000000000000000000000000000000000600052602260045260246000fd5b60006002820490506001821680614b6857607f821691505b60208210811415614b7c57614b7b614b21565b5b50919050565b6000614b8d82613ab4565b91507fffffffffffffffffffffffffffffffffffffffffffffffffffffffffffffffff821415614bc057614bbf6148bb565b5b600182019050919050565b600081519050919050565b600082825260208201905092915050565b6000819050602082019050919050565b6000614c038383613d37565b60208301905092915050565b6000602082019050919050565b6000614c2782614bcb565b614c318185614bd6565b9350614c3c83614be7565b8060005b83811015614c6d578151614c548882614bf7565b9750614c5f83614c0f565b925050600181019050614c40565b5085935050505092915050565b6000604082019050614c8f6000830185613abe565b8181036020830152614ca18184614c1c565b90509392505050565b600067ffffffffffffffff821115614cc557614cc46142cd565b5b602082029050602081019050919050565b600080fd5b6000614cee614ce984614caa565b61432d565b90508083825260208201905060208402830185811115614d1157614d10614cd6565b5b835b81811015614d3a5780614d268882614879565b845260208401935050602081019050614d13565b5050509392505050565b600082601f830112614d5957614d586142c3565b5b8151614d69848260208601614cdb565b91505092915050565b600060208284031215614d8857614d87613af2565b5b600082015167ffffffffffffffff811115614da657614da5613af7565b5b614db284828501614d44565b91505092915050565b7f4e487b7100000000000000000000000000000000000000000000000000000000600052601260045260246000fd5b6000614df582613ab4565b9150614e0083613ab4565b925082614e1057614e0f614dbb565b5b828204905092915050565b6000614e2682613ab4565b9150614e3183613ab4565b925082614e4157614e40614dbb565b5b828206905092915050565b6000604082019050614e616000830185613b87565b614e6e6020830184613abe565b9392505050565b614e7e81613c2f565b8114614e8957600080fd5b50565b600081519050614e9b81614e75565b92915050565b600060208284031215614eb757614eb6613af2565b5b6000614ec584828501614e8c565b91505092915050565b600060a082019050614ee36000830188613abe565b614ef06020830187613abe565b8181036040830152614f028186614c1c565b9050614f116060830185613b87565b614f1e6080830184613abe565b9695505050505050565b600073ffffffffffffffffffffffffffffffffffffffff82169050919050565b6000614f5b614f5683614a70565b614f28565b9050919050565b60a082016000808301549050614f7781614f48565b614f846000860182613d37565b5060018301549050614f9581614f48565b614fa26020860182613d37565b5060028301549050614fb381614a87565b614fc06040860182613d46565b5060038301549050614fd181614a87565b614fde6060860182613d46565b5060048301549050614fef81614a87565b614ffc6080860182613d46565b5050505050565b600060a0820190506150186000830184614f62565b92915050565b600061502982613b96565b6150338185614940565b9350615043818560208601613bb2565b80840191505092915050565b600061505b828461501e565b915081905092915050565b7f416c7265616479205369676e656420696e206173204973737565722100000000600082015250565b600061509c601c83613ba1565b91506150a782615066565b602082019050919050565b600060208201905081810360008301526150cb8161508f565b9050919050565b600081549050919050565b600082825260208201905092915050565b60008190508160005260206000209050919050565b600061510f8383613d46565b60208301905092915050565b60006151278254614a87565b9050919050565b6000600182019050919050565b6000615146826150d2565b61515081856150dd565b935061515b836150ee565b8060005b83811015615193576151708261511b565b61517a8882615103565b97506151858361512e565b92505060018101905061515f565b5085935050505092915050565b60006040830160008084015490506151b781614f48565b6151c46000870182613d37565b506001840185830360208701526151db838261513b565b925050819250505092915050565b6000602082019050818103600083015261520381846151a0565b905092915050565b600069ffffffffffffffffffff82169050919050565b61522a8161520b565b811461523557600080fd5b50565b60008151905061524781615221565b92915050565b61525681614529565b811461526157600080fd5b50565b6000815190506152738161524d565b92915050565b600080600080600060a0868803121561529557615294613af2565b5b60006152a388828901615238565b95505060206152b488828901615264565b94505060406152c588828901614879565b93505060606152d688828901614879565b92505060806152e788828901615238565b9150509295509295909350565b60006152ff82613fa1565b915061ffff821415615314576153136148bb565b5b600182019050919050565b600061532a82613fa1565b915061533583613fa1565b925082821015615348576153476148bb565b5b828203905092915050565b600061535e82613ab4565b915061536983613ab4565b9250817fffffffffffffffffffffffffffffffffffffffffffffffffffffffffffffffff04831182151516156153a2576153a16148bb565b5b828202905092915050565b60006153b882613ee1565b91506153c383613ee1565b9250828210156153d6576153d56148bb565b5b828203905092915050565b60006060820190506153f66000830186613b87565b6154036020830185613b87565b6154106040830184613abe565b949350505050565b600061542382613fa1565b915061542e83613fa1565b92508261543e5761543d614dbb565b5b828206905092915050565b7f506c65617365205369676e20496e206173204973737565720000000000000000600082015250565b600061547f601883613ba1565b915061548a82615449565b602082019050919050565b600060208201905081810360008301526154ae81615472565b9050919050565b7f6e616d652063616e6e6f7420626576616c20656d707479000000000000000000600082015250565b60006154eb601783613ba1565b91506154f6826154b5565b602082019050919050565b6000602082019050818103600083015261551a816154de565b9050919050565b60008190508160005260206000209050919050565b6000815461554381614b50565b61554d81866140ae565b94506001821660008114615568576001811461557a576155ad565b60ff19831686526020860193506155ad565b61558385615521565b60005b838110156155a557815481890152600182019150602081019050615586565b808801955050505b50505092915050565b600060ff82169050919050565b60006155d66155d183614a70565b6155b6565b9050919050565b6000610180830160008084015490506155f581614f48565b6156026000870182613d37565b506001840154905061561381614a87565b6156206020870182613d46565b506002840185830360408701526156378382615536565b9250506003840154905061564a81614a87565b6156576060870182613d46565b506004840154905061566881614a87565b6156756080870182613d46565b506005840154905061568681614a87565b61569360a0870182613d46565b50600684015490506156a481614a87565b6156b160c0870182613d46565b50600784015490506156c281614a87565b6156cf60e0870182613d46565b50600884015490506156e081614a87565b6156ee610100870182613d46565b50600984015490506156ff81614a87565b61570d610120870182613d46565b50600a840154905061571e816155c3565b61572c6101408701826140f8565b50600b840154905061573d81614a87565b61574b610160870182613d46565b50819250505092915050565b6000602082019050818103600083015261577181846155dd565b905092915050565b600061578482613ee1565b915060ff821415615798576157976148bb565b5b60018201905091905056fea2646970667358221220419c70d69aaac5c910c132011978c7cd9b6e4630b23f637d826320fd608437ed64736f6c63430008090033",
  "immutableReferences": {},
  "source": "pragma solidity 0.8.9;\n\nimport \"./TradeCenter.sol\";\n//import \"@openzeppelin/contracts/token/ERC20/extensions/ERC20Wrapper.sol\";\n\nimport \"./ERC20.sol\";\nimport \"./DateTime.sol\";\n\ninterface _ERC20{\n  function deposit() external payable;\n  function withdraw(uint256 amount) external;\n  function name() external returns (string memory);\n  \n}\n\ncontract YieldOfferings is TradeCenter, DateTime {\n   \n_ERC20 weth;  \naddress public owner = msg.sender; // contract owner\n // will be used in logic\nuint offeringCount = 0; // keep track of all number\nuint contractCount=0;\nuint walletCount=0;\nuint[] public offeringIDList; // all ids list\naddress[] walletOwners;\nstring aloo = \"Bought!\";\nint[][][] EthPriceLog;\n//address WETH = 0xC02aaA39b223FE8D0A0e5C4F27eAD9083C756Cc2;\n\n//mapping (address=> bool) public hasWallet;\n\n//hasWallet[key] \n\n\n\nuint price= 2400;\nuint ethusdt0= 2300;\n\nmapping (uint => offering) public Offerings; //mapping offerings to ids\nmapping (address => wallet) public walletMap;\nmapping(uint => offeringContract) ContractMap;\nmapping (string => address) CoinMap;\n//mapping (_DateTime => int ) EthPriceLog;\n\nstruct wallet {\nuint usdt;\nuint eth;\nuint weth;\n//uint ONEINCH;\n//uint WETH;\n}\n\nstruct buyer {\n    address buyerAddress;\n\n    offering[] offerings;\n    uint[] ContractsIds;\n    uint[] offeringIDList;\n}\n\nstruct issuer {\n    address issuerAddress;\n    //uint256 balance;\n    //uint256 accountPayable;\n    uint[] offeringsList;\n    //uint WalletID;\n    //uint[] ContractsIds;\n    //bool hasWallet;\n}\n\nmapping (address => issuer) public BuyersMap;\nmapping (address => issuer) internal IssuersMap;\n\n\n\nstruct offeringContract{\n    address buyer;\n    address issuer;\n    uint amount;\n    uint offeringID;\n    uint contractID;\n}\n\nstruct offering{\n    address issuer;\n    uint ID;\n    string name;\n    uint Nb_fixings;\n    uint fixing_counter;\n    uint high_coupon;\n    uint high_coupon_barrier;\n    uint smaller_coupon;\n    uint Upoutbarrier;\n    uint di_barrier;\n    bool Di_barrier_activated;\n    uint contractID;\n}\n\n\nevent logAddedOffering(offering);\nevent getContract (offeringContract);\nevent getIssuer (issuer);\nevent getWalletInfo(wallet);\n// function to add a new offering \n\nconstructor () public {\n\n    weth = _ERC20 (WETH);\n}\n\nfunction SignInIssuer () public  {\nrequire(IssuersMap[msg.sender].issuerAddress==0x0000000000000000000000000000000000000000, \"Already Signed in as Issuer!\" );\n/*struct issuer {\n    address issuerAddress;\n    offering[] offerings;\n    uint[] ContractsIds;\n}*/\nwalletMap[msg.sender] = wallet (\n0,\n0,\n0\n);\nwalletCount = walletCount+1;\n\nuint[] memory offeringEmptyList;\nIssuersMap[msg.sender] = issuer(\nmsg.sender,\nofferingEmptyList\n);\n\n\n\nemit getIssuer(IssuersMap[msg.sender]);\n\n}\n\nfunction supportCoin(address CoinAddress, string memory CoinName) public {\nrequire(msg.sender == owner);\nCoinMap[CoinName] = CoinAddress;\n\n\n}\n\n\n\nfunction addOffering(\n    string memory _name,\n    uint _Nb_fixings,\n    uint _high_coupon,\n    uint _high_coupon_barrier,\n    uint _smaller_coupon,\n    uint _Upoutbarrier,\n    uint _di_barrier\n    \n   ) public{\n    require(IssuersMap[msg.sender].issuerAddress==msg.sender, \"Please Sign In as Issuer\" );\n    require(bytes(_name).length>0, \"name cannot beval empty\");\n    //require(IssuersMap[msg.sender].issuerAddress, msg.sender);\n\n    uint newID= offeringCount + 1;\n    //offeringContract[] storage emptyList;\n    //newCampaign.deadline= block.timestamp + (_duration * 1 days);\n    offeringIDList.push(newID);\n    uint  contractID;\n    Offerings[newID] = offering(msg.sender, \n     newID, \n     _name,\n     _Nb_fixings,\n     0,\n     _high_coupon,\n     _high_coupon_barrier,\n     _smaller_coupon,\n     _Upoutbarrier,\n     _di_barrier,\n      false,\n    contractID);\n    \n    offeringCount+= 1;\n\n    /*bool ownsWallet= false;\n    for (uint i=0; i< walletOwners.length; i++){\n        if (walletOwners[i] == msg.sender)\n        ownsWallet= true;\n        break;\n    }\n\n    if (ownsWallet== false){\n        walletMap[msg.sender]= wallet(0,0);\n        walletCount +=1;\n    }*/\n\n    //emit logAddedOffering(Offerings[newID].ID, Offerings[newID].name, Offerings[newID].issuer);\n    emit logAddedOffering(Offerings[newID]);\n}\n\n\n    \n/////// BUY BACK PART /////////\n// how will we know the agreed on price?\n// how will the issuer fail to pay a coupon?\n\n/*function checkPayables(uint256 id) public returns(uint){\n    uint buyerGets;\n    Offerings[ContractMap[id].offeringID].fixing_counter+=1;\n    if (price< (Offerings[ContractMap[id].offeringID].di_barrier* ethusdt0)){\n    Offerings[ContractMap[id].offeringID].Di_barrier_activated=true;\n    }\n\n\n    // if not last fixing\n    if (Offerings[ContractMap[id].offeringID].fixing_counter< Offerings[ContractMap[id].offeringID].Nb_fixings){\n        if(price > Offerings[ContractMap[id].offeringID].Upoutbarrier*ethusdt0){\n            // send amount X to buyer+ high_coupon X\n            buyerGets= ContractMap[id].amount + (Offerings[ContractMap[id].offeringID].high_coupon*ContractMap[id].amount);\n        }\n        else if (price> Offerings[ContractMap[id].offeringID].high_coupon_barrier*ethusdt0){\n            // send buyer hight_couponX\n            buyerGets= Offerings[ContractMap[id].offeringID].high_coupon*ContractMap[id].amount;\n\n        }\n        else if (Offerings[ContractMap[id].offeringID].Di_barrier_activated== false){\n            //buyer get smaller_couponX\n            buyerGets= ContractMap[id].amount + Offerings[ContractMap[id].offeringID].smaller_coupon * ContractMap[id].amount;\n\n        }\n        else {\n            // buyer gets nothing\n            buyerGets=0;\n        }\n    }\n\n    else{\n        \n        if (price> Offerings[ContractMap[id].offeringID].high_coupon_barrier*ethusdt0){\n            // send buyer hight_couponX + X (what is this amount?)\n            buyerGets= ContractMap[id].amount + (Offerings[ContractMap[id].offeringID].high_coupon*ContractMap[id].amount);\n  \n        }\n        else if(Offerings[ContractMap[id].offeringID].Di_barrier_activated= false){\n            \n            //buyer gets lower_coupon*X+X\n            \n            buyerGets= ContractMap[id].amount + (Offerings[ContractMap[id].offeringID].smaller_coupon *ContractMap[id].amount);\n\n            \n        \n        }\n        else {\n            //X= getamount(id,)\n            buyerGets= (ContractMap[id].amount/Offerings[ContractMap[id].offeringID].high_coupon_barrier)/ ethusdt0;    \n        }\n        \n    }\n\n\n}*/\n\n\nfunction offeringsLoader(offering[] memory offeringList, uint usdtPrice) internal {\n\n\nfor (uint i = 0 ; i< offeringList.length ; i++)\n{\nhandleFixing(offeringList[i], usdtPrice);\n}\n\n\n\n}\n\n\n\n\nfunction handleFixing (offering memory Offering, uint usdtPrice) internal {\n\n\nuint  contractID = Offering.contractID;\n\n  if (usdtPrice < (Offering.di_barrier* ethusdt0)){\n    Offering.Di_barrier_activated=true;\n    }\n\n\nif(usdtPrice > Offering.Upoutbarrier*ethusdt0){\n\n            \n                uint buyerGets = ContractMap[contractID].amount + Offering.high_coupon*ContractMap[contractID].amount;\n                EndContract( contractID );\n\n        }\n\n\n\n\n}\n\nfunction EndContract ( uint contractID) internal{\n\ndelete ContractMap[contractID];\n\n}\n\n\nfunction depositToWallet () public payable {\nrequire(IssuersMap[msg.sender].issuerAddress==msg.sender || BuyersMap[msg.sender].issuerAddress==msg.sender);\n\nwalletMap[msg.sender].eth += msg.value;\n\nemit getWalletInfo(walletMap[msg.sender]);\n\n}\n\nfunction swapETHFromBuiltInWallet (uint amount)public {\n\nrequire(walletMap[msg.sender].eth >= amount);\nuint deadline = block.timestamp + 100;\n    address[] memory path = new address[](2);\n    path[0] = CoinMap[\"WETH\"];\n    path[1] = CoinMap[\"USDT\"];\n\n//WETH.call{value : amount}(\"\");\nweth.deposit{value : amount}();\nwalletMap[msg.sender]. weth += amount;\nwalletMap[msg.sender] .eth -= amount;\n//IUniswapV2Router(UNISWAP_V2_ROUTER).swapExactETHForTokens {value : amount} (0,path,address(this),deadline);\nemit getWalletInfo(walletMap[msg.sender]);\n\n}\n\n\n\nfunction buyOffering(uint _id) public payable returns(string memory) {\n\n/*struct offeringContract{\n    address buy\n    address issuer;\n    uint amount;\n    uint offeringID;\n    uint contractID;\n}*/\n\n\n\nContractMap[contractCount] = offeringContract(\n    msg.sender,\n    Offerings[_id].issuer,\n    msg.value,\n    _id,\n    contractCount\n);\nOfferings[_id]. contractID = contractCount;\n//emit getContract(ContractMap[contractCount].buyer,ContractMap[contractCount].issuer,ContractMap[contractCount].amount,ContractMap[contractCount].offeringID,ContractMap[contractCount].contractID);\nemit getContract(ContractMap[contractCount]);\ncontractCount+=1;\n\nwalletMap [Offerings[_id].issuer] . eth = msg.value ;\n\n\n//emit getWalletInfo (walletMap [Offerings[_id].issuer]);\n//Offerings[_id]. contractList . append()\n\nreturn aloo;\n\n}\n/*\nfunction checkCustody(address _issuer, uint tbs) public returns(bool){\n    bool isAllowed= false;\n    uint256 issuerBalance= _issuer.balance;\n    //check all linked offerings to issuer\n\n}*/\n\n\n\n\nfunction getCount() public view returns(uint count) {\n    return offeringIDList.length;\n}\n\nfunction getContractCount() public view returns (uint count){\n\nreturn contractCount;\n\n}\n\nfunction getContractETH () public view returns (uint){\n\nreturn address(this).balance;\n    \n}\n\nfunction getOfferings () public view returns (offering[] memory){\n\noffering[] memory toReturn= new offering[](offeringIDList.length) ;\n\nfor (uint i = 0 ; i< offeringIDList.length ; i++){\n\ntoReturn [i] = Offerings[i+1];\n\n}\n\nreturn  toReturn; //mapping offerings to ids\n\n}\n\n\nfunction getAllContracts() public view returns (offeringContract[] memory){\n\nofferingContract[] memory toReturn= new offeringContract[](contractCount) ;\n\nfor (uint i = 0 ; i< contractCount ; i++){\n\ntoReturn [i] = ContractMap[i];\n\n}\n\nreturn  toReturn; //mapping offerings to ids\n\n\n}\n\n\nfunction getDayFromTimeStamp() public view returns (uint8) {\n\n\nreturn parseTimestamp(block.timestamp).day;\n\n\n}\n\nfunction fillPriceLog () public {\n\nint price = getLatestPrice();\nuint timeStamp = block.timestamp;\n_DateTime memory key = parseTimestamp(block.timestamp);\n\nuint16 year =  key.year;\nuint8 month =  key.month;\nuint8 day =  key.day;\n\n\nEthPriceLog [year][month][day] = price;\n  }\n\n\n\n\n// contract's brace\n}\n\n\n",
  "sourcePath": "D:\\projects\\Bounty_1_truffle\\contracts\\YieldOfferings.sol",
  "compiler": {
    "name": "solc",
    "version": "0.8.9+commit.e5eed63a.Emscripten.clang"
  },
  "schemaVersion": "3.4.5",
  "updatedAt": "2022-02-27T14:35:28.045Z",
  "devdoc": {
    "kind": "dev",
    "methods": {},
    "version": 1
  },
  "userdoc": {
    "kind": "user",
    "methods": {
      "getLatestPrice()": {
        "notice": "Returns the latest price"
      }
    },
    "version": 1
  }
}